:020000040802F0
:1000000060C60120AD010208FF3C0208912D0208E4
:10001000E93C0208BB0102084F650208000000002D
:100020000000000000000000000000008D4A0208EF
:10003000091B020800000000793F0208AD4C0208CD
:1000400091650208C7010208C7010208C70102083A
:10005000C7010208C7010208C7010208C701020858
:10006000C7010208C7010208C7010208C701020848
:10007000C7010208C7010208C7010208C701020838
:10008000C7010208C7010208C7010208C701020828
:10009000C7010208C7010208C7010208C701020818
:1000A000C7010208C7010208C7010208C701020808
:1000B000C7010208C7010208C7010208C7010208F8
:1000C000C7010208C7010208C7010208C7010208E8
:1000D000C7010208FD4E0208C7010208654F020869
:1000E000C7010208C7010208C7010208C7010208C8
:1000F000C7010208C7010208C7010208C7010208B8
:10010000C701020841470208C7010208C7010208E7
:10011000C7010208C7010208C7010208C701020897
:10012000C7010208C7010208C70102080D19020829
:10013000C7010208C7010208C7010208C701020877
:10014000C7010208C7010208C7010208A93D020849
:10015000C7010208C7010208C7010208E14F0208EF
:10016000C7010208C7010208C7010208C701020847
:10017000C7010208C7010208C7010208C701020837
:10018000C7010208C7010208DFF80CD000F090FC9C
:10019000004800479DC2020860C6012030BF72B609
:1001A000704762B6704780F30888704706488047FA
:1001B00006480047FEE7FEE7FEE7FEE7FEE7FEE74C
:1001C000FEE7FEE7FEE7FEE7154D0208890102089B
:1001D0002DE9F05F0546002092469B46884606467C
:1001E000814640241BE0284641464746224600F00F
:1001F00038FA53465A46C01A914110D31146184650
:10020000224600F01FFA2D1A67EB01084F462246DE
:100210000120002100F016FA17EB00094E41201EC4
:10022000A4F10104DFDC484631462A464346BDE8D6
:10023000F09F2DE9F0410024061B254671F10006D0
:1002400005DA01240027D0EB070067EB0101161E39
:1002500073F1000605DA0027D2EB0702012567EBF0
:100260000303FFF7B5FF86460E4617469C46AC4291
:1002700004D00025D0EB050E65EB010624B100206B
:10028000D2EB000760EB030C704631463A466346FA
:10029000BDE8F08140EA01039B0703D009E008C9EB
:1002A000121F08C0042AFAD203E011F8013B00F83B
:1002B000013B521EF9D27047D2B201E000F8012B87
:1002C000491EFBD270470022F6E710B513460A46D6
:1002D00004461946FFF7F0FF204610BD30B505462D
:1002E0002A460B4612F8010B13F8014B08B1A04245
:1002F000F8D01CB1002802D06D1CF1E7284630BDB3
:1003000010B5044604E00B7800F8013B03B1491C2A
:10031000521EF8D2204610BD421C10F8011B0029C5
:10032000FBD1801A7047034611F8012B00F8012B0E
:10033000002AF9D1184670472DE9F04791460F463B
:1003400080460446002614F8015B2DB100F09AF9AE
:100350000068405DC007F6D12B2D02D02D2D18D09E
:10036000641E4A463946204600F099F927B139689B
:10037000A14201D1C7F8008071054FF002040BD5EE
:100380004042002803DD06F0ADF90460A007BDE897
:10039000F08746F48066E4E70028F8DA06F0A2F970
:1003A00004606FF00040F2E770B5064606F09AF977
:1003B000046805460A2200213046FFF7BDFF2C6085
:1003C00070BD70B5064606F08DF9046805460A2230
:1003D00000213046FFF7B0FF2C6070BD2DE9FE4FC5
:1003E00081EA030404F0004421F0004100944FF03E
:1003F000000B23F0004350EA01045ED052EA0304EC
:100400005BD0C3F30A54C1F30A552C44A4F2F3346D
:100410000194A0FB0254C1F3130141F48011C3F312
:10042000130343F4801301FB024400FB034E840AD0
:10043000970A44EA815447EA8357A4FB0768029568
:100440008D0A05FB07854FEA932C04FB0C54270506
:10045000029D4FEA065847EA1637B5EB08056EEBE2
:10046000070C870E920E47EA811742EA8312A7FB18
:100470000201B6EB0B0164EB00042B0D43EA0C33D5
:100480005E1844EB1C50DA465146E7FB0201C5F307
:1004900013044FEA0B3343EA14534FEA0432019C2E
:1004A00043EA0603A4F10C040294009CCDE900B4D5
:1004B00000F0D8F903B0BDE8F08F00200146F9E75D
:1004C0002DE9F04D81EA030404F0004B21F00045D2
:1004D00014464FF0000A23F0004150EA050220D0F4
:1004E00054EA01021DD0C5F30A570246C5F31303AF
:1004F000C1F31300C1F30A5640F4801543F480138E
:10050000A7EB0608101BD64608F2FD3873EB050072
:1005100002D308F1010801E092185B41B8F1000F25
:1005200003DA00200146BDE8F08D00204FF4801171
:10053000064684460EE0171B73EB050705D3121B16
:1005400063EB050306434CEA010C49084FEA30000F
:1005500092185B4150EA0107EDD152EA030012D034
:1005600082EA040083EA0501084305D0101BAB4171
:1005700006D20122002306E000224FF0004302E0F1
:100580006FF0010253101AEB06004CEB085110EB10
:100590000A0041EB0B01BDE8F04D00F054B930B456
:1005A000044696230800214604D0B62330BC00221E
:1005B00000F01BB920460021F8E700F0004230F0BF
:1005C00000400AD0C10D01F56071C0F3160042EA87
:1005D0000151C2084007114370470020014670478F
:1005E00001F0004330B421F0004150EA010206D08E
:1005F0000A0DA2F56072C1F31301002A02DC30BCBF
:1006000000207047440F44EAC104C100E01830BC28
:1006100000EBC25000F0E0B830B50B4601460020B8
:100620002022012409E021FA02F59D4205D303FAB4
:1006300002F5491B04FA02F52844151EA2F1010235
:10064000F1DC30BD202A04DB203A00FA02F1002060
:1006500070479140C2F1200320FA03F31943904000
:100660007047202A04DB203A21FA02F0002170476B
:1006700021FA02F3D040C2F120029140084319460A
:100680007047000000487047849B050810B5044679
:10069000FFF7F8FF0068005D00F0010010BD2DE9D4
:1006A000F05F82460078002715468B460AF1010468
:1006B000B946302801D09DB113E014F8010B012791
:1006C000782803D0582801D045B10AE00DB1102D8B
:1006D00007D10027102514F8010B02E0082500E0DF
:1006E0000A250026B0460EE005FB080005FB06F1D2
:1006F000012701EB10461FFA80F8B6F5803F00D3C2
:10070000B94614F8010B294600F0F6F90028EBDA97
:10071000BBF1000F05D00FB1641E00E05446CBF8CA
:100720000040B9F1000F06D005F0DCFF02210160A6
:10073000C81EBDE8F09F48EA0640FAE70FB4002360
:1007400000B589B00CA900910B996FF00042CB6005
:100750001E4B06931E4B07930423CDE901321D4A1D
:10076000089202466B46002000F068FA09B05DF876
:1007700014FB70B586B006464FF0FF300091CDE90E
:100780000101002015460C4604903246694604A833
:10079000FFF7D4FF02460498211825B108B1084696
:1007A00000E020462860049800280DD0002A02DDD1
:1007B0000098884208D0081B0094CDE90104324615
:1007C000694604A8FFF7BAFF06B070BD750E0208AF
:1007D000930E02088D0602080029A8BF7047401C2E
:1007E000490008BF20F00100704710B4B0FA80FC47
:1007F00000FA0CF050EA010404BF10BC704749B184
:10080000CCF1200421FA04F411FA0CF118BF0121F3
:1008100021430843A3EB0C01CB1D4FEA00614FEAD3
:10082000102042BF002010BC704700EBC3501044A2
:100830000029A4BF10BC7047401C490008BF20F02D
:10084000010010BC704710B5141E73F1000408DAE3
:10085000401C41F1000192185B411A4301D120F084
:10086000010010BD2DE9F04D92469B4611B1B1FA41
:1008700081F202E0B0FA80F220329046FFF7E2FE09
:1008800004460F4640EA0A0041EA0B0153465A4625
:10089000084313D0114653EA010019D0C8F14002B1
:1008A0005046FFF7DEFE05460E4650465946424684
:1008B000FFF7C8FE084305D0012004E02046394672
:1008C000BDE8F08D0020054346EAE0762C4337432F
:1008D0000A986305E40AA0EB08000022FD0A44EA36
:1008E00047540A3002D500200146E9E701051019F6
:1008F0006941DDE9084500196941BDE8F04DA2E70D
:100900002DE9FE4F804681EA0300C00F0C4600909F
:1009100021F0004123F00045B8EB0200A94105D2C7
:100920004046214690461C460B46024623F00040B6
:10093000104347D0270DC7F30A00C3F30A510290B2
:10094000401A019040286BDAC3F3130040F4801B77
:100950000098924620B10023D2EB030A63EB0B0B05
:1009600001985946C0F140025046FFF76BFE06461B
:100970000D4650465946019A00F0ACF810EB0800BD
:100980006141002487EA115284EAE7731A4340D098
:10099000009A62B3019A012A4FEA075215DC001B44
:1009A00061EB02014FF0004202EA0752CDE900423A
:1009B000001C41F5801132462B46FFF753FF03B070
:1009C000BDE8F08F40462146F9E7001B61EB0201CC
:1009D000001C41F5801300185B412018A2F5001798
:1009E00047EB030140EAD570B6196D4111E06D087F
:1009F0004FEA360645EAC0754FEA0752001B61EB25
:100A00000201001C41F5801149084FEA300000192D
:100A1000514132462B4603B0BDE8F04FFFF713BFFC
:100A20000098012240000023D0EB020263EBE07348
:100A3000009821464FEAE074B8EB000061EB040136
:100A4000E9E783F000435BE781F0004158E7C1F339
:100A50000A52C1F3130140F2FF3341F480119A426C
:100A600002DA00200146704740F233439A42A2F274
:100A7000334202DC5242FFF7F4BDFFF7E3BD000052
:100A800030B5041E71F1000404DB4FF00044404215
:100A900064EB0101141E73F1000405DB1C464FF0EA
:100AA0000043524263EB0403994208BF904230BDB9
:100AB000064C074D06E0E06840F0010394E80700AB
:100AC00098471034AC42F6D3FFF762FB009E05084E
:100AD000209E0508202A06DBCB17203A41FA02F0B7
:100AE00043EAE07306E041FA02F3D040C2F120028B
:100AF00091400843194670473A2800D2303820F018
:100B00002002412A01D3A2F13700884201D34FF0DD
:100B1000FF3070472DE9FF4F087883B09946FF28D2
:100B200005D0491C2D2804D00024002008E0002016
:100B30000BE00124F9E700EB800003EB4000491CC7
:100B40000B78FF2BF7D104B14042002302931478B5
:100B500019461D462D2C01D02B2C04D1521C2D2CB6
:100B600013D000240294AA461478FF2C0FD00A2533
:100B7000A3FB057801FB05814FF0000C03FB0C1172
:100B8000521CE3194AEB0101EEE70124EAE7814434
:100B900053EA010002D019F5C87F06DA0398002154
:100BA000C0E9001107B0BDE8F08F0025AE4E2F461A
:100BB000DFF8B882184600F07DF9CDE90001B9F1FF
:100BC000000002DAC9F1000400E004460023A74A4D
:100BD0001AEB030B42EB045A12E0E00707D02A4657
:100BE000334638464146FFF7F9FB074688462A4612
:100BF000334610461946FFF7F1FB05460E466410D2
:100C0000002CEAD1DDE90001B9F1000F5A46534644
:100C100006DAFFF755FC3A464346FFF751FC05E07C
:100C2000FFF7DCFB3A464346FFF7D8FB029A0AB1CE
:100C300081F00041039AC2E90001B3E72DE9FF4FBB
:100C40001F468DB0D7E901464FF0FF382E204546AC
:100C50004FF000090B90B9696D1C0E988847396AEE
:100C6000824688470028F6D1BAF1FF3F0AD024F423
:100C7000D064002E11DDBAF12B0F08D0BAF12D0F80
:100C80000BD102E0404611B08DE744F48064B969AD
:100C90006D1C0E9888478246761E6946600501D510
:100CA0002D2000E02B208DF8000001F1010B0DF14B
:100CB000200809E0B9696D1C0E98884782460F9894
:100CC00044F40074761E0560002E02DDBAF1300F88
:100CD000F0D00B998A453ED144F0800406E00F998C
:100CE000681CA9F1010944F400740860B9696D1C1D
:100CF000761E0E98884782463028F0D02BE00B995C
:100D00008A4505D1200603D444F08004761E18E0FD
:100D1000504605F0E7FD08B30DF11301761E44F4CB
:100D200000748B4508D2AAF130000BF8010B2006A5
:100D300007D5A9F1010003E0200602D409F1010062
:100D40008146A00502D50F99681C0860B9696D1C21
:100D50000E9888478246002ED1DC53E0002E51DDEC
:100D6000BAF1650F02D0BAF1450F4BD1A00549D5B4
:100D7000B9696D1C24F44074761E0E98884782462B
:100D8000002E0CDD2B2804D0BAF12D0F07D144F42E
:100D90008074B9696D1C0E9888478246761EE005FE
:100DA00001D52D2100E02B2108F8011BCDF82C8066
:100DB00021E00DF12901761E44F4007488450CD21F
:100DC000AAF1300010F0FF0088F8000002D10B9962
:100DD000884509D908F1010806E0E00501D5244855
:100DE00001E042F20F708146B9696D1C0E98884788
:100DF00082460F980560002E04DD504605F072FD16
:100E00000028D6D1F9690E988847FF208BF800009A
:100E100088F800000020069007904B466A4608A913
:100E200006A8FFF777FEA00502D46FF001002AE7BD
:100E300014F0240F0AD0E00714D1DDE90612386857
:100E4000031D3B600068C0E900120BE0DDE906010C
:100E5000FFF7C6FB0146E00704D13868021D3A607F
:100E60000068016028460EE7000014400000F03FD3
:100E7000F1D8FFFF426842B1016811F8013B23B18C
:100E8000521EC0E90012184670470121C160881E39
:100E9000704742685AB1C368016843B983688B429E
:100EA00005D0491E521CC0E90012002070474FF0C7
:100EB000FF3070470EB540F2334202920022CDE976
:100EC00000221346FFF7CEFC03B000BD70B58C18AE
:100ED00010F8015B15F0070301D110F8013B2A114E
:100EE00006D110F8012B03E010F8016B01F8016B3B
:100EF0005B1EF9D12B0705D40023521E0DD401F837
:100F0000013BFAE710F8013BCB1A921C03E013F8FF
:100F1000015B01F8015B521EF9D5A142D8D3002034
:100F200070BD00002DE9F843804600200E46ADF864
:100F30000000451E42F610012D48FFF7C4F9414656
:100F40002B483268FFF7A6F940463168FFF7BBF936
:100F50000020274F346819E0395CAA2915D1C11C3B
:100F6000A14215DA39184A78442A0ED18A78122A11
:100F70000BD1CA781C2A08D10A798C2A01D02B2AD5
:100F800003D14A790AB9897929B3401CA042E3DB2D
:100F9000002D26DBA54224DC294616A005F066FBC1
:100FA0002A4613494046FFF775F908EB05008046CD
:100FB00010221549FFF76EF9621B791908F110002C
:100FC000FFF768F9114910343460087A401CC0B248
:100FD0000872BDE8F883391805460989ADF8001094
:100FE000D6E729460AA005F041FB0020F1E7000002
:100FF000180501202D2D2D2D46696E652069345070
:101000006F733A25640D0A00F8F90020740400207B
:101010002D2D2D2D2D2D6E6F742046696E65206946
:1010200034506F733A25640D0A0000004FF40051EC
:10103000014801F062BE0000001002404FF4005170
:10104000014801F058BE0000001002402DE9F041B7
:101050000E46154607460024D110FFF734F909E083
:10106000315D04F00700814007EBE4000278114392
:101070000170641CAC42F3DBBDE8F08130B50023A5
:1010800009E001EBE30403F007052478EC4004F0E9
:101090000104C4545B1C9342F3DB30BD70B533498B
:1010A00005460024086810F0450FFBD0410702D523
:1010B0000324042003E0C00704D00124204603F0E9
:1010C000D9FA51E003F012FBA8422BD140F2FF50B5
:1010D00003F0D0FA002003F02BFB2549084243D04F
:1010E000002801DA1C2070BD410001D5092070BD27
:1010F000810001D50A2070BDC10001D50B2070BD53
:10110000010101D50C2070BD410101D50D2070BD3C
:10111000C10101D50E2070BD010201D50F2070BDA7
:10112000410201D5102070BD810201D5112070BD92
:10113000C10201D5122070BD010301D5132070BD7D
:10114000410301D5142070BD810301D5152070BD68
:10115000410401D5182070BD810401D5192070BD4E
:10116000000701D51A2070BD204670BD342C014007
:1011700008E0FFFD10B50B4A0024116811F0450F7F
:10118000FBD0480702D50324042003E0C80705D09C
:101190000124204603F06EFA204610BD40F2FF50B5
:1011A000F8E70000342C014010B5084A002411680B
:1011B00011F0450FFBD0480702D50324042001E0BD
:1011C00040F2FF5003F056FA204610BD342C014087
:1011D00070B50C46194906460025086810F0450F01
:1011E000FBD0410702D50324042003E0C00705D04B
:1011F0000124204603F03EFA204670BD03F076FA43
:10120000B04212D140F2FF5003F034FA002003F054
:101210008FFA10F4604F03D0810404D5132070BD01
:10122000000C208007E0410401D5102070BD0004AF
:1012300001D50F2070BD284670BD0000342C014040
:1012400010B50B460C0601F07F0202EB820100EBA9
:10125000C10102D501F58E7101E001F55D710A70E1
:10126000DA094A7004F06AFF002010BD0A4610B582
:10127000090602F07F0306D503EB830100EBC101F1
:1012800001F58E7105E002EB820100EBC10101F571
:101290005D7100248C700B70D2094A7004F035FF28
:1012A000002010BD10B50A0604D501F07F0105F03D
:1012B0005BF801E005F03AF8002010BD70B50D466E
:1012C0000E0601F07F0404EB840100EBC10102D59E
:1012D00001F58E7101E001F55D71ED090C704D7045
:1012E0008A60CB7000D0CC80022B01D100220A7121
:1012F00004F0E2FE002070BD10B501F07F0404EBA5
:10130000840100EBC101C1F88833C1F880230023B8
:10131000C1F88C3381F8753381F87443C37801F5D3
:101320005D71012B00D10A6114F0FF0F03D004F0AE
:1013300037FF002010BD04F054FEFAE700690022D8
:1013400061F30A1201681143016070470A4610B543
:10135000090602F07F0306D503EB830100EBC10110
:1013600001F58E7105E002EB820100EBC10101F590
:101370005D7101248C700B70D2094A7004F0F8FE84
:10138000002010BD70B511F07F0404EB840100EB68
:10139000C1014FF0010581F81D5181F81C41C1F8D0
:1013A0002821C1F82C2101F58E714FF00002C1E90E
:1013B000053203D004F0F4FE002070BD04F011FEED
:1013C000FAE700007FB5064604F0F0FD684602F03B
:1013D00011FEF068019DC16821F47054C46030466C
:1013E00004F0E4FF002103280DD00120B07040205C
:1013F000B080354835492844884209D224F47051D8
:1014000001F5605156E0B1704FF40070B0802CE0EF
:101410002F4830492844884204D224F4705101F501
:10142000505147E02C482D492844884204D224F4E6
:10143000705101F540513DE029482A49284488422D
:1014400004D224F4705101F5305133E02648274985
:101450002844884204D224F4705101F5205129E037
:10146000234824492844884204D224F4705101F5C9
:1014700010511FE0204821492844884204D224F416
:10148000705101F5005115E01D481E49284488425D
:1014900004D224F4705101F5E0510BE01A481B49C5
:1014A0002844884224F4705102D201F5C05101E071
:1014B00001F5A051F068C160F1684FF40050486137
:1014C00004B0012070BD0000401E1BFF40420F0011
:1014D00000DC0BFFE0C810002013FBFE20D6130039
:1014E000003DE7FE006A180000D3CEFE40771B00E7
:1014F000C05BB3FEC091210000CA91FE40AC270042
:10150000C01D6AFE40E13300803C36FEE09C410095
:101510002DE9F0410646002404F06BFF074650E039
:10152000F8074CD03069E1B20369426BCA4006EB60
:10153000810102F00102896943EAC2128D681540F7
:10154000E9071AD00125426B05FA04F18A43426388
:1015500006EB8400806985601C48E1B2006842683F
:1015600030469047F078012807D134B996F8110138
:10157000042802D1304604F08DFD280704D506EB7F
:101580008400082580698560E80604D506EB8400A0
:10159000102580698560680604D506EB8400402527
:1015A00080698560A80704D506EB84000225806960
:1015B0008560280603D52146304600F060F97F0893
:1015C000641C002FACD10120BDE8F081C8000020D0
:1015D0002DE9F0410546002404F011FF0746DFF82D
:1015E000988043E0F8073FD0E1B2284604F00DFFB1
:1015F0000646C00725D005EB84000126416D8E60AC
:10160000E97801290CD1406D016904EB840005EBF8
:10161000C000C1F31201D0F87C23511AC0F88C131A
:10162000D8F80000E1B2026828469047E87801281F
:1016300007D134B995F81101052802D1284604F0E4
:1016400029FDB00704D505EB84000226406D8660B5
:10165000300709D5D8F8000081682846884705EB8F
:1016600084010820496D88607F08641C002FB9D16F
:101670000120BDE8F0810000C800002070B50546DB
:10168000C068816921F010018161E868066A06F08E
:101690000F0000EB800005EBC004C6F3434004F5E7
:1016A0005D74072821D2DFE800F0202004202020EC
:1016B000150047F6F070064217D0C6F30A163246F8
:1016C0002846E16804F0A9FEE0683044E060A069C3
:1016D000304409E0082205F2CC51284604F09DFE72
:1016E000A069C6F30A110844A061E868816941F065
:1016F00010018161012070BD38B5044600208DF8CD
:10170000000094F812018DF8000015480068416946
:101710002046884720698068E2684FF40061516183
:10172000A17AD1B1C00718D094F81501012814D1BD
:101730009DF80000032810D1D4F80C01016841F095
:1017400001010160D4F80C01016841F0030101605E
:101750000448016841F006010160012038BD000025
:10176000C800002010ED00E070B5044600690025B7
:101770000126416821F0010141602946204604F01C
:10178000F3FD0020FF2206E004EB80018B699A60E4
:10179000496D8A60401C61788142F5D821694FF01B
:1017A000FF3088612846216966F30F0066F31F4009
:1017B000C861216945F00B004861216945F00B00C3
:1017C00008612069016821F4FE610160204604F08F
:1017D00061FCE1684FF4805048610348006801698A
:1017E00020468847012070BDC800002070B504461F
:1017F00004F024FE0120002384F8120184F814313F
:101800001A46402510E002EB820104EBC10181F889
:101810001D0181F81C21A1F8222181F81F31C1E9A5
:101820004953521CC1F8303161789142EBD8002005
:1018300010E000EB800104EBC10181F8753381F801
:101840007403A1F87A0381F87733C1E9DF53401CB0
:10185000C1F8883361788142EBD8204604F09EFBC2
:10186000204604F098FA0021204604F047FE204666
:1018700004F0D1FA2046BDE8704004F04FBD2DE9D8
:10188000F0470E4601EB860100EBC1048046D4E927
:101890004C01401AD4F8241104F58E74814200D210
:1018A0000846C01C08EB86098708D9F8180081692A
:1018B00020E0451AA068A84200D20546E81C870827
:1018C000ABB2F2B24046E16804F02DFEE068284475
:1018D000E060A0692844A061D9F81810896962699C
:1018E000824207D1207801228240D8F81000436B51
:1018F0009343436388B2B84205D9D4E905018142D4
:1019000001D20028D5D10120BDE8F08700F074BDD8
:10191000074A904201D2074801E005481038064ABC
:101920008B0001EA020101D5C160704781607047F8
:1019300010640240006002407D0F7D0F00290168A5
:1019400002D041F0010101E021F001010160704786
:101950002DE9F043016821F00101016000210160DF
:1019600041608160C1600161212141613C493C4A83
:101970003D251039904202D18D60BDE8F083384A90
:101980004FF474661832904201D18E60F5E7344A04
:101990004FF474173032904201D18F60EDE7304A36
:1019A0004FF0746C4832904202D1C1F808C0E4E7AD
:1019B0002B4B2C4A6033984201D1CA60DDE7284C9A
:1019C000294B7834A04201D1CB60D6E7DFF8908074
:1019D000264C08F19008404501D1CC60CDE7DFF8F6
:1019E00080804FF03D5908F1A808404502D1C1F868
:1019F0000C90C2E71E49DFF878800839404501D1D4
:101A00000D60BAE71A4D1835A84201D10E60B4E74F
:101A1000174D3035A84201D10F60AEE7144D48355F
:101A2000A84202D1C1F800C0A7E7114D10496035A6
:101A3000091FA84201D10A609FE70D4A78329042FF
:101A400001D10B6099E70A4A9032904201D10C60B3
:101A500093E7074AA83290428FD1C1F800908CE7F3
:101A6000106002403D000020400F002000003D209B
:101A7000106402400029016802D041F0200101E019
:101A800021F02001016070470B0607D5436912B1B0
:101A900043F0800301E023F080034361802908D0F4
:101AA000002A026801F01E0101D00A4300E08A43C7
:101AB0000260704730B50368124ACC6813400A6868
:101AC0002243D1E905452C432243CC6922430C6AC9
:101AD00022434C6A22438C6A22434C6B22438C6B18
:101AE00022431A430260426922F00703D1E90B2422
:101AF00022431A4342610A6942604A6882608968E7
:101B0000C16030BD3F801CF0704700E0401E0028DF
:101B1000FCD17047FEB50621012002F0B9FF012477
:101B200040208DF80640002500908DF804500C26CA
:101B30008DF80560684600F037F80721012002F0B3
:101B4000A7FF80208DF8064000908DF804508DF896
:101B50000560684600F028F80B21032002F098FF8A
:101B6000E0028DF8064000908DF804508DF8056075
:101B7000684600F019F817208DF808008DF8095014
:101B80008DF80A408DF80B4002A802F0D1F8282009
:101B90008DF808008DF809508DF80A408DF80B403B
:101BA00002A802F0C5F8FEBD30B51A4A8379016873
:101BB00053B313688B431360111D0B680468A34370
:101BC0000B60017911440B68046823430B60114BCF
:101BD000083319680468A14319601C1D2168056851
:101BE000A94321604179102905D011440A68006891
:101BF00002430A6030BD1968026811431960216808
:101C000000680143216030BD0079104402688A43B6
:101C1000026030BD003C01402DE9F0470446002041
:101C200002F086FD800102D50E20BDE8F087012C70
:101C300001D0372027E0174C1548062540260027FD
:101C40004FF4806984E8E102204602F0A3FD0620FB
:101C5000FFF724FA0028E8D10F48B846C4F81090DE
:101C600084E861014F46204602F094FD0620FFF70C
:101C700015FA0028D9D10948276184E86101204676
:101C800002F088FD0620BDE8F047FFF707BA000024
:101C90000008BB03F0AD00200001B9030001B70349
:101CA0002DE9F047B0F5805F0ED04FF400690026B3
:101CB0000427134C4FF48048484510D10120FFF70A
:101CC000ABFF050003D018E02720BDE8F08727759B
:101CD0002660C4F810806660C4E902690AE000204A
:101CE000FFF79AFF050008D1277526606660A66099
:101CF000C4E90368024802F031FD2846E5E7000028
:101D0000D8AD00202DE9F0439F4C267C80F8666218
:101D1000A0F864320B681B0E9C090470C3F38304A3
:101D2000447003F0030383700B681B0CC3700B88B3
:101D30001B0A03710B7843714B681B0E1B01C38098
:101D40004B68C488C3F3074344EA1314C48003F008
:101D50000F0303728B88C3F30723DC094472C3F3B8
:101D600080148472C3F34014C472C3F30014047368
:101D7000002545739B071B0D03610B79046944EA39
:101D8000830303618B6804691B0E44EA93140461A6
:101D9000C3F3C204047503F0070343758B68C3F3F0
:101DA00007435C098475C3F38204C4759B075B0F0A
:101DB00003760B89047EC3F3072344EAD314047625
:101DC000077A4FF0010909FA07F4C0F86042012EC2
:101DD00002D0032E0BD023E00669077E761C07F0A5
:101DE0000707BF1CBE406643C0E9966518E090F83F
:101DF000006190F8037146EA076690F8027190F866
:101E000001C13F0447EA0C273E43A6FB04C8F7176D
:101E1000C7F3080707FB048406FB0544C0E996C422
:101E2000C3F3801400F8194F9B065B0E43700B7AC6
:101E3000447844EAD314447003F07F038370CB6882
:101E40001B0EDC09C470C3F341140471C3F3820494
:101E500044719B071B0F8371CB688479C3F30743DD
:101E600044EA93148471C3F34014C471057203F0FF
:101E7000010343728B89C3F30723DC098472C3F324
:101E80008014C472C3F340140473C3F30014447386
:101E9000C3F38104847303F00303C373097B49080C
:101EA00001744B4680F811901168090E80F82312D6
:101EB0001168090C0902A0F825121188B0F8254212
:101EC000C1F307210C43A0F8254211780906C0F898
:101ED00027125168D0F82742090E44EA0141C0F8A0
:101EE00027125168D0F82742C1F3074144EA012183
:101EF000C0F827129188D0F82742C1F307210C437C
:101F0000C0F82742117980F82B129168090E80F8E9
:101F10002C129168090C0906C0F82F121189D0F80B
:101F20002F42C1F3072144EA0141C0F82F12117A70
:101F3000D0F82F4244EA0121C0F82F12D0F82F42E6
:101F4000D16844EA1164C0F82F42D16890F8334256
:101F5000C1F3074144EA111480F833420907090D1F
:101F6000A0F835129189B0F83542C1F307210C432E
:101F7000A0F83542117B490880F8371280F83832D2
:101F80002846BDE8F08300006800002008B5002066
:101F90000090684600F0F6FB08B1FF2008BD0098ED
:101FA000C0F3432008BD10B5FFF7F0FF042805D0AB
:101FB000062803D0FF2803D0012010BD002010BD4B
:101FC000022010BD38B500248DF8004002F082FBDD
:101FD00001F096FE00F034F900F086F98DF800006B
:101FE0009DF80000E8B9104800F020F88DF80000D6
:101FF0009DF80000A8B90C487621483801750460A6
:1020000044604FF480418460C0E9034102F0A6FBC4
:102010009DF8000028B94FF40060FFF741FE8DF8ED
:1020200000009DF8000038BD20AE00202DE9F041F1
:102030008AB0002480460094019402940394012005
:102040000494059406940794ADF8200002F068FB10
:10205000002866D0344D0220C027AF60C5E900409B
:102060004602C5E90346284602F094FBFFF782F8D2
:10207000002853D102F05CFB0490042002F058FBCE
:102080000590082002F054FB06900C2002F050FB53
:1020900007900320E5E80240402085E851002248EF
:1020A000083D02F077FB08A90320FFF791F800280C
:1020B00034D1BDF82000000428600920C5E90107DB
:1020C000C5E90346184802F065FBFFF753F80028FE
:1020D00024D102F02DFB0090042002F029FB019096
:1020E000082002F025FB02900C2002F021FB039057
:1020F0000D483030B0F86402000400F02DFB0028D9
:102100000CD10948303000F03BFA002806D1BDF868
:10211000203004AA69464046FFF7F4FD0AB0BDE846
:10212000F0812520FAE70000F0AD002070B51F4DCA
:102130000E46044690B04FF0FA512846FFF7E8FBF0
:1021400000212846FFF7FAFB2846FFF701FC4FF075
:10215000006000901648CDE901040020CDE9030697
:102160002915CDE90501890007918900CDE90810FD
:102170004FF440300A9004200B9003200C9048024A
:102180000D9080100E9069462846FFF793FC0122BF
:1021900010212846FFF778FC20212846FFF76AFC2B
:1021A00001212846FFF7CAFB10B070BD58640240F9
:1021B000802C014070B5204E0D46044690B04FF083
:1021C000FA513046FFF7A4FB00213046FFF7B6FB7B
:1021D0003046FFF7BDFB4FF0006000901748CDE997
:1021E00001044020CDE9030500203115CDE90501AA
:1021F000890007918900CDE908104FF440300A901A
:1022000004200B9003200C9048020D9080100E903B
:1022100069463046FFF74EFC012210213046FFF799
:1022200033FC20213046FFF725FC01213046FFF723
:1022300085FB10B070BD000058640240802C014046
:102240007CB501210C2001F099FE254D0C220821BE
:10225000284600F039FD0C220921284600F034FD03
:102260000C220A21284600F02FFD0C220B212846C3
:1022700000F02AFD0C221146284600F025FD194EDB
:102280000C220221304600F01FFD4FF470600090D8
:1022900003208DF8050002208DF8040000248DF83D
:1022A000064001208DF807006946284600F0D0FC62
:1022B000042000906946304600F0CAFCA814009043
:1022C0008DF807406946284600F0C2FC0121C8028B
:1022D00001F078FE0121880501F050FE7CBD000070
:1022E00000080240000C02402DE9F84F00268DF84E
:1022F00000603D487621354601750660466086607F
:10230000C6603446066102F029FA032002F056FA4C
:10231000012002F0BBF94CF25030641C8442FCD323
:10232000DFF8C4A04FF480680AF1180A5046CAF8D2
:102330000060CAF80460CAF80860CAE9036802F0DD
:1023400029FA00274FF0807401E0641E12D080202B
:1023500002F0D2F90028F8D064B140F2FF5002F048
:1023600089F98DF800709DF8000028B19DF80000F3
:10237000BDE8F88F0327F4E71C4C0020401CA04266
:10238000FCD31B4957460320DFF868A04FF0010932
:102390004FF0400B0861C7F808B0C7E9036812485E
:1023A000C7E900A9183002F0F5F9FEF7FDFE8DF837
:1023B00000006D1CB5F5C87F03D29DF80000002811
:1023C000E9D10020401CA042FCD3C7F808B0C7E9FF
:1023D0000368C7E900A90448183002F0DBF9FEF7EA
:1023E000E3FE8DF80000C1E7D8AD002020A1070072
:1023F000680000208080FF400748006810F0C05F40
:1024000008D006490120C86003484FF0C251583037
:10241000FFF77EBA704700000064024068000020A9
:1024200070B54FF48075284602F070F91F4C38B132
:1024300000202070284602F023F90120A0602EE041
:10244000022002F063F920B1022002F019F9022003
:1024500024E0082002F05AF920B1082002F010F917
:1024600004201BE0202002F051F920B1202002F0CE
:1024700007F9062012E0102002F048F920B11020E0
:1024800002F0FEF8052009E04FF40075284602F03E
:102490003DF920B1284602F0F3F807202070002112
:1024A0004CF23A3002F04EF9207870BD68000020FE
:1024B0002DE9FF5F2F4800250E9E05708560456061
:1024C0002D480560DFF8B490102148464FF0400BCE
:1024D000C0E90061C9E902B58901C9F8101002F02C
:1024E00059F91020FEF7DAFD00283FD109F1140454
:1024F0004FF0FF3A4FF00208C4F800A0C4E903858A
:10250000902765612046C4E9016702F0CBF844F8E2
:1025100010AB012064E8035009F1140084E8C00105
:1025200002F0C0F80299C9F800101121C9F80C5046
:10253000C9E9011B4FF480614846C9F8101002F048
:1025400029F91120FEF7AAFD00280FD1012140F240
:102550002A3002F0F7F8012002F09EF83146009888
:10256000FFF7E4FDBDE8FF5F00F044B904B0BDE84B
:10257000F09F0000680000202C2C0140F0AD0020EE
:102580002DE9F05F00F12C043A484FF0FF364FF48C
:10259000007890210660C0E9018102210025C0E990
:1025A00003150121416102F07DF8324808211438F9
:1025B000C0E900514021C0E902150901016102F0A2
:1025C000E9F80820FEF76AFD070021D1DFF8A8909E
:1025D0004FF4004B40F22A6AD9F8000010EA0A0FC3
:1025E0000ED1584602F088F80028F5D0002502F0F8
:1025F000CBF844F825006D1C082DF8D32034EBE708
:10260000082002F079F828B1082002F033F80420FD
:10261000BDE8F09F022002F06FF820B1022002F026
:1026200029F80220F4E7202002F066F820B12020EB
:1026300002F020F80620EBE74546404602F05CF841
:1026400020B1284602F016F80720E1E74FF4001504
:1026500003E002F099F801C4761E284602F04CF817
:1026600008B1002EF5D140F2FF5002F003F83846D1
:10267000CEE7000004AE0020342C01402DE9FF5FBE
:102680003248DDE90E85002707708760012141602F
:10269000FDF785FD2E4807602E4E10204FF4806B0D
:1026A000E6E80280402086E881082A48083E02F0D9
:1026B00071F81020FEF7F2FC002830D1254C4FF0C5
:1026C000FF3A14344FF00209C4F800A0C4E903979C
:1026D00005FB08F54FF090086761C4E901582046F2
:1026E00001F0E0FF44F810AB012064E803701948E2
:1026F00084E82003143001F0D5FF029801C61220AF
:1027000001C6402086E88108124802F043F81220F2
:10271000FEF7C4FC0446FDF744FD1CB1204604B09E
:10272000BDE8F09FFDF73BFD012140F22A3002F0A9
:1027300009F8012001F0B0FF29460098FFF7F6FCE8
:10274000FDF72FFDBDE8FF5F00F054B868000020E2
:102750002C2C0140F0AD0020094910B5086007207D
:102760004860402088600020C8604FF480600861A5
:10277000084602F00FF8BDE810400720FEF78EBCB7
:10278000F0AD002070B505001BD00F48B0F8640212
:1027900001040D48303801600D2141604021816005
:1027A0000021C1604FF48061016101F0F3FF0D2051
:1027B000FEF774FC040003D101F0BAFF2860204644
:1027C00070BD262070BD000020AE0020084810B566
:1027D00000210C22C0E900124022C0E902211101AF
:1027E000016101F0D7FFBDE810400C20FEF756BC98
:1027F000F0AD00202DE9F04100256C1E2146174E5A
:1028000000E0491EF06828B9B06818B9307808B9F6
:102810000029F6D10027F760114800E0641E016826
:10282000890401D5002CF9D17068012807D1FDF782
:10283000B6FCFFF7CBFF0546FDF7B3FC77602C43F2
:1028400000D1042540F2FF5001F014FF307810B1A0
:102850003078BDE8F0812846FBE7000068000020E2
:10286000342C014070B50026741E2146104D00E046
:10287000491EE86828B9A86818B9287808B9002955
:10288000F6D10020E8600B4800E0641E0168C9042E
:1028900001D5002CF9D140F2FF5001F0EBFE34439A
:1028A00000D10426287808B1287870BD304670BD64
:1028B00068000020342C01402DE9F84F8246324850
:1028C00000260A9D8DF8006091460670866046607D
:1028D0002E4806602E4C10204FF04008C4F80880A7
:1028E000C4E9005087012046C4E9036701F052FFA4
:1028F0001020FEF7D3FB002844D11820C4F8009024
:10290000C4E90108C4E90367204601F043FF182029
:10291000FEF7C4FB002835D114344FF09008C4E909
:102920000286471E26616661C4E90075204601F0F3
:10293000B9FEC4E902860120C4E90460C4E9007557
:10294000204601F0AFFEFFF72EFB0028FBD101214E
:1029500040F22A3001F0F6FE29465046FFF72AFCE5
:10296000012001F099FEFFF77DFF00280AD168469B
:1029700000F01AFA002805D19DF800100729F6D0BA
:102980000629F4D0BDE8F88F680000202C2C014007
:10299000F0AD00202DE9FF5F82B04248DDE91076FE
:1029A00000258DF800509346057085604FF0010AB0
:1029B000C0F804A03C4805603C4C4FF04009102092
:1029C000C4F80890C4E900704FF48068C4E9035863
:1029D000204601F0DFFE1020FEF760FB00285DD1ED
:1029E0001720C4F80890C4E90060C4E903582046E1
:1029F00001F0D0FE1720FEF751FB00284ED1192020
:102A0000C4F800B0C4E90109C4E90358204601F044
:102A1000C1FE1920FEF742FB00283FD114347E434B
:102A20009027C4E9027525614FF0FF386561C4E95C
:102A30000086204601F036FEC4E90275C4E9045A56
:102A4000C4E90086204601F02DFEFFF7ACFA00280D
:102A5000FBD1012140F22A3001F074FE012001F087
:102A60001BFE31460298FFF7A5FBFFF7FBFE00288F
:102A700014D1684600F098F94FF47A7406E068467D
:102A800000F092F90021491CA142FCD3002805D195
:102A90009DF800100729F2D00629F0D006B0BDE855
:102AA000F09F0000680000202C2C0140F0AD0020B9
:102AB0002DE9FC4700250E46074681079046AA46A9
:102AC0004FF4007018D00024814612E06502AA1964
:102AD000CDF800904AEBE5731248FFF7E9FC054694
:102AE0004A4610493846FDF7D5FB641CE4B207F5A9
:102AF00000774445EAD30AE0B8F1010F0AD0CDE9E6
:102B00000008324600233846FFF7B8FD0546284640
:102B1000BDE8FC870090324600233846FFF7C8FC2A
:102B2000F4E7000088B000202DE9FC4706460020AD
:102B300017460D468046B2074FF4007118D00024A6
:102B4000894611E04A4631461248FDF7A3FB600270
:102B5000421948EBE073CDF800900E48FFF7ACFE49
:102B6000641CE4B206F50076BC42EBD3BDE8FC87FA
:102B7000012F07D0CDE900172A4600233046FFF782
:102B800009FFF3E72A46002330460091FFF794FE41
:102B9000ECE7000088B0002070B50D460446014601
:102BA00030230B4A0B4802F0E3F83022294609484B
:102BB00003F050FD0749204601F082FF2146BDE8A1
:102BC0007040034A20233032084602F0D1B800009A
:102BD000DA970508B8F200207CB501211F2001F02A
:102BE000CDF90121880301F0EDF901254FF4C04032
:102BF0008DF80450002400908DF806408DF80750A1
:102C000002208DF8050069460E4800F021F88DF885
:102C1000044028028DF80740032600908DF80560D7
:102C20006946094800F014F88DF804408DF8074013
:102C300000958DF805606946044800F009F8FEF734
:102C400069FF7CBD0010024000000240000C024001
:102C5000F0B5002201274FF0030C0B6807FA02F5CC
:102C60002B40AB422CD1066853000CFA03F4A64368
:102C700006600E79D0F800E09E4046EA0E06066037
:102C80000E79012E01D0022E12D18668A6438660ED
:102C90004E79D0F808E09E4046EA0E068660466807
:102CA000AE43466045688E799640B6B2354345607E
:102CB000C568A543C560CC799C40C3681C43C4600B
:102CC000521C102AC9D3F0BD4B07DB0E9A40C9082D
:102CD00010B500EB8100016A0F249C40A143016202
:102CE000016A1143016210BD0246002012690A42C6
:102CF00000D00120704741837047018370474269CB
:102D00004A404261704700004FF400610148FFF7FC
:102D1000F4BF0000001002404FF400610148FFF7CB
:102D2000EABF0000001002404FF480410148FFF765
:102D3000E4BF0000001002404FF400410148FFF7DB
:102D4000DCBF0000001002404FF400410148FFF7D3
:102D5000D2BF000000100240044901228A7088603E
:102D6000C86051030248FFF7CABF000050000020AE
:102D7000001002400448002181708160C1604FF45E
:102D800000510248FFF7B7BF50000020001002407A
:102D900010B5FEF753F9FFF7CFFFFFF7B5FFBDE81A
:102DA000104006F0CDB800007CB5044600254A4826
:102DB00000950195B0F8640202044748303802607B
:102DC0000D2242604022C0E902251101016101F09B
:102DD000E1FC42490868019002E00A68019210464D
:102DE00010F0450FF9D00198400702D503240420C4
:102DF00004E00198C00705D00124204601F03AFC08
:102E000020467CBD01F072FC01900D2838D140F2C3
:102E1000FF5001F02FFC002001F08AFC0090C0F36D
:102E2000432020702E490098084253D00098002873
:102E300001DA1C207CBD400001D509207CBD009832
:102E4000800001D50A207CBD0098C00001D50B2070
:102E50007CBD0098000101D50C207CBD009840018C
:102E600001D50D207CBD0098C00101D50E207CBD90
:102E70000098000201D50F207CBD0098400201D5CA
:102E800010207CBD0098800201D511207CBD0098E7
:102E9000C00201D512207CBD0098000301D513208B
:102EA0007CBD0098400301D514207CBD00988003B0
:102EB00001D515207CBD0098400401D518207CBDAB
:102EC0000098800401D519207CBD0098000701D529
:102ED0001A207CBD28467CBD20AE0020342C014049
:102EE00008E0FFFD70B50E4905460E4C087B38B969
:102EF000886828B1607818B901212846FEF726FABB
:102F000081212846FEF722FA6078022807D1284658
:102F1000BDE870401F23024A0121FEF7EDB970BDE4
:102F2000C8E20020E00000202DE9F041284E0746CD
:102F300006F1200570686860B068A8600121384615
:102F400002F074FA234C1F280AD1234930688842C2
:102F500006D1717B012903D8B07B08B1102807D9AD
:102F6000707B2022052101F00DFB0220607006E03D
:102F7000174A38460F3201F0CBF8002804DA3846F9
:102F8000BDE8F041FFF7AEBF207802281ED001282F
:102F90001CD003281AD0618891B1B3680F4A384613
:102FA0008B4200D219468BB2A968C91AA9600021C8
:102FB000297304212170BDE8F0418121FEF7E2B9B7
:102FC0003846BDE8F041002100F096B8BDE8F08138
:102FD000C8E20020E000002055534243C8B2002060
:102FE00010B5094C6278022A08D009060BD5012ACF
:102FF00009D0BDE81040012100F07EB88121FEF724
:10300000A5F90020607010BDE000002010B5044656
:103010000C480178022905D0032901D0042910D1D8
:10302000002109E0084800F10F02417B204601F031
:103030006FF8002805DA01212046BDE8104000F0B5
:103040005BB810BDE0000020C8E2002010B50446C7
:103050000C48017881B1012913D10B4800F10F020E
:10306000417B204601F054F800280ADA2046BDE8EA
:103070001040012100F040B82046BDE81040FFF7A5
:1030800053BF10BDE0000020C8E20020014900202D
:1030900008707047E000002010B504460C4800217D
:1030A000017041700B4800680168002088470121C9
:1030B0002046FEF7F7F881212046FEF7F3F8204678
:1030C0001F23BDE81040044A0121FEF715B9000096
:1030D000E0000020A0010020C8E2002004490022F6
:1030E0001F230A7001224A70024A0121FEF704B927
:1030F000E0000020C8E2002010B50C4A04460A484F
:10310000106011730A4900200D23087081212046A8
:10311000FEF738F9054A20461F23203ABDE8104043
:103120000121FEF7E9B8000055534253E8E20020C0
:10313000E000002010B5044688B0FF2200210920DD
:1031400000F05CFD10F0FF0006D10122102168465E
:1031500000F014FD10B1012008B010BDFF220021C5
:103160000A2000F04BFD10F0FF00F5D101221021E4
:1031700004A800F003FD08B10220EDE79DF800006F
:10318000800920709DF80000C0F3830060709DF8F6
:10319000000000F00300A0709DF80100E0709DF8B1
:1031A000020020719DF8030060719DF80400000189
:1031B000E080E0889DF8051040EA1110E0809DF85D
:1031C000050000F00F0020729DF80600C009607233
:1031D0009DF80600C0F38010A0729DF80600C0F3B1
:1031E0004010E0729DF80600C0F30010207300212B
:1031F000617394F84E00012801D002282ED19DF869
:1032000006209207120D226122699DF8073042EADA
:103210008302226122699DF8083042EA93122261FA
:103220009DF80820C2F3C20222759DF8082002F022
:10323000070262759DF809205209A2759DF80920C0
:10324000C2F38202E2759DF809209207520F22769E
:10325000227E9DF80A3042EAD3122276042812D147
:10326000216120699DF8082040EA02202061206940
:103270009DF80920104320612069401C40026064D1
:103280004FF40070A0649DF80A00C0F384006076DB
:103290009DF80A008007C00E04F81A0F20789DF8E8
:1032A0000B2040EA521004F8010B9DF80B0000F0CF
:1032B0001F0004F8010B9DF80C00C00920709DF858
:1032C0000C00C0F3411060709DF80C00C0F3820048
:1032D000A0709DF80C008007000FE070E0789DF86A
:1032E0000D2040EA9210E0709DF80D00C0F34010F0
:1032F000207161719DF80D0000F00100A0719DF832
:103300000E00C009E0719DF80E00C0F3801020721D
:103310009DF80E00C0F3401060729DF80E00C0F3DF
:103320000010A0729DF80E00C0F38100E0729DF8BD
:103330000E0000F0030020739DF80F00400860733A
:103340000120A0739DF8101021749DF8111009023E
:103350006182618A9DF81220114361829DF81310E9
:103360000906616161699DF8142041EA02416161C9
:1033700061699DF8152041EA0221616161699DF84A
:103380001620114361619DF8171021769DF81810E1
:1033900061769DF81910090644F81C1F21689DF8F4
:1033A0001A2041EA0241216021689DF81B2041EA70
:1033B0000221216021689DF81C20114302C421785C
:1033C0009DF81D2041EA121104F8021B9DF81D1002
:1033D0000907090D218021889DF81E20114324F83A
:1033E000021B9DF81F104908217060700020B3E691
:1033F0002DE9F0474FF0000A5046401C80B2FF28EC
:10340000FBD90024FF2000F061FC641CA4B20A2C4C
:10341000F8D3002400219522084600F0EFFBC0B24B
:10342000012809D0641CA4B2FF2CF3D372A003F0CE
:103430001DF90120BDE8F087002487224FF4D571E3
:10344000082000F015FCC0B2764EDFF8DC9140F6A3
:10345000FF78052802D001285CD0CAE0012086F858
:103460004E0001464846FFF748FCFF2000F02EFCC6
:10347000454600221146372000F0C0FBC7B2012F9D
:1034800005D0394669A003F0F1F83846D2E70022AA
:103490001146292000F0B2FB10F0FF0F2CD0641C65
:1034A000A4B2AC42E5D3AC4226D10024002211469E
:1034B000012000F0A3FB10F0FF010AD0641CA4B2AD
:1034C000AC42F3D3AC4204D165A003F0CFF80220A4
:1034D000B0E786F84EA06EA003F0C8F8012000F017
:1034E000F5F9012200213B2000F088FB10F0FF04D9
:1034F00004D0214670A054E07CA0EDE7FF224FF4F9
:103500000071102000F07AFB10F0FF0471D021460A
:1035100080A046E0FF2000F0D9FBFF2000F0D6FBA2
:10352000FF2000F0D3FBC7B2FF2000F0CFFBC5B2F5
:1035300001214846FFF7E1FBFF2000F0C7FB012F08
:1035400057D1AA2D55D14FF0804A47460022114647
:10355000372000F053FBC5B2012D05D0294633A01A
:1035600003F084F8284665E700225146292000F040
:1035700045FB10F0FF010AD0641CA4B2BC42E5D3A5
:10358000BC4204D170A003F071F8032052E700227E
:1035900011463A2000F06CFB10F0FF0405D02146E4
:1035A00076A003F063F8204644E7FF2000F08EFB8E
:1035B0000446FF2000F08AFBFF2000F087FBFF207D
:1035C00000F084FB01214846FFF797FBFF2000F045
:1035D0007DFB600604D5042086F84E0074A003E04D
:1035E000022086F84E007DA003F040F8012000F094
:1035F0006DF900201EE70000434D443020526573F2
:103600006574206361726420696E746F2049444C54
:1036100045207374617465206661696C6564210D71
:103620000A000000CC3400200020024053656E6484
:1036300020434D4435352073686F756C6420726586
:103640007475726E20307830312C20726573706F13
:103650006E73653D3078253032780D0A0000000029
:1036600053656E6420434D44312073686F756C64FC
:103670002072657475726E20307830302C2072653F
:1036800073706F6E73653D3078253032780D0A00A7
:10369000436172642054797065202020202020200E
:1036A00020202020202020202020202020203A2000
:1036B0004D4D430D0A00000053656E6420434D4498
:1036C00035392073686F756C642072657475726E1D
:1036D00020307830302C20726573706F6E73653DCA
:1036E0003078253032780D0A0000000043617264A2
:1036F00020547970652020202020202020202020A8
:10370000202020202020202020203A205344205612
:10371000310D0A0053656E6420434D4431362073E9
:10372000686F756C642072657475726E20307830C5
:10373000302C20726573706F6E73653D3078253064
:1037400032780D0A0000000053656E642041434D3D
:103750004434312073686F756C64207265747572BF
:103760006E20307830302C20726573706F6E736508
:103770003D3078253032780D0A00000053656E64C4
:1037800020434D4435382073686F756C6420726532
:103790007475726E20307830302C20726573706FC3
:1037A0006E73653D3078253032780D0A00000000D8
:1037B00043617264205479706520202020202020ED
:1037C00020202020202020202020202020203A20DF
:1037D000534420563248430D0A000000436172648E
:1037E00020547970652020202020202020202020B7
:1037F000202020202020202020203A205344205622
:10380000320D0A002DE9F0410E461D49154691F88A
:103810004E10042900D0400201460022122000F080
:10382000EDF910F0FF0F02D00120BDE8F081002477
:10383000144F4FF4007812E006EB4420002241467A
:1038400000F09CF950B1002211460C2000F0D6F98E
:1038500001213846FFF751FA0220E6E7641CAC422A
:10386000EAD3002211460C2000F0C8F901213846A5
:10387000FFF743FAFF2000F029FA0020D5E7000007
:10388000CC3400200020024010B50C460E4991F8BF
:103890004E10042900D0400201460022112000F001
:1038A000ADF910F0FF0F01D0012010BD012251022F
:1038B000204600F063F9C4B2002211460C2000F04B
:1038C0009DF9204610BD0000CC34002000B585B025
:1038D0000021ADF800104FF48272ADF80220ADF86F
:1038E00004100222ADF806200122ADF80820520291
:1038F000ADF80E100721ADF80A20ADF8101040B158
:103900000820ADF80C006946034801F045F805B001
:1039100000BD3820F5E70000003800407CB50121EB
:10392000880300F043FB0121080200F04BFB1F4E0F
:10393000052200213046FFF7C7F905220121304654
:10394000FFF7C2F9052202213046FFF7BDF9052233
:1039500003213046FFF7B8F902248DF805408DF8B1
:10396000044000258DF8065000948DF80740694604
:103970003046FFF76DF98DF805400C208DF80440B6
:1039800000908DF806508DF8074069463046FFF7E5
:103990005FF901213046FFF7B0F90020FFF796FFED
:1039A0000121034800F0EEFF7CBD00000020024032
:1039B000003800402DE9F05F04463F480D4691462F
:1039C00090F84E10042901D0640221B1002249462A
:1039D000172000F013F900222146192000F00EF9FB
:1039E00010F0FF0F02D00120BDE8F09FDFF8CCB04F
:1039F00001215846FFF77FF9FF2000F067F9002604
:103A0000DFF8BC804FF4007A31E0FC2000F05EF972
:103A10000024574615F8010B00F058F9641CA4B2B5
:103A2000BC42F7D3FF2000F051F9FF2000F04EF91F
:103A3000FF2000F04BF900F01F00052805D0012100
:103A40005846FFF75AF90220CEE70024474608E01F
:103A5000641CBC4205D101215846FFF74EF90320F2
:103A6000C2E7FF2000F032F9FF28F1D1761C4E4565
:103A7000CBD3FD2000F02AF910F0FF0F02D0002474
:103A800045460AE00420AFE7641CAC4205D10121A1
:103A90005846FFF732F90520A6E7FF2000F016F997
:103AA000FF28F1D101215846FFF727F9FF2000F048
:103AB0000DF9002098E70000CC34002000200240DF
:103AC000010004002DE9F0410D46294991F84E10FE
:103AD000042900D0400201460022182000F08EF890
:103AE00010F0FF0F02D00120BDE8F081214E01212E
:103AF0003046FFF700F9FF2000F0E8F8FE2000F064
:103B0000E5F80024771515F8010B00F0DFF8641CC8
:103B1000A4B2BC42F7D3FF2000F0D8F8FF2000F099
:103B2000D5F8FF2000F0D2F800F01F00052805D0DE
:103B300001213046FFF7E1F80220D5E700240E4DC1
:103B400008E0641CAC4205D101213046FFF7D5F8EE
:103B50000320C9E7FF2000F0B9F80028F1D00121C7
:103B60003046FFF7CAF8FF2000F0B0F80020BBE7AE
:103B7000CC34002000200240010004002DE9F04771
:103B8000DFF874900D460646904601214846FFF73F
:103B9000B2F800244FF4FA67FF2000F097F8C0B2A3
:103BA000FE280CD0641CA4B2BC42F5D3BC4206D1A2
:103BB00001214846FFF7A1F80120BDE8F087002465
:103BC00004E000F083F83055641CA4B2AC424FF01E
:103BD000FF00F6D300F07AF8FF2000F077F8B8F194
:103BE000000F06D001214846FFF787F8FF2000F0BC
:103BF0006DF80020E1E70000002002402DE9F041CF
:103C0000074615460C46FF2000F060F8174E0121CC
:103C10003046FFF770F847F0400000F057F8200EEC
:103C200000F054F8C4F3074000F050F8C4F3072044
:103C300000F04CF8E0B200F049F8284600F046F8F1
:103C40000024FF2000F042F8C5B2FF2D03D1641C10
:103C5000E4B2C82CF5D301213046FFF74EF8FF201F
:103C600000F034F82846BDE8F08100000020024052
:103C700070B5064615460C46FF2000F027F80121D6
:103C80001148FFF738F846F0400000F01FF8200E0A
:103C900000F01CF8C4F3074000F018F8C4F3072044
:103CA00000F014F8E0B200F011F8284600F00EF829
:103CB0000024FF2000F00AF8C0B2FF2803D1641CE2
:103CC000E4B2C82CF5D370BD0020024005490A8833
:103CD0009207FCD5034A121D10800888C007FCD04B
:103CE000108870470838004010B5FDF79FF9FFF7BE
:103CF0002BF8FFF719F8BDE81040FFF705B870473B
:103D000038B531208DF8000000208DF801008DF8C5
:103D1000020001248DF80340684600F009F83B20BA
:103D20008DF800008DF80140684600F001F838BDBC
:103D300030B50F23C27801780125FAB1144A126810
:103D400001F1E02102F4E062C2F5E062C2F3072271
:103D5000C2F10404D3404278A24084781C4014434A
:103D6000220181F80024007800F01F018D404009F5
:103D7000800000F1E020C0F8005130BD01F01F00CC
:103D800085404809800000F1E020C0F8805130BD36
:103D90000CED00E00249084302490860704700004A
:103DA0000000FA050CED00E0014801F025BC000020
:103DB000D82C00202DE9F0432DED028B0F460A464A
:103DC00083B08046002546A10AF00AFA040005D017
:103DD000A4EB0800A7EB0008002724E0012003B0B3
:103DE000BDEC028BBDE8F083E05D2C281AD16D1C80
:103DF000012D04D0022D0BD0092D13D10DE0E019B7
:103E0000401CFCF7D1FA00EE100AB8EEC08A09E0B7
:103E1000E019407860F3070604E0E019401CFCF765
:103E2000C3FA81467F1C4745DED3F3B21C4640F2FD
:103E30008B122D492DA002F019FC0026324D412C89
:103E400005D0612C03D02E704FF4D67242E064206E
:103E5000B9FBF0F1B9FBF0F2B1FBF0F32B4C00FB36
:103E6000129200FB13112270617042F21071B9FBC3
:103E7000F1F3BDEEC80AA37010EE103A93FBF1F116
:103E8000E17010EE101A91FBF0F191FBF0F300FBE2
:103E90001311217110EE101A91FBF0F300FB1310B7
:103EA0006071A2B140F2A1120F4919A002F0DEFB2D
:103EB000E078627921798DE80700A378627821782B
:103EC0001BA002F0D3FB01202870002087E72E7092
:103ED00040F29D12044920A002F0C8FB7EE70000DA
:103EE0004750524D43000000D09A0508663D2573A7
:103EF000204C3D25642C6770726D6320737461746F
:103F000065203D25630D0A0030040020C801012012
:103F1000663D2573204C3D25642C476574477073BE
:103F200054696D652074727565210D0A00000000EA
:103F30002D2D2D2D2D3E3230253032642D25303261
:103F4000642D2530326420253032642D25303264D2
:103F50002D253032640D0A00663D2573204C3D2529
:103F6000642C47657447707354696D652066616C95
:103F70007365210D0A00000070470000044A002903
:103F8000116801D0014300E08143116070470000D7
:103F900030380240044A0029116801D0014300E092
:103FA000814311607047000034380240044A002900
:103FB000116801D0014300E08143116070470000A7
:103FC00040380240044A0029116801D0014300E052
:103FD000814311607047000044380240044A0029C0
:103FE000116801D0014300E0814311607047000077
:103FF0002438024070B5204B1968204C11F00C0198
:1040000004D06610042903D0082903D004601BE003
:10401000066019E0184A121F1168C1F38055116833
:1040200001F03F0115B1B6FBF1F101E0B4FBF1F194
:1040300014681268C4F388146143C2F30142521C2D
:104040005200B1FBF2F1016019680F2202EA11116E
:104050000B4A545C0168E14041601C68072505EA91
:104060009424145D21FA04F484601B6805EA533338
:10407000D25CD140C16070BD083802400024F40019
:104080001C00002004490122CA70086148619103A4
:104090000248FEF734BE000050000020001002402D
:1040A00004480021C170016141614FF48041024820
:1040B000FEF721BE500000200010024070B50E46F1
:1040C0000546014614460848FCF7E4F8321B291956
:1040D0002846FCF7DFF8A819001B2246BDE870400F
:1040E0000149FCF7D7B80000E8F800201144074A5E
:1040F00000B59268914206D92122052100F042FACA
:104100004FF0FF3000BD002000BD00003401002052
:104110002DE9F0410F4654490024661E486110788D
:10412000524D534B232869D00FDC1A2850D007DC9E
:1041300050490968C0B1032826D0122811D129E0BE
:104140001B2841D01E280CD13EE02A2868D004DC70
:10415000252859D0282804D15CE02F2866D05A2879
:1041600041D0202205210BE04348826812B1407BF8
:10417000202260E089683846884798B33A220221B5
:10418000384600F0FFF969E03846BDE8F0411146D5
:1041900000F0C4B95078C00702D0384907200AE0BF
:1041A000C86907EBC70100EB810112790879401D4E
:1041B000824200D81046288003E0401E80B20A5C8C
:1041C0001A540028F9D117E020462C80BDE8F08170
:1041D00008202B492880401E0004000C0A5C1A5459
:1041E000F9D109E03CE0082026492880401E00045F
:1041F000000C0A5C1A54F9D12046E7E73846BDE8BE
:10420000F041114600F052B93846BDE8F041114680
:1042100000F018B93846BDE8F041114600F0C0B8CA
:104220003846BDE8F041114600F0C2B9537838462F
:104230009B0702D524220521A3E7D2F80230577943
:104240001BBA23F0FF033B43CB60B2F8072052BAFE
:104250000A611946FFF74AFF002801DA3046B5E740
:104260002C800020B2E7000034010020E200002092
:10427000C8B20020A0010020C8E200204A9505082D
:1042800051950508599505082DE9F0411B4D064645
:104290004FF440502C69844200D304466868B4FB54
:1042A000F0F18BB2E968B1FBF0F2154815490068EE
:1042B00007693046B847002808DA11220421304641
:1042C00000F060F94FF0FF30BDE8F08123460D4A61
:1042D00081216869FDF756F8E8680B492044E860D9
:1042E0002869001B28618A68A2EB04028A6002D157
:1042F0000649032008700020E6E700003401002092
:10430000A0010020C8B20020E8E20020E000002068
:104310002DE9F0411E4F4FF4405605463C69B4422A
:1043200000D334467868B4FBF0F18BB2F968B1FB86
:10433000F0F2184818490068D0F814C02846E04741
:10434000002808DA03220421284600F01BF94FF068
:10435000FF30BDE8F081F8682044F8603869051B3B
:104360000E483D618168A1EB040181600AD0B5422D
:1043700000D33546ABB2084A01217869FCF7BCFF8F
:104380000020E6E700217869FEF7B6FEF8E70000B6
:1043900034010020A0010020C8B20020E8E2002083
:1043A0002DE9F047224F81460D463878B0BB214EAB
:1043B0004FF0FF38307B00062CD51F48006881681D
:1043C0004846884728B13A220221484600F0DAF8E8
:1043D00011E0D5F80200194C00BA20F0FF0168790D
:1043E0000143E160B5F8070042BA48462261FFF791
:1043F0007DFE002802DA4046BDE8F08702203870D2
:104400006168E0684843E060206948432061B16822
:10441000814204D02022707B0521D7E7FFE70849BD
:104420004FF4405008804846BDE8F047FFF72CBFE6
:10443000E0000020C8E20020A0010020340100209C
:10444000E200002010B504461448154A0068111D0A
:1044500043682046984738B13A220221204600F0AE
:1044600091F84FF0FF3010BD0D4A0E48121F9168B1
:10447000491E0B0E03700B0C43700B0A8370C17046
:1044800051680A0E02710A0C42710A0A8271C171E6
:10449000054908200880002010BD0000A001002070
:1044A00038010020C8B20020E20000207CB505469B
:1044B0000021174C08466054491C89B20C29FAD3D4
:1044C00014486A4601A9006843682846984738B1ED
:1044D0003A220221284600F055F84FF0FF307CBD0B
:1044E0000820E0700198401E010E2171010C6171DD
:1044F000010AA171E071022020720098010C617222
:10450000010AA1720449E0720C20088000207CBDE1
:10451000C8B20020A0010020E200002070B50020F9
:10452000144A03461354401CC0B21228FAD3702018
:104530001070114D0C20D07128786C78A0420FD0EB
:104540000E4C14F8306004EBC00496706679167354
:10455000401C2479C0B254732870042800D12B70F9
:10456000074A122010800879122800D810800020F5
:1045700070BD0000C8B2002034010020F8E2002025
:10458000E200002010B5094C074B607803F83010AA
:10459000110203EBC002401CC0B2516060700428DD
:1045A00001D10020607010BDF8E20020340100202D
:1045B0002DE9F0472A4E81460F46307820B1484613
:1045C000BDE8F047FFF7A4BE264D4FF0FF38287B2B
:1045D000000632D4244C206881684846884720B1C0
:1045E0003A2208E0FFF7CEFF1AE02068C16848468B
:1045F000884718B1272202214846F3E7D7F802007E
:104600001A4C00BA20F0FF0178790143E160B7F855
:10461000070042BA48462261FFF768FD002802DA27
:104620004046BDE8F0876168E0684843E060206983
:1046300048432061A968814203D02022687B05217C
:10464000D0E7012131704FF44051884200D3084631
:1046500083B2074A01216069FCF74EFE0020E0E7C3
:10466000E0000020C8E20020A0010020340100206A
:10467000C8B200200149086070470000382C014092
:104680000149086070470000382C01400149C1F819
:10469000A000704700802542014908607047000073
:1046A0008C85254210B50A4A01681160121D4168C7
:1046B0001160131D1968D0E902242243D0E9044097
:1046C000044321F0F70122430A431A6010BD0000A1
:1046D000242C014010B50121CC022046FFF77EFCBE
:1046E0002046BDE810400021FFF778BC0148006873
:1046F000C0B27047102C0140034A014600201268E6
:104700000A4200D001207047342C0140034A014680
:10471000002012680A4200D001207047342C01406A
:104720000248006800F0030070470000002C0140C0
:1047300008B5024908440090006808BD142C0140E7
:10474000FDF76EBE044A0029116801D0014300E064
:1047500081431160704700003C2C014030B5094B8B
:104760001A6847F6FF618A43017D8468C568214362
:1047700044682C43214304680069214301431143E9
:10478000196030BD042C01400148006870470000EA
:10479000802C014010B5084A01681160131D19688A
:1047A000D0E901242243D0E9034004436FF30A0116
:1047B00022430A431A6010BD082C014001490860D9
:1047C00070470000002C01402DE9F047052400F05F
:1047D000C1F8FFF7A3F84B2003F0ECFCFDF7F2FB68
:1047E000641EA4B208B1002CF8D14B2003F0E2FC07
:1047F00004F0BCFB10B131A001F038FF334F0122AF
:1048000033A1386805F0BAFA324D334E4FF0010942
:1048100028700D2802D000281ED025E02FA001F01E
:1048200025FF4FF48052002129A004F00FFF2870CB
:1048300038B131A001F01AFF4FF47A7003F0BAFCDE
:1048400012E0012233A1386805F098FA287032A0EE
:1048500005F0EEFC32A0EDE738A001F007FF2EA036
:1048600005F0E6FC86F8009007F0D0F908B109F0F1
:10487000E3FD307888B9B846344FFF24641EE4B2B3
:10488000012224A1D8F8000005F078FA287010B1B0
:10489000307810B904E086F800902878BDE8F087F9
:1048A0003846FDF732F9002CE8D1294801F0DEFE48
:1048B0003846FDF72AF908F0DBFDDFE76D616C6C27
:1048C0006F63206661696C2E2E2E0000940000201C
:1048D000303A2F00000000209A020020466C6173DD
:1048E00068204469736B20466F726D617474696EE1
:1048F000672E2E2E00000000466C6173682044690C
:10490000736B20466F726D6174204572726F7220F6
:1049100000000000303A0000303A5A5250504B002C
:10492000466C617368204469736B20466F726D61D9
:10493000742046696E697368000000004D4D432085
:104940006D6F756E74204F4B210D0A00A08601001B
:10495000DC9B05081CB501210802FFF70FFB0120B5
:104960008DF8040000218DF8061002218DF8051045
:1049700000908DF8070069460148FEF769F91CBDF3
:10498000002002400029018802D041F0400101E0EE
:1049900021F040010180704730B502884C8802F454
:1049A00041530A88CD8822438C882C4322430C89AA
:1049B00022434C8922438C892243CC8922431A43C7
:1049C0000280828B22F400628283098A018230BDD8
:1049D00010B513460C4648B94FF4007204491A60EA
:1049E0000023D1E99601FBF724FC2060002010BDD4
:1049F00020AE00200020704710B508B9FDF7E2FA9C
:104A0000002010BD20B90348017841F01001017069
:104A1000002070477E0100200020704770B50C4CCC
:104A200015460E46010022784FF0000042F00202C7
:104A300022700BD1DAB229463046FEF739F840B27F
:104A4000002803D0217841F00801217070BD0000DA
:104A50007E01002070B50C4C15460E4601002278F0
:104A60004FF0000042F0010222700BD1DAB2294669
:104A70003046FEF759F840B2002803D0217841F0C3
:104A80000401217070BD00007E010020704700000D
:104A900010B58A0721F003040849120F21440F239F
:104AA000D1F8084893409C43C1F80848D1F8083829
:104AB00090400343C1F8083810BD000000300140A9
:104AC000F0B5124F0C4606460025607921786278D1
:104AD00000EB41002179E37801EBC201A278C0B27A
:104AE000920002EB4302114407EB851202EB001027
:104AF000C9B2014404223046FCF7C0FA6D1CEDB285
:104B0000A41D361D082DE0D3F0BD0000A2980508B5
:104B100010B5064C4FF400512046FEF7EEF8204643
:104B2000BDE810404FF48041FEF7E7B800100240A6
:104B300070B50C46054610210F48FBF7C4FB102C3E
:104B400001DD102200E0224629460B48FBF7A2FBBC
:104B50000949A1F5E06000F013F8082C07DD0649CB
:104B60000831A1F5816000F00BF8012000E0002081
:104B70000249087070BD0000E8F9002080020020A2
:104B80002DE9F0410746002440221248FCF776FA4E
:104B900010493823104A084600F0EAF80E4D0F4E2F
:104BA00068351C212A5DF068FFF788FA2A5D1C2110
:104BB0003069FFF783FA084A04EB440007EB001062
:104BC00030233832034900F0D3F8641C102CE8DBA2
:104BD000BDE8F08178F200202A98050880020020C4
:104BE0000CB50022274900920192086840F48030F9
:104BF00008604FF4A043086800F40030019000986A
:104C0000401C0090019810B900989842F3D10868B0
:104C1000800334D5012001901A484030026842F0E8
:104C2000805202601848026842F44042026015480F
:104C3000083002680260026842F4004202600268C2
:104C400042F4A0520260031F104A1A600A6842F040
:104C500080720A600A689201FCD50D4940F2057223
:104C60000A60016821F003010160016841F002015E
:104C700001600168C1F381010229FAD10CBD0192E2
:104C80000CBD00000038024000700040085440078E
:104C9000003C02404FF0E0210428086903D020F0D6
:104CA00004000861704740F00400FAE7124910B5AB
:104CB0000868002801DD401E08601048007850B1E7
:104CC0000F490868002802DD401E086003E00D4817
:104CD0000068FEF741F80C480078002805D00B4921
:104CE0000868002802DD401E086010BD0848006802
:104CF000BDE81040FFF7C6B94C000020520000206C
:104D0000580000205C0000205300002060000020BC
:104D100064000020124810B5016841F47001016080
:104D20001048016841F0010101600E4A002108327B
:104D3000116002680C4B1A400260031D0B4A1A6096
:104D4000026822F48022026006480C300160FFF7FE
:104D500047FF03494FF000608039086010BD000034
:104D600088ED00E000380240FFFFF6FE103000241E
:104D7000F0B40024064D491E03E0165D765C2E5506
:104D8000641C9C42F9DBF0BC1A460149FBF782BA6D
:104D9000E8F800202DE9F0470024114D0646A04612
:104DA0004FF400674FF001094FF4105AA8683A46D3
:104DB0009042FBD328780028F8D185F8009030196C
:104DC0000849FBF767FAA86804F50064A0F50060DD
:104DD000A86085F800805445E8D3A0B2BDE8F0870C
:104DE0002C000020243D0020F8B50646002417A022
:104DF00001F03CFC1D4D1E4B4FF496706A88802AD2
:104E00001AD368691B493044FBF744FA698868691A
:104E10004FF41173084468610090174A17A11BA052
:104E200001F024FC4FF400611248FBF74CFA00201B
:104E3000688068618020F8BD1946491EFDD1641C58
:104E4000A4B28442DBD30120F8BD00005541525486
:104E5000365265637644617461206C656E203D3D19
:104E60003D3D5B25645D0D0A000000002C00002024
:104E7000A08601002435002029E802082E2E5C427D
:104E800053505C756172742E6300000066696C6536
:104E90003D25732C66756E633D25732C6C696E65BC
:104EA0003D25642C2020636F756E745F6E756D20D8
:104EB0003D3D3D3D205B25645D0D0A0070B50D460E
:104EC0000646002403E0305D09F0A4FA641CAC42FD
:104ED000F9DB70BD7CB507A00725D0E90010CDE94E
:104EE000001000246E46305D09F094FA641CAC4258
:104EF000F9DB7CBD554E4C4F470D0A0070B5164C82
:104F000040F22551204600F0AEF800280ED0204691
:104F100000F036F9114AC1B21088030406D44404E3
:104F20004FF0000306D50A2901D0138070BD40F46C
:104F300000400EE00D290AD0C0F30D04084D401CBE
:104F400080B229551080B0F5007FEED270BD40F4DC
:104F50008040108070BD000000100140160000204D
:104F6000CC32002070B5194C40F22551204600F09B
:104F70007AF8002828D0204600F002F9144CC5B277
:104F80004FF400622069904219D32078B8B901200B
:104F900020701048A16808440F49FBF77BF9A0680E
:104FA000002600F500602661A060B0F5B04F05D383
:104FB0004FF4A040A06009A001F058FB26700649FC
:104FC00020690D54401C206170BD00000048004065
:104FD0002C000020243D0020249D00202D000000F6
:104FE00070B5144C40F22551204600F03CF80028E2
:104FF0001ED0204600F0C4F80F4CC5B2E268B2F5EE
:10500000007F10D30D48618808440D49FBF742F931
:105010006088A189084480B200216080E160B0F519
:10502000006F00D361800649E0680D54401CE060C9
:1050300070BD0000001401402C0000202435002029
:10504000249500200029818902D041F4005101E01B
:1050500021F40051818170470246002012880A42E3
:1050600000D00120704770B501F01F050126002413
:10507000C1F3421306FA05F2012B0FD0022B0FD019
:10508000838A4FEA11210088134206FA01F600EAEA
:10509000060001D000B10124204670BD8389F0E7ED
:1050A000038AEEE710B5C1F3421301F01F0401219A
:1050B000A140012B07D0022B07D01430002A026830
:1050C00005D00A4304E00C30F8E71030F6E78A43D5
:1050D000026010BD7FB50446008A0D46C98820F4E1
:1050E000405001432182A08941F20C618843A98884
:1050F0002A8911436A8902431143A181A08A20F4BD
:105100004071A8890843A0826846FEF773FF1A48D9
:10511000844202D01948844201D1039800E00298E9
:10512000A189090400EBC00101EB0010296801D539
:10513000490000E08900B0FBF1F06422B0FBF2F11D
:1051400009010B096FF018056B4300EB8300A3897D
:105150001D044FF0320306D503EBC000B0FBF2F0A4
:1051600000F0070005E003EB0010B0FBF2F000F0E8
:105170000F00084320817FBD001001400014014052
:105180008088C0F308007047C1F308018180704730
:1051900010B5D0F8E42552689047002010BD10B536
:1051A000134600240A462146FCF7A6F8204610BD07
:1051B00010B5134600240A462146FCF7E3F82046C2
:1051C00010BD10B504468021FCF7C0F80021204630
:1051D000FCF7BCF82046BDE8104000F05BBF70B59E
:1051E00005460024052085F8110123462246214664
:1051F0002846FCF781F8284600F04CFF204670BD99
:1052000010B5C0F83C210223C0F8382180F81131D4
:10521000134600240A462146FCF7B4F8204610BD88
:1052200070B505460024042085F811012346224666
:1052300021462846FCF7A6F8284600F02BFF20461A
:1052400070BD000070B5054641B1D5F8E40542696E
:10525000BAB395F8120103284CD04DE095F811012E
:10526000002605F58E74022839D1E169A0688142D3
:105270000FD9081AE061E878012803D1D4E90210B7
:105280000844E060A08BE16882B22846FFF790FFF7
:1052900010E0216AB1FBF0F200FB121292B98142D8
:1052A00010D3606A81420DD2002211462846FFF7D2
:1052B0007FFF666200231A4619462846FCF71CF851
:1052C0000DE016E0D5F8E405C16829B195F81201A2
:1052D000032801D1284688472846FFF780FF95F824
:1052E0001601012808D1054800682969486085F839
:1052F000166101E028469047002070BDCC000020D8
:1053000070B5054641B1D5F8E4058269FAB195F862
:10531000120103282AD02BE095F8110105F55D74E0
:10532000032825D1A168E069884211D9401AE061BB
:10533000E878012802D1E0680844E060E06988422A
:1053400000D3084682B22846E168FFF728FF0FE045
:10535000D5F8E405016929B195F81201032801D1B6
:10536000284688472846FFF75BFF01E0284690471C
:10537000002070BD38B50446C888ADF800004888E4
:105380000D46010A04294CD2DFE801F04B02071355
:10539000D4F8EC15A0780A6830E0D4F8E415A078C9
:1053A0008A6A69469047014602204870C4F8F015A1
:1053B00027E0C0B2062834D2DFE800F003080D125F
:1053C000171CD4F8EC15A0784A6817E0D4F8EC154F
:1053D000A0788A6812E0D4F8EC15A078CA680DE0CD
:1053E000D4F8EC15A0780A6908E0D4F8EC15A07898
:1053F0004A6903E0D4F8EC15A0788A6969469047B9
:105400000146BDF8000000280AD0EA88002A07D02B
:10541000824200D90246ADF800202046FFF7F0FE98
:1054200038BD29462046FFF7CCFE38BD01EB81018F
:1054300000EBC100B0F88C0380B2704770B5002358
:1054400000281DD00446002502E06D1CEDB2641C4E
:105450002678002EF9D1022404EB45041480CC54A4
:105460005B1C0322CA5400245B1C06E0CA545B1C6C
:10547000DAB28C54521CD3B2401C0278002AF5D107
:1054800070BD2DE9F0411D46174688460446069E2C
:1054900000F052FC04F2E452414682E8E00020466B
:1054A000FCF7A4F9D4F8E805006880472046BDE879
:1054B000F04100F031BC10B5D0F8E415096A884716
:1054C000002010BD10B5D0F8E415496A88470020C7
:1054D00010BD10B5FDF79AFD002010BD10B5FDF709
:1054E000B5FD002010BD10B504468121FBF7A8FED4
:1054F00001212046FBF7A4FE2046FDF7C7FD002052
:1055000010BD0000202008800048704712010020D4
:1055100010B50446FFF7E7FF022340228121204611
:10552000FBF7CCFE0223402201212046FBF7C6FEFA
:105530002046FDF7B1FD002010BD000070B5064605
:1055400008780C462A4D10F0600129D020294CD152
:105550006178FE2902D0FF291CD111E06188C9B908
:10556000E188012916D1000614D522480068806917
:10557000804710F0FF0028700CD001221C491AE06F
:10558000618839B9E18829B9000603D43046FDF7AE
:10559000A5FD2AE021463046FFF713FE022070BD2C
:1055A000617801290ED00A2902D00B291DD106E00D
:1055B0000F490122491C3046FFF722FE15E0A07872
:1055C000687012E021793046FBF76CFE2179304695
:1055D000FBF736FEA0880223C1B240223046FBF71B
:1055E0006DFE21793046FDF7FBFC002070BD000008
:1055F00010010020A00100202DE9F0410646002402
:1056000000F0E9FE00286AD0304600F0EDFE051EED
:1056100066D0280303D53046FBF7DAFF044668035B
:1056200003D53046FBF774FF0443A80702D5F168A1
:10563000022048612B4F002D16DAB07A28B1D6F837
:105640000C01016821F0030101603069416821F01B
:10565000010141603868816930468847F1684FF040
:105660000040486144F00104280503D53046FCF7AA
:1056700043F80443280708D53868C168304688478E
:10568000F1680820486144F00104E80603D530467B
:10569000FBF7F4FF0443E80403D53046FCF764F855
:1056A0000443A80403D53046FBF78CFE0443E8020C
:1056B00009D53868C16930468847F1684FF48010D1
:1056C000486144F00104A80209D53868016A3046EF
:1056D0008847F1684FF40010486144F00104204607
:1056E000BDE8F081C800002090F8CC250A7090F841
:1056F000CD254A7090F8CE2590F8CF3502EB0322E5
:105700004A8090F8D02590F8D13502EB03228A80A8
:1057100090F8D22590F8D33502EB032292B2CA80DA
:105720000121C0F8402180F81111704710B5002305
:10573000044640221946FBF7C1FD00234022802188
:105740002046FBF7BBFD012084F81201D4F8E815D0
:10575000A07849688847002010BD10B50446D0F8ED
:10576000E80500698047032084F81201002010BD7D
:1057700010B5D0F8E415C96901B18847002010BD03
:1057800010B50446D0F8E405026820469047D4F8E6
:10579000E80580688047002010BD000070B50A460B
:1057A0001A4D897804462970012905D894F8120108
:1057B000022807D003280CD02046BDE870401146CF
:1057C000FFF7FFBCA1B184F81011032084F8120187
:1057D0000BE091B194F81001884209D001462046AF
:1057E000FFF7D6FC297884F810112046FFF7C8FF90
:1057F0002046BDE87040FFF713BD022084F8120177
:1058000084F810112046FFF7C3FCF1E7D000002018
:1058100010B504464888012201280FD0022831D152
:10582000888810F0FF0F2DD121694968000A0628E9
:105830001CD2DFE800F01B1B0B0F1317C4F8182154
:10584000D4F8E40582682046904716E021F0700104
:1058500020310EE021F0700130310AE021F07001BA
:10586000403106E021F07001503102E021F070017A
:1058700010310548016084F816212046BDE810402B
:10588000FFF7CEBC10BD0000CC0000201CB50446C4
:105890006946FFF729FF9DF8002012F01F010AD08A
:1058A00001290DD0022910D002F080012046FBF71B
:1058B0004DFD00201CBD6946204600F00BF8F8E7BE
:1058C0006946204600F0F6F8F3E76946204600F006
:1058D00079F8EEE72DE9F0414A78002701260A2AF7
:1058E00042D2DFE802F03B554152410805412A27E8
:1058F000FFF740FD61E004468888C8B9C888B8B998
:10590000887800F07F0594F81201032810D084F8FD
:10591000145129462046FBF711FD2046FFF780FC75
:105920001DB1022084F8120147E084F8126144E0BE
:10593000204619E0FFF732FF3FE0CA88012A13D161
:1059400090F81221022A02D0032A0DD102E001228E
:105950001B4917E0012200F5887113E090F812212D
:10596000022A04D0032A02D0FFF72BFC25E01449B9
:105970000839CE60D0F818210AB10322CA60104954
:105980000222091DFFF73CFC17E0FFF741FF14E07E
:10599000044690F81201022801D00328C8D1488893
:1059A00001280AD10020C4F81801D4F8E40582685F
:1059B000204690472046FFF733FC3846BDE8F0818B
:1059C000D800002070B50D460446287800260979D5
:1059D000C0F34110012806D0687878B301281ED0A2
:1059E00003283AD106E0D4F8E40529468268204627
:1059F000904732E094F81201022830D0032828D1D1
:105A0000688828B921B1802902D02046FBF79EFC86
:105A1000D4F8E40529468268204690470FE094F8C0
:105A2000120102281BD0032813D16888A8B931B10C
:105A3000802904D02046FBF719FCE9E703E0204663
:105A4000FFF7EEFB09E094F81201022807D00328C3
:105A50000DD029462046FFF7B4FB304670BD002923
:105A6000FBD08029F9D02046FBF770FCF5E7104AFF
:105A700008064FF000034FF0010508D501F07F0044
:105A800000EB800004EBC00090F81E0105E001EB84
:105A9000810004EBC00090F8760308B1556000E087
:105AA000536003490222091D2046FFF7A9FBD4E7F2
:105AB000D000002070B5054690F8120100260C4673
:105AC00003280DD1207901280AD8D5F8E405826889
:105AD00028469047E08830B92846FFF7A1FB02E04E
:105AE0002846FFF76EFB304670BD10B590F81211D6
:105AF00080F81311042180F81211D0F8E805C0686D
:105B00008047002010BD000010B50A46024903A0DE
:105B1000FFF794FC004810BD88B200204D5343208D
:105B2000436F6E666967000001A000F09FBD000032
:105B30004D534320496E74657266616365207374CA
:105B400061727465642E0D0A000000000249012094
:105B5000087002A000F08ABDA40100205553422025
:105B600044657669636520436F6E6E656374656432
:105B70002E0D0A0012200880004870476C0100209A
:105B800002490020087002A000F070BDA4010020AE
:105B90005553422044657669636520446973636F99
:105BA0006E6E65637465642E0D0A000018B10128DD
:105BB00003D003A002E00BA000E013A000F056BD4C
:105BC00055534220446576696365204C6962726171
:105BD00072792076312E312E3020205B3F3F5D0DD3
:105BE0000A00000055534220446576696365204CE5
:105BF0006962726172792076312E312E3020205BFD
:105C000048535D0D0A0000005553422044657669F3
:105C10006365204C6962726172792076312E312E73
:105C20003020205B46535D0D0A00000001A000F00B
:105C30001DBD000044657669636520526573756D0E
:105C400065640D0A000000007047704710B50A46F1
:105C5000024903A0FFF7F2FB004810BD88B2002004
:105C60004D534320496E74657266616365000000A0
:105C700004200880004870476801002010B50A46DB
:105C8000024903A0FFF7DAFB004810BD88B20020EC
:105C90005A525A4B000000000A4610B5044920B180
:105CA00004A0FFF7CBFB024810BD06A0F9E70000F7
:105CB00088B200205A525A4B2050504B20524F5617
:105CC000455200004D6173732053746F72616765B4
:105CD00020696E204853204D6F6465000A4610B558
:105CE000044920B104A0FFF7A9FB024810BD06A09B
:105CF000F9E7000088B200203030303030303030EA
:105D00003030314200000000303030303030303040
:105D1000303031410000000008B543208DF800000C
:105D200002208DF801008DF8020001208DF803009B
:105D30006846FDF7FDFF08BD1CB501210846FEF7CA
:105D40001DF901218020FEF725F94FF4C050009085
:105D500002208DF8040000208DF8060003218DF844
:105D60000510094C8DF8070069462046FCF770FFC6
:105D70000A220B212046FCF7A7FF0A220C2120460D
:105D8000FCF7A2FF1CBD00000000024080B202F040
:105D900011BA02F029BA70B50446017A0025C0682C
:105DA000012915D0C16841F04001C160204600F0D2
:105DB000C9F8617A4FF4341009B14FF47410E168F6
:105DC00088631420FFF7E2FFE078012819D020E073
:105DD000816B627A21F480310AB141F480118163D0
:105DE000E068C16821F0401121F42021C160204603
:105DF00000F0A8F8E07801280BD1E1682A2088603B
:105E0000E2E7E068816821F01E010A3141F02001DB
:105E10008160284670BD2DE9F04104460027D0F886
:105E20000C013D462B4607602069016821F4C051F2
:105E30000160E07A4026012826D10321204600F0A7
:105E4000C4FAE06880214162E06866F31F4361F3B1
:105E50000F03836203EB1342284662F30F0061F3E2
:105E60001F40E168C1F8040100EB104161F30F002D
:105E7000E16865F31F40C1F8080100EB104161F3D0
:105E80000F00E168C1F80C011021204600F06CFA07
:105E9000204600F04BFA20690561206945612169BF
:105EA0004FF0FF3088612069C56100204FF09042BB
:105EB000FF2313E004EB800CDCF818E0DEF80010A0
:105EC000002901DA114600E02946CEF80010DCF87E
:105ED00018100D61DCF818108B60401C617881424D
:105EE000E8D8002013E004EB800CDCF854E0DEF886
:105EF0000010002901DA114600E02946CEF8001012
:105F0000DCF854100D61DCF854108B60401C617893
:105F10008142E8D82069016941F480710161E0782B
:105F2000012808D1032066F38A00216940F48030FB
:105F300066F359400863204600F0CCF93846BDE8C6
:105F4000F0810000F8B50026044637460096124D51
:105F50000320FFF71EFFE068006900907F1CAF423E
:105F600001D90020F8BD00980028F1DA009800213E
:105F700040F0010000900098E2681061E06802695A
:105F80000092491CA94202D8009AD207F7D10320F7
:105F9000FFF7FFFE3046F8BD400D0300C068002249
:105FA000816821F0010181601046704710B50169D8
:105FB0000024896883691A68C1F3410119B1012974
:105FC00001D0022902D0D10AC90202E0D10AC902D5
:105FD000C91C19600069416841F480714160204624
:105FE00010BDF0B54B7800264A69012B12D00B7812
:105FF00000EB8304636D1D681B69C2B38A684A6144
:1060000062F3060343F40022636D1A61C278012A29
:1060100030D035E083691F681C6932B18D68AA42AF
:1060200008D965F306044D6106E024F07F0242F4CE
:10603000002203E062F3060444F400221A61C278ED
:10604000012A05D10C780A6900EB8404A469626115
:1060500047F004421A60C278CAB94A69BAB10A78EC
:10606000006901219140426B0A4342630FE0FFE760
:106070000A7AC5E70B780A6900EB83035B6D5A6106
:10608000097845F0044200EB8100406D0260304623
:10609000F0BD0000426D07491161C178012908D1A6
:1060A000426D00F2CC515161406D01684FF080218A
:1060B0000160704718000860F0B506460D780020B2
:1060C0004F780124AC40034606EB8502012F18D01F
:1060D000526D64F31F43146825040DD40D8965F3D4
:1060E0000A04CD78897965F3934461F3995444F0B7
:1060F000805141F4004111603169CA691A43CA6193
:10610000F0BD926964F30F03E5E710B503464C78E0
:106110000A78002003EB8202012C09D0526D13682B
:10612000C97823F40013032904D0022902D003E024
:106130009269F4E743F08053136010BD70B50B789B
:10614000044600254E7801229A40284604EB83013C
:10615000012E09D0496D62F31F400D602169CA69A3
:106160008243CA61284670BD896962F30F00F4E773
:1061700002464B780978002002EB8101012B05D003
:10618000496D0A6842F400120A6070478A69116812
:10619000002901DA41F0804141F40011116070479B
:1061A000F0B54A780B7800240125D1F814C000EB33
:1061B0008303012A1BD05E6D32683669BCF1000F83
:1061C00068D08D680CEB05077F1EB7FBF5F767F30A
:1061D000DC46C6F3C9476F4367F31206C6F31205E0
:1061E0004D615B6D1E61C378012B59D05EE09F69E4
:1061F0003A683E69BCF1000F0DD08B686CF3120653
:106200009C44ACF1010CBCFBF3F363F3DC46CB78AC
:10621000012B05D008E06FF3120665F3DC4603E0BE
:1062200026F0C04606F100563E61C378012B0ED021
:10623000CB78012B12D04B69BBB10B789D40036921
:106240005E6B2E435E63CB78012B07D00DE00D789B
:106250000B6900EB8505AD696B61F4E703699B6829
:106260001B0ADB070CD042F080520B7842F004424C
:1062700000EB83039B691A60CA78012A03D026E0E9
:1062800042F00052F1E78A8A93B20A78C96800F0B6
:106290004AF91CE08F6867F3120665F3DC46A0E755
:1062A0000D780B6900EB85056D6D6B61CB78012B6B
:1062B00006D14B7913B142F0005201E042F0805216
:1062C000097842F0044200EB8100406D02602046F4
:1062D000F0BD000030B5C368002211469A61C46861
:1062E0006FF080436361C568541E6C60C46863616D
:1062F000C468094BA361C37803B91021C06841F495
:10630000872141F00811836941F440118B430B430D
:106310008361104630BD000000080080C068002284
:10632000816841F0010181601046704738B5002452
:10633000024621460094009840F01000009000981A
:10634000D36818610748D26813690093491C8142D9
:1063500002D8009BDB06F7D40320FFF71AFD204686
:1063600038BD0000400D030038B500240346224626
:106370000094009840F020000090009861F38A108B
:1063800000900098D96808610748D9680B690093A4
:10639000521C824202D8009B9B06F7D40320FFF7D1
:1063A000F8FC204638BD0000400D030000698068FD
:1063B000C0F3410028B1012801D0022803D00220F7
:1063C000704703207047012070470069026861F33D
:1063D000010202607047C068406910F0010F01D0EF
:1063E0000020704701207047C068416980690840FB
:1063F000704700698169C069084080B270470069D0
:106400008169C0690840000C704700EB8101496D4B
:106410008968006940690840704710B50446002348
:10642000D21C9008D4F8D02003E0146841F8044B43
:106430005B1C8342F9D3084610BD000070B50022F2
:106440000123C270402683701546144686800129B8
:1064500001D061B114E0C3720821017004214FF032
:10646000A04241709115C1800221017208E0C472FE
:106470000C210170062141701F4A4FF4A061C180B8
:1064800002F50061C0E9032100210AE002EB41139B
:1064900003F5106600EB810403F53063A661491C27
:1064A000636543788B42F1D802F5806141614031E8
:1064B000C0F8CC10002108E002EB411300EB81048E
:1064C00003F5A063491CC4F8903003788B42F3D8DD
:1064D000002108E002EB013300EB810403F5805357
:1064E000491CC4F8D03003788B42F3D802F56062BF
:1064F000C0F80C21284670BD0000044010B5C368E8
:106500000024D868012920F0C04201D019B104E06C
:1065100042F0005201E042F08042DA603220FFF7A0
:1065200035FC204610BD30B505460020EC78002C27
:106530000CD105EB8202DB1C9B08D2F8D02003E0D3
:1065400051F8045B1560641C9C42F9D330BD10B552
:10655000FAF76CFDFCF7F0FBFCF7E6FBBDE810403A
:10656000FCF7DABB0149002008607047082C0040A6
:10657000024940F08000086070470000002C004095
:1065800002490120C1F8A4007047000000800542C4
:10659000084810B5007800F03DF8FFF7E3FF064922
:1065A000D1F8A80218B10020C1F8A80210BD01203E
:1065B000FAE700001000002000804242F8B50F46C4
:1065C000054601211646C802FDF7F0FC104C207864
:1065D00005402570304600F025F8384600F02CF8CC
:1065E0002078FFF7C5FF00208DF8000002208DF80D
:1065F000010003208DF8020001208DF80300684699
:10660000FDF796FBFFF7AEFFFFF7BAFFF8BD0000FE
:1066100010000020024900F07F0008607047000071
:10662000002C0040034A116821F4C071014311603D
:1066300070470000042C0040054908B50A6800F0C6
:106640007F0022F07F0210430090086008BD000028
:10665000042C004030B5002304E0C45CCD5C6C40E9
:10666000C4545B1C9342F8DB30BD00000FB4054BF3
:1066700010B503A9044A029800F03CF910BC5DF87B
:1066800014FB0000B5AE0208180000200FB41CB5C2
:106690000246002007AC00290BD0491ECDE900219D
:1066A000054B6A462146069800F024F9009A00211D
:1066B00011701CBC5DF814FB237002080FB4084B6A
:1066C00010B504A902AA039800F014F9044602A91F
:1066D000002000F0B1FC204610BC5DF814FB000067
:1066E0003970020800487047D40400200000000000
:1066F00030B583B0044600F017F89FED090B05464E
:106700008DED000B002221466846FAF732F8284644
:1067100000F020F89DED000B03B030BD000000003C
:106720000000000000000000014800687047000001
:10673000D404002002E008C8121F08C1002AFAD1C0
:1067400070477047002001E001C1121F002AFBD1F1
:10675000704700000149086070470000D404002021
:106760002DE9FF5F82B00021DDE90430020DDDF884
:1067700040B0034318D044F61050A2F2FF32424317
:106780001514119801281FD0A5EB0B00401C5FEADF
:10679000000A4FF000064E4FDFF83891B0465046E1
:1067A00015D5CAF1000413E0119801244AA3012869
:1067B00001D16FEA0B010298119AC0E90031C0E9DA
:1067C000024206B0BDE8F09FCBF10000DFE70446CF
:1067D0000021404A491842EB0450CDE9001012E074
:1067E000E00707D032463B4640464946F9F7F6FDFA
:1067F0008046894632463B4610461946F9F7EEFD7B
:1068000006460F466410002CEAD1DDE90401DDE9FB
:106810000023BAF1000F06DAF9F7E0FD42464B46D5
:10682000F9F7DCFD05E0F9F74BFE42464B46F9F778
:1068300047FE04460E460022284BFAF721F903D8FA
:106840004FF0FF30014607E00022254B204631463D
:10685000FAF756F8FAF7FBF8102409E0002C0ADBE7
:106860000A220023F9F7B4FC039B30321A55641E48
:1068700050EA0102F2D1641C039AC4F111031444DA
:10688000119A012A03D0012208430DD10AE00843DE
:1068900004D000204FF0110B119072E7A3EB0B0511
:1068A0006D1E0DE05B4504DD4FF0000205F10105B2
:1068B00004E003DA4FF00002A5F10105002AECD054
:1068C00002981199C0E90231C0E9004579E700005A
:1068D000000014400000F03F300000000000F043D2
:1068E0000000E03F30380A2801D201207047002024
:1068F000704700002DE9FF4F95B09B46894606463C
:1069000000250FE2252877D100242746F84A0121E7
:10691000059400E0044316F8013F203B01FA03F020
:106920001042F7D130782A2811D06FF02F03307839
:10693000A0F13002092A16D8059A44F0020402EBAD
:10694000820203EB42021044761C0590EFE759F8EF
:10695000042B0592002A03DA504244F400540590B7
:1069600044F00204761C30782E2816D116F8010F58
:1069700044F004042A280DD06FF02F023078A0F1E3
:106980003003092B09D807EB870302EB4303C71831
:10699000761CF3E759F8047B761C30786C280FD00E
:1069A00006DC4C2817D068280DD06A2814D104E0E2
:1069B000742810D07A280FD10DE044F400140AE0B6
:1069C00044F4801401E044F440147278824202D10D
:1069D00004F58014761C761C307866280BD013DC06
:1069E000582877D009DC002875D04528F6D04628ED
:1069F000F4D047281AD19DE118E0632835D06428E7
:106A000079D0652812D195E1702873D008DC672809
:106A1000F1D069286FD06E280DD06F2806D1B5E06F
:106A200073282CD0752875D0782874D05A461799B9
:106A300090476D1C75E1C4F30250022809D0032869
:106A40000DD0D9F8001004280DD00D6009F104090B
:106A500067E1D9F80010EA17C1E90052F6E7D9F862
:106A600000100D80F2E70D70F0E719F8041B8DF8A7
:106A7000001000208DF80100EA46012003E059F8DB
:106A800004AB4FF0FF3061074FF0000102D40DE07E
:106A900008F101018846B9420FDA8045F8DB1AF89F
:106AA00008100029F4D108E008F10101884681426C
:106AB000FADB1AF808100029F6D105985B46A0EB1E
:106AC000080721463846179A00F094FA284400EB4C
:106AD000080507E04DE029E10DE01AF8010B5A46E0
:106AE00017999047B8F10108F7D25B46214638461E
:106AF000179A13E142E00A220092C4F302524FF0C7
:106B0000000A022A08D059F804CB032A4FEAEC7194
:106B10000AD00DE029E02AE009F1070121F007027F
:106B2000F2E802C1914609E00FFA8CFC4FEAEC71E1
:106B3000042A03D14FFA8CFC4FEAEC71002907DAE2
:106B40000A460021DCF1000C61EB02012D2202E07B
:106B5000220504D52B228DF80420012203E0E20750
:106B600001D02022F7E7904659E00A2102E01022E6
:106B70000DE010214FF0000A00910BE010224FF0C1
:106B8000000A44F004040827009203E008224FF0B2
:106B9000000A0092C4F30252022A05D059F804CB2D
:106BA0000021032A08D009E009F1070121F00702BA
:106BB000F2E802C1914605E01FFA8CFC042A01D1DB
:106BC0000CF0FF0C4FF00008220728D5702806D0E3
:106BD000009B83F0100353EA0A0305D00EE0402225
:106BE0008DF80420012208E05CEA010206D0302280
:106BF0008DF804208DF8050002229046009B83F05A
:106C0000080353EA0A030AD15CEA010201D16207D0
:106C100005D530228DF804204FF001087F1E58283A
:106C200004D034A003900EA802900DE036A0F9E73E
:106C300053466046009AF9F7CBFA84460398825C83
:106C40000298401E029002705CEA0100F0D10298A6
:106C500006A9081A00F1200A600702D524F480343E
:106C600000E00127574502DDA7EB0A0000E0002005
:106C700000EB0A01009005984144401A0590E0039A
:106C800006D45B462146179A059800F0B3F90544EF
:106C9000002706E001A85A46C05D179990476D1C71
:106CA0007F1C4745F6DBE0030CD55B462146179A6F
:106CB000059800F09FF9054404E030205A461799E2
:106CC00090476D1C0099481E00900029F5DC08E0F3
:106CD000029802995A460078491C029117999047E8
:106CE0006D1CBAF10001AAF1010AF1DC65E10000B6
:106CF0000928010030313233343536373839616292
:106D00006364656600000000303132333435363755
:106D100038394142434445460000000000F058F92C
:106D20000544761C307800287FF4ECAD19B0284675
:106D3000BDE8F08F620700D4062709F1070222F0B0
:106D4000070CFCE80223E14603F000485FEA080C68
:106D500002D00FF2702C0DE05FEA045C02D50FF256
:106D6000682C07E05FEAC47C02D00FF2602C01E0DF
:106D7000AFF2700C4FF0FF3823F00043CDF850C055
:106D800065280CD006DC452809D046281DD04728A8
:106D90003DD13DE0662818D067287ED138E000213B
:106DA000112F01DB112000E0781CCDE9000106A9BC
:106DB0000EA8FFF7D5FCDDE90F010E9A0391002123
:106DC000009207F1010A04914DE04FF00040009756
:106DD000CDE9011006A90EA8FFF7C2FCDDE90F02FC
:106DE00003920E9B11990022DDF80CA000930492EF
:106DF00011B9791C00EB010AB7EB0A0004D4C0F109
:106E0000FF3007F1010A0490AAEB0700019044E06B
:106E1000012F00DA01270021112F01DD112000E0F0
:106E20003846CDE9000106A90EA8FFF799FCDDE977
:106E30000F010E9A0391002104910092BA46210796
:106E40000CD40399514500DA8A46BAF1010F05DDE9
:106E5000009AAAF10101515C302908D0B84202DA47
:106E600010F1040F06DA0121CDE9011015E0AAF1B5
:106E70000101E9E7002805DC049901440491AAEB2B
:106E8000000102E0411C514500DD8A460499401A88
:106E9000401C01904FF000400290200704D401985C
:106EA000504501DBCDF8048000208DF84F0002989A
:106EB0000DF14F07B0F1004F25D02B200E90029816
:106EC0004FF0020800280CDA404202902D200E906C
:106ED00007E00A210298F9F79FFB3031029007F88A
:106EE000011DB8F10001A8F10108F2DC02980028A8
:106EF000EFD1791E0E980870307800F0200040F035
:106F0000450007F8020D12A8C01B00F107081498ED
:106F1000007800B1012000EB0A01019801EBE0715B
:106F200005984144401A401E0590E00306D45B4694
:106F30002146179A059800F05DF8054414980078EA
:106F400018B15A46179990476D1CE00324D55B464B
:106F50002146179A059800F04DF805441CE0049866
:106F6000002807DBDDE90301884203DD0098405C6F
:106F7000179901E0179930205A469047049805F177
:106F80000105401C04900198401E019004D12E2060
:106F90005A46179990476D1CBAF10001AAF1010AEF
:106FA000DDDC05E017F8010B5A46179990476D1C78
:106FB000B8F10001A8F10108F4DC5B462146179AFC
:106FC0000598ABE62D0000002B000000200000001B
:106FD0002DE9F041044600251E461746880404D4D6
:106FE00005E039462020B0476D1C641EF9D52846BF
:106FF000BDE8F0812DE9F041044600251E4690468B
:10700000C80301D5302700E02027880404D505E017
:1070100041463846B0476D1C641EF9D52846BDE888
:10702000F0814A68002A06D00A68531C0B60107071
:107030004868401E486070470A68531C0B60107017
:107040007047000004490A7802F5FA6282804A78A3
:1070500082718978C1717047C80101200349CA78DB
:1070600002700A794270497981707047C801012025
:1070700010B59CB000201B901A901BA805F03CFA9C
:10708000040024D01AA928A004F066FF1B98B0F5CC
:10709000001F20D2810A4FF4006422462548FFF7E2
:1070A000E5FA642101A8F9F70EF91B980094830A08
:1070B000204A632101A8FFF7E9FA01A807F01CFBA9
:1070C0001A994CF25030814207D31A9007E01AA067
:1070D00007F012FB20461CB010BDFCD8084600EBA0
:1070E00040004FEA800005F0C1F9040014D01A985E
:1070F00000EB400081002046F9F7E5F81AAA214686
:1071000009A004F059FFDDE91A12204601F0A0F8A9
:10711000204603F0D9FEDEE70FA0FFF7A7FA1DA077
:1071200007F0EAFAD7E70000303A2F44617461466D
:10713000696C6500809C05086D6D635F63617061BB
:10714000636974795F646574656374206661696CF2
:10715000656420210A000000636865636B5F6361FA
:107160007061636974795F617661696C61766C6581
:107170002829207066696C655F64617461202D2D1B
:107180006D796D616C6C6F63206661696C656420FC
:10719000210D0A00636865636B5F636170616369F9
:1071A00074795F617661696C61766C6528292070FD
:1071B00066696C655F64617461202D2D6D616C6C16
:1071C0006F63206661696C656420210D0A00000010
:1071D00010B5044600202071401E0021C4E91401AE
:1071E000204605F05FFA08B1032010BDB4F856023E
:1071F000A0F52A41553901D0022010BD94F88E1017
:1072000094F8910094F88F2041EA006194F890007E
:10721000000440EA02200B4A0143B2EB012F0DD0DB
:1072200014F8AA1FE078637841EA0061A0780004AE
:1072300040EA03200143B2EB012F01D1002010BD31
:10724000012010BD00464154104810B50078104987
:107250000124C8B10F4B18465A698069012A01D12F
:10726000012803D020B1012807D007E0022002E066
:10727000012A03D10320087010BD1AB1587918B142
:107280000520F8E70420F6E70C7010BD310400205B
:10729000540000207404002010B5AEB0402119A89D
:1072A000F9F711F811211A48F9F70DF8184805F007
:1072B00049FF040016D0142129A8F9F704F814494D
:1072C0000DF1A40C0FC98CE80F00114911A0FFF7B4
:1072D000CDF9402119A8F8F7F6FF19A929A804F05B
:1072E0004FFD12E00A491048CE31FFF7BFF9642183
:1072F0006846F8F7E8FF064B0B4ACE336321684631
:10730000FFF7C4F9684607F0F7F92EB0204610BD24
:10731000F8F900205265616420206C6963656E7322
:10732000653A25730D0A0000509D05082DE9F05FB0
:10733000FFF78AFF04F06AFC0125694E002438B18A
:1073400068A0FFF793F9734935710720087000E0D2
:1073500034717078DFF8C0B1002838D09BF8000095
:10736000DFF8B8815F46002819D1B07A401CC0B25E
:10737000B072022813D9B472012269A1D8F80400AE
:1073800002F0FCFC40B93D7005F044FB65A007F03D
:10739000B3F964A0FFF76AF97078002817D06E4F30
:1073A0003878A0B9F07A401CC0B2F07205280ED926
:1073B000F472012269A1D8F8000002F0DFFC30B9B4
:1073C0003D7067A007F098F965A0FFF74FF9B06925
:1073D000DFF8BC816F4FDFF8C0A100283CD19AF8DC
:1073E0000000D146032802D33978032905D298F842
:1073F000001009BB397803291ED368A0FFF736F9BE
:10740000012247A1002002F0B9FC010002D06FA0C8
:10741000FFF72CF9754800F0AFF900B1F47074482B
:1074200000F0AAF908B188F80040F4708BF8004029
:1074300089F800403C700FE0397805290CD358B921
:107440006CA0FFF713F96BA007F056F9674800F03E
:1074500093F9F4703C7075627069002823D1DFF8ED
:10746000CC9199F8000003281DD371A0B562FFF7F5
:10747000FDF86FA007F040F901227BA1002002F087
:107480007DFC010005D079A0FFF7F0F877A007F0A8
:1074900033F97E4800F044F900B134702E4834705E
:1074A000047089F800409AF80000D1460D2815D3E1
:1074B0003878002812D176A0FFF7D8F84C4800F0B1
:1074C0005BF908B188F8004005F0A4FA89F800409B
:1074D0007562BDE8F05F6EA007F00EB9BDE8F09FE1
:1074E0007404002055534220436F6E6E65637465CB
:1074F00064202C20646F6E277420646F206F746882
:107500006572206F7065726174696F6E73210D0A08
:1075100000000000540000209B0200209400002086
:10752000313A00000D0A5B576172696E675D5468FD
:10753000652073642063617264206973206D6F75C8
:107540006E74656420616761696E2E284F6E6C7978
:10755000290D0A0D0A0000009A020020303A2F007F
:107560000D0A5B576172696E675D54686520454D11
:107570004D43206973206D6F756E7465642061677B
:1075800061696E2E284F6E6C79290D0A0D0A000074
:107590009502002098020020970200200D0A2A2A56
:1075A0002A2A2A2A2A2A2A2A2A2A2A5344204861AD
:1075B000726477617265204572726F7220212A2A87
:1075C0002A2A2A2A2A2A2A0D0A000000756D6F75B8
:1075D0006E74202D73642D6661696C65642D206660
:1075E00072203D2025640D0A00000000085A012089
:1075F000D8FA00200D0A2A2A2A2A2A2A2A2A2A2ADE
:107600002A2A2A4F6E6C7920534420577269746578
:107610002044617461204572726F722121212A2AEF
:107620002A2A2A2A2A2A2A0D0A0000009902002062
:107630000D0A2A2A2A2A2A2A2A2A2A2A2A2A2A4FC2
:107640006E6C7920454D4D432048617264776172BC
:1076500065204572726F7220212A2A2A2A2A2A2A34
:107660002A2A0D0A00000000303A0000756D6F757F
:107670006E74202D454D4D432D6661696C65642DFA
:10768000206672203D2025640D0A0000C8570120A5
:107690000D0A2A2A2A2A2A2A2A2A2A2A2A2A2A4F62
:1076A0006E6C79205344205772697465204C6F6763
:1076B000204572726F722121212A2A2A2A2A2A2A17
:1076C0002A2A0D0A0000000000E0401C02780AB1DE
:1076D0008A42FAD1D0B2704770B5C46B00681146C7
:1076E00008348278480A40EAC350590A0023F8F760
:1076F0006FFDF4E8023253EA020508D0C51A71EBB7
:10770000020507D3C01A61EB02010834F1E700203B
:10771000014670BDD4E900231018594170BD000026
:1077200010B5014608480124807940B1084601F0AF
:107730004FFC040003D0014604A0FEF797FF0CB1F4
:10774000002010BD012010BD94020020636C6F73F7
:10775000655F66696C65202D2D2D665F636C6F73A8
:1077600065206661696C65642C20726573203D201C
:1077700025640D0A0000000010B5014608480124E8
:10778000C07940B1084601F023FC040003D0014653
:1077900004A0FEF76BFF0CB1002010BD012010BD4E
:1077A00094020020636C6F73655F66696C655F733C
:1077B00064202D2D2D665F636C6F73652066616993
:1077C0006C65642C20726573203D2025640D0A00D1
:1077D00070B5921E43F1FF31D0E908349B1E44F18D
:1077E000FF34D31A71EB040302D30020014670BDAD
:1077F00083780024A3FB025604FB026203FB0121F1
:10780000D0E91223A818594170BD2DE9FC478046E4
:1078100091469A4652EA03000AD04A4653464046E9
:1078200003F0F8FB821E71F100020FD201203FE04D
:10783000D8E9046756EA070005D0D8E90810711A9C
:1078400077EB00000DD3012600270AE0C2430A436C
:107850002FD0D8E90832C31A71EB020229D34E4661
:10786000574635463C46D8E908106D1C44F10004E3
:10787000691A74EB000005D302250024B01E77F1CD
:10788000000014D32A462346404603F0C3FB50EAC7
:10789000010210D0C2430A430BD080F001020A4318
:1078A00007D085EA060084EA07010843DBD10020FF
:1078B0000021BDE8FC876FF070400021CDE9000198
:1078C0002A462346404605F09BFB58B9514659EAE3
:1078D00001000ED0CDE900544A460B46404605F063
:1078E0008FFB30B1012817D00125002428462146FE
:1078F000DFE7C8E90454D8E90601C2430A43F5D0DA
:10790000401E41F1FF32C8E9060298F8050040F038
:10791000010188F80510E9E74FF0FF35E5E70000C1
:1079200010B5044601F0B7FD0246082806D02AB17A
:107930002146BDE8104004A0FEF798BE2146BDE8F0
:1079400010400AA0FEF792BE6D6B6469722020257C
:10795000732066616C696564202C726573203D201C
:107960002564202C212121200D0A00006D6B646903
:1079700072202025732073756363657373210D0A6C
:10798000000000002DE9F35F88460E6800E0761CD9
:1079900030782F28FBD05C28F9D0009800242546A9
:1079A000D0F828B0705D6D1C202825D32F2823D057
:1079B0005C2821D0FF2C3FD2A0F181017D290BD87A
:1079C000715D6D1CA1F140023F2A02D3403A7F2A2B
:1079D00032D201EB002080B2012102F09BFE0700B1
:1079E0002AD0802F04D2014667A0FFF76DFE18BB96
:1079F0002BF81470641CD5E77219C8F800202028F1
:107A000001D2042516E0002514E00BEB440030F809
:107A1000020C20280DD02E280BD06CB100212BF8A1
:107A2000141000980B222021406A04F05DFD00270D
:107A300006E0641E002CE8D10620BDE8FC9F7F1CF8
:107A40003BF817002028FAD02E28F8D01FB145F0B7
:107A5000030500E0641E2CB10BEB440030F8020C6F
:107A60002E28F7D14FF00008C1464FF0080A3BF826
:107A700017607F1C06B3202E03D02E2E04D1A74200
:107A800002D045F00305F2E7D04501D2A74219D153
:107A9000BAF10B0F0ED0A74201D045F003050BD869
:107AA0004FEA896027464FF008084FF00B0A4FEA6B
:107AB0001069DCE745F003050098406A0178E52984
:107AC0003DD03EE0802E08D3304602F051FE00212A
:107AD00002F020FE064645F00205FF2E0FD9AAF15E
:107AE0000100804503D345F00305D046BFE7009869
:107AF000310A426A02F8081008F1010818E026B1BC
:107B0000314624A0FFF7E0FD18B15F2645F00305DC
:107B10000EE0A6F14100192802D849F0020907E059
:107B2000A6F16100192803D8203E49F00109B6B238
:107B30000098416A01F8086008F1010897E70521FB
:107B40000170BAF1080F03D14FEA89604FEA10695A
:107B5000C9F38100032803D06FEA0901890701D125
:107B600045F00205A90709D409F00301012901D153
:107B700045F01005012801D145F008050098406A3C
:107B8000C572002059E70000222A3A3C3E3F7C7F24
:107B9000000000002B2C3B3D5B5D00002DE9F04117
:107BA0008EB0064634216846F8F78DFB0024254642
:107BB00027463046F8F7B0FB0146E84617E0F05D8F
:107BC000A0F13002092A02D808F804200DE0A0F143
:107BD0006102052A02D84246573805E0A0F1410269
:107BE000052A03D8424637381055641C7F1C8F4243
:107BF000E5DB0E482040012803D1002208F80420CC
:107C0000641C3046F8F75FFB0020424608E0115C38
:107C10001318090171555B78801C194471556D1C4E
:107C2000A042F4DB0EB0BDE8F0810000010000804E
:107C300030B587B00446142101A8F8F744FB0025AD
:107C400006952368606800900DA2132101A8FEF735
:107C50001DFDBDF80400ADF8180006A8F8F7A4FB58
:107C60003D280BD1042209A12046F8F713FB201D63
:107C700010220DF10601F8F70DFB257507B030BD98
:107C80002530396425303964000000004147533203
:107C9000000000002DE9F04FADF24C4D00246421AE
:107CA000FAA8F8F710FB4FF47A716846F8F70BFB67
:107CB000304E4FF4C055706958B92946002004F081
:107CC000C7FD706128B92CA0FEF7D0FC2AA006F0F1
:107CD00013FD4FF4B04B59463048F8F7F4FA3048EA
:107CE00000278246A9460760DAF800004A46554652
:107CF0009042F9D3DFF8AC80012188F800102749C1
:107D00007069F8F7C7FA2868A0F5C05028600A2003
:107D1000641CB4FBF0F100FB114088F8007020B93E
:107D200059461E48F8F7CFFA2F601F4A4946706936
:107D3000FCF740F8054621461CA0FEF797FC3DB134
:107D400049467069F8F7BFFA1FA0FEF78FFCCBE732
:107D50000020716904F070FD224621A1FAA8FEF707
:107D6000ADFCFAA806F0C8FC0DF24C4D0020BDE8B1
:107D7000F08F0000300400206465636F64655F4726
:107D8000504D435F6E6D65612D2D6D616C6C6F6341
:107D9000206661696C656421200A0000243D002092
:107DA000340000202C000020D80101202D2D2D3E74
:107DB0006465636F64655F636F756E7420203D3D1D
:107DC000205B25645D0D0A002D2D2D3E4750524D40
:107DD00043207061727365206661696C0D0A000052
:107DE0006465636F64655F636F756E7420203D200A
:107DF000205B25645D0A00002DE9F0476C4F0024EC
:107E00002DED028B88B089468246A7F11006A04668
:107E1000684DA9E01AF80400654904F069FE97F876
:107E20002200012814D1F878B07197F8200030733F
:107E300097F821007073E97849B96979814204D1D2
:107E40002979814201D2012100E00021E9702871E5
:107E5000B07903286ED9687800287AD1182102A851
:107E6000F8F731FA54A0FEF701FC53A006F044FCE9
:107E7000FFF710FF10F0FF0F31D055A0FEF7F6FB13
:107E80005BA006F039FC1E20009001900C235FA23D
:107E9000172102A8FEF7FAFB03F092FA012400284A
:107EA00042D0182102A8F8F70EFAB1787078CDE91F
:107EB0000001337855A2172102A8FEF7E7FB5748C7
:107EC000F8F772FA064602A8F8F76EFA54498642A5
:107ED00022D30C7053A0FEF7C9FB52A022E0FCF79E
:107EE000F9FF5CA0FEF7C2FB5AA006F005FCB178D2
:107EF0007078CDE9000133785EA2172102A8FEF761
:107F0000C5FB02A960A0FEF7B1FB6BA006F0F4FB75
:107F100002A806F0F1FBBFE781F800807148FEF788
:107F2000A5FB704806F0E8FB6C7008B0BDEC028B56
:107F3000BDE8F087697861B1032814D81821684634
:107F4000F8F7C1F985F80180684603F0A7F969469A
:107F500000E008E064A0FEF789FB6EA006F0CCFB11
:107F6000684606F0C9FB641C4C45FFF453AF6878C3
:107F70000028DAD097ED020B9FED708B51EC100BBF
:107F800053EC182BF8F79CFA6E4C53EC182BC4E901
:107F9000160197ED040B51EC100BF8F791FAC4E9B8
:107FA0001801B869F8F709FBC4E91A01BDE7000038
:107FB000D801012030040020736174655F6C6F6329
:107FC0006B65645F666C61673D31200D0A000000DF
:107FD0002D2D2D3E4750524D432070617273652008
:107FE00074696D65206661696C200D0A00000000EF
:107FF0002D2D2D3E4750524D4320706172736520E8
:1080000074696D65206661696C0D0A003230253037
:10801000326425303264253032640000B0FA00202A
:10802000960200202D2D2D2D2D2D2D2D2D2D4F4B3C
:108030002C20417574686F72697A652D2D2D2D2D58
:108040002D2D2D2D2D2D2D2D2D2D2D2D2D2D2D2D60
:108050002D0D0A002D2D2D3E4750524D43207061AD
:108060007273652074696D652073756363657373DE
:10807000200D0A003230253032642D253032642D37
:1080800025303264000000002A2A2A2A2A2A2A2AB5
:108090002A2A53656172636820536174656C6C6948
:1080A0007465206C6F636B2074696D652069732043
:1080B0003A25730D0A0000002A2A2A2A2A2A2A2A87
:1080C0002A2A53656172636820536174656C6C6918
:1080D0007465206C6F636B2074696D652069732013
:1080E0003A000000A49D05082A2A2A2A2A2A2A2AB8
:1080F0002A2A536174656C6C697465206C6F7374A3
:10810000206C6F636B2074696D65203A25730D0ACE
:10811000000000002A2A2A2A2A2A2A2A2A2A536107
:1081200074656C6C697465206C6F7374206C6F631C
:108130006B2074696D65203A0000000000000000AB
:1081400000005940C00200202DE9F047002491466C
:108150008A460646A0466000801CC0B281450AD906
:108160000AEB44052846AF7885F80280F8F729F92C
:10817000AF70305501E006F80480641CE4B2032CB3
:10818000E9D3BDE8F087000010B504466FF00400A5
:10819000FCF780FD0649E00800EB40020870C2EBE6
:1081A000C0104FF6FF7202EAC000488010BD000008
:1081B0001200002070B54FF40776B0FBF6F1CCB298
:1081C000B0FBF6F106FB110504E0304600F026F89E
:1081D000641EE4B2002CF8D1002D04D02846BDE87E
:1081E000704000F01BB870BD0B49097848434FF050
:1081F000E021486100238B61086940F001000861BB
:108200000869C20701D0C003FAD5086920F001004F
:1082100008618B6170470000120000200B494988FB
:1082200048434FF0E021486100238B61086940F02A
:10823000010008610869C20701D0C003FAD50869C6
:1082400020F0010008618B617047000012000020DF
:108250002DE9F74FBAB0814600203990642102A879
:10826000F8F731F81422734934A8F8F713F81821F5
:108270001BA8F8F728F8342121A8F8F724F84FF0C4
:10828000000BCDF8C4B0CDF8CCB0CDF8C8B0CDF867
:10829000B8B0CDF8BCB05C465D46CDF8C0B048463D
:1082A0003B9905F0FBFE2EAE0DF16C087DE03C988D
:1082B0002844B0F5001F7CD8CDF8CCB004EB4407BF
:1082C000CDF8C4B0CDF8C8B0CDF8B8B0CDF8BCB0DA
:1082D000CDF8C0B059F827000A2231A903F09EFC5E
:1082E00009EB870A0A222EA9DAF8040003F096FCAB
:1082F00018211BA8F7F7E7FF2EA8F8F70DF80628B6
:108300006DD02EA8F8F708F805286CD02EA8F8F73D
:1083100003F804286BD02EA8F7F7FEFF03286AD0D5
:108320002EA8F7F7F9FF022869D02EA942A0FEF780
:108330009DF9642102A8F7F7C6FF2EAB3EA2632188
:1083400002A8FEF7A3F902A806F0D6F9342121A865
:10835000F7F7B9FF34AB46A2312121A8CDF8008050
:10836000FEF794F921AA611C43A0FEF77FF921A82A
:1083700002F072F807004AD003461BAA611C44A011
:10838000FEF774F9642102A8F7F79DFFCDE9008795
:10839000631C3FA2632102A8FEF778F902A806F049
:1083A000ABF9DAF80800641C05443B988442FFF4FA
:1083B0007EAFAC0A214640A0FEF758F9642102A81E
:1083C000F7F781FF23463CA2632102A8FEF75EF97E
:1083D00002A806F091F939983DB0BDE8F08F31ABB5
:1083E0003DA200960EE031AB3EA200960AE031AB12
:1083F00040A2009606E031AB42A2009602E031AB0B
:1084000044A2009617211BA8FEF740F99EE71BAA7D
:10841000611C44A0FEF72AF9642102A8F7F753FF74
:10842000631C40A2632102A8CDF80080FEF72EF95C
:10843000B4E70000AC9A050864656C6574655F6517
:1084400061726C6965725F66696C6520206765742E
:10845000207374725F627566665F74696D65203D36
:108460002025732C6661696C6564210D0A0000008B
:1084700025732F257300000044656C6574652066C4
:10848000696C652564203D2025732C0D0A000000D1
:1084900044656C6574652066696C652564203D20C3
:1084A0002573206661696C65642C726573203D20BC
:1084B00025640D0A0000000044656C657465207336
:1084C000756D5F746F74616C5F73697A65203D20B0
:1084D00025644D0D0A0000006D6D63257325732E14
:1084E000677073006D6D6325733025732E6770732D
:1084F000000000006D6D632573303025732E6770AA
:10850000730000006D6D63257330303025732E6766
:10851000707300006D6D6325733030303025732E1D
:108520006770730044656C6574652066696C6525C9
:1085300064203D20257320737563636565642E0D8B
:108540000A0000002DE9F0470E46DDE9081802F1A7
:10855000070205004FF0000422F007070DD066B1B6
:108560005BB157B11846FCF7E3FA1A484FEAE70740
:10857000007870B1DFF8609026E00020BDE8F08759
:108580004346164A3146284600F02AF8641C08354E
:108590000836BC42F4DB19E04346104A314628460F
:1085A00000F01EF8B8F1000F12D0002329464A4609
:1085B000084600F015F829464346084A084600F0E8
:1085C0000FF8641C08350836BC42E5DB0120D5E70E
:1085D0000123EBE780020020E8F50020E8F200200C
:1085E0002DE9F041154680461E46002440222948C8
:1085F000F8F744FD27494023274A0846FCF7B8FB13
:10860000264F4EB30F247968224820220E46403070
:10861000F7F740FE04EB440005EB00113046FAF793
:10862000BBFAD7E901012022FEF714F819492022EC
:108630004031B868F7F72EFE641EE4D5164A154996
:10864000402340320846FCF793FB4046BDE8F0412A
:1086500040221049F8F7FABCB9680E4820220E46AD
:108660004030F7F717FE04EB440005EB00113046ED
:10867000FAF792FAD7E901102022FDF7EBFF05493E
:10868000202240317868F7F705FE641C102CE3DBEC
:10869000D4E7000018F200205A9705088002002055
:1086A00070B50E460546002100F0B4FA90B90024DA
:1086B000D5E90623286803F0F5FF58B9296A097837
:1086C000E5290BD051B100240121284600F0A0F883
:1086D0000028EDD0042800D1072070BD641CB442EE
:1086E000F2D170BD2DE9F05F0446002100F092FA4E
:1086F00000287AD1FF254FF6FF70AB46A085D4E95C
:108700000623206803F0CEFF07007BD1266A30786D
:1087100048B1F17AE52801F03F0168D00A0704D595
:108720000F2964D105E004276CE00F2901D08DB337
:108730004DE0A16A79B3420606D596F80DB020F057
:108740004000E2880546A285A84236D1727B5A4590
:1087500033D130788A4620F04000401EB14600EB0D
:10876000800101EBC0064FF000080127274810F8F0
:10877000081001EB0900008877B101F0F9FF074606
:10878000FF2E1AD23AF81600761C01F0F1FFB8421B
:1087900013D105E016E02EE0A0F57F41FF390CD1A2
:1087A00008F10108B8F10D0FE0D399F80000400678
:1087B00006D52FB13AF8160010B1FF25EDB21AE038
:1087C0006D1EFBE7304605F020FD58451AD0606A63
:1087D000C17AC9070BD10B22521E07D316F8011B11
:1087E00010F8013BC91AF7D001E00CE051B14FF687
:1087F000FF70FF25A0850021204600F009F8070042
:108800003FF47DAF3846BDE8F09F000010950508A5
:108810002DE9F0470446C0880F4600F101081FFA11
:1088200088F0002844D0D4E9060150EA01023FD084
:108830005FEA08727BD1401C41F10001C4E90601E6
:10884000D4E9042352EA0300206805D08178491E48
:1088500011EA181F04D06AE00189414528D966E071
:1088600002F0D8FB0D4606460021D0F10100A941D7
:1088700023D2F04328433BD02068D0E90812711A74
:1088800075EB02014AD39FB1D4E90423FEF7BDFF83
:108890000D46064628430ED086F0010028430CD032
:1088A000F043284324D0206805F025FD00BB06E0F6
:1088B0000420BDE8F0870720FBE70220F9E72068E5
:1088C0004FF400720021583003F00EFE32462B4662
:1088D0002068FEF77DFF226800274FF00109C2E9FA
:1088E000140110E080F80490206805F004FD08B140
:1088F0000120DEE72068D0E91412491C42F1000291
:10890000C0E914127F1C20688178B942EAD8D0E906
:108910001421D21B61F10001C0E91421C4E90465EE
:1089200032462B462068FEF753FFC4E90601A4F83F
:10893000068008F00F005822216802EB401008441E
:1089400020620020B5E700002DE9F05FFF258B468F
:1089500004462E4604274FF6FF7A66E0206803F0AF
:10896000A1FE070067D1226A107868B1D17AE528A4
:1089700001F03F0106D02E2804D0082906D000239C
:108980005B4505D0FF2541E0042754E00123F7E7CC
:108990000F2901D0BDBB40E0410605D5567B20F034
:1089A0004000E1880546A185A8422DD1507BB04208
:1089B0002AD11078DFF88C9000F03F00401E00EBC9
:1089C000800101EBC0010020A76A0123D44619F8F9
:1089D00000809044B8F8008033B1FF2914D227F802
:1089E00011804346491C01E0E0450DD1401C0D2893
:1089F000EDD31078400604D5FF2905D2002027F8D2
:108A000011006D1E01E00DE0FF25EDB200212046B2
:108A1000FFF7FEFE070008D00DE0104605F0F5FB5D
:108A2000B0420BD0A4F82CA008E0D4E9062352EA07
:108A3000030093D117B10020C4E906003846BDE811
:108A4000F09F0000109505082DE9FF5F04460C22F9
:108A5000D4E909763946684603F03EFD9DF80B00DF
:108A6000C00718D00020F8720125A0622B463246BC
:108A70006946384602F050FA2046FFF733FE10B937
:108A80006D1C642DF2D3642D0BD004280AD19DF8FF
:108A90000B00F872A6629DF80B0080070FD500202E
:108AA00004E0072004B0BDE8F09F401C36F8101029
:108AB0000029FAD10D211930B0FBF1F500E00125B4
:108AC00029462046FFF7ECFD06006DD16D1E51D002
:108AD000E088411B204600F09DF8060064D1606AE2
:108AE00005F093FB4FF6FF7A0390D4E90623206844
:108AF00003F0D8FD060057D1216AD4F828900398D6
:108B000048730F20C872002008738876EEB2C876CA
:108B1000701E00EB800202EBC0030022DFF88CB075
:108B200001F1010801E0504502D039F813005B1C47
:108B30001BF802C001F80C001BF802704FEA102C61
:108B400007F808C000B95046521C0D2AEBD3504517
:108B500002D039F8130008B946F040060E702168BB
:108B60000120087100212046FFF752FE06001BD1AC
:108B70006D1EBAD1D4E90623206803F093FD0600E8
:108B800012D120220021206A03F0AEFCD4E90801B2
:108B90000B2203F0A1FC606A216AC07A00F0180081
:108BA000087321680120087130467BE7109505089D
:108BB0002DE9F041818D0446C688A1F57F40FF383C
:108BC00000D13146204600F025F805001FD1E527E9
:108BD0004FF00108D4E90623206803F063FD050087
:108BE00012D120220021206A03F07EFC206A077047
:108BF000216881F80480E088B04208D20021204634
:108C0000FFF706FE0500E5D0042D00D10225284619
:108C1000BDE8F0812DE9F0410646C180D6E9025455
:108C200085F001000F4620434FD03068D0E908128C
:108C3000691A74EB020148D255EA040104D10178A3
:108C4000032901D1D0E9105455EA040103D08078FA
:108C50004FEA001819E00189B94236D9D0E910214C
:108C60001BE002F0D7F905460C46E84320432AD022
:108C7000A81E74F1000028D33068D0E90810691AE2
:108C800074EB000021D2A7EB0807306847452A465D
:108C90002346E6D2FEF79CFD0246C6E9045452EA9A
:108CA000010012D03B099A1841F10000C6E90620E4
:108CB00007F00F015822306802EB4111084430627E
:108CC0000020BDE8F0810120FBE70220F9E7000069
:108CD00008B598B1012804D0022820D0032817D164
:108CE0001DE0FAF785FB28B100905D230D4A0EA127
:108CF00013A00BE005F026F91BA00EE0F9F762F9CE
:108D000040B100906C23074A07A11DA0FDF7AEFCFF
:108D1000012008BD05F06EF824A0FDF7A7FC002097
:108D200008BD0000009505082E2E5C4641544653B0
:108D30005C7372635C6469736B696F2E630000001F
:108D400066696C653D25732C66756E633D25732CD5
:108D50006C696E653D25642C2073642065727220F9
:108D60003D2025640D0A00002D2D2D2D3E7364201D
:108D7000696E697420737563636573730D0A00000F
:108D800066696C653D25732C66756E633D25732C95
:108D90006C696E653D25642C20656D6D6320657280
:108DA00072203D2025640D0A000000002D2D2D2D80
:108DB0003E656D6D6320696E6974207375636365CC
:108DC00073730D0A0000000070B5042516460C46AA
:108DD000012802D010B3042070BD2048FAF7AAF988
:108DE0000A2C25D006DC1D48042C21D2DFE804F033
:108DF000140920110D2C1BDD0E2C19D01A2C17D1A3
:108E00000AE0D0E91110B1FBF0F00021C6E9000141
:108E100002E0B0F848003080002070BD3CB110493D
:108E2000012C11D0022C05D0032C01D108E0002523
:108E3000284670BD4FF40071002031605060F6E7A5
:108E4000B1F860021080F2E7D1E996014FF40072A8
:108E50000023F7F7EEF9C6E90001E8E7CC3400207B
:108E600020AE002070B51546049C0E461CB190B192
:108E700001280AD101E0042070BD012C07D0224650
:108E80002846FAF7BFFC0028F6D0012070BD104636
:108E9000FAF7FAFCF7E7E2B229463046F9F708FE9E
:108EA0000028F3D0F9F78EF8F5E710B528B10128BE
:108EB00005D0022803D0012010BDF9F767F8002083
:108EC00010BD70B51546049C0E461CB190B101282A
:108ED0000AD101E0042070BD012C07D022462846AB
:108EE000FAF768FD0028F6D0012070BD1046FAF7A9
:108EF000E9FDF7E7E2B229463046F9F715FE00280A
:108F0000F3D0F9F75FF8F5E7F0B50023002914D0A6
:108F1000002A12D0094EFF240DE0F5690544B5FB87
:108F2000F4F704FB1755CF5C6D1C6F40CF54F56907
:108F30006D1C5B1CF5619342EFD3F0BD74040020FF
:108F400010B507A0FDF792FB4FF480410648F9F7F2
:108F5000D2FE02F0B3FE42F21070401EFDD110BDF1
:108F6000307846460D0A00000010024070B5174DDB
:108F700000244FF416763146002003F069FC45F8D2
:108F8000240018B1641CE4B2022CF4D34FF4107620
:108F90003146002003F05CFC0C4D31460C3D28604E
:108FA000002003F055FC68604FF40071002003F0CE
:108FB0004FFCA860022C06D1296821B1696811B163
:108FC00008B1002070BD012070BD00009400002099
:108FD00010B5044601F0E6F9002806D1204605F058
:108FE000DDFA002801D10021216010BD10B5044632
:108FF00005F0D4FA002801D10021216010BD2DE92F
:10900000F74F144682B0002202A9204601F020FD4D
:1090100026685FEA000B7ED1D6E908321F46D6E902
:1090200006019B1E42F1FF341B1A8C4103D3039AA5
:10903000C2E900016FE03078002425460090012845
:1090400004D0D6E90EA19146884626E04FF00208EA
:10905000002742463B46304601F0DCFFC2430A434C
:1090600006D080F001020A4304D0084305D007E08F
:10907000012000E00220834644E0641C45F1000525
:1090800018F10100D6E9082347F1000180460F4698
:10909000801A9941DDD335E079B9524643461AF139
:1090A000010A48F10008304603F0FCFA5FEA000BC1
:1090B00028D106F158004FF40071009A022A0DD011
:1090C0000378C27890F801C043EA02638278120400
:1090D00042EA0C2213431A0108D00AE0028812B9AE
:1090E000641C45F10005801C891E04E0641C45F1E8
:1090F0000005001D091F7A1E49F1FF3317469946E6
:109100001A43C9D1C6E90645707940F00100707173
:109110000398C0E9004505B05846BDE8F08F2DE939
:10912000F04F87B017469846044605F037FA02908C
:1091300000287ED1E07900287BD1E06B04F140016A
:109140000391002876D0FA4352EA080244D0D4E9C9
:109150000410CB1B70EB080201D20F468046C4E915
:10916000027857EA080067D07F1E48F1FF331D469A
:109170003A462046FEF7B0FAC4E9080102460B461B
:109180002068FEF725FB50EA01027ED07B0A2768A3
:1091900043EAC5536D0ABA78521E13401E1805EAF9
:1091A000E27520894D41C005DDD0D4E90A2386EA65
:1091B000020085EA03010843D5D0A07940066FD5A7
:1091C0004FF00108CDF8008078780399FFF779FE19
:1091D00088B384F807804BE1F0E80213CDE900136F
:1091E0008246D4E9060102274FF0000950EA010245
:1091F0003CD00025BF1C2E4649F10009CDE90401F1
:10920000834603916D1C46F100065A460B462068C2
:1092100001F000FF0022D0F101038A4135D2C243A0
:109220000A4333D0039B1BF1010243F10003424088
:1092300003E00BE143E02FE02BE14B401A43DFD08A
:10924000DDE90032DB1B72EB090208D3CAE90056E4
:10925000DDE904350AF10802E2E8023592462268A7
:10926000D2E90832C31A71EB0202C2D3E06BC0E943
:109270000079DDE90020D21B70EB090009D3002240
:10928000CAF80020CAF8042003E1DDE00120E07103
:10929000EEE011200290FCE0A07920F04000A071E7
:1092A00001270097206832462B4640780399FFF744
:1092B000D9FD08B1E771DBE0C4E90A65E9E0D4E96A
:1092C0000410CB1B70EB080204D2A279920701D4E0
:1092D0000F468046D4E90201CDE900010021049146
:1092E000C4E902118B4657EA080049D0206805906E
:1092F00080784FEAD05A4FEA4029DDE9000108435F
:1093000027D0781E48F1FF314A465346F6F760FFF2
:1093100005460E46DDE90001401E41F1FF314A4697
:109320005346CDE90001F6F753FF281A8E4110D3BA
:10933000B9F10102DDE900104AF1FF35D3431940CC
:10934000A843C4E902107F1A68EB0008D4E90801B9
:1093500013E0D4E9060150EA01020CD11346059846
:10936000FEF753FA80F001020A436DD0C2430A436C
:109370008CD0C4E90601C4E9080150EA01022ED1EB
:109380004BE0A2792568920702460B46284607D58E
:10939000FEF73BFA50EA010204D14F46D04623E0E3
:1093A00001F038FEC2430A43E2D00022D0F10103AB
:1093B0008A4149D22268D2E90832C31A71EB02020B
:1093C00042D2C4E90801D4E9026216EB090342EB78
:1093D0000A02C4E90232B7EB090768EB0A08B9EBE5
:1093E00007057AEB0802CCD3D4E90252ED1942EB1F
:1093F0000802C4E90252FA050FD0256802460B465E
:109400002846FEF7E5F950EA01021DD07B0A43EA3F
:10941000C853181841EB582B04902089C0052CD054
:10942000D4E90A2304998BEA03005140014324D074
:10943000A079400611D50125009520680399407850
:10944000FFF73FFD98B904E00220E07107B0BDE8E6
:10945000F08FA07920F04000A071012500952068D0
:10946000DDE9031240785B46FFF7FCFC10B1E571C3
:109470000120EBE70498C4E90A0B04F108000FC8C7
:10948000121A8B4105D2C4E90401A07940F02000F2
:10949000A0710298DAE72DE9F14F94B001F034FEA3
:1094A00082468B46012214A9684601F0D1FA0400D5
:1094B0007DD14FF4007001F053F90C9058B10A902F
:1094C00011A809906846149901F0BEFC040006D06A
:1094D000042C06D0B4E0112015B0BDE8F08F0824AC
:1094E000AEE0002213460098FEF78FF90E460746BD
:1094F0000024304300D1072487F00100304300D11D
:109500000224F843304301D014B17DE001247BE014
:10951000009804F0F0FE040076D13A4633460098F5
:10952000FEF756F9009D8046894658354FF4007283
:109530000021284602F0D8FF0B222021284602F005
:10954000D3FF2E242C701020E8720AF0FF00109038
:10955000A875CAF307200F90E8754FEA1A4040EA51
:109560000B40C0B20E9028764FEA1A6040EA0B20FA
:10957000C0B20D9068763A463346284604F0CBFDDB
:1095800005F1200020222946824602F0A5FF85F839
:10959000214000980078DDE9022303280AD10098D1
:1095A000D0E9101051405840014303D100E04AE097
:1095B00000221346504604F0AEFD00984FF0010B18
:1095C00090F802A018E00098C0E91489009918F1F9
:1095D000010849F1000981F804B0009804F08BFEFD
:1095E000040011D14FF400720021284602F07CFFE4
:1095F000AAF1010000F0FF0ABAF1000FE3D16846BA
:10960000FFF722FA040005D03A463346009803F0EB
:109610005DFF15E0089810213A46C17210998175D6
:109620000F99C1750E9901760D994176334604F074
:1096300072FD009981F804B0009804F0F3FD04462F
:109640000C9801F091F8204646E700002DE9F74F0D
:1096500090B0144610A801F095FE002803DA0B2004
:1096600013B0BDE8F08F1199012902D8611E0C4298
:1096700001D01320F4E7FE4951F82010019151B1B7
:10968000019A0027C0B217700790FFF721FBC107AE
:1096900003D00320E4E70C20E2E7400701D50A20CD
:1096A000DEE704AA01210798FFF78EFB00287DD191
:1096B000DDE904158020081A75F1000076D31198B1
:1096C00008B1002000E03F204FEAE07A8146081A06
:1096D00065EB0A05CDE904050690ACB94FF4FA62D2
:1096E00000232946F6F774FD0A460021E14E3B4669
:1096F00000E0491C36F81140041B72EB0304F8D358
:10970000DC48163030F81140600A129019D08028D9
:1097100001D9802012900246002329460698F6F7C8
:1097200057FD40F6F6720127821A71F1000200D34C
:1097300002274FF6F672821A71F1000203D3032753
:1097400042E00120E6E7032F3ED0012F50D0001861
:109750004941001D41F1000140F2FF12821841F120
:109760000000510A41EAC0584FEA502B0120002165
:10977000CDE9080120200021CDE90C01DDE9081226
:1097800019EB01014AEB0200CDE90A10DDE90C23D7
:1097900011EB080140EB0B008C1858411299009016
:1097A000631840F10000B3EB090300E05FE10699A4
:1097B00060EB0A00C91A854172D302AA03210798F7
:1097C000FFF702FB78BB23E0890041EA907180003B
:1097D00040F20722821841F10000510A41EAC058C4
:1097E0004FEA502B20200021CDE908010846C2E7AE
:1097F0000322A0FB023601FB0261002400FB0410DF
:109800005B1C40F1000041084FEA3300C01CA1E797
:10981000DDE9020150EA010205D04FF400430022C5
:10982000181A8A4103D201200021CDE90201DDE9A5
:109830000210009A631842415B1E42F1FF32491E3A
:1098400040F1FF308B438243CDE902320099181B6F
:1098500062EB0102CDE90202032F22D018EB0008CF
:109860004BEB020BDDE90451DDE908030C462A1A33
:1098700061EB0301DDE90C03B2EB080261EB0B01C4
:10988000101A61EB03010023129AF6F7A1FC022FD4
:10989000CDE90E0112D0032F19D0012F21D028E0DD
:1098A0001BE0DDE908311B185141CDE90831DDE944
:1098B0000A3118185141CDE90A01D3E7014640F6B3
:1098C000F6720F98891A70F1000006D311E04FF676
:1098D000F672801A71F1000001D20E20C0E60C264B
:1098E00010E04FF48030281A74F1000001D20126F4
:1098F00008E04FF48030281A74F1000001D20426E9
:1099000000E00626119808B1F02054E001984FF4C9
:10991000007258300021069002F0E6FD019C012003
:10992000002584F8170284F8180284F8195284F884
:109930001A62FE2084F81B02DDE9042319EB020001
:109940004AEB030104F216243F222B46F6F740FCB3
:10995000FF220023F6F73CFCCDE90201800840EA33
:10996000817040F03F00A0710298E0713F202072AA
:109970006572A572E572DDE904012073020A627363
:10998000020C42EA0142A273000E40EA0120E07399
:1099900001995520002281F856020199AA20134608
:1099A00081F8570201200090DDE90610FFF789FADF
:1099B00000285CD1F8200690019C4FF400725834C6
:1099C0000021204602F090FD0B222BA1204602F040
:1099D00083FD0022E27202202073129860730898BF
:1099E000A0730898000AE07301202074032F0FD0A1
:1099F00040026074000AA074DDE904014FF4803372
:109A0000C31A71F1000305D2E074000A207510E05A
:109A10000020EEE784F82000030A84F82130030CCC
:109A200043EA0143000E84F8223040EA012084F822
:109A30002300069860753F20207600206076FF2185
:109A4000A176E07684F81C904FEA192060774FEAFF
:109A5000194040EA0A40A0774FEA196040EA0A201C
:109A6000E07701F051FB80232925032F0AE0ACE0C9
:109A7000800000201E950508EBFE904D53444F5387
:109A8000352E3000CDE902012ED084F82700020ADD
:109A900084F82820020C42EA0142000E84F82920B2
:109AA00040EA012084F82A0084F816804FEA182042
:109AB000E07584F8243084F826501322A4A104F120
:109AC0002B0002F009FD552084F8FE01AA2084F83D
:109AD000FF01012000904A46534621460798FFF7B0
:109AE000F0F9002871D13DE084F84300020A84F8BF
:109AF0004420020C42EA0142000E40EA012084F8B0
:109B0000452084F8460084F824804FEA182084F821
:109B100025004FEA184040EA0B4084F826004FEA3F
:109B2000186040EA0B2084F82700022084F82C00FB
:109B3000002084F82D0084F82E0084F82F000121E5
:109B400084F83010062184F8310084F8321084F84B
:109B5000330084F8403084F84250132281A104F18C
:109B60004700AEE7032F09D10120009019F106024A
:109B70004AF1000321460798FFF7A3F9DDE90A56E9
:109B8000002001904FF400720021204602F0ACFC4E
:109B900000220698CDE90202032F19D0012F15D01B
:109BA0006FF0FF010143029121700298000A60707A
:109BB000DDE90201000C40EA0140A070DDE902018C
:109BC000000E40EA0120E0701FE064E06A49E9E726
:109BD00060F0FF00029020700298000A6070DDE9DA
:109BE0000201000C40EA0140A070DDE90201000E14
:109BF00040EA0120E070FF2020716071A071E071E7
:109C000020726072A0720F20E07201202A46334653
:109C100000906D1C46F1000621460798FFF751F9A8
:109C2000C8BB4FF400720021204602F05DFC012009
:109C3000002110E001202A46334600906D1C46F1B9
:109C4000000621460798FFF73CF920BBDDE9020139
:109C5000401C41F10001CDE90201DDE90231B3EB25
:109C6000080271EB0B01E5D30198401C019089D0EB
:109C7000032F11D00C984FF0010B80462A46334633
:109C80006D1CCDF800B046F1000621460798FFF79D
:109C900018F900B902E058E01298ECE7A8F10100C9
:109CA0005FEA0008EAD1032F47D15220207060708C
:109CB0006122A2704121E170722084F8E40184F8ED
:109CC000E50184F8E61184F8E721DDE90E01401E84
:109CD00041F1FF3184F8E801020A84F8E921020C1D
:109CE00042EA0142000E84F8EA2140EA012084F8A9
:109CF000EB01022084F8EC01002084F8ED0184F8E7
:109D0000EE0184F8EF01552084F8FE01AA2084F8C2
:109D1000FF0119F101025D46CDF800B04AF10003E0
:109D200021460798FFF7CDF819F1070200954AF18F
:109D3000000321460798FFF7C4F800221146079850
:109D4000FFF742F800283FF495AC012088E40000BA
:109D50004E4F204E414D452020202046415420208A
:109D6000202020004E4F204E414D452020202046EF
:109D7000415433322020200000FFFF0017B581B08E
:109D8000144602980090684601F0FCFA002802DAB6
:109D90000B2004B010BD0B4B002253F8201001B172
:109DA0000A700199002900D00A7043F8201001D0F0
:109DB000012C01D00020ECE7002202A901A800F04C
:109DC00047FEE6E7800000202DE9F74F92B006003D
:109DD0000ED04FF0000B02F01F0727F0010213A96D
:109DE0006846C6F800B000F033FE050004D0B4E0C9
:109DF000092015B0BDE8F08F4FF4007000F0B0FC02
:109E00005FEA000A0AD00EA8CDE9090A684613994C
:109E100001F01AF8089C050002D003E01120E8E7E1
:109E200004B9062517F01C0F5AD055B1042D03D1E3
:109E30006846FEF709FE0546089C47F0080755B13D
:109E400062E0E07A10F0110F01D007255CE078079E
:109E500001D5082558E0380750D501F055F9A07311
:109E6000020AE273020C42EA0142000E40EA0120BB
:109E70002274607484F80BB084F81CB084F81DB0B0
:109E800084F81EB084F81FB02146009801F00AFF44
:109E90008046002289461346204604F03CF900998A
:109EA0000120087158EA090026D0009842464B4626
:109EB000D0E91410CDE90C10009803F007FB050061
:109EC00022D10098B8F1010149F1FF32C0E9041232
:109ED000DDE90C23009802F0E5FB051E0AD013E033
:109EE00095B9E07AC10601D504250DE0B90701D581
:109EF000C007AAD1380701D547F020070098D0E95C
:109F00001410B463C6E90C10504600F02DFC25BBBC
:109F1000B77186F807B05F462146009801F0C2FE8F
:109F2000C6E90601E07FA37F010A0206607F42EADC
:109F30000342000241EA1341024341EAE071207FFB
:109F40000243C6E904210020C6E90200F763C6E91E
:109F50000A0000983060C088B080284649E773B591
:109F600084B0040007D0002205A9684600F070FD07
:109F7000050003D02EE0092006B070BD00982060D7
:109F80004FF4007000F0ECFB06000CD001A8C4E90F
:109F900009062046059900F057FF0546304600F0B7
:109FA000E3FB15B113E01120E6E7216A39B1C87A65
:109FB000C00613D5009801F075FEC4E902010098AF
:109FC0000021C088A0802046FEF724FE0546042D0F
:109FD00004D00DB1002020602846CDE70525F9E723
:109FE0002DE9FC5F00259B46164604468A461D6007
:109FF00004F0D4FA002816D1E079002813D1A07912
:10A00000C0070FD0D4E90401D4E90223801A61EB20
:10A01000030104F140030193831B71F1000100D29D
:10A020000646A8E00720BDE8FC9F2089C0057CD13A
:10A03000D4E902232068510A41EAC35185786D1E94
:10A040002940C9B25FEA010918D152EA030105D0DB
:10A05000E16B31B12046FDF73FFB06E0D4E9060194
:10A0600003E0D4E9082300F0D5FF821E71F100025D
:10A0700023D3C2430A435DD0C4E90801D4E90823CD
:10A080002068FDF7A5FB50EA010216D010EB090885
:10A0900041F10007750A29D0206809EB0502817893
:10A0A0008A4201D9A1EB09050095407842463B461A
:10A0B0005146FEF7D7FEC8BB02E00220E071B2E7CE
:10A0C000A079400610D5D4E90A21B2EB080061EB73
:10A0D0000701431B71F1000106D20AEB40204FF447
:10A0E0000072019902F0F8F96D0236E0D4E90A2312
:10A0F00082EA080083EA070108431ED0A0794006DF
:10A100000BD501200090206801994078FEF7D9FE18
:10A1100060B9A07920F04000A07101200090206873
:10A1200042463B464078019901E008E002E0FEF734
:10A1300099FE10B10120E07175E7C4E90A87208912
:10A14000C0F30800C0F50075B54200D935460119C5
:10A150002A465046403102F0BFF9D4E90220521994
:10A1600040F10000C4E90220DBF80000AA444119D4
:10A17000761BCBF80010002E7FF457AF002052E77B
:10A180002DE9FC410025174604464E1E0FE001ABA9
:10A19000012269463846FFF723FF0198012808D1BC
:10A1A0009DF800006D1C04F8010B0A2801D0B5428F
:10A1B000EDDB002020702846BDE8FC81FEB50F468F
:10A1C000054604F0EBF904002FD18FB14FF4007075
:10A1D00000F0C6FA060011D06846C5E9090600215C
:10A1E0002846FEF7B1FB0446042809D05CB119E00B
:10A1F00000212846FEF70EFD044616E01120FEBDA4
:10A200000020C5E906003946284600F0A3FF0021DA
:10A210002846FEF7FDFA0446042803D10020C5E9CC
:10A2200006000446304600F09FFA2046FEBD0000BE
:10A230002DE9F1418FB001220FA9684600F008FC1A
:10A24000002844D18DF8300005460F9800E06D1CC1
:10A25000415D0029FBD100E06D1E9DB3411911F84D
:10A26000011C2029F8D0002426460DF130080F9952
:10A27000885D761CA0F181027D2A10D80A2C0DD2AF
:10A28000AE420BD2895DA1F140023E2A02D9403A8A
:10A290007E2A03D841EA0020761C00E0002001213C
:10A2A00000F038FA00F064FA002100F033FA0700F9
:10A2B0000CD0014637A0FDF707FA38B9FF2F02D9B5
:10A2C0000A2001E018E00B20A04203D8062010B0BD
:10A2D000BDE8F081FF2F03D9390A08F80410641C87
:10A2E000404608F80470641CAE42C0D320210B2CF9
:10A2F00002D20155641CFAE70020CDE902000146B4
:10A300006846FEF787FC0028E1D101216846FEF788
:10A310001BFB012458B30428D9D19DF8301000202C
:10A320000029D4D001216846FEF7BAF90028CED121
:10A3300020220021089802F0D7F80B220CA90898D7
:10A3400002F0CAF808990820C87200F0DDFE089AE9
:10A350009075089B020ADA75020C089B42EA0142DA
:10A36000000E1A7640EA0120089948760BE09DF825
:10A37000300028B10B220CA9089802F0ADF8E4E7F0
:10A380000899E520087000980471009803F04AFFCE
:10A390009DE70000222A2B2C2E3A3B3C3D3E3F5BA2
:10A3A0005D7C7F00F8B5044604F0F8F8002811D170
:10A3B000A1798A060ED548064FF001060FD5009602
:10A3C000206804F140014078D4E90A23FEF779FDC2
:10A3D00008B10120F8BDA07920F04000A071D4E9B7
:10A3E0000C23206802F05EF90028F3D1A56BE87A0F
:10A3F00040F02000E872207C2877208A000A6877E5
:10A400002069217D000C40EA0140A8772069217D68
:10A41000000E40EA0120E877D4E90623284603F03D
:10A420007AFE00F071FEA875020AEA75020C42EA93
:10A430000142000E2A7640EA012068760020A874C6
:10A44000E874A07920F02000A071206806712068CF
:10A45000BDE8F84003F0E6BE2DE9F1419BB00122D2
:10A460001BA9684600F0F4FA04005CD14FF40070B8
:10A4700000F076F95FEA000809D018A8CDE90908CC
:10A4800068461B9900F0E0FC040004D048E011206D
:10A490001CB0BDE8F081089F5FB1F87AC00700D01A
:10A4A00007243946009801F0FDFB05460E4614B11D
:10A4B00036E00624F5E7F87AC0061ED5A81E76F128
:10A4C000000001D202242BE0302269460CA802F0E1
:10A4D00003F8CDE90E5602210CA8FEF79BFB040001
:10A4E0001ED100210CA8FEF72FFA040003D0042C83
:10A4F00003D014B114E0072412E06846FEF758FBBD
:10A5000004000DD155EA060006D02A4633460098CD
:10A5100002F0DCFF040003D1009803F083FE044640
:10A52000404600F021F92046B2E72DE9FC5F002605
:10A530009B46154604468A461E6004F02FF8002804
:10A5400006D1E079002803D1A079800702D4072042
:10A55000BDE8FC9FD4E90201421941F1000304F176
:10A560004006101A01968B417DD3C2E02089C005B8
:10A570007AD1D4E902232668500A40EAC350B17860
:10A58000491E0840C0B25FEA000927D152EA030021
:10A5900005D0E06B58B12046FDF79EF80CE0D4E9F9
:10A5A000060150EA010207D11346304602E0D4E921
:10A5B00008233046FDF729F950EA010253D080F014
:10A5C00001020A433AD0C2430A436DD0C4E90801EC
:10A5D000D4E906231A4301D1C4E90601A079400653
:10A5E0000DD50120009020684078D4E90A23019914
:10A5F000FEF767FCC8BBA07920F04000A071D4E949
:10A6000008232068FDF7E4F850EA010216D010EBA9
:10A61000090841F100076E0A2ED0206809EB0602F6
:10A6200081788A4201D9A1EB09060096407842461A
:10A630003B465146FEF745FCB8B902E00220E07106
:10A6400086E7D4E90A21B2EB080061EB0701831B1E
:10A6500071F100010ED20AEB40214FF40072019813
:10A6600001F03AFF02E047E023E01DE0A07920F08E
:10A670004000A07176022EE0D4E90A0180EA0800C9
:10A680007940084313D004F10C00A2680BC8511A9A
:10A6900098410CD201200090206842463B46407809
:10A6A0000199FEF7DFFB10B10120E07150E7C4E92A
:10A6B0000A872089C0F30800C0F50076AE4200D9B1
:10A6C0002E46204432465146403001F005FFA07925
:10A6D00040F04000A071D4E90220921940F100003E
:10A6E000C4E90220DBF80000B2448119AD1BCBF8AD
:10A6F0000010002D7FF43AAF04F108000FC8121AC1
:10A700008B4101D2C4E90401A07940F02000A0717E
:10A7100000201DE770B580281BD345F2205409B1F5
:10A720000D4D00E00D4D00231022E11A01EBD17117
:10A7300003EB610135F82160864206D001D20B4659
:10A7400000E00C46521EF0D104E01AB105EB810086
:10A75000408870BD002070BDBC3C040838E8020889
:10A760000146002002F074B80146002002F064B8EF
:10A770000021064B00E0491C33F81120002A04D0C8
:10A780008242F8D1024830F8110070474091050824
:10A790002093050810B51B480024807900282CD090
:10A7A00019A0FEF778FE0246082804D01AB116A1B7
:10A7B00017A0FBF75BFF1FA0FEF76DFE02460828FF
:10A7C00004D01AB11BA112A0FBF750FF1CA0FEF78A
:10A7D00062FE0246082804D01AB119A10CA0FBF7AA
:10A7E00045FF1BA0FEF757FE0246082807D032B1EE
:10A7F000002417A106A0FBF739FF204610BD012455
:10A80000FBE7000094020020303A2F6D6E740000C8
:10A810006D6B646972202025732066616C696564C4
:10A82000202C726573203D202564202C21212120BD
:10A830000D0A0000303A2F6D6E742F6170700000A9
:10A84000303A2F6D6E742F617070667300000000D7
:10A85000303A2F4461746146696C650070B50C46EE
:10A86000054600F0D3FB064629462046F5F75BFD7A
:10A8700005F11E0104F11E00F5F755FD95F83A00AB
:10A8800084F83A0095F83B0084F83B0095F83C00CA
:10A8900084F83C00A86D2065E86D6065286DA065B2
:10A8A000686DE065286E2066686E606695F86800E1
:10A8B00084F86800B5F86A00A4F86900102205F170
:10A8C0006C0104F16B00F5F7E5FC95F87C0084F869
:10A8D0007B00142205F17E0104F17D00F5F7DAFC1E
:10A8E000012084F8910095F8930084F892000225E5
:10A8F00084F8A350002084F8A4000C4904F1A600B9
:10A90000F5F711FD3168C4F8B5107168C4F8B910D5
:10A91000B068C4F8BD0084F8C95004F1CA00BDE8AD
:10A92000704002491839F5F7FEBC0000B0DD02089E
:10A930002DE9F0412A4E8046A6B040F2FF10306269
:10A9400001F094FDF06100281FD026A11AA8FFF79E
:10A9500006FB040021D0024622A125A0FBF786FEBB
:10A96000642101A8F5F7AFFC1EA328A2632101A86A
:10A970000094FBF78BFE01A803F0BEFEF06900F027
:10A98000A3FA204626B0BDE8F08127A0FBF76EFEB3
:10A9900025A003F0B1FE1320F4E706F10D051049E0
:10A9A0001AA8FFF70BFC040015D1707B98B12E2874
:10A9B000F5D0F769387800B92F4623A13846F5F766
:10A9C0008DFC0028EBD03846F5F7A6FC0246394648
:10A9D0004046F5F75FFC1AA8FEF708FBCEE700003B
:10A9E00088FA0020303A2F6D6E742F61707000006D
:10A9F0006F70656E20202573206661696C65642028
:10AA00002C726573203D2025640D0A006F70656E01
:10AA1000202573206661696C6564202C7265732043
:10AA20003D2025640D0A00006D616C6C6F63206928
:10AA300066284E554C4C203D3D20666E6F2E6C6650
:10AA40006E616D65290D0A002E6C6E6300000000BA
:10AA50002DE9F04F89B04FF000080746C0F800809C
:10AA60001646084600F08EFC050003D50B2009B001
:10AA7000BDE8F08FF14850F825408CB13C6020785B
:10AA800020B16078FEF711FAC1070BD084F800807E
:10AA9000E8B26070FEF71CF9C10708D00320E6E7B2
:10AAA0000C20E4E70EB1400704D40020DFE71EB11C
:10AAB000400701D50A20DAE70026354632463346FC
:10AAC0002046FCF785FB012836D100226B4604EBBB
:10AAD000021191F81A0201F2162180B1C87A8F7A18
:10AAE000060A00064D7A40EA07402D02097A46EA36
:10AAF0001746284346EAE5760843314601E0002040
:10AB0000014603EBC205521CC5E90001042ADED34D
:10AB10000027994609EBC700D0E9006556EA050011
:10AB200005D032462B462046FCF752FB00E00220BF
:10AB300048B17F1C042FEDD3032802D000287DD11B
:10AB400001E0012093E7B4F86300B0F5007F75D110
:10AB5000B4F86E204146474652EA010012D194F8FB
:10AB60007F0094F87E30010A020694F87D0042EAE4
:10AB70000342000241EA1341024341EAE07194F8C2
:10AB80007C000243C4E90A21CDE9022194F868005F
:10AB9000E070012801D0022850D1A0FB023C07FB45
:10ABA00002C200FB0120CDE9003094F86520A270BC
:10ABB000002A43D0501E024240D1B4F869002081DF
:10ABC000049000073AD1B4F86B30394653EA0100DB
:10ABD00012D194F87B00010A030694F87A0043EA44
:10ABE000004341EA104194F879000002034341EA2E
:10ABF000E07194F878000343B4F866905FEA0900C6
:10AC000077D0BE46DDE9007819EB0707DDF810C004
:10AC10004EEB08004FEA1C1817EB080740EB0E003C
:10AC2000BA468346DF1BF44671EB000061D3B3EBF9
:10AC30000A0061EB0B01E046002300E059E0F5F764
:10AC4000C7FA50EA010254D040F6F6720127821A80
:10AC500071F1000200D302274FF6F672821A71F1E9
:10AC6000000200D30327801C41F100014B46C1467E
:10AC700016EB030845EB090C266316EB0A0245EBBD
:10AC80000B03C4E90801C4E9122304F13402032FC1
:10AC900082E82011049A2ED05AB3DDE9002318EB84
:10ACA00002024CEB030CC4E9102C022F42D0032209
:10ACB000A0FB02C801FB0281002300FB0310410836
:10ACC00094F820004FEA3C0300F00100181841EB13
:10ACD000090140F2FF1C10EB0C0C41F100004FEA9F
:10ACE0005C21DDE9023241EAC051400A591A824131
:10ACF00023D20D20BBE6002AFBD194F8872094F8DC
:10AD000086C0130A120642EA0C4243EA1C4394F836
:10AD100085C089004FEA0C2C42EA0C0243EAEC732E
:10AD200094F884C041EA907142EA0C02C4E910230D
:10AD30008000CEE700184941CBE74FF0FF310020FB
:10AD4000C4E90610C4E9041080206071032F6CD19F
:10AD5000B4F88800012868D1721C45F10003204630
:10AD600001F0A0FCF0BB84F80590B4F85602A0F501
:10AD70002A41553959D194F85B00020A010694F82A
:10AD80005A0041EA004142EA104294F85900000298
:10AD9000014342EAE07294F85800014328484140D8
:10ADA000114342D194F83F02020A010694F83E0290
:10ADB00041EA004142EA104294F83D020002014398
:10ADC00042EAE07294F83C0201431E4841401143BC
:10ADD0002BD194F84302010A020694F8420242EA97
:10ADE000004200E021E041EA104194F841020002F3
:10ADF000024341EAE07194F840020243C4E90621AB
:10AE000094F84702010A020694F8460242EA004218
:10AE100041EA104194F845020002024341EAE07120
:10AE200094F844020243C4E9042104492770091F2D
:10AE30000888401C0880E08037E600008000002081
:10AE4000525261417272416113B50446019908780A
:10AE50002F2801D05C2801D1491C01910020C4E9B0
:10AE6000020001980078202806D200212046FDF734
:10AE7000D1FE002121621CBD01A92046FCF782FD04
:10AE80000028F8D12046FDF72DFC616AC97A28B167
:10AE90000428F0D14907EED405201CBD4907FCD495
:10AEA000216AC87AC006F7D5206800F0FBFEC4E925
:10AEB0000201E1E703490A885206FCD5C2B28A8042
:10AEC000704700000010014010B5002821D0114B40
:10AED0000022001F196803E0814203D80A4649682E
:10AEE0000029F9D152B11368841A9C4204D1006838
:10AEF00018441060104602E0506000E0186039B15C
:10AF000002680B1A934203D10B681A440260496825
:10AF1000416010BDCC0400207CB516461C46054699
:10AF20000B2201F0D9FA052C12D91D4A0DE000219F
:10AF3000B61C231900F001041C194FEA5000E3036A
:10AF400000D55440491C1029F3D330880028EED195
:10AF500007226B4604F00F003030392800D9C01D9D
:10AF60009854521E2409F5D17E2000219854541E75
:10AF700006E081387D2802D8A14206D0491C491C30
:10AF8000914202D2685C2028F3D1082A02D2985C50
:10AF9000521C00E020206854491C0829F5D37CBDD0
:10AFA000211001000148807C70470000C002002091
:10AFB000064B93ED160B80ED000B93ED180B81ED16
:10AFC000000B93ED1A0B82ED000B7047C0020020BE
:10AFD0000B49002091F83910072906D2DFE801F06B
:10AFE000040506080A0C0E00012070470620704771
:10AFF00003207047042070470220704705207047E7
:10B00000C002002000487047D80400200048704764
:10B01000E30200202DE9F0410446901E154673F12D
:10B02000000005D3D4E90801281A73EB010001D30D
:10B0300001204FE020780021012810D002283BD0C9
:10B040000328F5D1D4E90E20E90941EA43615218F9
:10B0500040EBD313204601F025FBC8BB43E0D4E905
:10B060000E7305EB5506720A8846BA1843EB0803BF
:10B07000204601F017FB58BBC6F308002044761C9D
:10B0800090F85870D4E90E23710A521843EB080364
:10B09000204601F007FBD8B9C6F308002044E907B1
:10B0A00090F8580047EA002001D0000901E0C0F301
:10B0B0000B004146BDE8F081D4E90E20290A41EA9F
:10B0C0000361521840EB1323204601F0EBFA18B14C
:10B0D0004FF0FF300021EDE76819C0F3080020446D
:10B0E000B0F85800F6E7680604EBD05010F8582F77
:10B0F000C17842EA016281784078090441EA00207F
:10B10000024322F07040E5E710B51148FBF79AFFC3
:10B110000F48FBF7A3FF0E4840F2BC7182888A42B9
:10B1200000D28180017982794906A1F1F04141EA9A
:10B130004251C27941EA0241027841EAC221427891
:10B14000807841EA421141EA5000002110BD000020
:10B15000485C01202DE9F0410D4601F10D04D0E9D4
:10B1600006124FF0000C114338D00023026A2E273C
:10B17000D15C5B1C202918D0052900D1E521092BC1
:10B1800001D104F8017BA1F14106192E0BD892F8E8
:10B190000C80092B01D3102600E0082618EA060FC0
:10B1A00001D02031C9B204F8011B0B2BE0D3D17AB6
:10B1B0002973D17F0B0A0E06917F46EA014643EAC6
:10B1C0001143517F09020E4343EAE173117F0E439D
:10B1D000C5E90063118B2981D18A698184F800C097
:10B1E000EE69E046002E24D0D0E906120024114377
:10B1F0001DD0296AD9B1818DA1F57F42FF3A16D0C1
:10B20000876A10E00021FFF785FA40B1FF2802D9D4
:10B21000010A3155641C296A491EA14201D8002443
:10B2200005E03055641C37F8020B0028EAD106F817
:10B230000480BDE8F081000010B542F61001002046
:10B2400001F006FB04490028086004D1BDE8104065
:10B2500002A0FBF70BBA10BD480000202D2D2D2DAC
:10B260002D2D2D3E675F676E73735F646174615F40
:10B2700062756666206D616C6C6F63206661696CD7
:10B280000D0A0000044B10B51C7804705878087043
:10B290009878107010BD0000C801012010B58AB068
:10B2A00004004BD004AA05A906A800F05FF89DF899
:10B2B00010102B2901D2113105E09DF81400401C1B
:10B2C0008DF814002B398DF8101007AA08A909A8C9
:10B2D000FFF7D8FF9DF8100000213C2806D19DF80B
:10B2E00014008DF81010401C8DF814009DF8140007
:10B2F0003C2806D19DF818008DF81410401C8DF8DC
:10B3000018009DF81800182806D19DF81C008DF82B
:10B310001810401C8DF81C009DF81C009DF8103082
:10B320009DF814209DF818108DE80F009DF820302E
:10B330009DF8242002A12046FBF7C0F90AB010BDF9
:10B3400032302530326425303264253032642C208E
:10B350002530326425303264253032640D0A000015
:10B3600010B5F9F717FD80B210BD0000044B10B501
:10B37000DC780470187908705879107010BD0000DE
:10B38000C801012010B503464FF0FF301C68002CA7
:10B3900013D0214600E0491C0A78202A0ED33A2A0D
:10B3A000F9D114F8012B303A0A2A06D28C4204D182
:10B3B000022A02D2491C1046196010BD002010BD9F
:10B3C0000148807870470000940200209FED030B35
:10B3D000002901D0FBF78CB9704700000000000085
:10B3E000000000004E285FD00CDC44284FD004DC65
:10B3F000412829D043285DD13FE047280FD04D2870
:10B4000058D136E0532846D004DC502818D05228B2
:10B4100050D12AE056284BD05A284BD131E0092987
:10B4200048D2DFE801F04705470B09474707090005
:10B430000220704708207047092070470420704799
:10B44000022937D107207047092906D00F2906D0D5
:10B45000112906D0052906D02CE00A2070471020BB
:10B4600070471320704706207047072922D10B2010
:10B4700070470B291ED10C2070470C291AD10D20C2
:10B480007047072901D0032914D10E2070470E29D7
:10B4900010D10F207047042902D0082902D009E0FA
:10B4A0000520704711207047022903D103207047FF
:10B4B000112901D000207047122070470246002059
:10B4C000002902D01046F4F77CBF704730B505461E
:10B4D0002A4885B0007800284DD0294CA07938B191
:10B4E00005B02846BDE8304040222649F4F7D2BED8
:10B4F000234A0E32511E481EFFF738FFA17B2B292D
:10B5000001D2113103E0607B401C60732B391C4A6F
:10B51000A1731132511E481EFFF7B4FEA17B00201B
:10B520003C2903D1A073617B491C6173617B3C2979
:10B5300003D16073217B491C2173217B182903D11E
:10B540002073607C401C6074607C0DF1040CA37B54
:10B55000627B217B8CE80F00207C0090E37B0AA2B9
:10B560000CA10848FBF7AAF8402206492846F4F740
:10B5700091FE0120A07105B030BD00009A020020AC
:10B5800074040020282D0120303A2F446174614654
:10B59000696C650025732F6D6D6332302530326420
:10B5A00025303264253032642530326425303264EF
:10B5B000253032642E6770730000000030B50546F8
:10B5C000394887B0007800286BD0384CE07938B122
:10B5D00007B02846BDE8304040223549F4F75ABE4E
:10B5E000324A0E32511E481EFFF7C0FEA17B2B29A6
:10B5F00001D2113103E0607B401C60732B392B4A70
:10B60000A1731132511E481EFFF73CFEA17B0020A2
:10B610003C2903D1A073617B491C6173617B3C2988
:10B6200003D16073217B491C2173217B182903D12D
:10B630002073607C401C60741E48F4F76DFE38B9BE
:10B64000607C0090237CE27B1BA11A48FBF736F854
:10B65000184864216430F4F736FE164B1AA21BA179
:10B6600003F16400FBF72AF812486430FCF758F93C
:10B67000607C0DF1080CA37B627B217B8CE80F00C2
:10B68000217CE07BCDE900010A4B0FA211A1084803
:10B69000FBF714F8402206492846F4F7FBFD012089
:10B6A000E07107B030BD00009B0200207404002050
:10B6B000682D0120500401203230253032642530BD
:10B6C0003264253032640000313A000025732F25A2
:10B6D0007300000025732F25732F736432302530DB
:10B6E00032642530326425303264253032642530AE
:10B6F0003264253032642E677073000001F0A2BB03
:10B700004FF400510148F7F7F6BA0000001002406C
:10B710004FF400510148F7F7F0BA00000010024062
:10B720002DE9F041804688B001210220F8F726FC7F
:10B7300001218804F8F73AFC244F07220A213846F1
:10B74000F7F7C2FA07220B213846F7F7BDFA4FF494
:10B750004060049002208DF8140003258DF81550E8
:10B7600000248DF8164001268DF8176004A938468C
:10B77000F7F76EFAADF80440ADF80640ADF80840B2
:10B78000ADF80C400C20124CADF80A00CDF800804A
:10B7900069462046F9F79EFC01212046F9F752FC44
:10B7A000012240F225512046F9F77CFC27208DF834
:10B7B00018008DF819508DF81A508DF81B6006A8E6
:10B7C000F8F7B6FA08B0BDE8F081000000040240C6
:10B7D00000480040F0B5064687B001210420F8F784
:10B7E000CDFB01212020F8F7EDFB234D0822062197
:10B7F0002846F7F769FA082207212846F7F764FA7E
:10B8000002218DF814108DF81510C020002404902A
:10B810008DF8164001278DF8177004A92846F7F710
:10B8200017FAADF80440ADF80640ADF80840ADF8A1
:10B830000C400C20114CADF80A00009669462046D9
:10B84000F9F748FC01212046F9F7FCFB012240F200
:10B8500025512046F9F726FC47208DF818000320D3
:10B860008DF819008DF81A008DF81B7006A8F8F7EE
:10B870005FFA07B0F0BD000000080240001401406C
:10B8800000221321014802F073B90000C501002015
:10B8900070B5FFF787FB0446FFF79AFB05460228C1
:10B8A0006DD001221321374802F062F928B12046F9
:10B8B000FFF7E6FF08B1012400E00024072D5ED267
:10B8C000DFE805F022115D3F4E04310024B100F0A5
:10B8D0005DF808B1012000E0002088B3294800226B
:10B8E0001B21AB300BE024B100F050F808B101206F
:10B8F00000E0002020B3234800221B21623002F028
:10B9000037F9E8B1012034E01F4802F03DF91E4844
:10B910003A220121173802F05EF98CB11A48002250
:10B920003C211738EBE724B100F030F808B10120D2
:10B9300000E0002020B11348002214214E30DEE741
:10B940000CE024B100F022F808B1012000E0002052
:10B9500020B10C48002217217D30D0E7002008E0FC
:10B960000CB100F013F8074800221721943002F0C0
:10B97000FFF820B100F024F808B1012070BD0020CC
:10B9800070BD0000309605081602002010B508486A
:10B9900002F0FAF8064840220421193802F01BF997
:10B9A000034800224221BDE81040193802F0E0B8F7
:10B9B000540200200149002008707047C401002093
:10B9C00010B5244C207898BB01221321224802F0A4
:10B9D000CFF8207040B1204801221721133002F027
:10B9E000C7F808B1012000E00020207040B11A48DB
:10B9F000012213211C3802F0BBF808B1012000E03D
:10BA00000020207040B11448012213215D3802F05B
:10BA1000AFF808B1012000E00020207048B10E48C6
:10BA2000012217214A3802F0A3F810B1012001E0E9
:10BA30000DE00020207040B1074800221721333864
:10BA400002F096F808B1012000E000202070C0B29A
:10BA500010BD0000C401002006960508014880685A
:10BA6000406800473004002010B5FFF79BFA0446F9
:10BA700001221321194802F07BF840B11748012236
:10BA80001321C63002F074F808B1012000E0002054
:10BA900028B12046FFF7F4FE08B1012000E00020A5
:10BAA00040B10E4800221021D93002F061F808B1EF
:10BAB000012000E0002040B1084800221721E930B1
:10BAC00002F056F808B1012000E0002020B1FFF795
:10BAD00077FF08B1012010BD002010BD3096050889
:10BAE00010B501221321054802F042F820B1FFF7FA
:10BAF00067FF08B1012010BD002010BD3096050879
:10BB000010B540F245130A4A0AA10FA0FAF7AEFD9C
:10BB100002F06CF8040003D012A0FAF7A7FD05E0CC
:10BB20001AA0FAF7A3FD19A002F0E6FD204610BD09
:10BB3000309705082E2E5C4150505C436D64547262
:10BB40006D622E630000000066696C653D25732CF4
:10BB500066756E633D25732C6C696E653D25640DBD
:10BB60000A0000000D0A2073657420676E7373204D
:10BB7000636D642066726F6D20636F6E6669672007
:10BB8000737563656564210D0A0000000D0A736515
:10BB90007420676E737320636D642066726F6D200E
:10BBA000636F6E666967206661696C6564210D0A62
:10BBB00073657420676E73732064656661756C7459
:10BBC00020636D6420212121200D0A0010B5084C4E
:10BBD000064B00EB400203EB8200246843F822404E
:10BBE000490841600121417210BD000024AD0020D0
:10BBF000440000200448417821B10069052801D3A0
:10BC00000120704700207047300400204FF48071FD
:10BC10000148F7F769B800000000024070B586B02F
:10BC200016460C460546142219A16846F4F732FB65
:10BC300000230A2E05D1002D03DA2D206D4220703D
:10BC400001236846B5FBF6F106FB1151B5FBF6F58D
:10BC5000415CE1545B1C002DF4D10020E0542078BD
:10BC60002D2805D00022581E00EBD075134409E0A2
:10BC70000122F8E7981A2044A15C10F8016DA6543F
:10BC80000170521CB2EB650FF4DD06B0204670BDAA
:10BC90003031323334353637383941424344454602
:10BCA0000000000003460A46488B1B780021032B46
:10BCB00003D1928A110C40EA0240704710B5064C3D
:10BCC0006078012804D0FFF71BFD0120607010BDD3
:10BCD000FFF71EFD0020F9E750000020114882798F
:10BCE00001798A421CD081714FF47A70092917D2E8
:10BCF000DFE801F0110514070A0D0F11130000F021
:10BD000029B84FF4FA6009E04FF47A6006E040F693
:10BD1000B83000F009B800F012B8C82000F025B81B
:10BD2000704700005000002010B50446F7F722F8D5
:10BD3000FFF7E6FC2046BDE81040F8F7A3B910B5C0
:10BD4000F7F718F8F8F7ACF901F0B8FBBDE81040C8
:10BD5000FFF7DEBC10B5F7F70DF8F8F7A1F901F021
:10BD6000ADFBBDE81040FFF7CBBC10B50446F8F7BB
:10BD700097F901F0A3FB2046BDE81040F6F7ECBFB1
:10BD80002DE9F04FADF5237D0F4606464FF4007BBD
:10BD90004FF0000A594602A8F4F795FA20219BA813
:10BDA000F4F791FA072500242A4642A19BA8F4F74C
:10BDB00071FA3046FBF7F2FE4FF00109CDE9005968
:10BDC0009BAB402231463846FCF7BCFB3846FBF7BC
:10BDD0002FFF3846F4F7A0FA0026384D142804D275
:10BDE00037A0FAF743FC36A03BE00D213F48F4F7BB
:10BDF0006AFADFF8F8803968A8F14108404640F84F
:10BE0000411F79684160B9688160092108F13800F3
:10BE1000F4F759FAF968C8F838103969C8F83C10CD
:10BE200008F13802314932A0FAF720FC642182A8D7
:10BE3000F4F749FA08F1380000902C4B2CA263214A
:10BE400082A8FAF723FC82A802F056FC274800F1EA
:10BE50000D01025D0B5D9A420BD02DA0FAF706FC96
:10BE60002BA002F049FC3046AE700DF5237DBDE8F5
:10BE7000F08F641C0C2CECD31C480938F4F794FAAE
:10BE800001462FA0FAF7F2FB594602A8F4F71BFA75
:10BE900016480938F4F788FA034629A240F2FF1140
:10BEA00002A8FAF7F3FB02A802F026FC85F802903C
:10BEB0005046DAE767656F73756E000094020020E4
:10BEC000536F7272792C206C6963656E736520699B
:10BED0007320496E76616C69642E20506C656173C5
:10BEE0006520436865636B210D0A0000B9FA0020E4
:10BEF000546865206C6963656E7365206973207092
:10BF0000617273653A25732C2025730D0A000000B9
:10BF1000536F7272792C206C6963656E736520694A
:10BF20007320496E76616C69642E2044657669637E
:10BF30006549442069732077726F6E67210D0A008E
:10BF4000546865204C6963656E736520446174654F
:10BF50003A25640D0A00000010B5002458B151B113
:10BF600001F0C4FC60B107A0FAF780FB05A002F065
:10BF7000C3FB204610BD0F48FAF778FB0D48F6E7E3
:10BF8000012010BD6C6973745F6469725F6E616DCE
:10BF9000655F6669727374202C207363616E5F66DF
:10BFA000696C65732829206661696C6564210D0AD6
:10BFB000000000000C9D05082DE9F04FA1B0894656
:10BFC00007469046642101A8F4F77DF90620002574
:10BFD00000904FF0080A3021284600F039FC8346D3
:10BFE0002821002000F034FC0446BBF1000F1DD0D6
:10BFF000002C1BD040F2FF110020216200F028FC31
:10C00000E061002819D039465846FDF7A8FF060020
:10C0100071D00246394651A0FAF728FB642101A8E5
:10C02000F4F751F93B464DA200967CE058A0FAF790
:10C030001DFB57A002F060FB89E064A0FAF716FB35
:10C0400062A002F059FB652678E021465846FEF7CB
:10C05000B5F8060011D0014669A0FAF707FB642184
:10C0600001A8F4F730F9334665A2632101A8FAF775
:10C070000DFB01A802F040FB41E0607B28B12E28B7
:10C0800039D0E769387830B903E069A0FAF7EEFAF9
:10C0900035E004F10D07207BC0062CD43846F4F7B8
:10C0A0003BF9152827D100201A901B901C901D9059
:10C0B0001E901F905246F91C1AA8F4F721F907EBBD
:10C0C0000A011DA8C91C009AF4F71AF91AA8F4F776
:10C0D0006BF905EB450749F827001DA8F4F764F94B
:10C0E000014609EB870041602168A288890A41EA7C
:10C0F00082516D1C8160D8F80000A842A5D8D8F8FC
:10C100000000A84216D02A46294659A0C8F8005077
:10C11000FAF7ACFA642101A8F4F7D5F8D8F80000D2
:10C120002B4653A20090632101A8FAF7AFFA01A8A9
:10C1300002F0E2FA0020E16900F07EFB594600209F
:10C1400000F07AFB2146002000F076FB1EB10020B3
:10C1500021B0BDE8F08F0120FAE700006C6973742C
:10C160005F6469725F6E616D655F7365636F6E6456
:10C170002D6F70656E646972202573206661696C2D
:10C1800065642C20726573203D2025640D0A000033
:10C190006C6973745F6469725F6E616D655F73650E
:10C1A000636F6E64206966284E554C4C203D3D20DF
:10C1B0007372636469727C7C4E554C4C203D3D200B
:10C1C00066696E666F290D0A000000006C69737461
:10C1D0005F6469725F6E616D655F7365636F6E64E6
:10C1E000206966284E554C4C203D3D2066696E66A0
:10C1F0006F2D3E6C666E616D65290D0A00000000B2
:10C200006C6973745F6469725F6E616D655F73659D
:10C21000636F6E6420202D2D20665F7265616464FB
:10C2200069722C206572723D25640D0A00000000C1
:10C230006C6973745F6469725F6E616D655F73656D
:10C24000636F6E6420202D2D20665F7265616464CB
:10C2500069722C2020726561642066696C652065B6
:10C260006E64202C20627265616B210D0A00000053
:10C270005B776172696E675D2028696E6465783DE1
:10C2800025642920213D202866696C655F73756DE2
:10C290005F6E756D3D2564290D0A000049494848C7
:10C2A000FF2408604FF4A060F7F774FDA820FBF7A7
:10C2B0006BFF4FF4E135284602F056F8A800FFF76F
:10C2C0002FFA2846FFF786FA002000F035FA012001
:10C2D00000F032FAF6F780FCF8F776FA00F010FD7D
:10C2E000FEF790FE384DA860FEF7A6FFE86037A085
:10C2F000FAF7BCF9F8F70CFC00F08CFB3748F5F7BF
:10C3000004FC37A002F0F8F9FEF744FA4FF47A7013
:10C31000FBF750FFFAF7ACFEFAF7BEFF42F21076D9
:10C320003046FBF747FF364F012001F0FFFE0128A2
:10C3300015D034A0FAF79AF932A002F0DDF9641EA4
:10C3400014F0FF04F0D13F48FAF790F93D4802F0AD
:10C35000D3F93846F5F7D9FB01F08AF8E4E74FF452
:10C36000C0725F217F20FAF729F937A0FAF77EF92A
:10C370004FF42057384C03E03946A868FFF7BEF960
:10C3800020780028F8D0354905200022086040F2C6
:10C3900025513348F8F786FE32490020324C40F6EA
:10C3A000B8350860206820B92560FAF7BFFFFFF7AD
:10C3B00095FC01F0D9F83046F5F7A7FBF2E700004D
:10C3C0000000020808ED00E0000000206275662011
:10C3D000496E69742E2E2E2E0D0A000020A1070032
:10C3E0004445564943452056455253494F4E3A32EB
:10C3F000303231303733315F31390D0A00000000FF
:10C4000040420F005B776172696E675D474E535320
:10C4100020737461727475705F776F726B5F6D6F8C
:10C420006465206661696C656421202C616E6420FE
:10C43000436F6E74696E756520746F207472792114
:10C440000D0A0000889B050857444720496E69740F
:10C450002E2E2E2E0D0A0000310400204004002054
:10C4600000140140340000204C000020F0B50B30D7
:10C47000154D20F007010024144A0FE003688B4299
:10C480000BD38B4205D95E1A43184768C3E900678E
:10C4900000E04368136002C004E0021D1068002839
:10C4A000ECD12046002802D1286808B10020F0BD58
:10C4B000064A07481060074A121A22F00702C0E92C
:10C4C000002401202860D7E7D0040020CC040020FD
:10C4D00064B1012060B7012003E011F8013B00F8CE
:10C4E000013B521EF9D27047C9B201E000F8011BAE
:10C4F000521EFBD2704700002DE9F0412DED028B5A
:10C50000A0B007460025642104A8F3F7DCFE002F45
:10C510001DD01DAA1EA93FA0FCF771FD04001DD06F
:10C5200001463DA0FAF7A2F8642104A8F3F7CBFE78
:10C53000234639A2632104A8FAF7A8F804A802F058
:10C54000DBF8284620B0BDEC028BBDE8F0813FA0AF
:10C5500002F0D2F83DA0FAF789F8F2E71D9800231F
:10C560004FF00108D0E90812891E807842F1FF34AB
:10C57000A1FB002504FB005401FB0346DDE91E1569
:10C58000A0FB014C03FB01C100FB051571084FEA3C
:10C590003200F4F704F800EE100A9FED388A6908BB
:10C5A0004FEA340060EE088A0646F3F7F8FF00EE23
:10C5B000100A20EE088A18EE100AF3F7FEFF044670
:10C5C0000D4618EE900AF3F7F8FF41EC100B2CA083
:10C5D00053EC102BCDE90045FAF748F8642104A884
:10C5E000F3F771FE18EE100AF3F7E7FF04460D4665
:10C5F00018EE900AF3F7E1FF8DE8330020A26321E3
:10C6000004A8FAF743F804A802F076F840463E6022
:10C6100098E70000303A0000636865636B5F636110
:10C620007061636974795F617661696C61766C656C
:10C63000207364636172642066616C696564207252
:10C640006573203D2025640D0A0000006D6D635F59
:10C6500063617061636974795F6465746563742094
:10C6600020667265655F63617061636974792069D2
:10C6700073204E554C4C20210D0A000000008035DF
:10C680006D6D6320746F74616C203D20252E3266C1
:10C69000672C2066726565203D20252E3266670D69
:10C6A0000A000000F8B504461546D4E914015040CC
:10C6B00059401E46084311D0204601F01CFE48B9DF
:10C6C0000120009060782A46334604F15801FCF7B7
:10C6D000C9FB08B10120F8BDC4E914560020F8BD1B
:10C6E00070B5134A131893F8203093B1114B53F8D7
:10C6F00020308B421AD90F4B02EB80020C3B53F8CF
:10C7000020305069B1FBF3F130F8114000200346AE
:10C7100008E011688847012070BD55690E18401C5B
:10C7200025F81630A042F8DB002070BD022070BD55
:10C73000A8040020F49A050870B504460B480C4E76
:10C74000002150F8240006EB84054200686900F0DF
:10C750008FF806480021183050F82420A86800F00F
:10C7600087F80120311981F8200070BDDC9A050896
:10C77000A80400202DE9F0411F4E05460024701941
:10C780000F4690F8200010B93168284688474FF0CE
:10C79000FF327FB3194B53F82510B7FBF1F0B7FB0D
:10C7A000F1FC01FB1C7101B1401C14490C3951F81A
:10C7B0002510491E1ED406EB8506776937F811C08F
:10C7C000BCF1000F05D00024844211D1002284B2B4
:10C7D00007E0641CF8E7776901EB020C521C27F8AC
:10C7E0001C408242F7D353F825004843BDE8F0814E
:10C7F000491EE3D51046F9E7A8040020E89A050889
:10C8000010B50B4B0B4C002253F82030114604EBB3
:10C81000800005E0446934F8114004B1521C491C01
:10C820008B42F7D864204243B2FBF3F0C0B210BD94
:10C83000DC9A0508A8040020002906D0034A02EB70
:10C8400080029268891AFFF74BBF7047A804002046
:10C8500010B50446FFF78EFF411C05D0034901EBDC
:10C8600084018968084410BD002010BDA804002080
:10C8700001E000F8011B521EFBD27047F0B51E4FBD
:10C8800005460124B87999B00E4600282ED013220F
:10C890002846FDF799FA04000AD00246314617A04F
:10C8A000F9F7E4FE012C21D17879401C78711DE064
:10C8B000D5E904232846FCF732FC040005D00246E3
:10C8C000314615A0F9F7D2FE10E031461AA0F9F76B
:10C8D000CDFE64216846F3F7F6FC334616A26321C9
:10C8E0006846F9F7D3FE684601F006FF14B1002050
:10C8F00019B0F0BD0120FBE7940200206F70656E57
:10C900005F66696C652025732C20726573203D205D
:10C9100025640D0A0000000020665F6C7365656B7E
:10C920002066696C652025732C20726573203D207C
:10C9300025640D0A0000000066696C655F6E616D1C
:10C94000653A25730D0A0000F0B51E4F0546012417
:10C95000F87999B00E4600282ED013222846FDF70C
:10C9600033FA04000AD00246314617A0F9F77EFEDA
:10C97000012C21D13879401C38711DE0D5E9042300
:10C980002846FCF7CCFB040005D00246314615A032
:10C99000F9F76CFE10E031461AA0F9F767FE642142
:10C9A0006846F3F790FC334616A263216846F9F710
:10C9B0006DFE684601F0A0FE14B1002019B0F0BD74
:10C9C0000120FBE7940200206F70656E5F66696C62
:10C9D000655F73642025732C20726573203D2025CC
:10C9E000640D0A0020665F6C7365656B2066696C78
:10C9F000652025732C20726573203D2025640D0A67
:10CA00000000000066696C655F6E616D653A2573B4
:10CA10000D0A000070B5114D0024A87900281AD025
:10CA200013220FA11348FDF7CFF9010003D012A084
:10CA3000F9F71CFE0FE001206870044617A0F9F713
:10CA400015FE0C48D0E90423FCF769FB18B100245B
:10CA50001CA0F9F70BFE204670BD000094020020D8
:10CA6000303A2F6D6E742F6170702F6C6F672E745B
:10CA700078740000D8FA00204150502D6F70656E18
:10CA8000206C6F672E74787420206661696C656411
:10CA900020726573203D2025640D0A000D0A0D0AE1
:10CAA000415050202D6F70656E206C6F672E74782A
:10CAB00074202073756363656564202121210D0A4C
:10CAC00000000000415050202D206F70656E206CDA
:10CAD0006F672E7478742020665F6C7365656B20B9
:10CAE000206661696C65642121210D0A0000000047
:10CAF00070B5264D0C4624280BD0A97800261029A5
:10CB000024D009DC062903D00A291BD00D2907D11E
:10CB100070BD0120A87070BD1229FCD01329FAD075
:10CB2000FEF760FC0221A870102829D015DC062829
:10CB300017D00A281AD00D28EDD16E702E7084F807
:10CB4000401070BD214600F025F802E0214600F0BB
:10CB50007BF80028F5D0AE7070BD12280BD01328DA
:10CB6000FAD16E702E7084F8581070BD6E702E70F1
:10CB700084F8221070BD6E702E7084F85D1070BD48
:10CB80006E702E7084F8481070BD00007004002094
:10CB90000120704770B500250C462C2803D000F00A
:10CBA0001BFA284670BD264E31467078401CC0B234
:10CBB00070700978801E0D283FD2DFE800F0070D65
:10CBC0003E133E191F3E243E2D3E36000A461D49A7
:10CBD0002046FBF7B9FA30E01A48FEF7F7FB84ED80
:10CBE000020B2AE01748FEF7F1FB84ED040B24E06A
:10CBF0001448FEF763FC84F820001EE01148FEF79D
:10CC00005DFCE07019E00F48FEF7E0FB51EC100B03
:10CC1000F3F7E6FCA06110E00A48FEF7D7FB51EC01
:10CC2000100BF3F7DDFCE06107E00648FEF746FC79
:10CC300004F8210F01206070054600203070B0E735
:10CC4000700400203802012070B500250C462C2805
:10CC500003D000F0C1F9284670BD1A4E7078401C10
:10CC6000C1B2304671700278022906D003290AD079
:10CC700004290FD0052922D113E0134904F1420001
:10CC8000FBF762FA1BE011460F48FEF717FC84F829
:10CC9000470014E011460C48FEF710FC84F84600EB
:10CCA0000DE011460848FEF709FC6421B0FBF1F2E3
:10CCB00001FB120004F8450F0120E070054600203A
:10CCC0003070C8E770040020380201209FED081B77
:10CCD00010B553EC112B51EC100BF3F77FFB9FEDCC
:10CCE000061B53EC112BF3F7EBFB41EC100B10BDC3
:10CCF000182D4454FB2109400000000000806640CC
:10CD000000B5A1B080216846F3F7DDFA0DA315A2A6
:10CD10007F216846F9F7BAFC19A0F9F7A7FC694624
:10CD200024A0F9F7A3FC24A0F9F7A0FC2DA0F9F7A3
:10CD30009DFC38A0F9F79AFC11A0F9F797FC21B0F7
:10CD400000BD0000444556494345205645525349CD
:10CD50004F4E3A32303231303733315F31390D0A8C
:10CD6000000000002D2D2D2D2D2D2D2D2D2D257369
:10CD70002D2D2D2D2D2D2D2D2D2D2D2D0D0A000080
:10CD80002A2A2A2A2A2A2A2A2A2A2A2A2A2A2A2A03
:10CD90002A2A2A2A2A2A2A2A2A2A2A2A2A2A2A2AF3
:10CDA0002A2A2A2A2A2A2A2A2A2A2A2A2A2A2A2AE3
:10CDB0000D0A00002573000055736520636F7079BC
:10CDC0003273642E74787420746F20636F707920CE
:10CDD000454D4D43206461746120746F2073642E4F
:10CDE0000D0A00005573652064656C6574652E74CA
:10CDF000787420746F20636C65617220616C6C20A4
:10CE000074686520454D4D4320646174612E0D0AA0
:10CE10000000000055736520636F6E666967757268
:10CE2000652E696E6920746F206D6F646966792064
:10CE300074686520676E737320636F6D6D6F6E64C9
:10CE40002E0D0A0010B50446FEF78AFA010007D03D
:10CE50002046FAF7D1FFBDE8104002A0F9F706BC62
:10CE600010BD00002D2D2D2D2D2D2D2D2D2D2D3EC8
:10CE70006465636F64655F676E73735F6E6D656134
:10CE80002066696E6973680D0A000000F0B5304DC8
:10CE90000C4606462878E9789BB008432DD1FEF76A
:10CEA000A9FE002829D02B4800F036FF00F0D4FC62
:10CEB000297829A0F9F7DAFB2978E878084304D023
:10CEC0002BA0F9F7D3FB0120687029782EA0F9F781
:10CED000CDFBEA78297832A0F9F7C8FB642101A8D4
:10CEE000F3F7F1F9E87800902B782DA2632101A8DF
:10CEF000F9F7CCFB01A801F0FFFB6878354F18B3B8
:10CF0000FEF778FE00B3B4F5806F1BD342F6100035
:10CF1000844200D90446A505AD0D0CD0641B214602
:10CF2000304600F059FB31192A463046F3F7B2F982
:10CF30003D601BB0F0BD1BB021463046BDE8F0405F
:10CF400000F04ABB3C60F4E700203860F1E70000E5
:10CF500074040020B8550120675F737461746963BD
:10CF60005F6F70656E656431203D2025640D0A0099
:10CF7000675F7374617469635F6F70656E65643257
:10CF8000203D2025640D0A00675F73746174696336
:10CF90005F6F70656E656433203D2025640D0A0067
:10CFA00070726F635F7573625F7374617469635FDE
:10CFB0006D6F64652D2D6D6D63206F70656E203D06
:10CFC0002025642C7364206F70656E203D202564DD
:10CFD0000D0A000004000020074A10B51178002354
:10CFE000182901D3937010BD044C6054491CC8B279
:10CFF0001070235410BD000070040020380201207E
:10D000002DE9F05F0446DDE90A68901E154673F1CC
:10D01000000005D3D4E90801281A73EB010002D3FC
:10D020000220BDE8F09F2078002106F0FF094FF0B4
:10D03000010B012807D0022844D003285AD002202F
:10D0400084F804B0EDE7D4E90EC305EB55077A0A7E
:10D050008A461CEB020243EB0A032046FFF722FB41
:10D060000028EDD1C7F3080020445830E90703D069
:10D07000017869F31F1100E03146017084F804B0B3
:10D08000D4E90E237F1C790A521843EB0A03204689
:10D09000FFF708FB0028D3D1C7F30801214458311A
:10D0A000EA0704D0320942EA0872D2B208E00A78EC
:10D0B000330A43EA086302F0F00203F00F031A4355
:10D0C0000A70BDE7D4E90E20290A41EA036152182B
:10D0D00040EB13232046FFF7E5FA0028B0D1691989
:10D0E000C1F3080121444FEA162281F8589081F8D3
:10D0F0005920A5E7D4E90E20E90941EA4361521815
:10D1000040EBD3132046FFF7CDFA002898D16906EB
:10D1100004EBD15191F85B2091F85A30120642EAA3
:10D12000034202F07042324301F8582F150A4D7045
:10D13000150C45EA0845120E8D7042EA0822CA70A5
:10D140007EE7000070B5ADF5327D05460024142160
:10D15000ACA8F3F7B8F834219FA8F3F7B4F834215A
:10D1600092A8F3F7B0F825488079002844D092A817
:10D17000FDF7DEFB040001D021A032E027489299A0
:10D1800027A340F84E1F939941609499816092A81B
:10D19000009026A231219FA8F9F778FA01229FA9D1
:10D1A00002A8FCF711FE010006D022A0F9F75EFAF2
:10D1B00029A0F9F75BFA1FE02FA0F9F757FA01242D
:10D1C0001421ACA8F3F77FF802AA1421ACA8FCF74D
:10D1D000D7FF064602A8FBF7FBFE0EB1102E06D2C3
:10D1E0002D48F9F743FA00200DF5327D70BD10226D
:10D1F000ACA92846F3F74EF82046F5E79402002044
:10D20000656D6D632066696E64206C6E6320666177
:10D21000696C202121210D0A0000000078FA00200D
:10D22000303A2F6D6E742F617070000025732F25BA
:10D23000730000006F70656E5F66696C655F736494
:10D240002D2D2072736C74203D202564202C21210B
:10D2500021200D0A000000006F70656E206C69636C
:10D26000656E73652E74787420206661696C6564E0
:10D27000202121210D0A00006F70656E206C69630A
:10D28000656E73652E7478742020737563636565AD
:10D2900064202121210D0A00C49C05082DE9F04FCE
:10D2A000ADF53F7D89468246934600263421B2A8DB
:10D2B000F3F709F839488079002869D038A0009040
:10D2C0003BA33EA23121B2A8F9F7E0F90122B2A9AD
:10D2D00002A8FCF779FD040013D0024630A139A062
:10D2E000F9F7C4F9642192A8F2F7EDFF2CA335A257
:10D2F000632192A80094F9F7C9F992A801F0FCF90A
:10D3000046E027A137A0F9F7B1F90126802192A8BC
:10D31000F2F7D9FF00242746802192A8F2F7D3FF25
:10D3200002AA802192A8FCF72BFF054603281CD9EE
:10D330007F1C92AA394631A0F9F798F9802D1DD2A9
:10D340000AEBC41080468021F2F7BDFF40468022E0
:10D3500092A9F2F79FFF09F80450641CE4B21D2C57
:10D36000DAD300262BA0F9F781F902A8FBF730FEEB
:10D3700076B134B1641C8BF8004009E0002631A07E
:10D38000F1E73A48F9F772F9384801F0B5F90026A3
:10D390000DF53F7D3046BDE8F08F0000940200207F
:10D3A000636F6E6669677572652E696E690000004D
:10D3B000303A2F6D6E742F617070000025732F2529
:10D3C000730000006F70656E202573202066616910
:10D3D0006C65642C20726573203D202564210D0A44
:10D3E000000000006F70656E202573202073756348
:10D3F00063656564202121210D0A00007265616466
:10D4000020636D645B25645D203D205B25735D0DAD
:10D410000A0000007265616420636D64202D2D6830
:10D4200061732020746F6F206D616E792D2D4F75A3
:10D4300074206F662072616E6765202121210D0ABC
:10D44000000000007265616420636D64202D746FBC
:10D450006F206C6F6E672D2D4F7574206F66207274
:10D46000616E6765202121210D0A0000389C0508A6
:10D4700008A0F9F7FBF8012080F31388BFF34F8F62
:10D480000C4801680C4A01F4E06111430160BFF3EC
:10D490004F8FFEE72D2D2D2D2D2D2D2D2D2D2D2DAD
:10D4A0002D2D2D2D2D2D2D2D2D3E7265626F6F741E
:10D4B0000D0A00000CED00E00400FA054FF4804175
:10D4C0000148F5F71ABC0000001002402DE9FC47A6
:10D4D0000446901E90461E4673F1000006D3D4E920
:10D4E0000812B8EB010076EB020001D302201FE026
:10D4F0004FF000092EE0424633462046FDF78AFDF4
:10D500000D46074628432CD087F001002843EDD074
:10D51000F84328430BD00020CDE9000042463346B3
:10D520002046FFF76DFD5FEA00091AD102E00120F5
:10D53000814616E0D4E90601C2430A4308D0401CE4
:10D5400041F10001C4E90601607940F00100607119
:10D55000B8462E46D4E90812B8EB010076EB02007B
:10D56000C9D34846BDE8FC872DE9F041144800784E
:10D57000002822D0134D4FF420572868B8421CD3FE
:10D58000114E3078002818D1114C012030703A46E5
:10D590000E49E068F2F77EFE67602A680D49A2F541
:10D5A00020520A482A60F2F775FE00203070394692
:10D5B000E068BDE8F041FFF769BCBDE8F08100001C
:10D5C00031040020340000202C000020243D0020E5
:10D5D000000000202465002033B5A1B0054680215D
:10D5E0006846F2F770FE00F037F9394C607A05288A
:10D5F00029D2FDF7E5FE002835D0E06A012801D8E0
:10D600001F20E062421EE262142A2CD822A928467A
:10D61000F3F788FC10F0FF0060724FF0C801E16280
:10D6200021D080216846F2F74EFE2AA27F2168466B
:10D63000229BF9F72BF8684601F05EF82EA022999C
:10D64000F9F714F80FE0E26A4FF49670521CB2FB3F
:10D65000F0F100FB1120E26228B931A0F9F706F8D9
:10D660002FA001F049F82078E17808430FD042F666
:10D6700010013448F2F727FE29463248229AF2F781
:10D6800009FE304940F25440229AFBF73DFC2078D5
:10D69000012540B12C480269229881B2294800F046
:10D6A00065F850B165616079002804D1D4E90501BD
:10D6B000084300D0657123B030BD24A0F8F7D6FF31
:10D6C00022A001F019F8002060612070EBE7000053
:10D6D000740400203D3D3D3D3D2077726974652016
:10D6E000636F64652064617461207375636365733F
:10D6F000733A25640D0A00003D3D3D3D3D3D3D3DF5
:10D700003D3D3D3D777269746520636F64652074AB
:10D710006F2066696C65203A2025640D0A000000C0
:10D720003D3D3D3D3D3D3D3D3D3D3D3D7772697457
:10D730006520636F646520746F2066696C650D0AEF
:10D7400000000000A82D0120C85701205761726E0B
:10D75000696E672C577269746520456D6D6320662C
:10D7600061696C7572652E2E2E0D0A002DE9F0414F
:10D770001E4D804690B0287816460F46002450B9BA
:10D780006846FDF7A3FE69461948FFF777F810F0E1
:10D79000FF00287026D03146154800F0BDF910F082
:10D7A000FF0F4FF000060AD112A0F8F75FFF11A09B
:10D7B00000F0A2FF0E48F9F7B3FF00B12E703A4611
:10D7C00041460B4800F02CFF10F0FF040AD115A0D1
:10D7D000F8F74CFF13A000F08FFF0548F9F7A0FF02
:10D7E00000B12E7010B02046BDE8F0817404002016
:10D7F000C85701207365656B5F66696C652020669C
:10D8000061696C6564212C616E6420636C6F736563
:10D81000207361766520646174652066696C65219A
:10D82000210D0A0077726974655F66696C65202056
:10D830006661696C6564212C616E6420636C6F7332
:10D8400065207361766520646174652066696C6526
:10D8500021210D0A0000000030B51F4CA1B004F1D9
:10D860003A02511C20A8FDF70DFD9DF8800004F13F
:10D87000600200F5FA60A08704F1500104F158003D
:10D88000FDF796FB154DA87820B104F1740000F067
:10D8900095FA05E004F16C0000F090FA0120A87000
:10D8A0000F490D48FCF7DAFF287838B910A8FDF7C2
:10D8B0000DFE10A90B48FEF7E1FF2870E87800285C
:10D8C00007D16846FDF77AFE69460748FFF73CF83E
:10D8D000E87021B030BD0000B8550120740400206C
:10D8E00050020120C8570120085A0120F0B52DED43
:10D8F000028BA9B00C000746DFED538A2BD0534EA4
:10D90000002040F2FF1120603162FEF7A1FFF061BC
:10D91000002825D039461CA8FCF721FB050026D09D
:10D92000024639464AA0F8F7A1FE642102A8F2F7A0
:10D93000CAFC3B4646A2632102A80095F8F7A6FE62
:10D9400002A800F0D9FE0020F169FEF775FF2068FB
:10D95000002852D057E0132029B0BDEC028BF0BD57
:10D9600046A0F8F783FE45A000F0C6FEF3E737496E
:10D970001CA8FCF723FC05003BD1707BC0B32E280C
:10D98000F5D0F569287808B9304D0D35307BC006E3
:10D99000EDD4D6E90001F2F702FE00EE100ADFED49
:10D9A000400A20EE208A18EE100AF2F706FE41EC3B
:10D9B000100B294653EC102B3AA0F8F757FE6421C0
:10D9C00002A8F2F780FC18EE100AF2F7F6FDCDE996
:10D9D00000012B4633A2632102A8F8F757FE02A8E4
:10D9E00000F08AFE206878EE888A401C2060BEE73E
:10D9F000FFE71CA8FBF7FAFAA5E731A0F8F736FE17
:10DA00002FA000F079FE18EE900AF2F7D6FD41EC57
:10DA1000100B36A053EC102B2168F8F727FE642179
:10DA200002A8F2F750FC18EE900AF2F7C6FDCDE915
:10DA300000012EA2632102A82368F8F727FE02A89E
:10DA400000F05AFE284687E70000000010FA002088
:10DA50007363616E5F66696C65732D6F70656E646C
:10DA60006972202573206661696C6564202C72657B
:10DA700073203D2025640D0A000000007363616E71
:10DA80005F66696C6573206966284E554C4C203D75
:10DA90003D20666E6F2E6C666E616D65290D0A0005
:10DAA0000000803525732D2D2D2D2D2D2D2D2D2D67
:10DAB0002D53697A653A252E32664D0D0A00000015
:10DAC0007363616E5F66696C6573202D2D697320C9
:10DAD000656D70747920616E642066696C655F6E37
:10DAE000756D203D20300D0A000000000D0A5468BD
:10DAF000657265206172652025642066696C6573B6
:10DB00002C206120746F74616C206F6620252E328A
:10DB1000664D0D0A0D0A000010B50A460146094877
:10DB20000124807948B100230846FBF7F8FA040085
:10DB300003D0014604A0F8F799FD0CB1002010BDF8
:10DB4000012010BD940200207365656B5F66696CEF
:10DB500065202D2D2D665F6C7365656B2066616990
:10DB60006C65642C20726573203D2025640D0A00CD
:10DB7000AFF30080034A10B5D26892689047012045
:10DB800010BD000030040020F0B587B004466F4699
:10DB900002AE04AD2A4631463846FDF709FA9DED3E
:10DBA000000BFFF793F88DED000B9DED020BFFF7D7
:10DBB0008DF88DED020B0020C0F107017A5C225434
:10DBC0002218735C1372401C695CC0B2117408287F
:10DBD000F2D307B0F0BD10B5002303E0445C491C4C
:10DBE000234489B29142F9D3835410BD10B58AB051
:10DBF00020216846F2F767FB00208DF8200008AA74
:10DC000069460D48FFF74AFB040010D09DF820201C
:10DC10006946094800F042F8040005D107A0F8F76A
:10DC200025FD06A000F068FD0AB0204610BD12A038
:10DC3000F8F71CFD10A0F5E718E3002041667465B5
:10DC4000722067657420676E737320636D6420664D
:10DC5000726F6D20636F6E6669672066696C652CF4
:10DC6000207365742074686520636D642066616943
:10DC70006C210D0A000000007265616420676E73FC
:10DC80007320636D642066726F6D20636F6E6669CA
:10DC900067206661696C6520210D0A002DE9F0415D
:10DCA00000259AB00F4680462C46561EB4420EDA26
:10DCB000395D08EBC4100022FFF75AFF05000AD0B7
:10DCC0006420FAF777FA641CE4B21E2CEED31AB083
:10DCD0002846BDE8F081611C08A0F8F7C7FC642164
:10DCE0006846F2F7F0FA631C04A263216846F8F76D
:10DCF000CDFC684600F000FDE9E700007365742084
:10DD0000676E737320636D642564206661696C655A
:10DD1000640D0A0D0A00000070B504461EA1F2F75A
:10DD200002FB0025A57784F87E5021A104F1A7000D
:10DD3000F2F7F9FA1EA104F1B600F2F7F4FA16A10F
:10DD400004F1CB00F2F7EFFA84F8355084F836503E
:10DD500084F8375084F8385084F83950012084F81A
:10DD6000680084F87D50A4F86A5084F87C00022191
:10DD700084F8921084F8935084F8CA501720C4F89D
:10DD80009400C4F89800C4F89C00C4F8A00084F87B
:10DD9000A41084F8A65070BD434146552D475053FA
:10DDA00020434F4C4C45435445442044415441008A
:10DDB00046696C656470726F000000001FB5044610
:10DDC00003AA01A902A8FDF7D1FA9DF80C10009151
:10DDD0009DF804309DF8082002A12046F8F76EFC5B
:10DDE0001FBD0000253032643A253032643A2530B8
:10DDF0003264000010B518A0F8F738FC234C94F8F2
:10DE0000660230B1012806D0022820D0032805D1AF
:10DE10001FE01FA000E024A0F8F728FC94F83C12B3
:10DE200027A004F50F74F8F721FC218D2AA0F8F73C
:10DE30001DFCD4E90710090D41EA00312AA0F8F7CA
:10DE400015FC616ABDE810402DA0F8F70FBC31A0A9
:10DE5000E2E736A0E0E700002A2A2A2A2A2A2A2A0C
:10DE60002A2A2A654D4D4320494E464F2A2A2A2AFE
:10DE70002A2A2A2A2A2A2A2A2A2A2A2A2A2A2A2A02
:10DE80002A2A2A2A2A2A0D0A0000000020AE002091
:10DE90004361726420547970653A53445343205669
:10DEA000312E310D0A0000004361726420547970F4
:10DEB000653A534453432056322E300D0A00000079
:10DEC0004D4D43204D616E75666163747572657268
:10DED00049443A25640D0A004D4D43205243413ACE
:10DEE00025640D0A000000004D4D43204361706120
:10DEF000636974793A2564204D420D0A00000000E0
:10DF00004D4D4320426C6F636B53697A653A2564CB
:10DF10000D0A00004361726420547970653A5344DD
:10DF200048432056322E300D0A00000043617264CF
:10DF300020547970653A4D4D4320436172640D0A57
:10DF40000000000010B517A0F8F790FB2248F5F785
:10DF5000F1F8214C94F84E0030B1012806D0022887
:10DF60001BD0042805D11AE01CA000E022A0F8F77D
:10DF70007DFB14F82C1F26A0F8F778FB218C2BA032
:10DF8000F8F774FBA069810A2CA0F8F76FFBE16930
:10DF9000BDE810402FA0F8F769BB34A0E7E739A02F
:10DFA000E5E700002A2A2A2A2A2A2A2A2A2A2A5483
:10DFB000464361726420494E464F2A2A2A2A2A2A59
:10DFC0002A2A2A2A2A2A2A2A2A2A2A2A2A2A2A2AB1
:10DFD0002A2A2A2A0D0A0000CC34002043617264E8
:10DFE00020547970653A43415244545950455F4D2D
:10DFF0004D430D0A000000004361726420547970A3
:10E00000653A534453432056312E310D0A00000027
:10E01000544643617264204D616E75666163747528
:10E0200072657249443A25640D0A00005446436102
:10E030007264205243413A25640D0A0054464361FC
:10E0400072642043617061636974793A2564204D7C
:10E05000420D0A0054464361726420426C6F636B48
:10E0600053697A653A25640D0A00000043617264C1
:10E0700020547970653A534453432056322E300D64
:10E080000A0000004361726420547970653A534479
:10E0900048432056322E300D0A0000002DE9F04F83
:10E0A0004FF0000B8A465B4630E0AAEB03010022EA
:10E0B000A1F1010927E002EB420150F8214000EBF9
:10E0C0008101CF68BC420CD9D1E90156D1E904C81D
:10E0D00001F10C0EC1F808808EE87000C1E9007CE7
:10E0E00010E00FD10E694D68B5420BD9D1F814C0BC
:10E0F000D1F8088001F10C0EC1F808C08EE830019B
:10E10000C1E90076521C9145D5D85B1C5345CCD350
:10E110005846BDE8F08F8276110AC176110C41EAAB
:10E1200003410175090A41757047000070B5054645
:10E1300010A0F8F79BFA2E460024134D012E0ED1A5
:10E1400012A0F8F793FAFDF789FC31460400A97094
:10E1500005D024B14FF47A710920FDF737FD2CB9B1
:10E1600013A0F8F783FA12A000F0C6FA0020E870B6
:10E17000204670BD737461727420776F726B206D6E
:10E180006F64650D0A000000A40400206E65775FCF
:10E19000776F726B5F6D6F646520697320574F52A4
:10E1A0004B5F4D4F44455F5354415449430D0A0062
:10E1B000737461727420776F726B206D6F64652069
:10E1C0006661696C65642D2D2D73657420474E530F
:10E1D0005320636D64206661696C6564210D0A00DB
:10E1E00070B50B467AB10446521E01E0401C5B1C20
:10E1F00005781E78B542F9D016F0FF0F01D0601CEB
:10E20000EFE7204670BD002070BD014600200B22C4
:10E21000430803EBC01011F8013B521E1844C0B272
:10E22000F6D17047F8B5044600F065F8050060D1F6
:10E230002078032856D16079012853D1420204F195
:10E24000580000210646FEF74FF9552084F8560283
:10E25000AA2084F85702522084F8580084F8590004
:10E26000612284F85A20412084F85B00722184F8EE
:10E270003C1284F83D1284F83E0284F83F22208B41
:10E2800084F84002000A84F84102A069217F020C50
:10E2900042EA0142000E84F8422240EA012084F85A
:10E2A0004302208A84F84402000A84F84502206967
:10E2B000217D020C42EA0142000E40EA012084F86E
:10E2C000462284F84702D4E90C20521C40F1000396
:10E2D0000120C4E91423009060783146FAF7F1FD7B
:10E2E00000206071002260781146FAF76DFD00B1E0
:10E2F00001252846F8BD2DE9F8430446007970B39E
:10E30000D4E914654FF00108CDF8008004F15801FC
:10E31000607832462B468946FAF7D3FD10B10120CA
:10E32000BDE8F88300202071D4E90E12711A65EB64
:10E330000200D4E90A23891A984110D2E7780CE048
:10E34000D4E90A108E194541CDF800806078324634
:10E350002B464946FAF7B5FD7F1E022FF0D200206A
:10E36000DEE7401EFDD17047F0B50646012187B0BB
:10E370000846F5F703FE01211020F5F723FE234D93
:10E38000072209212846F4F79FFC07220A21284684
:10E39000F4F79AFC02218DF814108DF815104FF443
:10E3A000C060002404908DF8164001278DF8177086
:10E3B00004A92846F4F74CFCADF80440ADF806403B
:10E3C000ADF80840ADF80C400C20114CADF80A0037
:10E3D000009669462046F6F77DFE01212046F6F7B5
:10E3E00031FE012240F225512046F6F75BFE252042
:10E3F0008DF8180003208DF819008DF81A008DF89B
:10E400001B7006A8F5F794FC07B0F0BD00000240B1
:10E410000010014070B5074C054640212046F6F734
:10E420001BFE0028F9D029462046BDE87040F6F7CB
:10E43000ABBE00000014014008B52C480025009038
:10E440002C462B4B2B4A01212B48F7F71AF84FF497
:10E45000AB732A4A2AA12CA0F8F708F9314E324FA3
:10E46000AA460120F9F7A6FE397889451DD03878EB
:10E47000C00702D02DA0F8F7F9F83878800702D548
:10E480002DA0F8F7F3F83878400701D52DA000E06B
:10E4900030A0F8F7EBF83878000701D530A000E09D
:10E4A0002CA0F8F7E3F897F800903178884507D06A
:10E4B000307801280FD02FA0F8F7D8F896F8008010
:10E4C0006D1CEDB2C82DCCD138780025C00604D51E
:10E4D0000024012006E02CA0EEE7641CE4B20A2C24
:10E4E00001D95046307087F800A0BAE7A801002093
:10E4F000E40000204C010020D82C002020E8020875
:10E500006D61696E2E63000066696C653D25732C34
:10E5100066756E633D25732C6C696E653D25640DD3
:10E520000A000000A40100207E01002077726974B7
:10E53000652E2E2E2E0D0A00726561642E2E2E2E53
:10E540000D0A000072656164206572722E2E2E2EF7
:10E550000D0A0000636C65616E2E2E2E0D0A000000
:10E5600055534220526561642020457272200D0A85
:10E570000000000055534220446973436F6E6E657E
:10E58000637465642000000055534220436F6E6E33
:10E5900065637465642020202000000010B538B148
:10E5A000016829B10A781AB1CA888088824201D0EC
:10E5B000092010BD4878FAF778FCC007F9D003208D
:10E5C00010BD000010B54FF40773074A07A10CA057
:10E5D000F8F74CF8002209211048FFF7C9FA012882
:10E5E00000D0022010BD0000459705082E2E5C418A
:10E5F00050505C436D6454726D622E6300000000E5
:10E6000066696C653D25732C66756E633D25732CBC
:10E610006C696E653D25640D0A000000FD950508D6
:10E62000F8B5174F06460124B8791546002821D0C1
:10E630006B463046FBF779FF040008D0014611A075
:10E64000F8F714F8012C02D17879401C7871009900
:10E65000A94205D02A4616A0F8F708F8022409E0D6
:10E6600044B93046FBF79EFE040003D0014618A0D3
:10E67000F7F7FCFF0CB10020F8BD0120F8BD000049
:10E680009402002077726974655F66696C65202D5D
:10E690002D2D665F7772697465206661696C6564AB
:10E6A0002C20726573203D2025640D0A00000000B7
:10E6B00077726974655F66696C652D2D6272203DA5
:10E6C0002025642C6C656E203D2025642C0D0A00ED
:10E6D00077726974655F66696C65202D2D2D665FA4
:10E6E00073796E63206661696C65642C2072657352
:10E6F000203D2025640D0A00F8B51D4E0546012475
:10E70000B07900282ED0707800282BD02846F1F759
:10E7100003FE02466B4629461648FBF706FF040037
:10E7200009D00246294614A0F7F7A0FF012C02D118
:10E73000F078401CF0702846F1F7EEFD009A904208
:10E7400005D029461AA0F7F791FF02240AE04CB938
:10E750000848FBF727FE040004D00246294621A002
:10E76000F7F784FF0CB10020F8BD0120F8BD0000D0
:10E7700094020020D8FA002041505020777269742A
:10E78000655F6C6F675F62756666206661696C21A4
:10E79000202C2062756666203D2025732C20726532
:10E7A00073203D20256420212121200D0A00000036
:10E7B00077726974655F6C6F675F627566662D66F8
:10E7C00061696C212D2C62756666203D2025732CB5
:10E7D000206272203D202564202C212121200D0A59
:10E7E0000000000077726974655F6C6F675F627527
:10E7F0006666202D2D2D665F73796E6320666169D4
:10E800006C65642C2062756666203D2025732C2083
:10E81000726573203D20256420212121200D0A00EE
:10E820007573625F696E6974005541525436526562
:10E830006376446174610000A400E8A1A700ECA124
:10E84000A800A7A1B000E3A1B100C0A1B700A4A196
:10E85000D700C1A1E000A4A8E100A2A8E800A8A8F0
:10E86000E900A6A8EA00BAA8EC00ACA8ED00AAA8A6
:10E87000F200B0A8F300AEA8F700C2A1F900B4A856
:10E88000FA00B2A8FC00B9A80101A1A81301A5A82B
:10E890001B01A7A82B01A9A84401BDA84801BEA837
:10E8A0004D01ADA86B01B1A8CE01A3A8D001ABA8C2
:10E8B000D201AFA8D401B3A8D601B5A8D801B6A893
:10E8C000DA01B7A8DC01B8A85102BBA86102C0A850
:10E8D000C702A6A1C902A5A1CA0240A8CB0241A8AD
:10E8E000D90242A89103A1A69203A2A69303A3A6CC
:10E8F0009403A4A69503A5A69603A6A69703A7A688
:10E900009803A8A69903A9A69A03AAA69B03ABA657
:10E910009C03ACA69D03ADA69E03AEA69F03AFA627
:10E92000A003B0A6A103B1A6A303B2A6A403B3A6F5
:10E93000A503B4A6A603B5A6A703B6A6A803B7A6C3
:10E94000A903B8A6B103C1A6B203C2A6B303C3A666
:10E95000B403C4A6B503C5A6B603C6A6B703C7A627
:10E96000B803C8A6B903C9A6BA03CAA6BB03CBA6F7
:10E97000BC03CCA6BD03CDA6BE03CEA6BF03CFA6C7
:10E98000C003D0A6C103D1A6C303D2A6C403D3A695
:10E99000C503D4A6C603D5A6C703D6A6C803D7A663
:10E9A000C903D8A60104A7A71004A1A71104A2A710
:10E9B0001204A3A71304A4A71404A5A71504A6A7CB
:10E9C0001604A8A71704A9A71804AAA71904ABA797
:10E9D0001A04ACA71B04ADA71C04AEA71D04AFA767
:10E9E0001E04B0A71F04B1A72004B2A72104B3A737
:10E9F0002204B4A72304B5A72404B6A72504B7A707
:10EA00002604B8A72704B9A72804BAA72904BBA7D6
:10EA10002A04BCA72B04BDA72C04BEA72D04BFA7A6
:10EA20002E04C0A72F04C1A73004D1A73104D2A758
:10EA30003204D3A73304D4A73404D5A73504D6A70A
:10EA40003604D8A73704D9A73804DAA73904DBA7D6
:10EA50003A04DCA73B04DDA73C04DEA73D04DFA7A6
:10EA60003E04E0A73F04E1A74004E2A74104E3A776
:10EA70004204E4A74304E5A74404E6A74504E7A746
:10EA80004604E8A74704E9A74804EAA74904EBA716
:10EA90004A04ECA74B04EDA74C04EEA74D04EFA7E6
:10EAA0004E04F0A74F04F1A75104D7A710205CA98A
:10EAB000132043A81420AAA1152044A81620ACA115
:10EAC0001820AEA11920AFA11C20B0A11D20B1A11A
:10EAD000252045A82620ADA13020EBA13220E4A1BD
:10EAE0003320E5A1352046A83B20F9A1AC208000C9
:10EAF0000321E6A1052147A8092148A81621EDA177
:10EB0000212159A96021F1A26121F2A26221F3A27F
:10EB10006321F4A26421F5A26521F6A26621F7A281
:10EB20006721F8A26821F9A26921FAA26A21FBA251
:10EB30006B21FCA27021A1A27121A2A27221A3A229
:10EB40007321A4A27421A5A27521A6A27621A7A251
:10EB50007721A8A27821A9A27921AAA29021FBA1BC
:10EB60009121FCA19221FAA19321FDA1962149A80E
:10EB700097214AA898214BA899214CA80822CAA1FC
:10EB80000F22C7A11122C6A115224DA81A22CCA17D
:10EB90001D22D8A11E22DEA11F224EA82022CFA115
:10EBA00023224FA82522CEA12722C4A12822C5A115
:10EBB0002922C9A12A22C8A12B22D2A12E22D3A167
:10EBC0003422E0A13522DFA13622C3A13722CBA116
:10EBD0003D22D7A14822D6A14C22D5A1522250A82D
:10EBE0006022D9A16122D4A16422DCA16522DDA129
:10EBF000662251A8672252A86E22DAA16F22DBA1F9
:10EC0000952292A89922D1A1A522CDA1BF2253A8D5
:10EC10001223D0A16024D9A26124DAA26224DBA24B
:10EC20006324DCA26424DDA26524DEA26624DFA2C4
:10EC30006724E0A26824E1A26924E2A27424C5A2A8
:10EC40007524C6A27624C7A27724C8A27824C9A2B4
:10EC50007924CAA27A24CBA27B24CCA27C24CDA284
:10EC60007D24CEA27E24CFA27F24D0A28024D1A254
:10EC70008124D2A28224D3A28324D4A28424D5A224
:10EC80008524D6A28624D7A28724D8A28824B1A21C
:10EC90008924B2A28A24B3A28B24B4A28C24B5A264
:10ECA0008D24B6A28E24B7A28F24B8A29024B9A234
:10ECB0009124BAA29224BBA29324BCA29424BDA204
:10ECC0009524BEA29624BFA29724C0A29824C1A2D4
:10ECD0009924C2A29A24C3A29B24C4A20025A4A959
:10ECE0000125A5A90225A6A90325A7A90425A8A948
:10ECF0000525A9A90625AAA90725ABA90825ACA918
:10ED00000925ADA90A25AEA90B25AFA90C25B0A9E7
:10ED10000D25B1A90E25B2A90F25B3A91025B4A9B7
:10ED20001125B5A91225B6A91325B7A91425B8A987
:10ED30001525B9A91625BAA91725BBA91825BCA957
:10ED40001925BDA91A25BEA91B25BFA91C25C0A927
:10ED50001D25C1A91E25C2A91F25C3A92025C4A9F7
:10ED60002125C5A92225C6A92325C7A92425C8A9C7
:10ED70002525C9A92625CAA92725CBA92825CCA997
:10ED80002925CDA92A25CEA92B25CFA92C25D0A967
:10ED90002D25D1A92E25D2A92F25D3A93025D4A937
:10EDA0003125D5A93225D6A93325D7A93425D8A907
:10EDB0003525D9A93625DAA93725DBA93825DCA9D7
:10EDC0003925DDA93A25DEA93B25DFA93C25E0A9A7
:10EDD0003D25E1A93E25E2A93F25E3A94025E4A977
:10EDE0004125E5A94225E6A94325E7A94425E8A947
:10EDF0004525E9A94625EAA94725EBA94825ECA917
:10EE00004925EDA94A25EEA94B25EFA9502554A87F
:10EE1000512555A8522556A8532557A8542558A81A
:10EE2000552559A856255AA857255BA858255CA8EA
:10EE300059255DA85A255EA85B255FA85C2560A8BA
:10EE40005D2561A85E2562A85F2563A8602564A88A
:10EE5000612565A8622566A8632567A8642568A85A
:10EE6000652569A866256AA867256BA868256CA82A
:10EE700069256DA86A256EA86B256FA86C2570A8FA
:10EE80006D2571A86E2572A86F2573A8702574A8CA
:10EE9000712575A8722576A8732577A8812578A88D
:10EEA000822579A883257AA884257BA885257CA836
:10EEB00086257DA887257EA8882580A8892581A804
:10EEC0008A2582A88B2583A88C2584A88D2585A8D2
:10EED0008E2586A88F2587A8932588A8942589A89C
:10EEE00095258AA8A025F6A1A125F5A1B225F8A10E
:10EEF000B325F7A1BC258BA8BD258CA8C625F4A1F8
:10EF0000C725F3A1CB25F0A1CE25F2A1CF25F1A1F4
:10EF1000E2258DA8E3258EA8E4258FA8E52590A8F5
:10EF20000526EFA10626EEA1092691A84026E2A11A
:10EF30004226E1A10030A1A10130A2A10230A3A18B
:10EF40000330A8A10530A9A1063065A9073096A90C
:10EF50000830B4A10930B5A10A30B6A10B30B7A171
:10EF60000C30B8A10D30B9A10E30BAA10F30BBA141
:10EF70001030BEA11130BFA1123093A81330FEA1F2
:10EF80001430B2A11530B3A11630BCA11730BDA109
:10EF90001D3094A81E3095A8213040A9223041A9E7
:10EFA000233042A9243043A9253044A9263045A95D
:10EFB000273046A9283047A9293048A94130A1A4C3
:10EFC0004230A2A44330A3A44430A4A44530A5A455
:10EFD0004630A6A44730A7A44830A8A44930A9A425
:10EFE0004A30AAA44B30ABA44C30ACA44D30ADA4F5
:10EFF0004E30AEA44F30AFA45030B0A45130B1A4C5
:10F000005230B2A45330B3A45430B4A45530B5A494
:10F010005630B6A45730B7A45830B8A45930B9A464
:10F020005A30BAA45B30BBA45C30BCA45D30BDA434
:10F030005E30BEA45F30BFA46030C0A46130C1A404
:10F040006230C2A46330C3A46430C4A46530C5A4D4
:10F050006630C6A46730C7A46830C8A46930C9A4A4
:10F060006A30CAA46B30CBA46C30CCA46D30CDA474
:10F070006E30CEA46F30CFA47030D0A47130D1A444
:10F080007230D2A47330D3A47430D4A47530D5A414
:10F090007630D6A47730D7A47830D8A47930D9A4E4
:10F0A0007A30DAA47B30DBA47C30DCA47D30DDA4B4
:10F0B0007E30DEA47F30DFA48030E0A48130E1A484
:10F0C0008230E2A48330E3A48430E4A48530E5A454
:10F0D0008630E6A48730E7A48830E8A48930E9A424
:10F0E0008A30EAA48B30EBA48C30ECA48D30EDA4F4
:10F0F0008E30EEA48F30EFA49030F0A49130F1A4C4
:10F100009230F2A49330F3A49B3061A99C3062A9A1
:10F110009D3066A99E3067A9A130A1A5A230A2A505
:10F12000A330A3A5A430A4A5A530A5A5A630A6A567
:10F13000A730A7A5A830A8A5A930A9A5AA30AAA537
:10F14000AB30ABA5AC30ACA5AD30ADA5AE30AEA507
:10F15000AF30AFA5B030B0A5B130B1A5B230B2A5D7
:10F16000B330B3A5B430B4A5B530B5A5B630B6A5A7
:10F17000B730B7A5B830B8A5B930B9A5BA30BAA577
:10F18000BB30BBA5BC30BCA5BD30BDA5BE30BEA547
:10F19000BF30BFA5C030C0A5C130C1A5C230C2A517
:10F1A000C330C3A5C430C4A5C530C5A5C630C6A5E7
:10F1B000C730C7A5C830C8A5C930C9A5CA30CAA5B7
:10F1C000CB30CBA5CC30CCA5CD30CDA5CE30CEA587
:10F1D000CF30CFA5D030D0A5D130D1A5D230D2A557
:10F1E000D330D3A5D430D4A5D530D5A5D630D6A527
:10F1F000D730D7A5D830D8A5D930D9A5DA30DAA5F7
:10F20000DB30DBA5DC30DCA5DD30DDA5DE30DEA5C6
:10F21000DF30DFA5E030E0A5E130E1A5E230E2A596
:10F22000E330E3A5E430E4A5E530E5A5E630E6A566
:10F23000E730E7A5E830E8A5E930E9A5EA30EAA536
:10F24000EB30EBA5EC30ECA5ED30EDA5EE30EEA506
:10F25000EF30EFA5F030F0A5F130F1A5F230F2A5D6
:10F26000F330F3A5F430F4A5F530F5A5F630F6A5A6
:10F27000FC3060A9FD3063A9FE3064A90531C5A842
:10F280000631C6A80731C7A80831C8A80931C9A8DE
:10F290000A31CAA80B31CBA80C31CCA80D31CDA8AE
:10F2A0000E31CEA80F31CFA81031D0A81131D1A87E
:10F2B0001231D2A81331D3A81431D4A81531D5A84E
:10F2C0001631D6A81731D7A81831D8A81931D9A81E
:10F2D0001A31DAA81B31DBA81C31DCA81D31DDA8EE
:10F2E0001E31DEA81F31DFA82031E0A82131E1A8BE
:10F2F0002231E2A82331E3A82431E4A82531E5A88E
:10F300002631E6A82731E7A82831E8A82931E9A85D
:10F310002032E5A22132E6A22232E7A22332E8A27D
:10F320002432E9A22532EAA22632EBA22732ECA24D
:10F330002832EDA22932EEA231325AA9A33249A9CC
:10F340008E334AA98F334BA99C334CA99D334DA9C9
:10F350009E334EA9A1334FA9C43350A9CE3351A92E
:10F36000D13352A9D23353A9D53354A9004EBBD2BD
:10F37000014EA1B6024E4081034EDFC6044E4181CC
:10F38000054E4281064E4381074EF2CD084EC9D547
:10F39000094EFDC80A4ECFC90B4EC2CF0C4EA2D8A3
:10F3A0000D4EBBB20E4EEBD30F4E4481104EA4D87F
:10F3B000114EF3B3124E4581134EA8D7144ED2C747
:10F3C000154EA7D8164EC0CA174E4681184EF0C724
:10F3D000194EFBB11A4EB5D21B4ED4B41C4EABB66F
:10F3E0001D4EBFCB1E4EA9D81F4E4781204E4881CF
:10F3F000214E4981224EAAB6234E4A81244EBDC1D8
:10F40000254ECFD1264E4B81274EA5C9284EADD8CB
:10F41000294E4C812A4EF6B82B4EBED12C4EDCE341
:10F420002D4ED0D62E4E4D812F4E4E81304EE1B70F
:10F43000314E4F81324EAEB4334E5081344ED9C12D
:10F44000354E5181364EBCD8374E5281384EE8CDBC
:10F45000394EA4B53A4EAACE3B4EF7D63C4E538118
:10F460003D4EF6C03E4ED9BE3F4EAFD8404E5481C1
:10F47000414E5581424E5681434ECBC4444E578136
:10F48000454EC3BE464E5881474EB1D8484EB4C3D0
:10F49000494EE5D24A4E59814B4EAED64C4EDACE4D
:10F4A0004D4EA7D54E4EF5BA4F4EA6B7504ED6C0CC
:10F4B000514E5A81524EB9C6534ED2C5544EC7C74B
:10F4C000554E5B81564ED4B9574E5C81584ECBB3E6
:10F4D000594ED2D25A4E5D815B4E5E815C4EBFD892
:10F4E0005D4EC5BE5E4EF2C65F4EB2D2604EB0CF2C
:10F4F000614EE7CF624E5F81634E6081644E6181F1
:10F50000654E6281664EE9CA674E6381684E6481CA
:10F51000694EC0D86A4E65816B4E66816C4E6781BC
:10F520006D4E68816E4E69816F4E6A81704EF2C277
:10F53000714ED2C2724E6B81734EE9C8744E6C81AB
:10F54000754E6D81764E6E81774E6F81784E7081EB
:10F55000794E71817A4E72817B4E73817C4E7481BB
:10F560007D4E75817E4EACC77F4E7681804E778111
:10F57000814E7881824E7981834E7A81844E7B815F
:10F58000854E7C81864ECBC1874E7D81884EE8D3E7
:10F59000894EF9D58A4E7E818B4EC2CA8C4EFEB6FC
:10F5A0008D4EA1D88E4EDAD38F4EF7BF904E80810C
:10F5B000914EC6D4924EA5BB934EC1D8944EE5CE83
:10F5C000954EAEBE964E8181974E8281984EA8D8B8
:10F5D000994E83819A4EC7D19B4EA9D09C4E84816F
:10F5E0009D4E85819E4E86819F4EBDD8A04EEFD9FF
:10F5F000A14EF6CDA24EBABFA34E8781A44EBBBD8D
:10F60000A54EA5BAA64EE0D2A74EFAB2A84EE0BAD1
:10F61000A94EB6C4AA4E8881AB4EEDCFAC4EA9BE62
:10F62000AD4EA4CDAE4EC1C1AF4E8981B04E8A81E0
:10F63000B14E8B81B24ED7C7B34EF1D9B44E8C8147
:10F64000B54EF4D9B64E8D81B74E8E81B84E8F81AE
:10F65000B94E9081BA4ECBC8BB4EE9D8BC4E918111
:10F66000BD4E9281BE4E9381BF4EDAD2C04EB2CA19
:10F67000C14ECAC8C24EECD8C34EEAD8C44EC6D892
:10F68000C54EF6BDC64ECDC6C74EF0B3C84E94812A
:10F69000C94EEBD8CA4EF1BDCB4EE9BDCC4E9581DB
:10F6A000CD4ED4C8CE4ED3B4CF4E9681D04E978196
:10F6B000D14ED8C2D24E9881D34ED6B2D44ED0D7E6
:10F6C000D54ECBCAD64EFBCBD74ECCD5D84EB6B83E
:10F6D000D94EC9CFDA4E9981DB4E9A81DC4E9B819F
:10F6E000DD4EDAD9DE4EF0D8DF4EAAC7E04E9C815F
:10F6F000E14EEED8E24E9D81E34EFAB4E44EEEC107
:10F70000E54ED4D2E64E9E81E74E9F81E84EEDD87D
:10F71000E94EA081EA4EC7D2EB4EEFD8EC4EC7C3FC
:10F72000ED4EA181EE4EA281EF4EA381F04EF6D1B7
:10F73000F14EA481F24ED9D6F34EF2D8F44EA58103
:10F74000F54EF5D8F64EFEBCF74EDBBCF84EA68162
:10F75000F94EA781FA4EA881FB4ECEC8FC4EA98176
:10F76000FD4EDDB7FE4EAA81FF4EC2B7004FAB8102
:10F77000014FF3C6024FAC81034FAD81044FAE8100
:10F78000054FAF81064FB081074FB181084FB2815D
:10F79000094FF8D80A4FC1D20B4FB3810C4FB48137
:10F7A0000D4FE9CE0E4FBFBC0F4FFCB7104FA5B7A2
:10F7B000114FDDD0124FB581134FB681144FB78171
:10F7C000154FB881164FB981174FDAD6184FC5D3E8
:10F7D000194FEFBB1A4FE1BB1B4FF1D81C4FBA8139
:10F7E0001D4FBB811E4FA1C91F4FB0CE204FABB4E0
:10F7F000214FBC81224FF3D8234FBD81244FCBC969
:10F80000254FF6D8264FD7C2274FF7D8284FBE81AD
:10F81000294FBF812A4FB1CE2B4FF9D82C4FC08131
:10F820002D4FC1812E4FC2812F4FAEB2304FC0B984
:10F83000314FC381324FA3D9334FC481344FE9B024
:10F84000354FC581364FE6C1374FC681384FECC9B9
:10F85000394FC7813A4FC5CB3B4FC8813C4FC6CBD0
:10F860003D4FA4D93E4FC9813F4FCA81404FCB8104
:10F87000414FCC81424FCD81434FE8B5444FCE81BB
:10F88000454FCF81464FABB5474FD081484FD181CF
:10F89000494FD2814A4FD3814B4FD4814C4FD581B0
:10F8A0004D4FBBCE4E4FCDB54F4FA1D7504FF4D794
:10F8B000514FD3D3524FD681534FE5CC544FD781BC
:10F8C000554FCEBA564FD881574FA2D9584FDCD991
:10F8D000594FE0D35A4FFDD85B4FF0B75C4FF7D785
:10F8E0005D4FFED85E4FFAD85F4FA1D9604FE3C499
:10F8F000614FD981624FDA81634FB6D3644FF4D838
:10F90000654FDDD9664FDB81674FFBD8684FDC81DF
:10F91000694FE5C56A4FDD816B4FDE816C4FD0C00A
:10F920006D4FDF816E4FE0816F4FF0D1704FDBB0D4
:10F93000714FE181724FE281734FD1BC744FA6D9F0
:10F94000754FE381764FA5D9774FE481784FE581F4
:10F95000794FE6817A4FE7817B4FACD97C4FAED9A6
:10F960007D4FE8817E4FABD97F4FB9CA804FE98187
:10F97000814FEA81824FEB81834FA9D9844FB6D65C
:10F98000854FEC81864FED81874FEE81884FDEB346
:10F99000894FA8D98A4FEF818B4FFDC08C4FF081E2
:10F9A0008D4FCCCA8E4FF1818F4FAAD9904FF281E3
:10F9B000914FA7D9924FF381934FF481944FB0D9CF
:10F9C000954FF581964FF681974FB1B6984FF781D5
:10F9D000994FF8819A4FF9819B4FA9B99C4FFA81B1
:10F9E0009D4FC0D29E4FFB819F4FFC81A04FC0CF47
:10F9F000A14FFD81A24FFE81A34FC2C2A44F4082FE
:10FA0000A54FC4BDA64FECD5A74FE0B2A84FC8C7BD
:10FA1000A94FEBBFAA4FADD9AB4F4182AC4FAFD985
:10FA2000AD4F4282AE4FEACEAF4FEEBAB04F4382F7
:10FA3000B14F4482B24F4582B34F4682B44F4782A2
:10FA4000B54FD6C7B64F4882B74F4982B84F4A82A2
:10FA5000B94F4B82BA4F4C82BB4F4D82BC4F4E8246
:10FA6000BD4F4F82BE4F5082BF4FE3B1C04F518256
:10FA7000C14F5282C24F5382C34FD9B4C44FEDB667
:10FA8000C54FB4D9C64F5482C74F5582C84F56820E
:10FA9000C94F5782CA4FA1BFCB4F5882CC4F598212
:10FAA000CD4F5A82CE4FDED9CF4FCEC7D04FFEC0FA
:10FAB000D14FB8D9D24F5B82D34F5C82D44F5D8295
:10FAC000D54F5E82D64F5F82D74FD7CBD84FFDB789
:10FAD000D94F6082DA4FB5D9DB4F6182DC4FB7D99D
:10FAE000DD4FA3B1DE4FE1D3DF4FB9D9E04F6282E2
:10FAF000E14FC5D0E24F6382E34FB6D9E44F648251
:10FB0000E54F6582E64FB1D9E74F6682E84FB2D93B
:10FB1000E94FA9C1EA4FB3D9EB4F6782EC4F688236
:10FB2000ED4FF3BCEE4FDED0EF4FA9B8F04F698236
:10FB3000F14FE3BEF24F6A82F34FBDD9F44F6B82AF
:10FB4000F54F6C82F64F6D82F74F6E82F84FBAD93F
:10FB5000F94F6F82FA4FB3B0FB4F7082FC4F718246
:10FB6000FD4F7282FE4FC2D9FF4F738200507482E4
:10FB70000150758202507682035077820450788259
:10FB80000550798206507A8207507B8208507C8229
:10FB900009507D820A507E820B5080820C50C4D95D
:10FBA0000D50B6B10E5081820F50BFD910508282D5
:10FBB000115083821250B9B5135084821450F3BE91
:10FBC0001550858216508682175087821850C8CCEF
:10FBD0001950F2BA1A50D0D21B5088821C50C3D987
:10FBE0001D5089821E508A821F50E8BD20508B8292
:10FBF0002150ABB322508C8223508D8224508E82B0
:10FC00002550C5D92650EBBE27508F822850C6D923
:10FC10002950BBD92A50DFC42B5090822C50BED91A
:10FC20002D50C1D92E50C0D92F5091823050928280
:10FC30003150938232509482335095823450968260
:10FC400035509782365098823750998238509A8230
:10FC500039509B823A50AED53B509C823C50B5D631
:10FC60003D509D823E50E3C73F509E8240509F8250
:10FC70004150A0824250A1824350C8D94450A28230
:10FC80004550A3824650A4824750D9BC4850CAD997
:10FC90004950A5824A50A6824B50A7824C50BCD9ED
:10FCA0004D50A8824E50CBD94F50ABC65050A98270
:10FCB0005150AA825250AB825350AC825450AD8204
:10FCC0005550C9D95650AE825750AF825850B08265
:10FCD0005950B1825A50F6D75B50B2825C50A3CDD6
:10FCE0005D50B3825E50B4825F50B5826050B68280
:10FCF0006150B7826250B8826350B9826450BA8250
:10FD00006550A1BD6650BB826750BC826850BD8201
:10FD10006950BE826A50BF826B50C0826C50CCD991
:10FD20006D50C1826E50C2826F50C3827050C482C7
:10FD30007150C5827250C6827350C7827450C88297
:10FD40007550C9827650BCC57750B5CD7850CA82FF
:10FD50007950CB827A50CC827B50CDD97C50CD82E9
:10FD60007D50CE827E50C7D97F50A5B38050FEBF54
:10FD70008150CF828250D0828350D1828450D282EF
:10FD80008550B5B88650D3828750D4828850FCC045
:10FD90008950D5828A50D6828B50D7828C50D88297
:10FDA0008D50F8B08E50D9828F50DA829050DB821D
:10FDB0009150DC829250DD829350DE829450DF823B
:10FDC0009550E0829650E1829750E2829850E3820B
:10FDD0009950E4829A50E5829B50E6829C50E782DB
:10FDE0009D50E8829E50E9829F50EA82A050EB82AB
:10FDF000A150EC82A250ED82A350F6B4A450EE8242
:10FE0000A550CED9A650EF82A750CFD9A850A2B402
:10FE1000A950D0D9AA50F082AB50F182AC50DFB4D7
:10FE2000AD50F282AE50F382AF50F482B050F58202
:10FE3000B150F682B250C1B0B350F782B450F882DC
:10FE4000B550F982B650FA82B750FB82B850FC82A6
:10FE5000B950FD82BA50D1D9BB50B5C9BC50FE8251
:10FE6000BD504083BE504183BF504283C050438346
:10FE7000C1504483C2504583C3504683C450478316
:10FE8000C5504883C6504983C7504A83C8504B83E6
:10FE9000C9504C83CA504D83CB504E83CC504F83B6
:10FEA000CD505083CE505183CF50F1CFD05052839C
:10FEB000D1505383D2505483D3505583D45056835A
:10FEC000D5505783D650D2D9D7505883D85059835C
:10FED000D9505A83DA50C5C1DB505B83DC505C8358
:10FEE000DD505D83DE505E83DF505F83E0506083D2
:10FEF000E1506183E2506283E3506383E4506483A2
:10FF0000E5506583E650D6D9E750AEC9E850668320
:10FF1000E9506783EA506883EB506983EC50D5D988
:10FF2000ED50D4D9EE50D7D9EF506A83F0506B839F
:10FF3000F1506C83F2506D83F350DBCBF4506E8341
:10FF4000F550A9BDF6506F83F7507083F850718358
:10FF5000F9507283FA507383FB50A7C6FC50748328
:10FF6000FD507583FE507683FF5077830051788370
:10FF70000151798302517A8303517B8304517C833D
:10FF800005517D830651D3D90751D8D908517E83B5
:10FF9000095180830A5181830B51D9D90C51828335
:10FFA0000D5183830E5184830F51858310518683B5
:10FFB000115187831251E5C81351888314518983E5
:10FFC00015518A8316518B8317518C8318518D8359
:10FFD00019518E831A518F831B5190831C51918329
:10FFE0001D5192831E5193831F51948320519583F9
:10FFF0002151DCC022519683235197832451988349
:020000040803EF
:100000002551998326519A8327519B8328519C839C
:1000100029519D832A519E832B519F832C51A0836C
:100020002D51A1832E51A2832F51A3833051A4833C
:100030003151A5833251A6833351A7833451A8830C
:100040003551A9833651AA833751AB833851AC83DC
:100050003951AD833A51AE833B51AF833C51B083AC
:100060003D51B1833E51B2833F51F9B64051A3D8BF
:100070004151CAD44251B3834351AAD44451D6D03A
:100080004551E4B34651D7D54751B4834851C8CF01
:100090004951E2B94A51B5834B51CBBF4C51B6835C
:1000A0004D51E2C34E51B7834F51B8835051B9837C
:1000B0005151D2B65251BA835351BB835451C3CD1F
:1000C0005551EED95651F0D95751BC835851BD8383
:1000D0005951BE835A51B3B55B51BF835C51B5B61C
:1000E0005D51C0835E51C1835F51C2836051C38340
:1000F0006151C4836251A4BE6351C5836451C683F8
:100100006551EBC86651C7836751C8836851ABC856
:100110006951C9836A51CA836B51CBB06C51ABB979
:100120006D51F9C16E51E2D96F51CB837051BCC092
:100130007151B2B97251CC837351D8B97451CBD0CB
:100140007551F8B17651E4C67751DFBE7851E4B508
:100150007951C8D77A51CD837B51F8D17C51E6BC17
:100160007D51DECA7E51CE837F51CF838051BDBC8D
:100170008151E6D98251E7D88351D0838451D1830C
:100180008551DAC48651D2838751D3838851D4B83C
:100190008951BDC88A51D4838B51D5838C51E1B22A
:1001A0008D51D9D48E51D6838F51D7839051D88316
:1001B0009151D9839251B0C39351DA839451DB8327
:1001C0009551E1C39651A2DA9751DFC89851DC836B
:1001D0009951B4D09A51DD839B51FCBE9C51A9C565
:1001E0009D51DE839E51DF839F51E083A051DAB998
:1001F000A151E183A251A3DAA351E283A451A9D46E
:10020000A551A4DAA651E383A751E483A851E5835D
:10021000A951E683AA51E783AB51FBD9AC51ACB6E7
:10022000AD51E883AE51E983AF51EBB7B051F9B1AD
:10023000B151FCD9B251E5B3B351F6BEB451EA8322
:10024000B551F6BFB651B1D2B751E4C0B851EB8346
:10025000B951EC83BA51ED83BB51B3B6BC51FED951
:10026000BD51FDD9BE51EE83BF51EF83C051BBBE1E
:10027000C151F083C251F183C351F283C451E0C62E
:10028000C551F383C651BCD7C751A1DAC851F48315
:10029000C951B9C1CA51F583CB51F2B5CC51E8C1AE
:1002A000CD51F683CE51F783CF51F5BCD051F883B1
:1002B000D151D5B4D251F983D351FA83D451FB83B0
:1002C000D551FC83D651FD83D751FE83D85140844C
:1002D000D9514184DA514284DB51DDC1DC51438480
:1002E000DD51FDC4DE514484DF514584E051B8BC8A
:1002F000E151B2B7E2514684E3514784E451EFB78C
:10030000E5514884E6514984E7514A84E8514B84D9
:10031000E9514C84EA514D84EB51ECD9EC514E84B7
:10032000ED51BEC6EE514F84EF51ADBFF051CBBB86
:10033000F1515084F2515184F351CAB5F4515284B1
:10034000F551C9DBF651D7D0F7515384F851B9CDE7
:10035000F951BCB0FA51F6B3FB51F7BBFC51CADB03
:10036000FD51AFBAFE515484FF51E4D40052B6B5EA
:100370000152F3B50252D6D80352D0C80452558464
:10038000055256840652D6B70752D0C70852D7D85E
:10039000095257840A52AFBF0B5258840C525984E9
:1003A0000D52BBDB0E52D8D80F525A8410525B84C8
:1003B0001152CCD01252AEBB13525C8414525D84E5
:1003C00015525E841652BEEB1752D0C11852F5C1B9
:1003D0001952F2D41A52D5B81B52B4B41C525F84CD
:1003E0001D52F5B31E5260841F5261842052BEC953
:1003F0002152628422526384235264842452D0C5E1
:100400002552658426526684275267842852D9C5AE
:100410002952FBC02A5268842B52F0B12C526984B5
:100420002D52D9D82E52CEB92F526A843052BDB532
:1004300031526B8432526C843352DAD834526D8428
:1004400035526E843652C6D63752A2CB3852AFC818
:100450003952B2C93A52CCB43B52CCBF3C526F84F1
:100460003D52F4B93E5270843F52DBD84052DCD842
:100470004152E7B64252C1BC4352EACC4452718465
:10048000455272844652738447527484485275842C
:10049000495276844A52F7CF4B5277844C52DDD87A
:1004A0004D52B0C74E5278844F5279845052D0B9D1
:1004B0005152A3BD52527A8453527B845452DECCA3
:1004C00055527C845652CAC657527D8458527E84F7
:1004D000595280845A5281845B5282845C52E0D8A3
:1004E0005D5283845E52DED85F528484605285847C
:1004F0006152DFD862528684635287846452888452
:100500006552FEB0665289846752E7BE68528A849B
:100510006952A3CA6A52F4BC6B528B846C528C84AD
:100520006D528D846E528E846F52B1B870528F842A
:10053000715290847252EEB87352918474529284C4
:100540007552938476529484775295847852968427
:10055000795297847A5298847B5299847C529A84F7
:100560007D52E2D87E529B847F52CBBD80529C84C8
:100570008152E4D88252E3D883529D8484529E846F
:1005800085529F848652A0848752A1848852FCC5DC
:100590008952A2848A52A3848B52A4848C52A5844B
:1005A0008D52A6848E52A7848F52A8849052E5D88B
:1005B0009152A9849252AA849352E6D89452AB8461
:1005C0009552AC849652AD849752AE849852AF84C3
:1005D0009952B0849A52B1849B52A6C19C52B28463
:1005E0009D52B0C89E52ECB09F52A6B9A052D3BC47
:1005F000A152F1CEA252BDDBA352D3C1A452B38407
:10060000A552B484A652B584A752B684A852AFB6F8
:10061000A952FAD6AA52ACC5AB52D9BDAC52BEDB78
:10062000AD52BFDBAE52B784AF52B884B052B9847A
:10063000B152F8C0B252A2BEB352CDC0B452BA84C5
:10064000B552BB84B652BC84B752BD84B852BE8486
:10065000B952BF84BA52C084BB52C184BC52C28456
:10066000BD52C384BE52C0DBBF52C6CAC052C4848E
:10067000C152C584C252C684C352AAB2C452C784EE
:10068000C552C884C652C984C752C2D3C852CA848C
:10069000C952E3C3CA52CB84CB52ABD1CC52CC8427
:1006A000CD52CD84CE52CE84CF52CF84D052C2DB35
:1006B000D152D084D252D5C0D352D184D452D28414
:1006C000D552D384D652C3DBD752D484D852B1BFCB
:1006D000D952D584DA52D684DB52D784DC52D884FE
:1006E000DD52D984DE52DA84DF52BCC4E052DB84AE
:1006F000E152DC84E252DD84E352DE84E452DAC764
:10070000E552DF84E652E084E752E184E852E28475
:10071000E952E384EA52E484EB52E584EC52E68445
:10072000ED52E784EE52E884EF52E984F052C4DBE4
:10073000F152EA84F252EB84F352EC84F452ED84E9
:10074000F552EE84F652EF84F752F084F852F184B9
:10075000F952E8D9FA52D7C9FB52F284FC52F38419
:10076000FD52F484FE52B4B9FF52F0CE0053C8D407
:100770000153F5840253F6840353F7840453F88439
:100780000553FCB00653D2B40753F9840853D9D0AB
:100790000953FA840A53FB840B53FC840C53FD84E5
:1007A0000D53E9D90E53FE840F53CBDE1053EBD912
:1007B0001153408512534185135342851453438589
:1007C0001553B0D81653AFBB1753B1B11853448566
:1007D0001953D7B31A53CED81B5345851C5346859E
:1007E0001D53D1D41E5347851F5348852053B3BD95
:1007F0002153EFBF225349852353BBCF24534A854E
:1008000025534B852653D0D827534C8528534D85E7
:1008100029534E852A53CBB72B534F852C535085E4
:100820002D5351852E53D1D82F5352853053538594
:100830003153548532535585335356853453578538
:10084000355358853653598537535A8538535B8508
:100850003953A5C63A53F8C73B53BDD23C535C85C8
:100860003D535D853E53D2D83F53E4C440535E852B
:100870004153AECA42535F854353A7C74453608573
:100880004553A6D8465361854753FDC94853E7CE23
:100890004953DCBB4A53EBB04B5362854C536385E1
:1008A0004D5364854E53AABB4F53ADD0505365850D
:1008B0005153B0B15253E4D75353BFD75453668505
:1008C0005553A5B55653F4C25753CFC458536785F3
:1008D000595368855A53A9B25B5369855C53B7B2C3
:1008E0005D536A855E53E5B15F53B2DF6053BCD59B
:1008F0006153A8BF6253ACC26353D5D86453B1C22D
:1009000065536B856653D4D86753D4CE68536C85D2
:100910006953E0DA6A536D856B53C0CE6C536E85B4
:100920006D536F856E53B4D86F53AEC37053A1D35C
:100930007153A3CE725370857353B4BC7453B4C84F
:100940007553D1C2765371857753EDBE7853B6D0C7
:10095000795372857A53E1DA7B5373857C537485BE
:100960007D5375857E5376857F53E4C780537785A5
:10097000815378858253A7B3835379858453F2B624
:100980008553FCCC8653FAC087537A8588537B8580
:100990008953F7C08A537C858B53B9D18C53E1D1ED
:1009A0008D53C7D88E537D858F537E859053808518
:1009B0009153818592538285935383859453848583
:1009C0009553DEB296538585975386859853E5C037
:1009D000995387859A53F1BA9B5388859C5389858F
:1009E0009D53C8D89E538A859F53ADD4A0538B8501
:1009F000A1538C85A253E1CFA353C9D8A4538D85AD
:100A0000A553CAD8A653C3CFA7538E85A853F8B30E
:100A1000A953C7BEAA538F85AB539085AC5391851C
:100A2000AD539285AE53CBD8AF539385B0539485D5
:100A3000B1539585B2539685B3539785B453988532
:100A4000B5539985B653CCDBB7539A85B8539B857C
:100A5000B9539C85BA539D85BB53A5C8BC539E858D
:100A6000BD539F85BE53A085BF53D8CFC053A1852A
:100A7000C153FEC8C253CEB2C353A285C453A3858B
:100A8000C553A485C653A585C753A685C853D6D3D9
:100A9000C953E6B2CA53B0BCCB53D1D3CC53ABCBC2
:100AA000CD53B4B7CE53A785CF53A885D053A985CE
:100AB000D153A2B7D253AA85D353AB85D453E5CA39
:100AC000D553AC85D653A1C8D753DCCAD853E4B1AB
:100AD000D953F0D0DA53AD85DB53D1C5DC53AE85A5
:100AE000DD53AF85DE53B085DF53C5DBE053FEB584
:100AF000E153B185E253B285E353DABFE453C5B99C
:100B0000E553E4BEE653EDC1E753B385E853B6DFE2
:100B1000E953B5DFEA53BBD6EB53D0BDEC53D9D57F
:100B2000ED53C8B0EE53A3B6EF53C9BFF053A8CCF2
:100B3000F153B3DFF253B7CAF353D2D3F453B485AE
:100B4000F553CFD8F653B6D2F753C5BAF853BECB48
:100B5000F953BECCFA53B585FB53B7DFFC53F0B560
:100B6000FD53B4DFFE53B685FF53B7850054B885F7
:100B70000154F5D30254B9850354D4B30454F7B8DF
:100B80000554BA850654BADF0754BB850854CFBA5A
:100B90000954AABC0A54F5B50B54BC850C54ACCD11
:100BA0000D54FBC30E54F3BA0F54F4C01054C2CD0D
:100BB0001154F2CF1254B8DF1354C5CF1454BD856D
:100BC0001554C0C21654B9DF1754F0C21854BE856C
:100BD0001954BF851A54C0851B54FDBE1C54C185D1
:100BE0001D54DFC11E54CCCD1F54F7D22054CDB7B5
:100BF0002154C1DF2254C2852354C4DF2454C38549
:100C00002554C4852654F1B72754C9B02854D6B604
:100C10002954D4B72A54C5852B54ACBA2C54FDCCD6
:100C20002D54D4BF2E54B1CB2F54F4C63054C685A6
:100C30003154A8D63254C5DF3354C7853454E2CE7C
:100C40003554B3B33654C8853754C9853854FCCEAF
:100C50003954B5B43A54CA853B54C7CE3C54F0BA63
:100C60003D54CB853E54E1CE3F54CC854054BDD15C
:100C70004154CD854254CE854354C0DF4454CF8582
:100C80004554D0854654F4B44754D1854854CAB32A
:100C90004954D2854A54E6B84B54BBDF4C54D385F3
:100CA0004D54D4854E54D5854F54D6855054C5C423
:100CB0005154D7855254BCDF5354BDDF5454BEDF6A
:100CC0005554BBC55654BFDF5754C2DF5854B1D436
:100CD0005954C3DF5A54D8855B54BAC75C54D8CE34
:100CE0005D54D9855E54DA855F54DB856054DC85BC
:100CF0006154DD856254D8C46354DE856454CADF10
:100D00006554DF856654CFDF6754E0856854DCD6D0
:100D10006954E1856A54E2856B54E3856C54E4853B
:100D20006D54E5856E54E6856F54E7857054E8850B
:100D30007154C9DF7254DADF7354B6CE7454E98546
:100D40007554C7BA7654CEDF7754C8DF7854DEC501
:100D50007954EA857A54EB857B54EBC97C54F4BA18
:100D60007D54FCC37E54EC857F54ED858054D7BE02
:100D70008154EE858254C6DF8354EF858454CDDFE1
:100D80008554F0858654D8C58754F1858854F285FA
:100D90008954F3858A54F4858B54A6D58C54CDBAE6
:100DA0008D54F5858E54CCBE8F54BDD39054C0B8AD
:100DB0009154F6859254E4D69354F7859454C7DF42
:100DC0009554BEB99654A7BF9754F8859854F985A1
:100DD0009954FCC19A54CBDF9B54CCDF9C54FA85C8
:100DE0009D54D0DF9E54FB859F54FC85A054FD8507
:100DF000A154FE85A2544086A354DBDFA454E5DF52
:100E0000A5544186A654D7DFA754D6DFA854C9D726
:100E1000A954E3DFAA54E4DFAB54EBE5AC54A7D20A
:100E2000AD54D2DFAE544286AF54A9BFB05443860E
:100E3000B154DBD4B2544486B354C8BFB454D4DFE5
:100E4000B5544586B6544686B7544786B854CCCF79
:100E5000B9544886BA544986BB54DDDFBC544A862F
:100E6000BD54CAD1BE544B86BF54DEDFC054A7B0B8
:100E7000C154B7C6C254D3DFC3544C86C454E5BA78
:100E8000C5544D86C654DFB6C754DBCDC854FEB931
:100E9000C954D5D4CA544E86CB544F86CC54DFDFC8
:100EA000CD54ECCFCE54A5B0CF54E7DFD054D1DF32
:100EB000D154C6D1D254D5DFD354D8DFD454D9DFDE
:100EC000D554DCDFD6545086D754A9BBD8545186AC
:100ED000D954E0DFDA54E1DFDB545286DC54E2DF40
:100EE000DD54E6DFDE54E8DFDF54B4D3E05453864C
:100EF000E1545486E2545586E3545686E4545786AA
:100F0000E554E7B8E654B6C5E754EADFE854DAC971
:100F1000E954A8C1EA54C4C4EB545886EC54598629
:100F2000ED54DEBFEE54F8CFEF545A86F0545B8692
:100F3000F1545C86F254DCD5F354EEDFF4545D8654
:100F4000F5545E86F6545F86F7546086F8546186E1
:100F5000F9546286FA54B8B2FB546386FC54DFBA83
:100F6000FD54ECDFFE546486FF54C1DB00556586FA
:100F70000155E4D102556686035567860455688697
:100F8000055569860655F4CB0755BDB408556A86E4
:100F90000955A6B00A556B860B556C860C556D86A7
:100FA0000D556E860E556F860F55F1DF1055C6CC68
:100FB0001155F2DF12557086135571861455EDDF09
:100FC000155572861655738617557486185575868D
:100FD000195576861A5577861B55E9DF1C55788694
:100FE0001D5579861E557A861F557B862055EBDF69
:100FF00021557C862255EFDF2355F0DF2455BDBBFC
:1010000025557D8626557E862755F3DF2855808613
:10101000295581862A55F4DF2B5582862C55A3BB92
:101020002D5583862E55DBCA2F55A8CE3055A7E007
:101030003155AAB3325584863355A6E0345585869A
:1010400035558686365587863755A1E038558886CA
:10105000395589863A558A863B558B863C55FEDF45
:101060003D558C863E55D9CD3F55FCDF40558D868C
:101070004155FADF42558E864355D0BF4455C4D7FB
:1010800045558F864655CCC947559086485591861B
:101090004955F8DF4A55A1B04B5592864C55938679
:1010A0004D5594864E5595864F5596865055FDDF85
:1010B00051559786525598865355998654559A8618
:1010C0005555FBDF5655A2E057559B8658559C86D3
:1010D00059559D865A559E865B559F865C55A8E05E
:1010E0005D55A0865E55A1865F55A2866055A38694
:1010F0006155C8B76255A4866355A5866455A1C6D7
:101100006555B6C96655B2C06755F5DF6855A68600
:101110006955A7866A55BEC56B55A8866C55C4D857
:101120006D55F9DF6E55F6C46F55A9867055AA86C0
:101130007155AB867255AC867355AD867455AE86C7
:101140007555A3E07655A4E07755A5E07855A5D070
:101150007955AF867A55B0867B55B4E07C55E4CCA2
:101160007D55B1867E55B1E07F55B2868055A6BFCC
:101170008155AFE08255B9CE8355ABE08455C6C9E1
:101180008555B3868655B4868755AEC08855AEE082
:101190008955EDBA8A55B0BA8B55A9E08C55B586FC
:1011A0008D55B6868E55B7868F55F6DF9055B88625
:1011B0009155B3E09255B9869355BA869455B8E0E7
:1011C0009555BB869655BC869755BD869855ADB44A
:1011D0009955B9E09A55BE869B55BF869C55B2CFAE
:1011E0009D55C8BA9E55C0869F55B0E0A055C18692
:1011F000A155C286A255C386A355C486A455C586EB
:10120000A555C686A655C786A755FAD0A855C8863F
:10121000A955C986AA55CA86AB55CB86AC55CC868E
:10122000AD55CD86AE55CE86AF55CF86B055D0865E
:10123000B155ACE0B255D186B355FBD4B455D28686
:10124000B555F7DFB655D386B755E7C5B855D4863B
:10125000B955ADE0BA55D586BB55F7D3BC55D68642
:10126000BD55B6E0BE55B7E0BF55D786C055D88648
:10127000C155D986C255DA86C355DB86C455C4E04C
:10128000C555E1D0C655DC86C755DD86C855DE8616
:10129000C955BCE0CA55DF86CB55E086CC55C9E0C0
:1012A000CD55CAE0CE55E186CF55E286D055E386CE
:1012B000D155BEE0D255AAE0D355A4C9D455C1E05A
:1012C000D555E486D655B2E0D755E586D855E6869D
:1012D000D955E786DA55E886DB55E986DC55C8CA74
:1012E000DD55C3E0DE55EA86DF55B5E0E055EB8617
:1012F000E155CBCEE255EC86E355C3CBE455CDE0CA
:10130000E555C6E0E655C2E0E755ED86E855CBE089
:10131000E955EE86EA55BAE0EB55BFE0EC55C0E082
:10132000ED55EF86EE55F086EF55C5E0F055F186A8
:10133000F155F286F255C7E0F355C8E0F455F3864F
:10134000F555CCE0F655F486F755BBE0F855F58633
:10135000F955F686FA55F786FB55F886FC55F98659
:10136000FD55D4CBFE55D5E0FF55FA860056D6E0A4
:101370000156D2E00256FB860356FC860456FD86D3
:101380000556FE8606564087075641870856D0E028
:101390000956CEBC0A5642870B5643870C56D1E0FD
:1013A0000D5644870E56C2B80F56C5D810564587FD
:1013B0001156468712564787135648871456498751
:1013C00015564A8716564B8717564C871856EAD03B
:1013D00019564D871A564E871B56EFC21C564F871B
:1013E0001D5650871E56CFE01F56BDE02056518730
:1013F00021565287225653872356D4E02456D3E0F1
:1014000025565487265655872756D7E0285656879F
:10141000295657872A5658872B5659872C56DCE071
:101420002D56D8E02E565A872F565B8730565C874C
:101430003156F6D63256B0B333565D873456ECD7B4
:1014400035565E873656BBCB37565F873856608732
:101450003956DAE03A5661873B56FBCE3C566287F6
:101460003D5663873E5664873F56D9BA40566587D6
:101470004156668742566787435668874456698750
:1014800045566A8746566B8747566C8748566D8720
:1014900049566E874A566F874B5670874C56E1E027
:1014A0004D56DDE04E56ADD24F567187505672877D
:1014B0005156738752567487535675875456E2E0D7
:1014C00055567687565677875756DBE05856D9E0FB
:1014D0005956DFE05A5678875B5679875C56E0E0CC
:1014E0005D567A875E567B875F567C8760567D8720
:1014F00061567E876256DEE0635680876456E4E07C
:101500006556818766568287675683876856F7C611
:101510006956ACD86A56EBD46B56E6E06C56C9CA2D
:101520006D5684876E5685876F5686877056878777
:101530007156E5E0725688877356898774568A8794
:1015400075568B877656C1B877568C8778568D87B7
:1015500079568E877A568F877B56E7E07C56E8E08F
:101560007D5690877E5691877F56928780569387C7
:101570008156948782569587835696878456978797
:101580008556E9E08656E3E087569887885699871E
:1015900089569A878A569B878B569C878C569D873F
:1015A0008D569E878E56BFBA8F56E7CC90569F8732
:1015B0009156A0879256A1879356EAE09456A28747
:1015C0009556A3879656A4879756A5879856A687BB
:1015D0009956A7879A56A8879B56A9879C56AA878B
:1015E0009D56AB879E56AC879F56AD87A056AE875B
:1015F000A156AF87A256B087A356F9CFA456B1879C
:10160000A556B287A656B387A756B487A856B587FE
:10161000A956B687AA56B787AB56B887AC56B987CE
:10162000AD56BA87AE56BB87AF56EBE0B056BC8717
:10163000B156BD87B256BE87B356BF87B456C08772
:10164000B556C187B656C287B756C2C8B856C38703
:10165000B956C487BA56C587BB56C687BC56C0BDE7
:10166000BD56C787BE56C887BF56C987C056CA87EA
:10167000C156CB87C256CC87C356CD87C456CE87BA
:10168000C556CF87C656D087C756D187C856D2878A
:10169000C956D387CA56D2C4CB56D487CC56D58721
:1016A000CD56D687CE56D787CF56D887D056D9872E
:1016B000D156DA87D256DB87D356DC87D456ECE096
:1016C000D556DD87D656DE87D756EDE0D856DF876C
:1016D000D956E087DA56F4C7DB56C4CBDC56E1872F
:1016E000DD56EEE0DE56D8BBDF56B6D8E056F2D275
:1016F000E156EFE0E256C5CDE356E287E456DAB6AE
:10170000E556E387E656E487E756E587E856E68739
:10171000E956E787EA56E887EB56F1E0EC56E987A9
:10172000ED56B0D4EE56EA87EF56EB87F056A7C0D9
:10173000F156D1B4F256EC87F356ED87F456A7CEA6
:10174000F556F0E0F656EE87F756EF87F856F08735
:10175000F956F2E0FA56CCB9FB56F187FC56F287FF
:10176000FD56FAB9FE56BCCDFF56F3E00057F3879D
:101770000157F4870257F5870357D4C60457F4E09E
:101780000557F6870657B2D40757F7870857A6C8F4
:101790000957F6E00A57F5E00B57F8870C57F98719
:1017A0000D57FA870E57FB870F57FC871057FD8799
:1017B0001157FE87125740881357418814574288A3
:1017C0001557438816574488175745881857468831
:1017D000195747881A5748881B5749881C57F7E0FC
:1017E0001D574A881E574B881F57C1CD20574C881C
:1017F00021574D8822574E882357A5CA24574F8812
:101800002557508826575188275752882857DAD4A9
:101810002957D7DB2A57D9DB2B5753882C57D8DBCE
:101820002D57E7B92E57DCDB2F57DDDB3057D8B506
:1018300031575488325755883357DADB3457568836
:1018400035575788365758883757598838575A88E0
:101850003957DBDB3A57A1B33B57DFDB3C575B889B
:101860003D575C883E57F8BB3F575D884057B7D619
:1018700041575E884257E0DB43575F884457608892
:1018800045576188465762884757F9BE485763886D
:10189000495764884A57BBB74B5765884C57D0DBCC
:1018A0004D57AECC4E57B2BF4F57B5BB5057F8D778
:1018B0005157D3BF52576688535767885457688823
:1018C0005557698856576A885757E9BF58576B88E4
:1018D00059576C885A57E1BC5B57B3CC5C57DEDB79
:1018E0005D57D3B05E57EBCE5F57D8B76057B9D7C7
:1018F0006157C2C662576D8863576E886457A4C02B
:1019000065576F886657B9CC675770886857E7DBAB
:101910006957E1DB6A57BAC66B57E3DB6C577188CE
:101920006D57E8DB6E5772886F57F7C5705773882D
:1019300071577488725775887357EADB74577688C5
:10194000755777887657E9DB7757C0BF785778881F
:10195000795779887A577A887B57E6DB7C57E5DBBD
:101960007D577B887E577C887F577D8880577E880F
:10197000815780888257B9B48357ACC08457A2C2BC
:101980008557E2DB8657E4DB875781888857828852
:10199000895783888A5784888B57CDD08C57EDDB45
:1019A0008D5785888E5786888F5787889057888867
:1019B000915789889257DDC09357F2DB94578A88F4
:1019C00095578B8896578C8897578D8898578E880F
:1019D00099578F889A5790889B57E2B69C57918861
:1019E0009D5792889E5793889F579488A057F3DB02
:1019F000A157D2DBA257B8B9A357ABD4A457ECDB9D
:101A0000A5579588A657D1BFA757F0DBA85796884A
:101A1000A957D1DBAA579788AB57E6B5AC5798883A
:101A2000AD57EBDBAE57E5BFAF579988B0579A88F3
:101A3000B1579B88B257EEDBB3579C88B457F1DBA4
:101A4000B5579D88B6579E88B7579F88B857F9DB1A
:101A5000B957A088BA57A188BB57A288BC57A3889A
:101A6000BD57A488BE57A588BF57A688C057A7886A
:101A7000C157A888C257A1B9C357A3B0C457A988F2
:101A8000C557AA88C657AB88C757AC88C857AD8812
:101A9000C957AE88CA57AF88CB57F1C2CC57B08868
:101AA000CD57B188CE57C7B3CF57EFDBD057B288E9
:101AB000D157B388D257F8DBD357B488D457D2C69E
:101AC000D557F4DBD657B588D757B688D857F5DB46
:101AD000D957F7DBDA57F6DBDB57B788DC57B8881E
:101AE000DD57FEDBDE57B988DF57F2D3E057BAB2D5
:101AF000E157BA88E257BB88E357BC88E457FDDB5F
:101B0000E557BD88E657BE88E757BF88E857C088C5
:101B1000E957C188EA57C288EB57C388EC57C48895
:101B2000ED57A4DCEE57C588EF57FBDBF057C688AE
:101B3000F157C788F257C888F357C988F457FADBBA
:101B4000F557CA88F657CB88F757CC88F857FCDB8F
:101B5000F957E0C5FA57F9BBFB57CD88FC57CE883B
:101B6000FD57A3DCFE57CF88FF57D0880058A5DC6F
:101B70000158D1880258C3CC0358D2880458D3885E
:101B80000558D4880658D1B60758C0DD0858D588FE
:101B90000958D6880A58D7880B58A1DC0C58D88821
:101BA0000D58A2DC0E58D9880F58DA881058DB88F7
:101BB0001158B5C71258DC881358DD881458DE88D0
:101BC0001558E9B61658DF881758E0881858E18884
:101BD0001958A7DC1A58E2881B58E3881C58E48877
:101BE0001D58E5881E58A6DC1F58E6882058A9DC39
:101BF0002158A4B12258E7882358E8882458CCB546
