:020000040802F0
:1000000080C60120B1010208973D0208252E020892
:10001000813D0208BF010208EB66020800000000F3
:10002000000000000000000000000000254C020855
:10003000511B0208000000002D400208454E020836
:100040002D670208CB010208CB010208CB01020890
:10005000CB010208CB010208CB010208CB01020848
:10006000CB010208CB010208CB010208CB01020838
:10007000CB010208CB010208CB010208CB01020828
:10008000CB010208CB010208CB010208CB01020818
:10009000CB010208CB010208CB010208CB01020808
:1000A000CB010208CB010208CB010208CB010208F8
:1000B000CB010208CB010208CB010208CB010208E8
:1000C000CB010208CB010208CB010208CB010208D8
:1000D000CB01020895500208CB010208FD5002082E
:1000E000CB010208CB010208CB010208CB010208B8
:1000F000CB010208CB010208CB010208CB010208A8
:10010000CB010208E1480208CB010208CB0102083A
:10011000CB010208CB010208CB010208CB01020887
:10012000CB010208CB010208CB01020855190208D5
:10013000CB010208CB010208CB010208CB01020867
:10014000CB010208CB010208CB010208413E0208A4
:10015000CB010208CB010208CB0102087951020849
:10016000CB010208CB010208CB010208CB01020837
:10017000CB010208CB010208CB010208CB01020827
:10018000CB010208CB010208DFF810D000F092FC8E
:100190000048004765C40208AFF3008080C6012014
:1001A00030BF72B6704762B6704780F308887047F8
:1001B0000648804706480047FEE7FEE7FEE7FEE701
:1001C000FEE7FEE7FEE7FEE7FEE7FEE7AD4E0208CC
:1001D000890102082DE9F05F0546002092469B4602
:1001E00088460646814640241BE02846414647464D
:1001F000224600F038FA53465A46C01A914110D3AD
:1002000011461846224600F01FFA2D1A67EB010826
:100210004F4622460120002100F016FA17EB000994
:100220004E41201EA4F10104DFDC484631462A4637
:100230004346BDE8F09F2DE9F0410024061B25460A
:1002400071F1000605DA01240027D0EB070067EB07
:100250000101161E73F1000605DA0027D2EB070232
:10026000012567EB0303FFF7B5FF86460E461746E9
:100270009C46AC4204D00025D0EB050E65EB010690
:1002800024B10020D2EB000760EB030C704631462E
:100290003A466346BDE8F08140EA01039B0703D07C
:1002A00009E008C9121F08C0042AFAD203E011F8B5
:1002B000013B00F8013B521EF9D27047D2B201E077
:1002C00000F8012B491EFBD270470022F6E710B55B
:1002D00013460A4604461946FFF7F0FF204610BDB4
:1002E00030B505462A460B4612F8010B13F8014BB0
:1002F00008B1A042F8D01CB1002802D06D1CF1E773
:10030000284630BD10B5044604E00B7800F8013BE8
:1003100003B1491C521EF8D2204610BD421C10F8F1
:10032000011B0029FBD1801A7047034611F8012BED
:1003300000F8012B002AF9D1184670472DE9F04743
:1003400091460F4680460446002614F8015B2DB105
:1003500000F09AF90068405DC007F6D12B2D02D05D
:100360002D2D18D0641E4A463946204600F099F9D2
:1003700027B13968A14201D1C7F8008071054FF05B
:1003800002040BD54042002803DD06F07BFA04602E
:10039000A007BDE8F08746F48066E4E70028F8DAB5
:1003A00006F070FA04606FF00040F2E770B50646A0
:1003B00006F068FA046805460A2200213046FFF775
:1003C000BDFF2C6070BD70B5064606F05BFA046890
:1003D00005460A2200213046FFF7B0FF2C6070BDB1
:1003E0002DE9FE4F81EA030404F0004421F00041AE
:1003F00000944FF0000B23F0004350EA01045ED05C
:1004000052EA03045BD0C3F30A54C1F30A552C44E7
:10041000A4F2F3340194A0FB0254C1F3130141F49C
:100420008011C3F3130343F4801301FB024400FB68
:10043000034E840A970A44EA815447EA8357A4FB8F
:10044000076802958D0A05FB07854FEA932C04FB8C
:100450000C542705029D4FEA065847EA1637B5EBBC
:1004600008056EEB070C870E920E47EA811742EAE9
:100470008312A7FB0201B6EB0B0164EB00042B0D0A
:1004800043EA0C335E1844EB1C50DA465146E7FB56
:100490000201C5F313044FEA0B3343EA14534FEA46
:1004A0000432019C43EA0603A4F10C040294009C6C
:1004B000CDE900B400F0D8F903B0BDE8F08F00201A
:1004C0000146F9E72DE9F04D81EA030404F0004B01
:1004D00021F0004514464FF0000A23F0004150EA95
:1004E000050220D054EA01021DD0C5F30A57024686
:1004F000C5F31303C1F31300C1F30A5640F480158A
:1005000043F48013A7EB0608101BD64608F2FD380B
:1005100073EB050002D308F1010801E092185B417A
:10052000B8F1000F03DA00200146BDE8F08D00208D
:100530004FF48011064684460EE0171B73EB050747
:1005400005D3121B63EB050306434CEA010C490873
:100550004FEA300092185B4150EA0107EDD152EAB0
:10056000030012D082EA040083EA0501084305D0A3
:10057000101BAB4106D20122002306E000224FF0FF
:10058000004302E06FF0010253101AEB06004CEB3F
:10059000085110EB0A0041EB0B01BDE8F04D00F0F3
:1005A00054B930B4044696230800214604D0B6233B
:1005B00030BC002200F01BB920460021F8E700F013
:1005C000004230F000400AD0C10D01F56071C0F367
:1005D000160042EA0151C20840071143704700204B
:1005E0000146704701F0004330B421F0004150EA69
:1005F000010206D00A0DA2F56072C1F31301002AB0
:1006000002DC30BC00207047440F44EAC104C10042
:10061000E01830BC00EBC25000F0E0B830B50B463B
:10062000014600202022012409E021FA02F59D4222
:1006300005D303FA02F5491B04FA02F52844151EF6
:10064000A2F10102F1DC30BD202A04DB203A00FADD
:1006500002F1002070479140C2F1200320FA03F319
:10066000194390407047202A04DB203A21FA02F017
:100670000021704721FA02F3D040C2F120029140DC
:10068000084319467047000000487047C09D0508A0
:1006900010B50446FFF7F8FF0068005D00F00100A8
:1006A00010BD2DE9F05F82460078002715468B4685
:1006B0000AF10104B946302801D09DB113E014F8C5
:1006C000010B0127782803D0582801D045B10AE052
:1006D0000DB1102D07D10027102514F8010B02E0F1
:1006E000082500E00A250026B0460EE005FB0800BC
:1006F00005FB06F1012701EB10461FFA80F8B6F55D
:10070000803F00D3B94614F8010B294600F0F6F9F2
:100710000028EBDABBF1000F05D00FB1641E00E03A
:100720005446CBF80040B9F1000F06D006F0AAF805
:1007300002210160C81EBDE8F09F48EA0640FAE7C2
:100740000FB4002300B589B00CA900910B996FF08C
:100750000042CB601E4B06931E4B07930423CDE94A
:1007600001321D4A089202466B46002000F068FAEA
:1007700009B05DF814FB70B586B006464FF0FF3047
:100780000091CDE90101002015460C460490324647
:10079000694604A8FFF7D4FF02460498211825B142
:1007A00008B1084600E020462860049800280DD0D3
:1007B000002A02DD0098884208D0081B0094CDE989
:1007C00001043246694604A8FFF7BAFF06B070BDBF
:1007D000790E0208970E0208910602080029A8BFA8
:1007E0007047401C490008BF20F00100704710B45A
:1007F000B0FA80FC00FA0CF050EA010404BF10BC0F
:10080000704749B1CCF1200421FA04F411FA0CF13B
:1008100018BF012121430843A3EB0C01CB1D4FEA74
:1008200000614FEA102042BF002010BC704700EB6F
:10083000C35010440029A4BF10BC7047401C49009D
:1008400008BF20F0010010BC704710B5141E73F1F2
:10085000000408DA401C41F1000192185B411A4380
:1008600001D120F0010010BD2DE9F04D92469B46CC
:1008700011B1B1FA81F202E0B0FA80F22032904672
:10088000FFF7E2FE04460F4640EA0A0041EA0B0188
:1008900053465A46084313D0114653EA010019D073
:1008A000C8F140025046FFF7DEFE05460E465046B0
:1008B00059464246FFF7C8FE084305D0012004E030
:1008C00020463946BDE8F08D0020054346EAE07633
:1008D0002C4337430A986305E40AA0EB0800002282
:1008E000FD0A44EA47540A3002D500200146E9E7F0
:1008F000010510196941DDE9084500196941BDE8A4
:10090000F04DA2E72DE9FE4F804681EA0300C00FBB
:100910000C46009021F0004123F00045B8EB0200A6
:10092000A94105D24046214690461C460B46024648
:1009300023F00040104347D0270DC7F30A00C3F34C
:100940000A510290401A019040286BDAC3F3130059
:1009500040F4801B0098924620B10023D2EB030A9A
:1009600063EB0B0B01985946C0F140025046FFF76C
:100970006BFE06460D4650465946019A00F0ACF80B
:1009800010EB08006141002487EA115284EAE77302
:100990001A4340D0009A62B3019A012A4FEA0752E3
:1009A00015DC001B61EB02014FF0004202EA075226
:1009B000CDE90042001C41F5801132462B46FFF77D
:1009C00053FF03B0BDE8F08F40462146F9E7001B16
:1009D00061EB0201001C41F5801300185B412018F7
:1009E000A2F5001747EB030140EAD570B6196D4137
:1009F00011E06D084FEA360645EAC0754FEA075226
:100A0000001B61EB0201001C41F5801149084FEA0F
:100A100030000019514132462B4603B0BDE8F04F7B
:100A2000FFF713BF0098012240000023D0EB020221
:100A300063EBE073009821464FEAE074B8EB0000E6
:100A400061EB0401E9E783F000435BE781F00041DB
:100A500058E7C1F30A52C1F3130140F2FF3341F4E6
:100A600080119A4202DA00200146704740F2334377
:100A70009A42A2F2334202DC5242FFF7F4BDFFF782
:100A8000E3BD000030B5041E71F1000404DB4FF03B
:100A90000044404264EB0101141E73F1000405DBC5
:100AA0001C464FF00043524263EB0403994208BFD7
:100AB000904230BD064C074D06E0E06840F001036F
:100AC00094E8070098471034AC42F6D3FFF760FB78
:100AD0008CA00508ACA00508202A06DBCB17203A1D
:100AE00041FA02F043EAE07306E041FA02F3D04033
:100AF000C2F1200291400843194670473A2800D2BB
:100B0000303820F02002412A01D3A2F13700884278
:100B100001D34FF0FF3070472DE9FF4F087883B0C5
:100B20009946FF2805D0491C2D2804D00024002018
:100B300008E000200BE00124F9E700EB800003EB64
:100B40004000491C0B78FF2BF7D104B14042002331
:100B50000293147819461D462D2C01D02B2C04D15C
:100B6000521C2D2C13D000240294AA461478FF2C7A
:100B70000FD00A25A3FB057801FB05814FF0000C7F
:100B800003FB0C11521CE3194AEB0101EEE70124AF
:100B9000EAE7814453EA010002D019F5C87F06DA7A
:100BA00003980021C0E9001107B0BDE8F08F0025CF
:100BB000AE4E2F46DFF8B882184600F07DF9CDE939
:100BC0000001B9F1000002DAC9F1000400E00446B6
:100BD0000023A74A1AEB030B42EB045A12E0E0078A
:100BE00007D02A46334638464146FFF7F9FB074609
:100BF00088462A46334610461946FFF7F1FB05465C
:100C00000E466410002CEAD1DDE90001B9F1000FB5
:100C10005A46534606DAFFF755FC3A464346FFF775
:100C200051FC05E0FFF7DCFB3A464346FFF7D8FBF3
:100C3000029A0AB181F00041039AC2E90001B3E7C8
:100C40002DE9FF4F1F468DB0D7E901464FF0FF3821
:100C50002E2045464FF000090B90B9696D1C0E9887
:100C60008847396A824688470028F6D1BAF1FF3FA3
:100C70000AD024F4D064002E11DDBAF12B0F08D075
:100C8000BAF12D0F0BD102E0404611B08DE744F4CC
:100C90008064B9696D1C0E9888478246761E694645
:100CA000600501D52D2000E02B208DF8000001F11A
:100CB000010B0DF1200809E0B9696D1C0E988847F9
:100CC00082460F9844F40074761E0560002E02DD03
:100CD000BAF1300FF0D00B998A453ED144F0800430
:100CE00006E00F99681CA9F1010944F4007408603A
:100CF000B9696D1C761E0E98884782463028F0D060
:100D00002BE00B998A4505D1200603D444F08004DA
:100D1000761E18E0504605F0B5FE08B30DF113013C
:100D2000761E44F400748B4508D2AAF130000BF80B
:100D3000010B200607D5A9F1010003E0200602D42B
:100D400009F101008146A00502D50F99681C0860D1
:100D5000B9696D1C0E9888478246002ED1DC53E09D
:100D6000002E51DDBAF1650F02D0BAF1450F4BD11B
:100D7000A00549D5B9696D1C24F44074761E0E98FF
:100D800088478246002E0CDD2B2804D0BAF12D0FA7
:100D900007D144F48074B9696D1C0E988847824667
:100DA000761EE00501D52D2100E02B2108F8011B5E
:100DB000CDF82C8021E00DF12901761E44F4007459
:100DC00088450CD2AAF1300010F0FF0088F800002E
:100DD00002D10B99884509D908F1010806E0E00520
:100DE00001D5244801E042F20F708146B9696D1CBB
:100DF0000E98884782460F980560002E04DD504605
:100E000005F040FE0028D6D1F9690E988847FF20EA
:100E10008BF8000088F800000020069007904B46F1
:100E20006A4608A906A8FFF777FEA00502D46FF06E
:100E300001002AE714F0240F0AD0E00714D1DDE9FD
:100E400006123868031D3B600068C0E900120BE021
:100E5000DDE90601FFF7C6FB0146E00704D138686B
:100E6000021D3A600068016028460EE70000144049
:100E70000000F03FF1D8FFFF426842B1016811F86D
:100E8000013B23B1521EC0E90012184670470121F0
:100E9000C160881E704742685AB1C368016843B98F
:100EA00083688B4205D0491E521CC0E90012002005
:100EB00070474FF0FF3070470EB540F23342029258
:100EC0000022CDE900221346FFF7CEFC03B000BD9F
:100ED00070B58C1810F8015B15F0070301D110F8FC
:100EE000013B2A1106D110F8012B03E010F8016B29
:100EF00001F8016B5B1EF9D12B0705D40023521EAC
:100F00000DD401F8013BFAE710F8013BCB1A921C13
:100F100003E013F8015B01F8015B521EF9D5A14211
:100F2000D8D3002070BD00002DE9F8438046002092
:100F30000E46ADF80000451E42F614012F48FFF79B
:100F4000C4F941462D483268FFF7A6F9404631689A
:100F5000FFF7BBF90020294F346817E0395CAA2954
:100F600013D1C11CA14213DA39184A78442A0CD192
:100F70008A78122A09D1CA781C2A06D10A798C2AC1
:100F800001D02B2A01D1897959B3401CA042E5DB5D
:100F9000002D2CDBA5422ADC294619A005F034FCE3
:100FA0001C49102000F08EF81A492A46086113499E
:100FB0004046FFF771F908EB0500804614221549F9
:100FC000FFF76AF9621B791908F11400FFF764F959
:100FD000114914343460087A401CC0B20872BDE86C
:100FE000F883391805460989ADF80010D0E729467D
:100FF0000AA005F009FC0020F1E70000200501200F
:101000002D2D2D2D46696E65206934506F733A255C
:10101000640D0A0000FA00207C0400202D2D2D2DE7
:101020002D2D6E6F742046696E65206934506F7384
:101030003A25640D0A0000004FF40051014801F008
:10104000A6BE0000001002404FF40051014801F01C
:101050009CBE0000001002402DE9F0410E461546EE
:1010600007460024D110FFF730F909E0315D04F0A4
:101070000700814007EBE400027811430170641C13
:10108000AC42F3DBBDE8F08130B5002309E001EBB1
:10109000E30403F007052478EC4004F00104C45491
:1010A0005B1C9342F3DB30BD054A0821C30702D025
:1010B00082EA500000E04008491E0029F6DC704733
:1010C0002083B8ED70B505460C46002007E014F803
:1010D000011B060A4140C8B2FFF7E6FF70406D1ED3
:1010E000F5D270BD70B5334905460024086810F08C
:1010F000450FFBD0410702D50324042003E0C007BD
:1011000004D00124204603F085FB51E003F0BEFB30
:10111000A8422BD140F2FF5003F07CFB002003F0EB
:10112000D7FB2549084243D0002801DA1C2070BDB6
:10113000410001D5092070BD810001D50A2070BD94
:10114000C10001D50B2070BD010101D50C2070BD7F
:10115000410101D50D2070BDC10101D50E2070BD2A
:10116000010201D50F2070BD410201D5102070BDD4
:10117000810201D5112070BDC10201D5122070BDC0
:10118000010301D5132070BD410301D5142070BDAA
:10119000810301D5152070BD410401D5182070BD13
:1011A000810401D5192070BD000701D51A2070BD3A
:1011B000204670BD342C014008E0FFFD10B50B4AFD
:1011C0000024116811F0450FFBD0480702D5032415
:1011D000042003E0C80705D00124204603F01AFBD1
:1011E000204610BD40F2FF50F8E70000342C0140CB
:1011F00010B5084A0024116811F0450FFBD04807CC
:1012000002D50324042001E040F2FF5003F002FB6A
:10121000204610BD342C014070B50C4619490646D5
:101220000025086810F0450FFBD0410702D50324C4
:10123000042003E0C00705D00124204603F0EAFAA9
:10124000204670BD03F022FBB04212D140F2FF50A5
:1012500003F0E0FA002003F03BFB10F4604F03D0F2
:10126000810404D5132070BD000C208007E04104E8
:1012700001D5102070BD000401D50F2070BD284697
:1012800070BD0000342C014010B50B460C0601F077
:101290007F0202EB820100EBC10102D501F58E71E4
:1012A00001E001F55D710A70DA094A7005F014F881
:1012B000002010BD0A4610B5090602F07F0306D5CE
:1012C00003EB830100EBC10101F58E7105E002EB38
:1012D000820100EBC10101F55D7100248C700B707F
:1012E000D2094A7004F0DFFF002010BD10B50A06D5
:1012F00004D501F07F0105F005F901E005F0E4F8FF
:10130000002010BD70B50D460E0601F07F0404EB01
:10131000840100EBC10102D501F58E7101E001F5F8
:101320005D71ED090C704D708A60CB7000D0CC807F
:10133000022B01D100220A7104F08CFF002070BD45
:1013400010B501F07F0404EB840100EBC101C1F88A
:101350008833C1F880230023C1F88C3381F87533BA
:1013600081F87443C37801F55D71012B00D10A61E6
:1013700014F0FF0F03D004F0E1FF002010BD04F0D3
:10138000FEFEFAE70069002261F30A1201681143C8
:10139000016070470A4610B5090602F07F0306D5C2
:1013A00003EB830100EBC10101F58E7105E002EB57
:1013B000820100EBC10101F55D7101248C700B709D
:1013C000D2094A7004F0A2FF002010BD70B511F0E0
:1013D0007F0404EB840100EBC1014FF0010581F8AB
:1013E0001D5181F81C41C1F82821C1F82C2101F5BB
:1013F0008E714FF00002C1E9053203D004F09EFF68
:10140000002070BD04F0BBFEFAE700007FB5064681
:1014100004F09AFE684602F047FEF068019DC1683C
:1014200021F47054C460304605F08EF80021032882
:101430000DD00120B0704020B08035483549284497
:10144000884209D224F4705101F5605156E0B17020
:101450004FF40070B0802CE02F4830492844884277
:1014600004D224F4705101F5505147E02C482D4925
:101470002844884204D224F4705101F540513DE0E3
:1014800029482A492844884204D224F4705101F59D
:10149000305133E0264827492844884204D224F4B6
:1014A000705101F5205129E02348244928448842FD
:1014B00004D224F4705101F510511FE02048214955
:1014C0002844884204D224F4705101F5005115E0FB
:1014D0001D481E492844884204D224F4705101F565
:1014E000E0510BE01A481B492844884224F470510B
:1014F00002D201F5C05101E001F5A051F068C160D0
:10150000F1684FF40050486104B0012070BD000044
:10151000401E1BFF40420F0000DC0BFFE0C8100024
:101520002013FBFE20D61300003DE7FE006A1800E2
:1015300000D3CEFE40771B00C05BB3FEC0912100FC
:1015400000CA91FE40AC2700C01D6AFE40E1330096
:10155000803C36FEE09C41002DE9F0410646002427
:1015600005F015F8074650E0F8074CD03069E1B2B5
:101570000369426BCA4006EB810102F001028969EE
:1015800043EAC2128D681540E9071AD00125426B63
:1015900005FA04F18A43426306EB840080698560A2
:1015A0001C48E1B20068426830469047F078012854
:1015B00007D134B996F81101042802D1304604F05D
:1015C00037FE280704D506EB84000825806985606E
:1015D000E80604D506EB840010258069856068065E
:1015E00004D506EB8400402580698560A80704D5F2
:1015F00006EB8400022580698560280603D5214614
:10160000304600F060F97F08641C002FACD1012047
:10161000BDE8F081C80000202DE9F0410546002416
:1016200004F0BBFF0746DFF8988043E0F8073FD09F
:10163000E1B2284604F0B7FF0646C00725D005EB07
:1016400084000126416D8E60E97801290CD1406D3E
:10165000016904EB840005EBC000C1F31201D0F86E
:101660007C23511AC0F88C13D8F80000E1B202684C
:1016700028469047E878012807D134B995F8110138
:10168000052802D1284604F0D3FDB00704D505EBA8
:1016900084000226406D8660300709D5D8F8000026
:1016A00081682846884705EB84010820496D8860D9
:1016B0007F08641C002FB9D10120BDE8F081000033
:1016C000C800002070B50546C068816921F010018E
:1016D0008161E868066A06F00F0000EB800005EB08
:1016E000C004C6F3434004F55D74072821D2DFE847
:1016F00000F0202004202020150047F6F07006425C
:1017000017D0C6F30A1632462846E16804F053FFA4
:10171000E0683044E060A069304409E0082205F246
:10172000CC51284604F047FFA069C6F30A110844CB
:10173000A061E868816941F010018161012070BDFC
:1017400038B5044600208DF8000094F812018DF899
:101750000000154800684169204688472069806874
:10176000E2684FF400615161A17AD1B1C00718D08D
:1017700094F81501012814D19DF80000032810D118
:10178000D4F80C01016841F001010160D4F80C01AA
:10179000016841F0030101600448016841F006015D
:1017A0000160012038BD0000C800002010ED00E0FD
:1017B00070B50446006900250126416821F0010149
:1017C00041602946204604F09DFE0020FF2206E0ED
:1017D00004EB80018B699A60496D8A60401C6178D6
:1017E0008142F5D821694FF0FF3088612846216990
:1017F00066F30F0066F31F40C861216945F00B00D6
:101800004861216945F00B0008612069016821F4F5
:10181000FE610160204604F00BFDE1684FF480504A
:10182000486103480068016920468847012070BD6F
:10183000C800002070B5044604F0CEFE012000234D
:1018400084F8120184F814311A46402510E002EBA6
:10185000820104EBC10181F81D0181F81C21A1F86E
:10186000222181F81F31C1E94953521CC1F830319E
:1018700061789142EBD8002010E000EB800104EB8E
:10188000C10181F8753381F87403A1F87A0381F8F6
:101890007733C1E9DF53401CC1F888336178814256
:1018A000EBD8204604F048FC204604F040FB002121
:1018B000204604F0F1FE204604F079FB2046BDE806
:1018C000704004F0F9BD2DE9F0470E4601EB8601AA
:1018D00000EBC1048046D4E94C01401AD4F824112D
:1018E00004F58E74814200D20846C01C08EB8609BC
:1018F0008708D9F81800816920E0451AA068A84235
:1019000000D20546E81C8708ABB2F2B24046E16857
:1019100004F0D7FEE0682844E060A0692844A06194
:10192000D9F8181089696269824207D120780122AA
:101930008240D8F81000436B9343436388B2B842A7
:1019400005D9D4E90501814201D20028D5D1012071
:10195000BDE8F08700F088BD074A904201D20748F1
:1019600001E005481038064A8B0001EA020101D562
:10197000C16070478160704710640240006002409F
:101980007D0F7D0F0029016802D041F0010101E0C7
:1019900021F00101016070472DE9F043016821F059
:1019A000010101600021016041608160C16001614D
:1019B000212141613C493C4A3D251039904202D1E8
:1019C0008D60BDE8F083384A4FF474661832904257
:1019D00001D18E60F5E7344A4FF4741730329042EB
:1019E00001D18F60EDE7304A4FF0746C483290427D
:1019F00002D1C1F808C0E4E72B4B2C4A603398426F
:101A000001D1CA60DDE7284C294B7834A04201D1CE
:101A1000CB60D6E7DFF89080264C08F1900840456F
:101A200001D1CC60CDE7DFF880804FF03D5908F15F
:101A3000A808404502D1C1F80C90C2E71E49DFF862
:101A400078800839404501D10D60BAE71A4D183544
:101A5000A84201D10E60B4E7174D3035A84201D13C
:101A60000F60AEE7144D4835A84202D1C1F800C05E
:101A7000A7E7114D10496035091FA84201D10A603E
:101A80009FE70D4A7832904201D10B6099E70A4AEC
:101A90009032904201D10C6093E7074AA8329042FD
:101AA0008FD1C1F800908CE7106002403D0000200B
:101AB000400F002000003D20106402400029016812
:101AC00002D041F0200101E021F0200101607047C7
:101AD0000B0607D5436912B143F0800301E023F000
:101AE00080034361802908D0002A026801F01E01AA
:101AF00001D00A4300E08A430260704730B50368B2
:101B0000124A8C6913400A682243D1E908452C43E4
:101B100022438C6A2243CC6A22430C6B22434C6BD7
:101B200022430C6C22434C6C22431A4302604269EC
:101B300022F00703D1E90E2422431A434261CA6905
:101B400042608A6882600969C16030BD3F801CF0D4
:101B5000704700E0401E0028FCD17047FEB506210A
:101B6000012003F061F8012440208DF80640002593
:101B700000908DF804500C268DF80560684600F042
:101B800037F80721012003F04FF880208DF8064038
:101B900000908DF804508DF80560684600F028F834
:101BA0000B21032003F040F8E0028DF8064000907E
:101BB0008DF804508DF80560684600F019F817207C
:101BC0008DF808008DF809508DF80A408DF80B400B
:101BD00002A802F0F9F828208DF808008DF80950C5
:101BE0008DF80A408DF80B4002A802F0EDF8FEBD1A
:101BF00030B51A4A8379016853B313688B43136075
:101C0000111D0B680468A3430B60017911440B6834
:101C1000046823430B60114B083319680468A1431F
:101C200019601C1D21680568A943216041791029AC
:101C300005D011440A68006802430A6030BD196883
:101C4000026811431960216800680143216030BDBA
:101C50000079104402688A43026030BD003C0140B4
:101C60002DE9F0470446002002F032FE800102D543
:101C70000E20BDE8F087012C01D037202EE01A4C51
:101C80001849002002C40625402607464FF4806903
:101C900084E8E102201F241F02F04CFE0620FFF71B
:101CA00021FA0028E5D11149B846221DC4F8149044
:101CB000216082E861014F46204602F03BFE06208B
:101CC000FFF710FA0028D4D10949221D676121606D
:101CD00082E86101204602F02DFE0620BDE8F047B3
:101CE000FFF700BA0008BB03F8AD00200001B903FC
:101CF0000001B7032DE9F047B0F5805F0ED04FF437
:101D0000006900260427134C4FF48048484510D141
:101D10000120FFF7A5FF050003D018E02720BDE84C
:101D2000F08727752660C4F810806660C4E90269F0
:101D30000AE00020FFF794FF050008D12775266010
:101D40006660A660C4E90368024802F0D7FD284631
:101D5000E5E70000E0AD00202DE9F0439F4C247C36
:101D600080F86642A0F864320B681B0E9D0905706E
:101D7000C3F38305457003F0030383700B681B0CEA
:101D8000C3700B881B0A03710B7843714B681B0EE1
:101D90001B01C3804B68C588C3F3074345EA13158D
:101DA000C58003F00F0303728B88C3F30723DD099B
:101DB0004572C3F380158572C3F34015C572C3F332
:101DC00000150573002545739B071B0D03610B79F7
:101DD000066946EA830303618B6806691B0E46EABF
:101DE00093160661C3F3C206067503F00703437535
:101DF0008B68C3F307435E098675C3F38206C67515
:101E00009B075B0F03760B89067EC3F3072346EA25
:101E1000D3160676077A4FF0010909FA07F6C0F8DB
:101E20006062012C02D0032C0BD023E00469077EF2
:101E3000641C07F00707BF1CBC407443C0E996450B
:101E400018E090F8004190F8037144EA076490F8B4
:101E5000027190F801C13F0447EA0C273C43A4FB00
:101E600006C8E717C7F3080707FB068604FB0564E7
:101E7000C0E996C4C3F3801400F8194F9B065B0EAB
:101E800043700B7A447844EAD314447003F07F0320
:101E90008370CB681B0EDC09C470C3F3411404715A
:101EA000C3F3820444719B071B0F8371CB68847951
:101EB000C3F3074344EA93148471C3F34014C47119
:101EC000057203F0010343728B89C3F30723DC0916
:101ED0008472C3F38014C472C3F340140473C3F355
:101EE00000144473C3F38104847303F00303C373C6
:101EF000097B490801744B4680F811901168090E5E
:101F000080F823121168090C0902A0F82512118823
:101F1000B0F82542C1F307210C43A0F825421178FF
:101F20000906C0F827125168D0F82742090E44EA82
:101F30000141C0F827125168D0F82742C1F3074188
:101F400044EA0121C0F827129188D0F82742C1F352
:101F500007210C43C0F82742117980F82B129168B1
:101F6000090E80F82C129168090C0906C0F82F128E
:101F70001189D0F82F42C1F3072144EA0141C0F88A
:101F80002F12117AD0F82F4244EA0121C0F82F1203
:101F9000D0F82F42D16844EA1164C0F82F42D168CA
:101FA00090F83342C1F3074144EA111480F83342F8
:101FB0000907090DA0F835129189B0F83542C1F32F
:101FC00007210C43A0F83542117B490880F83712ED
:101FD00080F838322846BDE8F08300006800002011
:101FE00008B500200090684600F00EFC08B1FF2004
:101FF00008BD0098C0F3432008BD10B5FFF7F0FFFF
:10200000042805D0062803D0FF2803D0012010BDE6
:10201000002010BD022010BD38B500248DF800400E
:1020200002F028FC01F0B8FE00F040F900F092F94F
:102030008DF800009DF80000E8B9104800F020F885
:102040008DF800009DF80000A8B90C4876214838AA
:102050000175046044604FF480418460C0E903412D
:1020600002F04CFC9DF8000028B94FF40060FFF727
:1020700041FE8DF800009DF8000038BD28AE00201C
:102080002DE9F0418AB00024804600940194029426
:10209000039401200494059406940794ADF820005D
:1020A00002F00EFC00286DD0374D0020C026C5E997
:1020B00000000220C5E902064702C5E90447284698
:1020C00002F038FCFFF77AF8002858D102F000FC43
:1020D0000490042002F0FCFB0590082002F0F8FBBD
:1020E00006900C2002F0F4FB07900020C5E90000E8
:1020F0000320A86005F10C01402081E891002846EA
:1021000002F018FC08A90320FFF786F8002836D152
:10211000BDF820000004C5E900040920C5E9020655
:10212000C5E90447284602F005FCFFF747F80028F8
:1021300025D102F0CDFB0090042002F0C9FB0190F4
:10214000082002F0C5FB02900C2002F0C1FB0390B6
:1021500005F13000B0F864020004C11700F03CFB48
:1021600000280CD105F1300000F042FA002806D119
:10217000BDF8203004AA69464046FFF7EDFD0AB0DD
:10218000BDE8F0812520FAE7F8AD002070B5214DBB
:10219000044692B016464FF0FA512846FFF7DCFB92
:1021A00000212846FFF7EEFB2846FFF7F5FB4FF02E
:1021B0000060009000211848CDE90201CDE90441FA
:1021C0000015CDE90810CDE9061680000A908000C0
:1021D000CDE90B014FF440300D9004200E90032008
:1021E0000F904FF40000109080101190694628461F
:1021F000FFF784FC012210212846FFF769FC20210B
:102200002846FFF75BFC01212846FFF7BBFB12B015
:1022100070BD000058640240802C014070B5214D13
:10222000044692B016464FF0FA512846FFF794FB49
:1022300000212846FFF7A6FB2846FFF7ADFB4FF02D
:102240000060009018480021CDE902014020079667
:102250000494CDE905100001CDE9081080000A9032
:102260008000CDE90B014FF440300D9004200E901A
:1022700003200F904FF400001090801011906946D9
:102280002846FFF73BFC012210212846FFF720FCDF
:1022900020212846FFF712FC01212846FFF772FB98
:1022A00012B070BD58640240802C01407CB5012101
:1022B0000C2001F0BDFE254D0C220821284600F01F
:1022C0004DFD0C220921284600F048FD0C220A2170
:1022D000284600F043FD0C220B21284600F03EFD6D
:1022E0000C221146284600F039FD194E0C2202211D
:1022F000304600F033FD4FF47060009003208DF8FD
:10230000050002208DF8040000248DF8064001200D
:102310008DF807006946284600F0E4FC0420009090
:102320006946304600F0DEFCA81400908DF80740A6
:102330006946284600F0D6FC0121C80201F09CFE47
:102340000121880501F074FE7CBD000000080240F8
:10235000000C02402DE9F84F00268DF800603E4841
:10236000762135460175066046608660C660344653
:10237000066102F0C3FA032002F0F0FA012002F035
:1023800055FA4CF25030641C8442FCD3DFF8C8A0EC
:1023900000220AF1180A5046CAF80020C0E90126B6
:1023A000CAF80C604FF48068CAE9046802F0C2FA07
:1023B00000274FF0807401E0641E12D0802002F0EC
:1023C0006BFA0028F8D064B140F2FF5002F022FA14
:1023D0008DF800709DF8000028B19DF80000BDE860
:1023E000F88F0327F4E71D4C0020401CA042FCD3CB
:1023F0001B49032057464FF001094FF0400A4FF4A4
:10240000C87B08611749002002C7A7E801061248E7
:1024100067E80468183002F08DFAFEF7E9FE8DF8DF
:1024200000006D1C5D4503D29DF800000028E9D135
:102430000020401CA042FCD30A49002002C7A7E8A4
:1024400001060548C7E90068183002F073FAFEF784
:10245000CFFE8DF80000C0E7E0AD002020A107000E
:10246000680000208080FF400748006810F0C05FCF
:1024700008D006490120C86003484FF0C2515830C7
:10248000FFF76ABA7047000000640240680000204D
:1024900070B54FF48075284602F008FA1F4C38B129
:1024A00000202070284602F0BBF90120A0602EE039
:1024B000022002F0FBF920B1022002F0B1F9022063
:1024C00024E0082002F0F2F920B1082002F0A8F977
:1024D00004201BE0202002F0E9F920B1202002F0C6
:1024E0009FF9062012E0102002F0E0F920B1102040
:1024F00002F096F9052009E04FF40075284602F035
:10250000D5F920B1284602F08BF907202070002170
:102510004CF23A3002F0E6F9207870BD68000020F5
:102520002DE9FF5F2F4800260E9D067086604660ED
:102530002D4806602D4F4FF040091020C7F80C9031
:102540003D60C7E901608001C7E90460384602F0D8
:10255000F1F91020FEF7C6FD00283FD107F118045D
:102560004FF0900B4FF0020AC4F808B0C4E903A67C
:102570004FF0FF386661C4E90085204602F062F939
:102580000120C4E90460C4E90085C4E902BA204618
:1025900002F058F9DDE90201C7E900011120C7E99D
:1025A00002094FF48060C7E90460384602F0C2F9BE
:1025B0001120FEF797FD002810D1012140F22A30AA
:1025C00002F090F9012002F037F92A460023009822
:1025D000FFF7DCFDBDE8FF5F00F052B904B0BDE8D5
:1025E000F09F0000680000202C2C0140F8AD002076
:1025F0002DE9F05F00F12C043B484FF0FF364FF41B
:10260000007890210660C0E9018102210025C0E91F
:1026100003150121416102F015F9334800211838F2
:10262000C0E90011082181604021C0E903150901BA
:10263000416102F07FF90820FEF754FD070021D127
:10264000DFF8A8904FF4004B40F22A6AD9F8000056
:1026500010EA0A0F0ED1584602F01EF90028F5D0F4
:10266000002502F061F944F825006D1C082DF8D30F
:102670002034EBE7082002F00FF928B1082002F01F
:10268000C9F80420BDE8F09F022002F005F920B14E
:10269000022002F0BFF80220F4E7202002F0FCF84C
:1026A00020B1202002F0B6F80620EBE74546404670
:1026B00002F0F2F820B1284602F0ACF80720E1E77A
:1026C0004FF4001503E002F02FF901C4761E2846EE
:1026D00002F0E2F808B1002EF5D140F2FF5002F00E
:1026E00099F83846CEE7000010AE0020342C0140A7
:1026F0002DE9FF5F3548DDE90E850026067086600E
:1027000001214160FDF74DFD31480660314F102039
:1027100007F10C01C7F80080C7E9016040204FF4C1
:10272000806A81E84104384602F004F91020FEF77F
:10273000D9FC002832D107F118044FF0FF3B4FF0CD
:102740000209C4F800B0C4E9039605FB08F54FF090
:1027500090086661C4E90158204602F073F844F815
:1027600010BB012064E8036007F1180084E820032F
:1027700002F068F8DDE90201E7E80201122001C772
:10278000402087E84104134802F0D4F81220FEF7F5
:10279000A9FC0446FDF707FD1CB1204604B0BDE8C6
:1027A000F09FFDF7FEFC012140F22A3002F09AF87A
:1027B000012002F041F82A4600230098FFF7E6FCCA
:1027C000FDF7F1FCBDE8FF5F00F05AB8680000209B
:1027D0002C2C0140F8AD00200A4A10B5C2E90001D6
:1027E000072090604020D060002010614FF480608E
:1027F0005061104602F09EF8BDE810400720FEF739
:1028000071BC0000F8AD002070B505001BD00F486A
:102810000021B0F8640202040C483038C0E90021FD
:102820000D2282604022C0E903211101416102F0C2
:1028300081F80D20FEF756FC040003D102F048F8A1
:102840002860204670BD262070BD000028AE002004
:102850000A4810B50021C0E900110C218160402117
:10286000C160002101614FF48061416102F062F8B2
:10287000BDE810400C20FEF735BC0000F8AD00208C
:102880002DE9F04100256C1E2146174E00E0491E3F
:10289000F06828B9B06818B9307808B90029F6D1BD
:1028A0000027F760114800E0641E0168890401D523
:1028B000002CF9D17068012807D1FDF772FCFFF7F1
:1028C000C7FF0546FDF76FFC77602C4300D1042558
:1028D00040F2FF5001F09EFF307810B13078BDE833
:1028E000F0812846FBE7000068000020342C0140FE
:1028F00070B50026741E2146104D00E0491EE868A0
:1029000028B9A86818B9287808B90029F6D1002094
:10291000E8600B4800E0641E0168C90401D5002C82
:10292000F9D140F2FF5001F075FF344300D1042685
:10293000287808B1287870BD304670BD6800002046
:10294000342C01402DE9F84F8346344800260A9D77
:102950008DF8006091469A46067086604660304861
:102960000660304C10204FF480682560C4E9016097
:102970004027C4F81480C4E90376204601F0DAFF4A
:102980001020FEF7AFFB002845D11820C4E902074C
:10299000C4E90468C4E9009A204601F0CBFF18207E
:1029A000FEF7A0FB002836D118344FF09008C4E998
:1029B0000286471E26616661C4E90075204601F063
:1029C00041FFC4E902860120C4E90460C4E900753E
:1029D000204601F037FFFFF710FB0028FBD1012153
:1029E00040F22A3001F07EFF2A4600235846FFF7C6
:1029F00015FC012001F020FFFFF77AFF00280AD123
:102A0000684600F01BFA002805D19DF80010072940
:102A1000F6D00629F4D0BDE8F88F00006800002049
:102A20002C2C0140F8AD00202DE9FF5F82B0444816
:102A3000DDE9107600258DF800509346057085601D
:102A40004FF0010AC0F804A03E4805603E4C10203B
:102A50004FF480692760C4E901504FF04008C4F882
:102A60001490C4E90385204601F064FF1020FEF7AE
:102A700039FB002860D117202660C4E90150C4F852
:102A80001490C4E90385204601F054FF1720FEF797
:102A900029FB002850D10598C4E900B01920C4E9E9
:102AA0000208C4E90459204601F044FF1920FEF74A
:102AB00019FB002840D118347E439027C4E90275E1
:102AC00025614FF0FF386561C4E90086204601F0BA
:102AD000B9FEC4E90275C4E9045AC4E90086204677
:102AE00001F0B0FEFFF789FA0028FBD1012140F286
:102AF0002A3001F0F7FE012001F09EFE324600234D
:102B00000298FFF78BFBFFF7F3FE002814D168460D
:102B100000F094F94FF47A7406E0684600F08EF9FC
:102B20000021491CA142FCD3002805D19DF80010CA
:102B30000729F2D00629F0D006B0BDE8F09F0000CA
:102B4000680000202C2C0140F8AD00202DE9FC4746
:102B500000278046DDF82890810715461E464FF471
:102B6000007018D00024824612E06002421946EB41
:102B7000E073CDF800A01048FFF7D2FC074652469C
:102B80000D494046FDF788FB641C08F50078E4B267
:102B90004C45EAD308E0B9F1010F08D0CDE90009AE
:102BA0004046FFF7A5FD07463846BDE8FC87009084
:102BB0004046FFF7B5FCF6E790B000202DE9FC4752
:102BC000074615460020DDF828801E46BA074FF458
:102BD000007118D00024894611E04A46394612484F
:102BE000FDF75AFB6002421946EBE073CDF8009006
:102BF0000D48FFF7A7FE641CE4B207F500774445D3
:102C0000EBD3BDE8FC87B8F1010F06D0CDE9001881
:102C10002A463846FFF708FFF3E72A463846009170
:102C2000FFF790FEEDE7000090B0002070B50D4674
:102C30000446014630230B4A0B4802F065F9302266
:102C40002946094803F0D4FD0749204602F004F85C
:102C50002146BDE87040034A20233032084602F086
:102C600053B90000169A0508C0F200207CB5012176
:102C70001F2001F0DDF90121880301F0FDF9012594
:102C80004FF4C0408DF80450002400908DF80640A9
:102C90008DF8075002208DF8050069460E4800F0B7
:102CA00021F88DF8044028028DF807400326009093
:102CB0008DF805606946094800F014F88DF8044065
:102CC0008DF8074000958DF805606946044800F0CE
:102CD00009F8FEF743FF7CBD0010024000000240EF
:102CE000000C0240F0B5002201274FF0030C0B68E6
:102CF00007FA02F52B40AB422CD1066853000CFAC0
:102D000003F4A64306600E79D0F800E09E4046EA40
:102D10000E0606600E79012E01D0022E12D18668B1
:102D2000A64386604E79D0F808E09E4046EA0E063B
:102D300086604668AE43466045688E799640B6B276
:102D400035434560C568A543C560CC799C40C368E0
:102D50001C43C460521C102AC9D3F0BD4B07DB0EC4
:102D60009A40C90810B500EB8100016A0F249C400D
:102D7000A1430162016A1143016210BD02460020B5
:102D800012690A4200D001207047418370470183D5
:102D9000704742694A404261704700004FF4006149
:102DA0000148FFF7F4BF0000001002404FF400613B
:102DB0000148FFF7EABF0000001002404FF48041D5
:102DC0000148FFF7E4BF0000001002404FF400414B
:102DD0000148FFF7DCBF0000001002404FF4004143
:102DE0000148FFF7D2BF0000001002400449012251
:102DF0008A708860C86051030248FFF7CABF0000AC
:102E000050000020001002400448002181708160C1
:102E1000C1604FF400510248FFF7B7BF50000020D7
:102E20000010024010B5FEF70FF9FFF7CFFFFFF7D4
:102E3000B5FFBDE8104006F04BB900007CB5044674
:102E400000254B4800950195B0F8640202044848FB
:102E50003038C0E900250D2282604022C0E90325F8
:102E60001101416101F066FD42490868019002E0EC
:102E70000A680192104610F0450FF9D001984007FA
:102E800002D50324042004E00198C00705D00124E2
:102E9000204601F0BFFC20467CBD01F0F7FC01900C
:102EA0000D2838D140F2FF5001F0B4FC002001F0B1
:102EB0000FFD0090C0F3432020702F490098084276
:102EC00053D00098002801DA1C207CBD400001D5B9
:102ED00009207CBD0098800001D50A207CBD0098A7
:102EE000C00001D50B207CBD0098000101D50C204D
:102EF0007CBD0098400101D50D207CBD0098C0012B
:102F000001D50E207CBD0098000201D50F207CBDAC
:102F10000098400201D510207CBD0098800201D5A8
:102F200011207CBD0098C00201D512207CBD009804
:102F3000000301D513207CBD0098400301D5142067
:102F40007CBD0098800301D515207CBD009840040D
:102F500001D518207CBD0098800401D519207CBDC6
:102F60000098000701D51A207CBD28467CBD0000D2
:102F700028AE0020342C014008E0FFFD70B50E495A
:102F800005460E4C087B38B9886828B1607818B9B6
:102F900001212846FEF7FEF981212846FEF7FAF9BD
:102FA0006078022807D12846BDE870401F23024AF6
:102FB0000121FEF7C5B970BDD0E20020E00000207D
:102FC0002DE9F041284E074606F12005706868603B
:102FD000B068A8600121384602F0F4FA234C1F289B
:102FE0000AD123493068884206D1717B012903D870
:102FF000B07B08B1102807D9707B2022052101F091
:1030000043FB0220607006E0174A38460F3201F099
:10301000D9F8002804DA3846BDE8F041FFF7AEBF22
:10302000207802281ED001281CD003281AD06188DD
:1030300091B1B3680F4A38468B4200D219468BB221
:10304000A968C91AA9600021297304212170BDE86B
:10305000F0418121FEF7BAB93846BDE8F0410021C0
:1030600000F096B8BDE8F081D0E20020E00000203A
:1030700055534243D0B2002010B5094C6278022A61
:1030800008D009060BD5012A09D0BDE8104001215E
:1030900000F07EB88121FEF77DF90020607010BD40
:1030A000E000002010B504460C480178022905D044
:1030B000032901D0042910D1002109E0084800F1BA
:1030C0000F02417B204601F07DF8002805DA01213E
:1030D0002046BDE8104000F05BB810BDE0000020C5
:1030E000D0E2002010B504460C48017881B10129D6
:1030F00013D10B4800F10F02417B204601F062F82A
:1031000000280ADA2046BDE81040012100F040B84E
:103110002046BDE81040FFF753BF10BDE00000207F
:10312000D0E200200149002008707047E000002034
:1031300010B504460C480021017041700B4800682E
:1031400001680020884701212046FEF7CFF8812141
:103150002046FEF7CBF820461F23BDE81040044A66
:103160000121FEF7EDB80000E0000020AC010020D6
:10317000D0E20020044900221F230A7001224A7075
:10318000024A0121FEF7DCB8E0000020D0E2002076
:1031900010B50C4A04460A48106011730A49002011
:1031A0000D23087081212046FEF710F9054A2046BC
:1031B0001F23203ABDE810400121FEF7C1B80000EE
:1031C00055534253F0E20020E000002010B50446C1
:1031D00088B0FF220021092000F05CFD10F0FF0004
:1031E00006D101221021684600F014FD10B1012023
:1031F00008B010BDFF2200210A2000F04BFD10F0A6
:10320000FF00F5D10122102104A800F003FD08B150
:103210000220EDE79DF80000800920709DF8000075
:10322000C0F3830060709DF8000000F00300A07000
:103230009DF80100E0709DF8020020719DF80300E8
:1032400060719DF804000001E080E0889DF80510A1
:1032500040EA1110E0809DF8050000F00F00207298
:103260009DF80600C00960729DF80600C0F380104A
:10327000A0729DF80600C0F34010E0729DF80600B1
:10328000C0F3001020730021617394F84E000128F0
:1032900001D002282ED19DF806209207120D22613E
:1032A00022699DF8073042EA8302226122699DF873
:1032B000083042EA931222619DF80820C2F3C2024C
:1032C00022759DF8082002F0070262759DF809201A
:1032D0005209A2759DF80920C2F38202E2759DF899
:1032E00009209207520F2276227E9DF80A3042EA88
:1032F000D3122276042812D1216120699DF808207A
:1033000040EA0220206120699DF8092010432061D5
:103310002069401C400260644FF40070A0649DF876
:103320000A00C0F3840060769DF80A008007C00E92
:1033300004F81A0F20789DF80B2040EA521004F888
:10334000010B9DF80B0000F01F0004F8010B9DF825
:103350000C00C00920709DF80C00C0F34110607093
:103360009DF80C00C0F38200A0709DF80C0080074F
:10337000000FE070E0789DF80D2040EA9210E070B8
:103380009DF80D00C0F34010207161719DF80D0093
:1033900000F00100A0719DF80E00C009E0719DF8D9
:1033A0000E00C0F3801020729DF80E00C0F3401094
:1033B00060729DF80E00C0F30010A0729DF80E0020
:1033C000C0F38100E0729DF80E0000F0030020734E
:1033D0009DF80F00400860730120A0739DF8101045
:1033E00021749DF8111009026182618A9DF81220F2
:1033F000114361829DF813100906616161699DF8AE
:10340000142041EA0241616161699DF8152041EA99
:103410000221616161699DF81620114361619DF887
:10342000171021769DF8181061769DF8191009067D
:1034300044F81C1F21689DF81A2041EA02412160CE
:1034400021689DF81B2041EA0221216021689DF836
:103450001C20114302C421789DF81D2041EA12115D
:1034600004F8021B9DF81D100907090D2180218811
:103470009DF81E20114324F8021B9DF81F104908D7
:10348000217060700020B3E62DE9F0474FF0000A8C
:103490005046401C80B2FF28FBD90024FF2000F0DA
:1034A00061FC641CA4B20A2CF8D3002400219522EC
:1034B000084600F0EFFBC0B2012809D0641CA4B29A
:1034C000FF2CF3D372A003F09FF90120BDE8F08731
:1034D000002487224FF4D571082000F015FCC0B2FB
:1034E000764EDFF8DC9140F6FF78052802D00128FF
:1034F0005CD0CAE0012086F84E0001464846FFF73E
:1035000046FCFF2000F02EFC4546002211463720E5
:1035100000F0C0FBC7B2012F05D0394669A003F007
:1035200073F93846D2E700221146292000F0B2FB99
:1035300010F0FF0F2CD0641CA4B2AC42E5D3AC4217
:1035400026D1002400221146012000F0A3FB10F038
:10355000FF010AD0641CA4B2AC42F3D3AC4204D144
:1035600065A003F051F90220B0E786F84EA06EA0E6
:1035700003F04AF9012000F0F5F9012200213B2077
:1035800000F088FB10F0FF0404D0214670A054E046
:103590007CA0EDE7FF224FF40071102000F07AFBD1
:1035A00010F0FF0471D0214680A046E0FF2000F01B
:1035B000D9FBFF2000F0D6FBFF2000F0D3FBC7B201
:1035C000FF2000F0CFFBC5B201214846FFF7DFFB2B
:1035D000FF2000F0C7FB012F57D1AA2D55D14FF086
:1035E000804A474600221146372000F053FBC5B2FF
:1035F000012D05D0294633A003F006F9284665E7DA
:1036000000225146292000F045FB10F0FF010AD0AE
:10361000641CA4B2BC42E5D3BC4204D170A003F048
:10362000F3F8032052E7002211463A2000F06CFB29
:1036300010F0FF0405D0214676A003F0E5F82046FF
:1036400044E7FF2000F08EFB0446FF2000F08AFBD9
:10365000FF2000F087FBFF2000F084FB012148469B
:10366000FFF795FBFF2000F07DFB600604D50420EA
:1036700086F84E0074A003E0022086F84E007DA07C
:1036800003F0C2F8012000F06DF900201EE70000F1
:10369000434D443020526573657420636172642029
:1036A000696E746F2049444C4520737461746520C1
:1036B0006661696C6564210D0A000000D434002045
:1036C0000020024053656E6420434D44353520731D
:1036D000686F756C642072657475726E2030783016
:1036E000312C20726573706F6E73653D30782530B4
:1036F00032780D0A0000000053656E6420434D448B
:10370000312073686F756C642072657475726E20F9
:10371000307830302C20726573706F6E73653D3079
:1037200078253032780D0A00436172642054797034
:103730006520202020202020202020202020202044
:103740002020202020203A204D4D430D0A0000006B
:1037500053656E6420434D4435392073686F756C32
:10376000642072657475726E20307830302C20724F
:103770006573706F6E73653D3078253032780D0A51
:10378000000000004361726420547970652020209D
:103790002020202020202020202020202020202029
:1037A00020203A2053442056310D0A0053656E64A0
:1037B00020434D4431362073686F756C6420726508
:1037C0007475726E20307830302C20726573706F93
:1037D0006E73653D3078253032780D0A00000000A8
:1037E00053656E642041434D4434312073686F75D6
:1037F0006C642072657475726E20307830302C20C5
:10380000726573706F6E73653D3078253032780D58
:103810000A00000053656E6420434D443538207320
:10382000686F756C642072657475726E20307830C4
:10383000302C20726573706F6E73653D3078253063
:1038400032780D0A000000004361726420547970E0
:103850006520202020202020202020202020202023
:103860002020202020203A20534420563248430D67
:103870000A000000436172642054797065202020A2
:103880002020202020202020202020202020202038
:1038900020203A2053442056320D0A002DE9F041F1
:1038A0000E461D49154691F84E10042900D04002DD
:1038B00001460022122000F0EDF910F0FF0F02D0B7
:1038C0000120BDE8F0810024144F4FF4007812E08D
:1038D00006EB44200022414600F09CF950B1002242
:1038E00011460C2000F0D6F901213846FFF74FFAB7
:1038F0000220E6E7641CAC42EAD3002211460C2009
:1039000000F0C8F901213846FFF741FAFF2000F026
:1039100029FA0020D5E70000D4340020002002401E
:1039200010B50C460E4991F84E10042900D0400203
:1039300001460022112000F0ADF910F0FF0F01D078
:10394000012010BD01225102204600F063F9C4B2EB
:10395000002211460C2000F09DF9204610BD000009
:10396000D434002000B585B00021ADF800104FF42C
:103970008272ADF80220ADF804100222ADF80620E4
:103980000122ADF808205202ADF80E100721ADF863
:103990000A20ADF8101040B10820ADF80C006946BF
:1039A000034801F0C9F805B000BD3820F5E7000074
:1039B000003800407CB50121880300F051FB012153
:1039C000080200F059FB1F4E052200213046FFF788
:1039D000C5F9052201213046FFF7C0F90522022171
:1039E0003046FFF7BBF9052203213046FFF7B6F951
:1039F00002248DF805408DF8044000258DF806500E
:103A000000948DF8074069463046FFF76BF98DF852
:103A100005400C208DF8044000908DF806508DF87C
:103A2000074069463046FFF75DF901213046FFF750
:103A3000AEF90020FFF796FF0121034801F072F86C
:103A40007CBD000000200240003800402DE9F05FFE
:103A500004463F480D46914690F84E10042901D087
:103A6000640221B100224946172000F013F9002218
:103A70002146192000F00EF910F0FF0F02D00120AE
:103A8000BDE8F09FDFF8CCB001215846FFF77DF983
:103A9000FF2000F067F90026DFF8BC804FF4007AC1
:103AA00031E0FC2000F05EF90024574615F8010BC8
:103AB00000F058F9641CA4B2BC42F7D3FF2000F018
:103AC00051F9FF2000F04EF9FF2000F04BF900F013
:103AD0001F00052805D001215846FFF758F902209C
:103AE000CEE70024474608E0641CBC4205D1012112
:103AF0005846FFF74CF90320C2E7FF2000F032F9E7
:103B0000FF28F1D1761C4E45CBD3FD2000F02AF9D9
:103B100010F0FF0F02D0002445460AE00420AFE772
:103B2000641CAC4205D101215846FFF730F905204D
:103B3000A6E7FF2000F016F9FF28F1D10121584631
:103B4000FFF725F9FF2000F00DF9002098E70000AD
:103B5000D434002000200240010004002DE9F0418F
:103B60000D46294991F84E10042900D04002014623
:103B70000022182000F08EF810F0FF0F02D0012074
:103B8000BDE8F081214E01213046FFF7FEF8FF200D
:103B900000F0E8F8FE2000F0E5F80024771515F8AD
:103BA000010B00F0DFF8641CA4B2BC42F7D3FF2085
:103BB00000F0D8F8FF2000F0D5F8FF2000F0D2F890
:103BC00000F01F00052805D001213046FFF7DFF87F
:103BD0000220D5E700240E4D08E0641CAC4205D15C
:103BE00001213046FFF7D3F80320C9E7FF2000F09A
:103BF000B9F80028F1D001213046FFF7C8F8FF20BE
:103C000000F0B0F80020BBE7D434002000200240D0
:103C1000010004002DE9F047DFF874900D460646D8
:103C2000904601214846FFF7B0F800244FF4FA67A8
:103C3000FF2000F097F8C0B2FE280CD0641CA4B29C
:103C4000BC42F5D3BC4206D101214846FFF79FF89C
:103C50000120BDE8F087002404E000F083F830552F
:103C6000641CA4B2AC424FF0FF00F6D300F07AF827
:103C7000FF2000F077F8B8F1000F06D00121484688
:103C8000FFF785F8FF2000F06DF80020E1E7000065
:103C9000002002402DE9F041074615460C46FF2062
:103CA00000F060F8174E01213046FFF76EF847F03C
:103CB000400000F057F8200E00F054F8C4F307401D
:103CC00000F050F8C4F3072000F04CF8E0B200F028
:103CD00049F8284600F046F80024FF2000F042F89A
:103CE000C5B2FF2D03D1641CE4B2C82CF5D3012169
:103CF0003046FFF74CF8FF2000F034F82846BDE8C6
:103D0000F08100000020024070B5064615460C46C2
:103D1000FF2000F027F801211148FFF736F846F0A0
:103D2000400000F01FF8200E00F01CF8C4F307401C
:103D300000F018F8C4F3072000F014F8E0B200F027
:103D400011F8284600F00EF80024FF2000F00AF8D1
:103D5000C0B2FF2803D1641CE4B2C82CF5D370BDF7
:103D60000020024005490A889207FCD5034A121D2B
:103D700010800888C007FCD01088704708380040C1
:103D800010B5FDF759F9FFF729F8FFF717F8BDE867
:103D90001040FFF703B8704738B531208DF80000A8
:103DA00000208DF801008DF8020001248DF80340F9
:103DB000684600F009F83B208DF800008DF80140BE
:103DC000684600F001F838BD30B50F23C27801789D
:103DD0000125FAB1144A126801F1E02102F4E0620F
:103DE000C2F5E062C2F30722C2F10404D340427874
:103DF000A24084781C401443220181F800240078FA
:103E000000F01F018D404009800000F1E020C0F863
:103E1000005130BD01F01F0085404809800000F1CD
:103E2000E020C0F8805130BD0CED00E002490843AD
:103E300002490860704700000000FA050CED00E040
:103E4000014801F0A5BC0000E02C00202DE9F04362
:103E50002DED028B0F460A4683B0804600254BA10C
:103E60000AF0DCFA04463A464AA140460AF0D6FA7D
:103E700054EA000101D034B106E0012003B0BDECEA
:103E8000028BBDE8F0830446A4EB0800A7EB000812
:103E900000271EE0E05D2C281AD16D1C012D04D0F6
:103EA000022D0BD0092D13D10DE0E019401CFCF7B9
:103EB0007DFA00EE100AB8EEC08A09E0E0194078F9
:103EC00060F3070604E0E019401CFCF76FFA814636
:103ED0007F1C4745DED3F3B21C464FF4CA722F490C
:103EE0002FA002F091FC0026344D412C05D0612C0E
:103EF00003D02E7040F2B51242E06420B9FBF0F11D
:103F0000B9FBF0F2B1FBF0F32D4C00FB129200FB79
:103F100013112270617042F21073B9FBF3F1BDEE20
:103F2000C80AA17010EE101A91FBF3F1E17010EEC7
:103F3000101A91FBF0F191FBF0F300FB13112171CA
:103F400010EE101A91FBF0F300FB13106071A2B198
:103F50004FF4D57211491BA002F056FCE07862794B
:103F600021798DE80700A378627821781DA002F0FE
:103F70004BFC01202870002080E72E704FF4D37294
:103F8000064922A002F040FC77E700004750524D5E
:103F900043000000474E524D430000000C9D0508B1
:103FA000663D2573204C3D25642C6770726D63203F
:103FB0007374617465203D25630D0A003804002088
:103FC000D0010120663D2573204C3D25642C4765BA
:103FD0007447707354696D652074727565210D0A9C
:103FE000000000002D2D2D2D2D3E32302530326465
:103FF0002D253032642D2530326420253032642D59
:10400000253032642D253032640D0A00663D25735B
:10401000204C3D25642C47657447707354696D6569
:104020002066616C7365210D0A0000007047000076
:10403000044A0029116801D0014300E08143116066
:104040007047000030380240044A0029116801D04E
:10405000014300E0814311607047000034380240A2
:10406000044A0029116801D0014300E08143116036
:104070007047000040380240044A0029116801D00E
:10408000014300E081431160704700004438024062
:10409000044A0029116801D0014300E08143116006
:1040A000704700002438024070B5204B1968204C3E
:1040B00011F00C0104D06610042903D0082903D0A4
:1040C00004601BE0066019E0184A121F1168C1F372
:1040D0008055116801F03F0115B1B6FBF1F101E027
:1040E000B4FBF1F114681268C4F388146143C2F39D
:1040F0000142521C5200B1FBF2F1016019680F221B
:1041000002EA11110B4A545C0168E14041601C68ED
:10411000072505EA9424145D21FA04F484601B68E1
:1041200005EA5333D25CD140C16070BD083802400B
:104130000024F4001C00002004490122CA70086118
:10414000486191030248FEF724BE000050000020A1
:104150000010024004480021C170016141614FF428
:1041600080410248FEF711BE5000002000100240BE
:1041700070B50E460546014614460848FCF78CF813
:10418000321B29192846FCF787F8A819001B22467C
:10419000BDE870400149FCF77FB80000F0F800204E
:1041A0001144074A00B59268914206D9212205219F
:1041B00000F06AFA4FF0FF3000BD002000BD0000A3
:1041C000380100202DE9F0410F464A490024661EBF
:1041D000C8601078484D494B23286DD00FDC1A2851
:1041E00055D007DC46490968C0B103282CD01228F5
:1041F00011D12FE01B2847D01E280CD144E02A28DB
:104200006CD004DC25285DD0282804D160E02F285C
:104210006AD05A2845D0202205210CE0394882680E
:104220001AB12022407B052106E08968384688477C
:1042300038B13A220221384600F026FA3046BDE86D
:10424000F0812C800020FAE73846BDE8F0411146A5
:1042500000F0E6B95078C00702D02B4907200AE0E9
:10426000C86907EBC70100EB810112790879401D8D
:10427000824200D81046288003E0401E80B20A5CCB
:104280001A540028F9D115E020462C80D7E70820E1
:104290001E492880401E0004000C0A5C1A54F9D103
:1042A00008E008201A492880401E0004000C0A5C1F
:1042B0001A54F9D12046C2E73846BDE8F04111460C
:1042C00000F076B93846BDE8F041114600F03CB93F
:1042D0003846BDE8F041114600F0CCB83846BDE89C
:1042E000F041114600F016BA3846BDE8F0411146DB
:1042F00000F0E0B938010020E2000020D0B2002038
:10430000AC010020D0E20020869705088D970508B3
:10431000959705082DE9F843234E80464FF4405009
:10432000D6E90645201A75F1000001D34FF4405438
:1043300072680025B4FBF2F087B2D6E904012B467F
:10434000FBF748FF194A00970B461268184917698E
:1043500002464046B847002807DA112204214046A9
:1043600000F092F9681EBDE8F8832346104A8121C7
:10437000F068FDF72BF8D6E9041009196841C6E981
:104380000410D6E90610091B60EB0500C6E906100B
:10439000084A93681B1B9360014302D1064903201E
:1043A00008700020DFE7000038010020AC01002089
:1043B000D0B20020F0E20020E00000202DE9F84318
:1043C000284E80464FF44050D6E90645201A75F134
:1043D000000001D34FF4405472680025B4FBF2F0A2
:1043E00087B2D6E904012B46FBF7F4FE1E4A00977C
:1043F0000B4612681D49576902464046B8470028D7
:1044000007DA03220421404600F03EF9681EBDE8A9
:10441000F883D6E9041009196841C6E90410D6E901
:104420000601001B124A61EB0501C6E9060193680B
:104430001B1B936050EA01020FD04FF44052821AC6
:1044400071F1000201D34FF4405083B2074A0121B9
:10445000F068FCF775FF0020D9E70021F068FEF74F
:1044600097FEF8E738010020AC010020D0B2002010
:10447000F0E200202DE9F0472E4F81460C463878B7
:10448000E8BB2D4D4FF0FF38287B000645D52B4863
:10449000006881684846884728B13A220221484688
:1044A00000F0F2F817E06088217940BA000440EA91
:1044B00001216079224E0143C817C6E90410B4F8FF
:1044C000070040BAC217C6E9060282B24846FFF7A3
:1044D00067FE002802DA4046BDE8F0870220387007
:1044E000D6E9041270680023A1FB004702FB0072AA
:1044F00001FB0321C6E90441D6E9062400E010E0EF
:10450000A2FB001704FB007002FB0300C6E90610C3
:10451000AA6843404A401A4303D02022687B052101
:10452000BEE708494FF4405008804846BDE8F047D0
:10453000FFF7F0BEE0000020D0E20020AC01002038
:1045400038010020E200002010B504461448154A46
:104550000068111D43682046984738B13A2202216D
:10456000204600F091F84FF0FF3010BD0D4A0E4884
:10457000121F9168491E0B0E03700B0C43700B0A3F
:104580008370C17051680A0E02710A0C42710A0AE6
:104590008271C171054908200880002010BD00000B
:1045A000AC0100203C010020D0B20020E20000203D
:1045B0007CB505460021174C08466054491C89B259
:1045C0000C29FAD314486A4601A9006843682846B2
:1045D000984738B13A220221284600F055F84FF0AA
:1045E000FF307CBD0820E0700198401E010E217153
:1045F000010C6171010AA171E07102202072009822
:10460000010C6172010AA1720449E0720C20088059
:1046100000207CBDD0B20020AC010020E2000020D0
:1046200070B50020144A03461354401CC0B212282F
:10463000FAD370201070114D0C20D07128786C784E
:10464000A0420FD00E4C14F8306004EBC0049670FA
:1046500066791673401C2479C0B2547328700428FC
:1046600000D12B70074A122010800879122800D838
:104670001080002070BD0000D0B200203801002062
:1046800000E30020E200002010B5094C074B6078E1
:1046900003F83010110203EBC002401CC0B251609D
:1046A0006070042801D10020607010BD00E300207C
:1046B0003801002070B5034648780A4680074FF05D
:1046C000FF3405D5242205211846FFF7DDFF17E04A
:1046D0005088117940BA000440EA01215079014321
:1046E0000A48CD17C0E90415B2F8072052BAD51709
:1046F000C0E9062592B21846FFF752FD002801DAFC
:10470000204670BD02490020088070BD380100209D
:10471000E20000202DE9F047DFF8E48007460E466E
:1047200098F8000020B13846BDE8F047FFF746BED4
:10473000344C4FF0FF39207B000649D4324D2868B5
:1047400081683846884720B13A2208E0FFF79CFF8D
:1047500020E02868C1683846884718B1272202211E
:104760003846F3E77088317940BA000440EA012105
:104770007079264D0143C817C5E90410B6F8070043
:1047800040BAC217C5E9060282B23846FFF708FDF3
:10479000002802DA4846BDE8F087D5E904036968D5
:1047A0000022A0FB016703FB017300FB0230C5E997
:1047B0000460D5E90636A3FB010706FB017103FB84
:1047C0000211C5E90601A3684A404340134303D0E0
:1047D0002022607B0521B9E701234FF44052821A61
:1047E00088F8003071F1000201D34FF4405083B2D9
:1047F000074A0121E868FCF7A3FD0020CBE7000091
:10480000E0000020D0E20020AC01002038010020B0
:10481000D0B200200149086070470000382C0140E8
:104820000149086070470000382C01400149C1F877
:10483000A0007047008025420149086070470000D1
:104840008C85254210B50A4A01681160121D416825
:104850001160131D1968D0E902242243D0E90440F5
:10486000044321F0F70122430A431A6010BD0000FF
:10487000242C014010B50121CC022046FFF708FC92
:104880002046BDE810400021FFF702BC0148006847
:10489000C0B27047102C0140034A01460020126844
:1048A0000A4200D001207047342C0140034A0146DF
:1048B000002012680A4200D001207047342C0140C9
:1048C0000248006800F0030070470000002C01401F
:1048D00008B5024908440090006808BD142C014046
:1048E000FDF7D6BD044A0029116801D0014300E05C
:1048F00081431160704700003C2C014030B5094BEA
:104900001A6847F6FF618A43017D8468C5682143C0
:1049100044682C4321430468006921430143114347
:10492000196030BD042C0140014800687047000048
:10493000802C014010B5084A01681160131D1968E8
:10494000D0E902242243D0E9044004436FF30A0172
:1049500022430A431A6010BD082C01400149086037
:1049600070470000002C01402DE9F047052400F0BD
:10497000C1F8FFF71FF84B2003F0DAFCFDF74CFB02
:10498000641EA4B208B1002CF8D14B2003F0D0FC77
:1049900004F0B4FB10B131A001F036FF334F012217
:1049A00033A1386805F0D0FA324D334E4FF001098B
:1049B00028700D2802D000281ED025E02FA001F07D
:1049C00023FF4FF48052002129A004F003FF287038
:1049D00038B131A001F018FF4FF47A7003F0A8FC51
:1049E00012E0012233A1386805F0AEFA287032A037
:1049F00005F002FD32A0EDE738A001F005FF2EA082
:104A000005F0FAFC86F8009007F0E4F908B109F027
:104A100031FE307888B9B846344FFF24641EE4B2C2
:104A2000012224A1D8F8000005F08EFA287010B1F8
:104A3000307810B904E086F800902878BDE8F08757
:104A40003846FDF786F8002CE8D1294801F0DCFE55
:104A50003846FDF77EF808F0F9FDDFE76D616C6C14
:104A60006F63206661696C2E2E2E0000940000207A
:104A7000303A2F0000000020A6020020466C61732F
:104A800068204469736B20466F726D617474696E3F
:104A9000672E2E2E00000000466C6173682044696A
:104AA000736B20466F726D6174204572726F722055
:104AB00000000000303A0000303A5A5250504B008B
:104AC000466C617368204469736B20466F726D6138
:104AD000742046696E697368000000004D4D4320E4
:104AE0006D6F756E74204F4B210D0A00A08601007A
:104AF000189E05081CB501210802FFF799FA01204C
:104B00008DF8040000218DF8061002218DF80510A3
:104B100000908DF8070069460148FEF7E3F81CBDD8
:104B2000002002400029018802D041F0400101E04C
:104B300021F040010180704730B502884C8802F4B2
:104B400041530A88CD8822438C882C4322430C8908
:104B500022434C8922438C892243CC8922431A4325
:104B60000280828B22F400628283098A018230BD36
:104B700010B513460C4648B94FF4007204491A6048
:104B80000023D1E99601FBF756FB2060002010BD01
:104B900028AE00200020704710B508B9FDF73CFA98
:104BA000002010BD20B90348017841F010010170C8
:104BB000002070478A01002000207047F8B50B4C98
:104BC0000500069E27784FF0000047F00207277087
:104BD0000BD1F0B200900846FDF7B8FF40B20028B4
:104BE00003D0217841F008012170F8BD8A0100202E
:104BF000F8B50B4C0500069E27784FF0000047F0F3
:104C0000010727700BD1F0B200900846FDF7D6FFE0
:104C100040B2002803D0217841F004012170F8BD92
:104C20008A0100207047000010B58A0721F00304B4
:104C30000849120F21440F23D1F8084893409C43A0
:104C4000C1F80848D1F8083890400343C1F8083843
:104C500010BD000000300140F0B5124F0C46064672
:104C6000002560792178627800EB41002179E378B2
:104C700001EBC201A278C0B2920002EB43021144E0
:104C800007EB851202EB0010C9B201440422304642
:104C9000FCF7FAF96D1CEDB2A41D361D082DE0D30A
:104CA000F0BD0000DE9A050810B5064C4FF4005127
:104CB0002046FEF76CF82046BDE810404FF48041D6
:104CC000FEF765B80010024070B50C46054610218D
:104CD0000F48FBF7FAFA102C01DD102200E0224603
:104CE00029460B48FBF7D8FA0949A1F5E06000F026
:104CF00013F8082C07DD06490831A1F5816000F0A2
:104D00000BF8012000E000200249087070BD00008F
:104D1000F0F900208C0200202DE9F0410746002424
:104D200040221248FCF7B0F910493823104A0846CF
:104D300000F0EAF80E4D0F4E68351C212A5DF06830
:104D4000FFF716FA2A5D1C213069FFF711FA084AAD
:104D500004EB440007EB001030233832034900F025
:104D6000D3F8641C102CE8DBBDE8F08180F2002051
:104D7000669A05088C0200200CB500222749009293
:104D80000192086840F4803008604FF4A04308683E
:104D900000F4003001900098401C0090019810B978
:104DA00000989842F3D10868800334D5012001901F
:104DB0001A484030026842F0805202601848026887
:104DC00042F44042026015480830026802600268FE
:104DD00042F400420260026842F4A0520260031FE3
:104DE000104A1A600A6842F080720A600A689201EA
:104DF000FCD50D4940F205720A60016821F00301FB
:104E00000160016841F0020101600168C1F38101A4
:104E10000229FAD10CBD01920CBD000000380240FD
:104E20000070004008544007003C02404FF0E02171
:104E30000428086903D020F004000861704740F09E
:104E40000400FAE7124910B50868002801DD401E89
:104E500008601048007850B10F490868002802DD4A
:104E6000401E086003E00D480068FDF7BFFF0C48D6
:104E70000078002805D00B490868002802DD401E94
:104E8000086010BD08480068BDE81040FFF754B93D
:104E90004C00002052000020580000205C00002040
:104EA000530000206000002064000020124810B56C
:104EB000016841F4700101601048016841F001018E
:104EC00001600E4A00210832116002680C4B1A4042
:104ED0000260031D0B4A1A60026822F480220260FD
:104EE00006480C300160FFF747FF03494FF00060B0
:104EF0008039086010BD000088ED00E000380240F5
:104F0000FFFFF6FE10300024F0B40024064D491EC9
:104F100003E0165D765C2E55641C9C42F9DBF0BC08
:104F20001A460149FBF7B8B9F0F800202DE9F0471F
:104F30000024114D0646A0464FF400674FF00109CA
:104F40004FF4105AA8683A469042FBD328780028BC
:104F5000F8D185F8009030190849FBF79DF9A86849
:104F600004F50064A0F50060A86085F80080544551
:104F7000E8D3A0B2BDE8F0872C0000202C3D002033
:104F8000F8B50646002417A001F03EFC1D4D1E4B4F
:104F90004FF496706A88802A1AD368691B49304496
:104FA000FBF77AF9698868694FF4117308446861FE
:104FB0000090174A17A11BA001F026FC4FF40061D6
:104FC0001248FBF782F90020688068618020F8BDF4
:104FD0001946491EFDD1641CA4B28442DBD30120D2
:104FE000F8BD0000554152543652656376446174F1
:104FF00061206C656E203D3D3D3D5B25645D0D0A85
:10500000000000002C000020A08601002C350020AC
:1050100065EA02082E2E5C4253505C756172742E54
:105020006300000066696C653D25732C66756E63D0
:105030003D25732C6C696E653D25642C2020636FC3
:10504000756E745F6E756D203D3D3D3D205B256442
:105050005D0D0A0070B50D460646002403E0305D84
:1050600009F0F6FA641CAC42F9DB70BD7CB507A010
:105070000725D0E90010CDE9001000246E46305D10
:1050800009F0E6FA641CAC42F9DB7CBD554E4C4F8E
:10509000470D0A0070B5164C40F22551204600F02D
:1050A000AEF800280ED0204600F036F9114AC1B201
:1050B0001088030406D444044FF0000306D50A29DF
:1050C00001D0138070BD40F400400EE00D290AD0DD
:1050D000C0F30D04084D401C80B229551080B0F576
:1050E000007FEED270BD40F48040108070BD0000A3
:1050F0000010014016000020D432002070B5194C79
:1051000040F22551204600F07AF8002828D02046A9
:1051100000F002F9144CC5B24FF4006220699042CD
:1051200019D32078B8B9012020701048A16808442C
:105130000F49FBF7B1F8A068002600F50060266172
:10514000A060B0F5B04F05D34FF4A040A06009A017
:1051500001F05AFB2670064920690D54401C20615D
:1051600070BD0000004800402C0000202C3D0020B5
:105170002C9D00202D00000070B5144C40F22551EC
:10518000204600F03CF800281ED0204600F0C4F86D
:105190000F4CC5B2E268B2F5007F10D30D486188AC
:1051A00008440D49FBF778F86088A189084480B26B
:1051B00000216080E160B0F5006F00D36180064996
:1051C000E0680D54401CE06070BD00000014014018
:1051D0002C0000202C3500202C95002000298189EE
:1051E00002D041F4005101E021F400518181704767
:1051F0000246002012880A4200D00120704770B594
:1052000001F01F0501260024C1F3421306FA05F23E
:10521000012B0FD0022B0FD0838A4FEA1121008877
:10522000134206FA01F600EA060001D000B101249B
:10523000204670BD8389F0E7038AEEE710B5C1F31D
:10524000421301F01F040121A140012B07D0022BC2
:1052500007D01430002A026805D00A4304E00C305D
:10526000F8E71030F6E78A43026010BD7FB50446C8
:10527000008A0D46C98820F4405001432182A0894C
:1052800041F20C618843A9882A8911436A89024343
:105290001143A181A08A20F44071A8890843A0820B
:1052A0006846FEF701FF1A48844202D0194884423A
:1052B00001D1039800E00298A189090400EBC00124
:1052C00001EB0010296801D5490000E08900B0FB1E
:1052D000F1F06422B0FBF2F109010B096FF018053F
:1052E0006B4300EB8300A3891D044FF0320306D506
:1052F00003EBC000B0FBF2F000F0070005E003EBA9
:105300000010B0FBF2F000F00F00084320817FBDD9
:1053100000100140001401408088C0F3080070476D
:10532000C1F308018180704710B5D0F8E4255268B8
:105330009047002010BD10B5134600240A462146B0
:10534000FBF7FEFF204610BD10B5134600240A46A9
:105350002146FCF73BF8204610BD10B504468021DD
:10536000FCF718F800212046FCF714F82046BDE8A9
:10537000104000F05DBF70B505460024052085F89B
:1053800011012346224621462846FBF7D9FF28462D
:1053900000F04EFF204670BD10B5C0F83C2102233E
:1053A000C0F8382180F81131134600240A462146FE
:1053B000FCF70CF8204610BD70B50546002404200B
:1053C00085F811012346224621462846FBF7FEFFB9
:1053D000284600F02DFF204670BD000070B5054640
:1053E00041B1D5F8E4054269BAB395F81201032832
:1053F0004CD04DE095F81101002605F58E74022879
:1054000039D1E169A06881420FD9081AE061E878D2
:10541000012803D1D4E902100844E060A08BE168C0
:1054200082B22846FFF790FF10E0216AB1FBF0F24C
:1054300000FB121292B9814210D3606A81420DD2F0
:10544000002211462846FFF77FFF666200231A46B6
:1054500019462846FBF774FF0DE016E0D5F8E40581
:10546000C16829B195F81201032801D1284688475F
:105470002846FFF780FF95F81601012808D1054856
:1054800000682969486085F8166101E02846904760
:10549000002070BDCC00002070B5054641B1D5F8A4
:1054A000E4058269FAB195F8120103282AD02BE0AD
:1054B00095F8110105F55D74032825D1A168E0690F
:1054C000884211D9401AE061E878012802D1E068E9
:1054D0000844E060E069884200D3084682B228466A
:1054E000E168FFF728FF0FE0D5F8E405016929B16D
:1054F00095F81201032801D1284688472846FFF76E
:105500005BFF01E028469047002070BD38B5044697
:10551000C888ADF8000048880D46010A04294CD21D
:10552000DFE801F04B020713D4F8EC15A0780A6805
:1055300030E0D4F8E415A0788A6A694690470146BD
:1055400002204870C4F8F01527E0C0B2062834D213
:10555000DFE800F003080D12171CD4F8EC15A07852
:105560004A6817E0D4F8EC15A0788A6812E0D4F8FD
:10557000EC15A078CA680DE0D4F8EC15A0780A699B
:1055800008E0D4F8EC15A0784A6903E0D4F8EC15EB
:10559000A0788A69694690470146BDF80000002856
:1055A0000AD0EA88002A07D0824200D90246ADF824
:1055B00000202046FFF7F0FE38BD29462046FFF7C1
:1055C000CCFE38BD01EB810100EBC100B0F88C03CB
:1055D00080B2704770B5002300281DD00446002516
:1055E00002E06D1CEDB2641C2678002EF9D1022475
:1055F00004EB45041480CC545B1C0322CA540024E1
:105600005B1C06E0CA545B1CDAB28C54521CD3B249
:10561000401C0278002AF5D170BD2DE9F0411D46ED
:10562000174688460446069E00F052FC04F2E452F7
:10563000414682E8E0002046FCF7FCF8D4F8E80593
:10564000006880472046BDE8F04100F031BC10B54D
:10565000D0F8E415096A8847002010BD10B5D0F8CD
:10566000E415496A8847002010BD10B5FDF71AFD02
:10567000002010BD10B5FDF735FD002010BD10B5A0
:1056800004468121FBF700FE01212046FBF7FCFDCB
:105690002046FDF747FD002010BD000020200880B7
:1056A000004870471201002010B50446FFF7E7FFDD
:1056B0000223402281212046FBF724FE02234022C0
:1056C00001212046FBF71EFE2046FDF731FD00209C
:1056D00010BD000070B5064608780C462A4D10F043
:1056E000600129D020294CD16178FE2902D0FF2900
:1056F0001CD111E06188C9B9E188012916D10006E1
:1057000014D5224800688069804710F0FF00287097
:105710000CD001221C491AE0618839B9E18829B905
:10572000000603D43046FDF725FD2AE02146304629
:10573000FFF713FE022070BD617801290ED00A29FF
:1057400002D00B291DD106E00F490122491C304629
:10575000FFF722FE15E0A078687012E0217930464C
:10576000FBF7C4FD21793046FBF78EFDA0880223AC
:10577000C1B240223046FBF7C5FD21793046FDF726
:105780007BFC002070BD000010010020AC01002057
:105790002DE9F0410646002400F0EBFE00286AD017
:1057A000304600F0EFFE051E66D0280303D53046D4
:1057B000FBF732FF0446680303D53046FBF7CCFE07
:1057C0000443A80702D5F168022048612B4F002D41
:1057D00016DAB07A28B1D6F80C01016821F003017D
:1057E00001603069416821F00101416038688169D8
:1057F00030468847F1684FF00040486144F00104AA
:10580000280503D53046FBF79BFF0443280708D53E
:105810003868C16830468847F1680820486144F01C
:105820000104E80603D53046FBF74CFF0443E804C7
:1058300003D53046FBF7BCFF0443A80403D530462C
:10584000FBF7E4FD0443E80209D53868C169304636
:105850008847F1684FF48010486144F00104A802C1
:1058600009D53868016A30468847F1684FF400105E
:10587000486144F001042046BDE8F081C8000020E2
:1058800090F8CC250A7090F8CD254A7090F8CE2576
:1058900090F8CF3502EB03224A8090F8D02590F89B
:1058A000D13502EB03228A8090F8D22590F8D335C7
:1058B00002EB032292B2CA800121C0F8402180F895
:1058C0001111704710B50023044640221946FBF71A
:1058D00019FD0023402280212046FBF713FD012003
:1058E00084F81201D4F8E815A078496888470020A8
:1058F00010BD10B50446D0F8E805006980470320C4
:1059000084F81201002010BD10B5D0F8E415C96963
:1059100001B18847002010BD10B50446D0F8E40559
:10592000026820469047D4F8E80580688047002048
:1059300010BD000070B50A461A4D897804462970DA
:10594000012905D894F81201022807D003280CD0A9
:105950002046BDE870401146FFF7FFBCA1B184F8B6
:105960001011032084F812010BE091B194F810019A
:10597000884209D001462046FFF7D6FC297884F8F2
:1059800010112046FFF7C8FF2046BDE87040FFF722
:1059900013BD022084F8120184F810112046FFF78D
:1059A000C3FCF1E7D000002010B50446488801226E
:1059B00001280FD0022831D1888810F0FF0F2DD197
:1059C00021694968000A06281CD2DFE800F01B1B89
:1059D0000B0F1317C4F81821D4F8E4058268204689
:1059E000904716E021F0700120310EE021F07001A7
:1059F00030310AE021F07001403106E021F0700101
:105A0000503102E021F0700110310548016084F846
:105A100016212046BDE81040FFF7CEBC10BD0000A7
:105A2000CC0000201CB504466946FFF729FF9DF80D
:105A3000002012F01F010AD001290DD0022910D038
:105A400002F080012046FBF7A5FC00201CBD694642
:105A5000204600F00BF8F8E76946204600F0F6F81B
:105A6000F3E76946204600F079F8EEE72DE9F041CA
:105A70004A78002701260A2A42D2DFE802F03B5585
:105A80004152410805412A27FFF740FD61E00446E5
:105A90008888C8B9C888B8B9887800F07F0594F8B4
:105AA0001201032810D084F8145129462046FBF730
:105AB00069FC2046FFF780FC1DB1022084F812012A
:105AC00047E084F8126144E0204619E0FFF732FF16
:105AD0003FE0CA88012A13D190F81221022A02D08D
:105AE000032A0DD102E001221B4917E0012200F533
:105AF000887113E090F81221022A04D0032A02D000
:105B0000FFF72BFC25E014490839CE60D0F81821A6
:105B10000AB10322CA6010490222091DFFF73CFCAA
:105B200017E0FFF741FF14E0044690F81201022845
:105B300001D00328C8D1488801280AD10020C4F820
:105B40001801D4F8E4058268204690472046FFF704
:105B500033FC3846BDE8F081D800002070B50D4612
:105B60000446287800260979C0F34110012806D0A0
:105B7000687878B301281ED003283AD106E0D4F81B
:105B8000E405294682682046904732E094F81201E5
:105B9000022830D0032828D1688828B921B180296B
:105BA00002D02046FBF7F6FBD4F8E40529468268CC
:105BB000204690470FE094F8120102281BD00328DA
:105BC00013D16888A8B931B1802904D02046FBF7E9
:105BD00071FBE9E703E02046FFF7EEFB09E094F8EC
:105BE0001201022807D003280DD029462046FFF7CE
:105BF000B4FB304670BD0029FBD08029F9D0204687
:105C0000FBF7C8FBF5E7104A08064FF000034FF01A
:105C1000010508D501F07F0000EB800004EBC00017
:105C200090F81E0105E001EB810004EBC00090F844
:105C3000760308B1556000E0536003490222091D54
:105C40002046FFF7A9FBD4E7D000002070B5054639
:105C500090F8120100260C4603280DD12079012866
:105C60000AD8D5F8E405826828469047E08830B91C
:105C70002846FFF7A1FB02E02846FFF76EFB3046FF
:105C800070BD10B590F8121180F81311042180F83E
:105C90001211D0F8E805C0688047002010BD000050
:105CA00010B50A46024903A0FFF794FC004810BD56
:105CB00090B200204D534320436F6E666967000029
:105CC00001A000F0A1BD00004D534320496E746552
:105CD000726661636520737461727465642E0D0A67
:105CE0000000000002490120087002A000F08CBDF5
:105CF000B001002055534220446576696365204316
:105D00006F6E6E65637465642E0D0A001220088044
:105D1000004870477801002002490020087002A066
:105D200000F072BDB00100205553422044657669F1
:105D3000636520446973636F6E6E65637465642E7A
:105D40000D0A000018B1012803D003A002E00BA047
:105D500000E013A000F058BD555342204465766919
:105D60006365204C6962726172792076312E312E22
:105D70003020205B3F3F5D0D0A000000555342205C
:105D8000446576696365204C696272617279207638
:105D9000312E312E3020205B48535D0D0A0000006B
:105DA00055534220446576696365204C696272618F
:105DB00072792076312E312E3020205B46535D0DD6
:105DC0000A00000001A000F01FBD000044657669D4
:105DD000636520526573756D65640D0A00000000EF
:105DE0007047704710B50A46024903A0FFF7F2FB5F
:105DF000004810BD90B200204D534320496E746599
:105E000072666163650000000420088000487047E6
:105E10007401002010B50A46024903A0FFF7DAFB1F
:105E2000004810BD90B200205A525A4B00000000AA
:105E30000A4610B5044920B104A0FFF7CBFB024885
:105E400010BD06A0F9E7000090B200205A525A4B4C
:105E50002050504B20524F56455200004D617373F5
:105E60002053746F7261676520696E204853204D1E
:105E70006F6465000A4610B5044920B104A0FFF71D
:105E8000A9FB024810BD06A0F9E7000090B200206F
:105E900030303030303030303030314200000000AF
:105EA00030303030303030303030314100000000A0
:105EB00008B543208DF8000002208DF801008DF810
:105EC000020001208DF803006846FDF77DFF08BD44
:105ED0001CB501210846FEF7ABF801218020FEF732
:105EE000B3F84FF4C050009002208DF80400002059
:105EF0008DF8060003218DF80510094C8DF8070078
:105F000069462046FCF7EEFE0A220B212046FCF7EC
:105F100025FF0A220C212046FCF720FF1CBD0000B3
:105F20000000024080B202F003BA02F01BBA70B562
:105F30000446017A0025C068012915D0C16841F0E6
:105F40004001C160204600F0CBF8617A4FF4341074
:105F500009B14FF47410E16888631420FFF7E2FF81
:105F6000E078012819D020E0816B627A21F4803139
:105F70000AB141F480118163E068C16821F04011E9
:105F800021F42021C160204600F0AAF8E078012821
:105F90000BD1E1682A208860E2E7E068816821F09F
:105FA0001E010A3141F020018160284670BD2DE9B3
:105FB000F0410446D0F80C0100273D4607602069F7
:105FC000016821F4C0510160E07A4026012829D1FE
:105FD0000321204600F0C7FAE168802048622B4682
:105FE000E16866F31F4360F30F038B6203EB134119
:105FF0002B4661F30F0360F31F43E068C0F80431E0
:1060000003EB134060F30F03E06865F31F43C0F830
:10601000083103EB134060F30F03E06865F31F439F
:10602000C0F80C311021204600F06CFA204600F038
:106030004BFA206905612069456121694FF0FF3005
:1060400088612069C56100204FF09042FF2313E072
:1060500004EB800CDCF818E0DEF80010002901DA0F
:10606000114600E02946CEF80010DCF818100D614A
:10607000DCF818108B60401C61788142E8D8002061
:1060800013E004EB800CDCF854E0DEF8001000298B
:1060900001DA114600E02946CEF80010DCF8541071
:1060A0000D61DCF854108B60401C61788142E8D8A7
:1060B0002069016941F480710161E078012808D10B
:1060C000032066F38A00216940F4803066F359406A
:1060D0000863204600F0CCF93846BDE8F0810000A6
:1060E000F8B50026044637460096124D0320FFF708
:1060F0001CFFE068006900907F1CAF4201D90020BE
:10610000F8BD00980028F1DA0098002140F0010065
:1061100000900098E2681061E06802690092491CF2
:10612000A94202D8009AD207F7D10320FFF7FDFE5B
:106130003046F8BD400D0300C0680022816821F0A0
:10614000010181601046704710B50169002489681B
:1061500083691A68C1F3410119B1012901D00229EB
:1061600002D0D10AC90202E0D10AC902C91C1960D1
:106170000069416841F480714160204610BDF0B56E
:106180004B7800264A69012B12D00B7800EB830470
:10619000636D1D681B69C2B38A684A6162F30603B6
:1061A00043F40022636D1A61C278012A30D035E0D1
:1061B00083691F681C6932B18D68AA4208D965F3EA
:1061C00006044D6106E024F07F0242F4002203E061
:1061D00062F3060444F400221A61C278012A05D150
:1061E0000C780A6900EB8404A469626147F00442F8
:1061F0001A60C278CAB94A69BAB10A78006901213D
:106200009140426B0A4342630FE0FFE70A7AC5E719
:106210000B780A6900EB83035B6D5A61097845F0DE
:10622000044200EB8100406D02603046F0BD00008A
:10623000426D07491161C178012908D1426D00F210
:10624000CC515161406D01684FF080210160704771
:1062500018000860F0B506460D7800204F7801243C
:10626000AC40034606EB8502012F18D0526D64F353
:106270001F43146825040DD40D8965F30A04CD78F5
:10628000897965F3934461F3995444F0805141F462
:10629000004111603169CA691A43CA61F0BD92694F
:1062A00064F30F03E5E710B503464C780A78002045
:1062B00003EB8202012C09D0526D1368C97823F4D4
:1062C0000013032904D0022902D003E09269F4E705
:1062D00043F08053136010BD70B50B780446002561
:1062E0004E7801229A40284604EB8301012E09D002
:1062F000496D62F31F400D602169CA698243CA611A
:10630000284670BD896962F30F00F4E702464B78B6
:106310000978002002EB8101012B05D0496D0A6844
:1063200042F400120A6070478A691168002901DA94
:1063300041F0804141F4001111607047F0B54A7896
:106340000B7800240125D1F814C000EB8303012A47
:106350001BD05E6D32683669BCF1000F68D08D6865
:106360000CEB05077F1EB7FBF5F767F3DC46C6F3BA
:10637000C9476F4367F31206C6F312054D615B6DA3
:106380001E61C378012B59D05EE09F693A683E696F
:10639000BCF1000F0DD08B686CF312069C44ACF17D
:1063A000010CBCFBF3F363F3DC46CB78012B05D087
:1063B00008E06FF3120665F3DC4603E026F0C04602
:1063C00006F100563E61C378012B0ED0CB78012B2D
:1063D00012D04B69BBB10B789D4003695E6B2E43B5
:1063E0005E63CB78012B07D00DE00D780B6900EBD5
:1063F0008505AD696B61F4E703699B681B0ADB07E0
:106400000CD042F080520B7842F0044200EB830340
:106410009B691A60CA78012A03D026E042F0005234
:10642000F1E78A8A93B20A78C96800F04AF91CE059
:106430008F6867F3120665F3DC46A0E70D780B69F9
:1064400000EB85056D6D6B61CB78012B06D14B7927
:1064500013B142F0005201E042F08052097842F05C
:10646000044200EB8100406D02602046F0BD000058
:1064700030B5C368002211469A61C4686FF080434A
:106480006361C568541E6C60C4686361C468094B6D
:10649000A361C37803B91021C06841F4872141F09A
:1064A0000811836941F440118B430B43836110460B
:1064B00030BD000000080080C0680022816841F003
:1064C000010181601046704738B50024024621461C
:1064D0000094009840F0100000900098D368186174
:1064E0000748D26813690093491C814202D8009B77
:1064F000DB06F7D40320FFF718FD204638BD000067
:10650000400D030038B5002403462246009400984D
:1065100040F020000090009861F38A1000900098ED
:10652000D96808610748D9680B690093521C8242F8
:1065300002D8009B9B06F7D40320FFF7F6FC204609
:1065400038BD0000400D030000698068C0F34100C1
:1065500028B1012801D0022803D00220704703206F
:106560007047012070470069026861F30102026010
:106570007047C068406910F0010F01D000207047DB
:1065800001207047C0684169806908407047006910
:106590008169C069084080B2704700698169C0693B
:1065A0000840000C704700EB8101496D8968006963
:1065B00040690840704710B504460023D21C90087B
:1065C000D4F8D02003E0146841F8044B5B1C8342EC
:1065D000F9D3084610BD000070B500220123C27037
:1065E00040268370154614468680012901D061B18A
:1065F00014E0C3720821017004214FF0A0424170E1
:106600009115C1800221017208E0C4720C21017051
:10661000062141701F4A4FF4A061C18002F500615C
:10662000C0E9032100210AE002EB411303F51066E3
:1066300000EB810403F53063A661491C6365437870
:106640008B42F1D802F5806141614031C0F8CC1035
:10665000002108E002EB411300EB810403F5A06385
:10666000491CC4F8903003788B42F3D8002108E02D
:1066700002EB013300EB810403F58053491CC4F89D
:10668000D03003788B42F3D802F56062C0F80C2159
:10669000284670BD0000044010B5C3680024D868C7
:1066A000012920F0C04201D019B104E042F00052AB
:1066B00001E042F08042DA603220FFF733FC2046EE
:1066C00010BD30B505460020EC78002C0CD105EB50
:1066D0008202DB1C9B08D2F8D02003E051F8045B57
:1066E0001560641C9C42F9D330BD10B5FAF7A4FCC8
:1066F000FCF76CFBFCF762FBBDE81040FCF756BBF7
:106700000149002008607047082C0040024940F011
:106710008000086070470000002C00400249012002
:10672000C1F8A4007047000000800542084810B579
:10673000007800F03DF8FFF7E3FF0649D1F8A80222
:1067400018B10020C1F8A80210BD0120FAE700002E
:106750001000002000804242F8B50F460546012196
:106760001646C802FDF77CFC104C207805402570C9
:10677000304600F025F8384600F02CF82078FFF776
:10678000C5FF00208DF8000002208DF801000320D5
:106790008DF8020001208DF803006846FDF714FB18
:1067A000FFF7AEFFFFF7BAFFF8BD000010000020B2
:1067B000024900F07F00086070470000002C004094
:1067C000034A116821F4C071014311607047000051
:1067D000042C0040054908B50A6800F07F0022F04B
:1067E0007F0210430090086008BD0000042C0040A8
:1067F00030B5002304E0C45CCD5C6C40C4545B1C29
:106800009342F8DB30BD00000FB4054B10B503A96F
:10681000044A029800F03EF910BC5DF814FB000039
:106820007DB00208180000200FB47CB50C0009AD43
:1068300001D0611E00E00021CDE90001064B6A464F
:106840002946089800F026F9002C02D0009A002171
:1068500011707CBC5DF814FB9B7102080FB4084BEF
:1068600010B504A902AA039800F014F9044602A97D
:10687000002000F09DFC204610BC5DF814FB0000D9
:10688000B171020800487047DC04002000000000DD
:1068900030B583B0044600F017F89FED090B0546AC
:1068A0008DED000B002221466846F9F764FF28466B
:1068B00000F020F89DED000B03B030BD000000009B
:1068C0000000000000000000014800687047000060
:1068D000DC04002002E008C8121F08C1002AFAD117
:1068E00070477047002001E001C1121F002AFBD150
:1068F000704700000149086070470000DC04002078
:106900002DE9FF5F82B00021DDE90430020DDDF8E2
:1069100040B0034318D044F61050A2F2FF32424375
:106920001514119801281FD0A5EB0B00401C5FEA3D
:10693000000A4FF000064E4FDFF83891B04650463F
:1069400015D5CAF1000413E0119801244AA30128C7
:1069500001D16FEA0B010298119AC0E90031C0E938
:10696000024206B0BDE8F09FCBF10000DFE704462D
:106970000021404A491842EB0450CDE9001012E0D2
:10698000E00707D032463B4640464946F9F728FD26
:106990008046894632463B4610461946F9F720FDA7
:1069A00006460F466410002CEAD1DDE90401DDE95A
:1069B0000023BAF1000F06DAF9F712FD42464B4602
:1069C000F9F70EFD05E0F9F77DFD42464B46F9F774
:1069D00079FD04460E460022284BFAF753F803D8F7
:1069E0004FF0FF30014607E00022254B204631469C
:1069F000F9F788FFFAF72DF8102409E0002C0ADBDC
:106A00000A220023F9F7E6FB039B30321A55641E75
:106A100050EA0102F2D1641C039AC4F11103144438
:106A2000119A012A03D0012208430DD10AE008433C
:106A300004D000204FF0110B119072E7A3EB0B056F
:106A40006D1E0DE05B4504DD4FF0000205F1010510
:106A500004E003DA4FF00002A5F10105002AECD0B2
:106A600002981199C0E90231C0E9004579E70000B8
:106A7000000014400000F03F300000000000F04330
:106A80000000E03F30380A2801D201207047002082
:106A9000704700002DE9FF4F95B09A46884606469C
:106AA0000025EEE1252877D100242746F94A012167
:106AB000039400E0044316F8013F203B01FA03F081
:106AC0001042F7D130782A2811D06FF02F03307898
:106AD000A0F13002092A16D8039A44F0020402EB0E
:106AE000820203EB42021044761C0390EFE758F851
:106AF000042B0392002A03DA504244F4005403901A
:106B000044F00204761C30782E2816D116F8010FB6
:106B100044F004042A280DD06FF02F023078A0F141
:106B20003003092B09D807EB870302EB4303C7188F
:106B3000761CF3E758F8047B761C30786C280FD06D
:106B400006DC4C2817D068280DD06A2814D104E040
:106B5000742810D07A280FD10DE044F400140AE014
:106B600044F4801401E044F440147278824202D16B
:106B700004F58014761C761C307866280BD013DC64
:106B8000582877D009DC002875D04528F6D046284B
:106B9000F4D047281AD193E118E0632835D064284F
:106BA00079D0652812D18BE1702873D008DC672872
:106BB000F1D069286FD06E280DD06F2806D1ACE0D7
:106BC00073282CD0752874D0782853D05246179942
:106BD00090476D1C54E1C4F30250022809D00328E9
:106BE0000DD0D8F8001004280DD00D6008F104086D
:106BF00046E1D8F80010EA17C1E90052F6E7D8F8E4
:106C000000100D80F2E70D70F0E718F8041B8DF806
:106C1000001000208DF80100EB46012003E058F839
:106C200004BB4FF0FF3061074FF0000102D40DE0CC
:106C300009F101018946B9420FDA8145F8DB1BF8F9
:106C400009100029F4D108E009F1010189468142C7
:106C5000FADB1BF809100029F6D103985346A0EB84
:106C6000090721463846179A00F080FA284400EBBD
:106C7000090507E044E008E10DE01BF8010B52466E
:106C800017999047B9F10109F7D253462146384682
:106C9000179AF2E039E00A21C4F302524FF0000BD8
:106CA0000091022A06D058F8040BC117032A09D014
:106CB0000AE023E008F1070020F00702F2E80201F1
:106CC000904605E000B2C117042A01D140B2C117B5
:106CD000002906DA0A460021404261EB02012D221A
:106CE00002E0220504D52B228DF80420012203E0C6
:106CF000E20701D02022F7E7914657E00A2100E0A1
:106D000010214FF0000B00910BE010214FF0000B11
:106D100044F004040827009103E008204FF0000B22
:106D20000090C4F30252022A05D058F8040B002147
:106D3000032A08D008E008F1070020F00702F2E873
:106D40000201904603E080B2042A00D1C0B24FF0A5
:106D5000000922072AD53278702A07D0DDF800C052
:106D60008CF0100C5CEA0B0C05D00EE040228DF884
:106D70000420012208E050EA010306D030238DF8F8
:106D800004308DF8052002229146009B83F0080311
:106D900053EA0B030AD150EA010201D1620705D57B
:106DA00030228DF804204FF001097F1E3278582AD6
:106DB00004D039A20C920CAA02920BE03BA2F9E794
:106DC0005B46009AF9F706FA0C9B9B5C029A521EEE
:106DD0000292137050EA0102F2D1029804A9081A33
:106DE00000F1200B600702D524F4803400E0012775
:106DF0005F4502DDA7EB0B0000E0002000EB0B017C
:106E0000009003984944401A0390E00306D4534687
:106E10002146179A039800F0A9F90544002706E0D7
:106E200001A85246C05D179990476D1C7F1C4F45C5
:106E3000F6DBE0030CD553462146179A039800F081
:106E400095F9054404E030205246179990476D1C8F
:106E50000099481E00900029F5DC08E0029802998C
:106E600052460078491C0291179990476D1CBBF15E
:106E70000001ABF1010BF1DC5BE100F065F90544C9
:106E8000761C307800287FF40DAE19B02846BDE896
:106E9000F08F0000092801003031323334353637A5
:106EA0003839616263646566000000003031323356
:106EB00034353637383941424344454600000000F6
:106EC000600700D4062708F1070020F00700F0E86B
:106ED0000223804603F0004C5FEA0C0001D097A02B
:106EE00009E0200501D596A005E0E00701D095A0B6
:106EF00001E0AFF24C001390307823F00043652896
:106F00000CD006DC452809D046281DD047287FD163
:106F10003BE0662818D067287AD136E00021112F8F
:106F200001DB112000E0781CCDE9000104A90CA8C8
:106F3000FFF7E6FCDDE90D010C9A4FF0000B07F1BD
:106F40000109109200914EE04FF000400097CDE90A
:106F5000011004A90CA8FFF7D3FCDDE90D020C9B7E
:106F60000F994FF0000B91461093009211B9791CC4
:106F700000EB0109B7EB090003D4C0F1FF3B07F1B7
:106F80000109A9EB0700019042E0012F00DA012777
:106F90000021112F01DD112000E03846CDE900016C
:106FA00004A90CA8FFF7ACFCDDE90D010C9A0091D7
:106FB0004FF0000BB946109221070FD4009A4A45B2
:106FC00003DA914601E0A9F10109B9F1010F05DDEC
:106FD000109AA9F10101515C3029F4D0B84202DACB
:106FE00010F1040F03DA0121CDE9011010E00028AF
:106FF00003DC8344A9EB000102E0411C494500DDAC
:107000008946A0EB0B00401C01904FF0004002901D
:10701000200705D40198484502DB4FF0FF3001906E
:1070200000208DF84B0002980DF14B07B0F1004F96
:1070300025D002200C902B200D90029800280CDA0D
:10704000404202902D200D9007E00A210298F9F7A6
:10705000E5FA3031029007F8011D0C99481E0C909A
:107060000029F2DC02980028EFD1791E0D980870F3
:10707000307800F0200040F0450007F8020D11A81C
:10708000C01BC01D02901398007800B1012000EBD6
:107090000901019801EBE071029801440398401A3C
:1070A000401E0390E00306D453462146179A0398E6
:1070B00000F05CF805441398007818B1524617990F
:1070C00090476D1CE00323D553462146179A039839
:1070D00000F04CF805441BE0BBF1000F07DB009803
:1070E000584504DD1098179910F80B0001E0179926
:1070F00030205246904701980BF1010B401E05F1DC
:107100000105019004D12E205246179990476D1C1D
:10711000B9F10001A9F10109DEDC05E017F8010B66
:107120005246179990476D1C0299481E02900029FB
:10713000F4DC53462146179A03989EE62D00000082
:107140002B000000200000002DE9F041044600253E
:107150001E461746880404D405E039462020B0476F
:107160006D1C641EF9D52846BDE8F0812DE9F0417B
:10717000044600251E469046C80301D5302700E08E
:107180002027880404D505E041463846B0476D1CE9
:10719000641EF9D52846BDE8F0814A68002A06D069
:1071A0000A68531C0B6010704868401E48607047A6
:1071B0000A68531C0B6010707047000004490A787D
:1071C00002F5FA6282804A7882718978C1717047CB
:1071D000D00101200349CA7802700A7942704979C6
:1071E00081707047D001012010B59CB000201B9029
:1071F0001A901BA805F06EFA040024D01AA929A041
:1072000004F08EFF1B98B0F5FA2F20D2810A4FF4BC
:10721000FA7422462648FFF7F7FA642101A8F9F725
:1072200054F81B980094830A214A632101A8FFF7B0
:10723000FBFA01A807F07EFB1A994CF2503081420C
:1072400007D31A9007E01BA007F074FB20461CB080
:1072500010BDFCD8084600EB40004FEA80014FF01B
:10726000000005F0E3FB040015D01A9800EB400085
:1072700081002046F9F729F81AAA214609A004F04E
:107280007FFFDDE91A12204601F0A0F82146002018
:1072900005F0C0FBDBE70FA0FFF7B6FA1CA007F074
:1072A00049FBD4E7303A2F4461746146696C65004C
:1072B0000C9F05086D6D635F63617061636974792C
:1072C0005F646574656374206661696C6564202120
:1072D0000A000000636865636B5F636170616369E6
:1072E00074795F617661696C61766C6528292070BC
:1072F00066696C655F64617461202D2D6D796D61C7
:107300006C6C6F63206661696C656420210D0A00F6
:10731000636865636B5F63617061636974795F6102
:107320007661696C61766C652829207066696C6588
:107330005F64617461202D2D6D616C6C6F632066DC
:1073400061696C656420210D0A00000010B50446D7
:1073500000202071401E0021C4E91401204605F0E0
:107360008FFA08B1032010BDB4F85602A0F52A41E7
:10737000553901D0022010BD94F88E1094F8910078
:1073800094F88F2041EA006194F89000000440EAEC
:1073900002200B4A0143B2EB012F0DD014F8AA1FB3
:1073A000E078637841EA0061A078000440EA0320B5
:1073B0000143B2EB012F01D1002010BD012010BD0F
:1073C00000464154104810B5007810490124C8B156
:1073D0000F4B18465A698069012A01D1012803D050
:1073E00020B1012807D007E0022002E0012A03D1E2
:1073F0000320087010BD1AB1587918B10520F8E7BC
:107400000420F6E70C7010BD390400205400002061
:107410007C04002010B5AEB0402119A8F8F755FF44
:1074200015211A48F8F751FF184805F079FF0400B4
:1074300016D0142129A8F8F748FF14490DF1A40C1F
:107440000FC98CE80F00114911A0FFF7DDF94021A9
:1074500019A8F8F73AFF19A929A804F075FD12E058
:107460000A491048CE31FFF7CFF964216846F8F792
:107470002CFF064B0B4ACE3363216846FFF7D4F945
:10748000684607F057FA2EB0204610BD00FA0020DB
:107490005265616420206C6963656E73653A25737B
:1074A0000D0A0000DC9F05082DE9F05FFFF78AFF59
:1074B00004F090FC0125694E002438B168A0FFF764
:1074C000A3F9734935710720087000E034717078B2
:1074D000DFF8C0B1002838D09BF80000DFF8B88191
:1074E0005F46002819D1B07A401CC0B2B0720228A1
:1074F00013D9B472012269A1D8F8040002F024FD66
:1075000040B93D7005F074FB65A007F013FA64A064
:10751000FFF77AF97078002817D06E4F3878A0B945
:10752000F07A401CC0B2F07205280ED9F472012224
:1075300069A1D8F8000002F007FD30B93D7067A0DE
:1075400007F0F8F965A0FFF75FF9B069DFF8BC81D3
:107550006F4FDFF8C0A100283CD19AF80000D14657
:10756000032802D33978032905D298F8001009BB03
:10757000397803291ED368A0FFF746F9012247A1F5
:10758000002002F0E1FC010002D06FA0FFF73CF9FF
:10759000754800F0AFF900B1F470744800F0AAF932
:1075A00008B188F80040F4708BF8004089F800407A
:1075B0003C700FE0397805290CD358B96CA0FFF75F
:1075C00023F96BA007F0B6F9674800F093F9F4705F
:1075D0003C7075627069002823D1DFF8CC9199F86E
:1075E000000003281DD371A0B562FFF70DF96FA04D
:1075F00007F0A0F901227BA1002002F0A5FC010008
:1076000005D079A0FFF700F977A007F093F97E483D
:1076100000F044F900B134702E483470047089F8D9
:1076200000409AF80000D1460D2815D3387800287C
:1076300012D176A0FFF7E8F84C4800F05BF908B1EA
:1076400088F8004005F0D4FA89F800407562BDE87A
:10765000F05F6EA007F06EB9BDE8F09F7C040020DB
:1076600055534220436F6E6E6563746564202C2011
:10767000646F6E277420646F206F74686572206F6A
:107680007065726174696F6E73210D0A00000000ED
:1076900054000020A702002094000020313A00008E
:1076A0000D0A5B576172696E675D5468652073648B
:1076B0002063617264206973206D6F756E746564F8
:1076C00020616761696E2E284F6E6C79290D0A0D55
:1076D0000A000000A6020020303A2F000D0A5B5776
:1076E0006172696E675D54686520454D4D43206940
:1076F00073206D6F756E74656420616761696E2EAD
:10770000284F6E6C79290D0A0D0A0000A102002095
:10771000A4020020A30200200D0A2A2A2A2A2A2ACB
:107720002A2A2A2A2A2A2A53442048617264776125
:107730007265204572726F7220212A2A2A2A2A2A0B
:107740002A2A2A0D0A000000756D6F756E74202DAF
:1077500073642D6661696C65642D206672203D201E
:1077600025640D0A00000000185A0120E0FA0020EC
:107770000D0A2A2A2A2A2A2A2A2A2A2A2A2A2A4F81
:107780006E6C79205344205772697465204461748B
:1077900061204572726F722121212A2A2A2A2A2AFF
:1077A0002A2A2A0D0A000000A50200200D0A2A2A12
:1077B0002A2A2A2A2A2A2A2A2A2A2A4F6E6C792039
:1077C000454D4D4320486172647761726520457272
:1077D000726F7220212A2A2A2A2A2A2A2A2A0D0A84
:1077E00000000000303A0000756D6F756E74202D3A
:1077F000454D4D432D6661696C65642D2066722090
:107800003D2025640D0A0000D85701200D0A2A2AC0
:107810002A2A2A2A2A2A2A2A2A2A2A4F6E6C7920D8
:107820005344205772697465204C6F67204572720B
:107830006F722121212A2A2A2A2A2A2A2A2A0D0A73
:107840000000000000E0401C02780AB18A42FAD130
:10785000D0B2704770B5C46B0068114608348278A6
:10786000480A40EAC350590A0023F8F7B3FCF4E889
:10787000023253EA020508D0C51A71EB020507D39C
:10788000C01A61EB02010834F1E70020014670BD27
:10789000D4E900231018594170BD000010B501460D
:1078A00008480124807940B1084601F059FC0400E1
:1078B00003D0014604A0FEF7A7FF0CB1002010BDC5
:1078C000012010BDA0020020636C6F73655F6669C4
:1078D0006C65202D2D2D665F636C6F73652066616E
:1078E000696C65642C20726573203D2025640D0A47
:1078F0000000000010B5014608480124C07940B1DD
:10790000084601F02DFC040003D0014604A0FEF758
:107910007BFF0CB1002010BD012010BDA002002093
:10792000636C6F73655F66696C655F7364202D2D92
:107930002D665F636C6F7365206661696C65642C8E
:1079400020726573203D2025640D0A0070B5921EDB
:1079500043F1FF31D0E908349B1E44F1FF34D31AC0
:1079600071EB040302D30020014670BD837800242C
:10797000A3FB025604FB026203FB0121D0E91223A0
:10798000A818594170BD2DE9FC47804691469A469A
:1079900052EA03000AD04A465346404603F01EFC12
:1079A000821E71F100020FD201203FE0D8E9046786
:1079B00056EA070005D0D8E90810711A77EB0000E5
:1079C0000DD3012600270AE0C2430A432FD0D8E98D
:1079D0000832C31A71EB020229D34E465746354688
:1079E0003C46D8E908106D1C44F10004691A74EB98
:1079F000000005D302250024B01E77F1000014D347
:107A00002A462346404603F0E9FB50EA010210D023
:107A1000C2430A430BD080F001020A4307D085EA33
:107A2000060084EA07010843DBD100200021BDE8FD
:107A3000FC876FF070400021CDE900012A46234603
:107A4000404605F0CBFB58B9514659EA01000ED02B
:107A5000CDE900544A460B46404605F0BFFB30B125
:107A6000012817D00125002428462146DFE7C8E970
:107A70000454D8E90601C2430A43F5D0401E41F13F
:107A8000FF32C8E9060298F8050040F0010188F8C5
:107A90000510E9E74FF0FF35E5E7000010B50446B3
:107AA00001F0C0FD0246082806D02AB12146BDE8F3
:107AB000104004A0FEF7A8BE2146BDE810400AA071
:107AC000FEF7A2BE6D6B646972202025732066618B
:107AD0006C696564202C726573203D202564202C20
:107AE000212121200D0A00006D6B64697220202580
:107AF000732073756363657373210D0A00000000C2
:107B00002DE9F35F88460E6800E0761C30782F2858
:107B1000FBD05C28F9D0009800242546D0F828B086
:107B2000705D6D1C202825D32F2823D05C2821D000
:107B3000FF2C3FD2A0F181017D290BD8715D6D1C16
:107B4000A1F140023F2A02D3403A7F2A32D201EB10
:107B5000002080B2012102F0C1FE07002AD0802F50
:107B600004D2014667A0FFF76DFE18BB2BF8147016
:107B7000641CD5E77219C8F80020202801D204251A
:107B800016E0002514E00BEB440030F8020C20282E
:107B90000DD02E280BD06CB100212BF814100098BA
:107BA0000B222021406A04F08DFD002706E0641EB0
:107BB000002CE8D10620BDE8FC9F7F1C3BF8170095
:107BC0002028FAD02E28F8D01FB145F0030500E098
:107BD000641E2CB10BEB440030F8020C2E28F7D1B8
:107BE0004FF00008C1464FF0080A3BF817607F1CB1
:107BF00006B3202E03D02E2E04D1A74202D045F08A
:107C00000305F2E7D04501D2A74219D1BAF10B0F13
:107C10000ED0A74201D045F003050BD84FEA89608A
:107C200027464FF008084FF00B0A4FEA1069DCE7CF
:107C300045F003050098406A0178E5293DD03EE013
:107C4000802E08D3304602F077FE002102F046FE77
:107C5000064645F00205FF2E0FD9AAF10100804526
:107C600003D345F00305D046BFE70098310A426AC6
:107C700002F8081008F1010818E026B1314624A0E6
:107C8000FFF7E0FD18B15F2645F003050EE0A6F111
:107C90004100192802D849F0020907E0A6F1610065
:107CA000192803D8203E49F00109B6B20098416A6C
:107CB00001F8086008F1010897E705210170BAF1A1
:107CC000080F03D14FEA89604FEA1069C9F38100B8
:107CD000032803D06FEA0901890701D145F00205A5
:107CE000A90709D409F00301012901D145F01005C4
:107CF000012801D145F008050098406AC5720020AE
:107D000059E70000222A3A3C3E3F7C7F00000000F9
:107D10002B2C3B3D5B5D00002DE9F0418EB006460B
:107D200034216846F8F7D1FA002425462746304624
:107D3000F8F7F4FA0146E84617E0F05DA0F13002EA
:107D4000092A02D808F804200DE0A0F16102052AF2
:107D500002D84246573805E0A0F14102052A03D86F
:107D6000424637381055641C7F1C8F42E5DB0E48B5
:107D70002040012803D1002208F80420641C30466A
:107D8000F8F7A3FA0020424608E0115C1318090135
:107D900071555B78801C194471556D1CA042F4DB51
:107DA0000EB0BDE8F08100000100008030B587B062
:107DB0000446142101A8F8F788FA002506952368DF
:107DC000606800900DA2132101A8FEF72DFDBDF8FB
:107DD0000400ADF8180006A8F8F7E8FA3D280BD122
:107DE000042209A12046F8F757FA201D10220DF1B0
:107DF0000601F8F751FA257507B030BD2530396412
:107E00002530396400000000414753320000000073
:107E10002DE9F04FADF24C4D00246421FAA8F8F79B
:107E200054FA4FF47A716846F8F74FFA304E4FF42F
:107E3000C055706958B92946002004F0F7FD7061FB
:107E400028B92CA0FEF7E0FC2AA006F073FD4FF441
:107E5000B04B59463048F8F738FA30480027824688
:107E6000A9460760DAF800004A4655469042F9D321
:107E7000DFF8AC80012188F8001027497069F8F715
:107E80000BFA2868A0F5C05028600A20641CB4FBD7
:107E9000F0F100FB114088F8007020B959461E48E7
:107EA000F8F713FA2F601F4A49467069FBF7CEFFB7
:107EB000054621461CA0FEF7A7FC3DB14946706966
:107EC000F8F703FA1FA0FEF79FFCCBE700207169CB
:107ED00004F0A0FD224621A1FAA8FEF7BFFCFAA8F3
:107EE00006F028FD0DF24C4D0020BDE8F08F00009B
:107EF000380400206465636F64655F47504D435FDD
:107F00006E6D65612D2D6D616C6C6F6320666169AE
:107F10006C656421200A00002C3D00203400002004
:107F20002C000020E00101202D2D2D3E6465636FA3
:107F300064655F636F756E7420203D3D205B256432
:107F40005D0D0A002D2D2D3E4750524D432070618E
:107F5000727365206661696C0D0A00006465636F69
:107F600064655F636F756E7420203D20205B25641F
:107F70005D0A00002DE9F0476C4F00242DED028BC7
:107F800088B089468246A7F11006A046684DA9E050
:107F90001AF80400654904F099FE97F822000128B8
:107FA00014D1F878B07197F82000307397F8210059
:107FB0007073E97849B96979814204D1297981429C
:107FC00001D2012100E00021E9702871B079032875
:107FD0006ED9687800287AD1182102A8F8F775F9C7
:107FE00054A0FEF711FC53A006F0A4FCFFF710FF0D
:107FF00010F0FF0F31D055A0FEF706FC5BA006F095
:1080000099FC1E20009001900C235FA2172102A86A
:10801000FEF70AFC03F0B8FA0124002842D0182128
:1080200002A8F8F752F9B1787078CDE900013378F9
:1080300055A2172102A8FEF7F7FB5748F8F7B6F943
:10804000064602A8F8F7B2F95449864222D30C70CA
:1080500053A0FEF7D9FB52A022E0FDF707F85CA081
:10806000FEF7D2FB5AA006F065FCB1787078CDE936
:10807000000133785EA2172102A8FEF7D5FB02A902
:1080800060A0FEF7C1FB6BA006F054FC02A806F04E
:1080900051FCBFE781F800807148FEF7B5FB7048DE
:1080A00006F048FC6C7008B0BDEC028BBDE8F087B0
:1080B000697861B1032814D818216846F8F705F9E2
:1080C00085F80180684603F0CDF9694600E008E0D4
:1080D00064A0FEF799FB6EA006F02CFC684606F043
:1080E00029FC641C4C45FFF453AF68780028DAD0B3
:1080F00097ED020B9FED708B51EC100B53EC182B8E
:10810000F8F7E0F96E4C53EC182BC4E9160197ED23
:10811000040B51EC100BF8F7D5F9C4E91801B86954
:10812000F8F74DFAC4E91A01BDE70000E0010120AB
:1081300038040020736174655F6C6F636B65645F06
:10814000666C61673D31200D0A0000002D2D2D3E2B
:108150004750524D432070617273652074696D659C
:10816000206661696C200D0A000000002D2D2D3E57
:108170004750524D432070617273652074696D657C
:10818000206661696C0D0A0032302530326425307A
:108190003264253032640000B8FA0020A2020020C8
:1081A0002D2D2D2D2D2D2D2D2D2D4F4B2C20417571
:1081B00074686F72697A652D2D2D2D2D2D2D2D2D25
:1081C0002D2D2D2D2D2D2D2D2D2D2D2D2D0D0A004F
:1081D0002D2D2D3E4750524D432070617273652006
:1081E00074696D652073756363657373200D0A0090
:1081F0003230253032642D253032642D2530326402
:10820000000000002A2A2A2A2A2A2A2A2A2A536512
:108210006172636820536174656C6C697465206C6D
:108220006F636B2074696D65206973203A25730D47
:108230000A0000002A2A2A2A2A2A2A2A2A2A5365D8
:108240006172636820536174656C6C697465206C3D
:108250006F636B2074696D65206973203A000000BC
:1082600030A005082A2A2A2A2A2A2A2A2A2A5361D9
:1082700074656C6C697465206C6F7374206C6F63CB
:108280006B2074696D65203A25730D0A00000000AB
:108290002A2A2A2A2A2A2A2A2A2A536174656C6CD5
:1082A000697465206C6F7374206C6F636B207469E4
:1082B0006D65203A000000000000000000005940F9
:1082C000C80200202DE9F047002491468A46064660
:1082D000A0466000801CC0B281450AD90AEB440563
:1082E0002846AF7885F80280F8F76DF8AF70305502
:1082F00001E006F80480641CE4B2032CE9D3BDE875
:10830000F087000010B504466FF00400FCF78EFD06
:108310000649E00800EB40020870C2EBC0104FF6BF
:10832000FF7202EAC000488010BD00001200002069
:1083300070B54FF40776B0FBF6F1CCB2B0FBF6F1B6
:1083400006FB110504E0304600F026F8641EE4B296
:10835000002CF8D1002D04D02846BDE8704000F074
:108360001BB870BD0B49097848434FF0E0214861C4
:1083700000238B61086940F0010008610869C207A9
:1083800001D0C003FAD5086920F0010008618B61B3
:1083900070470000120000200B49498848434FF005
:1083A000E021486100238B61086940F00100086109
:1083B0000869C20701D0C003FAD5086920F001009E
:1083C00008618B6170470000120000202DE9F74F13
:1083D000BAB0814600203990642102A8F7F775FFF2
:1083E0001422734934A8F7F757FF18211BA8F7F791
:1083F0006CFF342121A8F7F768FF4FF0000BCDF890
:10840000C4B0CDF8CCB0CDF8C8B0CDF8B8B0CDF888
:10841000BCB05C465D46CDF8C0B048463B9905F01F
:108420005BFF2EAE0DF16C087DE03C982844B0F562
:10843000FA2F7CD8CDF8CCB004EB4407CDF8C4B00B
:10844000CDF8C8B0CDF8B8B0CDF8BCB0CDF8C0B05C
:1084500059F827000A2231A903F0C4FC09EB870A66
:108460000A222EA9DAF8040003F0BCFC18211BA88C
:10847000F7F72BFF2EA8F7F751FF06286DD02EA88F
:10848000F7F74CFF05286CD02EA8F7F747FF042814
:108490006BD02EA8F7F742FF03286AD02EA8F7F773
:1084A0003DFF022869D02EA942A0FEF7ADF9642154
:1084B00002A8F7F70AFF2EAB3EA2632102A8FEF73F
:1084C000B3F902A806F036FA342121A8F7F7FDFE29
:1084D00034AB46A2312121A8CDF80080FEF7A4F9E3
:1084E00021AA611C43A0FEF78FF921A802F098F899
:1084F00007004AD003461BAA611C44A0FEF784F97A
:10850000642102A8F7F7E1FECDE90087631C3FA2D2
:10851000632102A8FEF788F902A806F00BFADAF840
:108520000800641C05443B988442FFF47EAFAC0A0B
:10853000214640A0FEF768F9642102A8F7F7C5FEBE
:1085400023463CA2632102A8FEF76EF902A806F0BA
:10855000F1F939983DB0BDE8F08F31AB3DA20096FE
:108560000EE031AB3EA200960AE031AB40A200968D
:1085700006E031AB42A2009602E031AB44A2009685
:1085800017211BA8FEF750F99EE71BAA611C44A007
:10859000FEF73AF9642102A8F7F797FE631C40A2A0
:1085A000632102A8CDF80080FEF73EF9B4E7000091
:1085B000E89C050864656C6574655F6561726C694B
:1085C00065725F66696C65202067657420737472DC
:1085D0005F627566665F74696D65203D2025732C4A
:1085E0006661696C6564210D0A00000025732F2502
:1085F0007300000044656C6574652066696C6525D0
:1086000064203D2025732C0D0A00000044656C6534
:1086100074652066696C652564203D20257320669D
:1086200061696C65642C726573203D2025640D0AB8
:108630000000000044656C6574652073756D5F749F
:108640006F74616C5F73697A65203D2025644D0D00
:108650000A0000006D6D63257325732E677073002B
:108660006D6D6325733025732E67707300000000F5
:108670006D6D632573303025732E677073000000B5
:108680006D6D63257330303025732E677073000075
:108690006D6D6325733030303025732E6770730035
:1086A00044656C6574652066696C652564203D20B1
:1086B000257320737563636565642E0D0A000000E1
:1086C0002DE9F0470E46DDE9081802F10702050022
:1086D0004FF0000422F007070DD066B15BB157B12F
:1086E0001846FCF7F1FA1A484FEAE707007870B12C
:1086F000DFF8609026E00020BDE8F0874346164A88
:108700003146284600F02AF8641C08350836BC4279
:10871000F4DB19E04346104A3146284600F01EF8C3
:10872000B8F1000F12D0002329464A46084600F04F
:1087300015F829464346084A084600F00FF8641C1D
:1087400008350836BC42E5DB0120D5E70123EBE71D
:108750008C020020F0F50020F0F200202DE9F0411D
:10876000154680461E46002440222948F8F78CFC16
:1087700027494023274A0846FCF7C6FB264F4EB33D
:108780000F247968224820220E464030F7F784FDF6
:1087900004EB440005EB00113046FAF747FAD7E93D
:1087A00001012022FEF724F8194920224031B8683F
:1087B000F7F772FD641EE4D5164A1549402340328E
:1087C0000846FCF7A1FB4046BDE8F04140221049B5
:1087D000F8F742BCB9680E4820220E464030F7F741
:1087E0005BFD04EB440005EB00113046FAF71EFA7E
:1087F000D7E901102022FDF7FBFF05492022403177
:108800007868F7F749FD641C102CE3DBD4E700001F
:1088100020F20020969905088C02002070B50E46C3
:108820000546002100F0B4FA90B90024D5E90623EA
:10883000286804F025F858B9296A0978E5290BD089
:1088400051B100240121284600F0A0F80028EDD005
:10885000042800D1072070BD641CB442F2D170BD61
:108860002DE9F05F0446002100F092FA00287AD149
:10887000FF254FF6FF70AB46A085D4E9062320689C
:1088800003F0FEFF07007BD1266A307848B1F17A09
:10889000E52801F03F0168D00A0704D50F2964D10B
:1088A00005E004276CE00F2901D08DB34DE0A16AEB
:1088B00079B3420606D596F80DB020F04000E28864
:1088C0000546A285A84236D1727B5A4533D130780D
:1088D0008A4620F04000401EB14600EB800101EBCB
:1088E000C0064FF000080127274810F8081001EBD8
:1088F0000900008877B102F01FF80746FF2E1AD250
:108900003AF81600761C02F017F8B84213D105E0C9
:1089100016E02EE0A0F57F41FF390CD108F10108E7
:10892000B8F10D0FE0D399F80000400606D52FB13D
:108930003AF8160010B1FF25EDB21AE06D1EFBE704
:10894000304605F080FD58451AD0606AC17AC907E3
:108950000BD10B22521E07D316F8011B10F8013B56
:10896000C91AF7D001E00CE051B14FF6FF70FF25B6
:10897000A0850021204600F009F807003FF47DAFF4
:108980003846BDE8F09F00004C9705082DE9F047F8
:108990000446C0880F4600F101081FFA88F000283D
:1089A00044D0D4E9060150EA01023FD05FEA0872E0
:1089B0007BD1401C41F10001C4E90601D4E9042344
:1089C00052EA0300206805D08178491E11EA181F79
:1089D00004D06AE00189414528D966E002F0FEFB37
:1089E0000D4606460021D0F10100A94123D2F043F3
:1089F00028433BD02068D0E90812711A75EB0201B8
:108A00004AD39FB1D4E90423FEF7BDFF0D460646C5
:108A100028430ED086F0010028430CD0F0432843B1
:108A200024D0206805F085FD00BB06E00420BDE8E9
:108A3000F0870720FBE70220F9E720684FF4007277
:108A40000021583003F03EFE32462B462068FEF7E8
:108A50007DFF226800274FF00109C2E9140110E0F0
:108A600080F80490206805F064FD08B10120DEE77D
:108A70002068D0E91412491C42F10002C0E9141226
:108A80007F1C20688178B942EAD8D0E91421D21B32
:108A900061F10001C0E91421C4E9046532462B46A6
:108AA0002068FEF753FFC4E90601A4F8068008F029
:108AB0000F005822216802EB401008442062002079
:108AC000B5E700002DE9F05FFF258B4604462E46F2
:108AD00004274FF6FF7A66E0206803F0D1FE070016
:108AE00067D1226A107868B1D17AE52801F03F0198
:108AF00006D02E2804D0082906D000235B4505D0D7
:108B0000FF2541E0042754E00123F7E70F2901D0B6
:108B1000BDBB40E0410605D5567B20F04000E18812
:108B20000546A185A8422DD1507BB0422AD11078AC
:108B3000DFF88C9000F03F00401E00EB800101EB5D
:108B4000C0010020A76A0123D44619F80080904490
:108B5000B8F8008033B1FF2914D227F811804346BA
:108B6000491C01E0E0450DD1401C0D28EDD31078E3
:108B7000400604D5FF2905D2002027F811006D1EFC
:108B800001E00DE0FF25EDB200212046FFF7FEFEDB
:108B9000070008D00DE0104605F055FCB0420BD0A0
:108BA000A4F82CA008E0D4E9062352EA030093D1EC
:108BB00017B10020C4E906003846BDE8F09F000068
:108BC0004C9705082DE9FF5F04460C22D4E909768D
:108BD0003946684603F06EFD9DF80B00C00718D0BB
:108BE0000020F8720125A0622B46324669463846BD
:108BF00002F076FA2046FFF733FE10B96D1C642DA3
:108C0000F2D3642D0BD004280AD19DF80B00F87222
:108C1000A6629DF80B0080070FD5002004E0072016
:108C200004B0BDE8F09F401C36F810100029FAD1BE
:108C30000D211930B0FBF1F500E001252946204651
:108C4000FFF7ECFD06006DD16D1E51D0E088411B91
:108C5000204600F09DF8060064D1606A05F0F3FB41
:108C60004FF6FF7A0390D4E90623206803F008FE4C
:108C7000060057D1216AD4F82890039848730F2032
:108C8000C872002008738876EEB2C876701E00EBBA
:108C9000800202EBC0030022DFF88CB001F1010872
:108CA00001E0504502D039F813005B1C1BF802C0EC
:108CB00001F80C001BF802704FEA102C07F808C0EE
:108CC00000B95046521C0D2AEBD3504502D039F85A
:108CD000130008B946F040060E70216801200871A3
:108CE00000212046FFF752FE06001BD16D1EBAD1AF
:108CF000D4E90623206803F0C3FD060012D1202228
:108D00000021206A03F0DEFCD4E908010B2203F005
:108D1000D1FC606A216AC07A00F0180008732168EB
:108D20000120087130467BE74C9705082DE9F0419A
:108D3000818D0446C688A1F57F40FF3800D13146B9
:108D4000204600F025F805001FD1E5274FF0010867
:108D5000D4E90623206803F093FD050012D12022F8
:108D60000021206A03F0AEFC206A0770216881F8B8
:108D70000480E088B04208D200212046FFF706FEBA
:108D80000500E5D0042D00D102252846BDE8F0817C
:108D90002DE9F0410646C180D6E9025485F0010074
:108DA0000F4620434FD03068D0E90812691A74EB9F
:108DB000020148D255EA040104D10178032901D106
:108DC000D0E9105455EA040103D080784FEA001826
:108DD00019E00189B94236D9D0E910211BE002F02F
:108DE000FDF905460C46E84320432AD0A81E74F13D
:108DF000000028D33068D0E90810691A74EB00002D
:108E000021D2A7EB0807306847452A462346E6D219
:108E1000FEF79CFD0246C6E9045452EA010012D056
:108E20003B099A1841F10000C6E9062007F00F013E
:108E30005822306802EB4111084430620020BDE83E
:108E4000F0810120FBE70220F9E7000008B598B1A6
:108E5000012804D0022820D0032817D11DE0FAF7FA
:108E600013FB28B100905D230D4A0EA113A00BE067
:108E700005F086F91BA00EE0F9F7CEF840B100909E
:108E80006C23074A07A11DA0FDF7BEFC012008BD09
:108E900005F0CEF824A0FDF7B7FC002008BD0000C7
:108EA0003C9705082E2E5C46415446535C73726312
:108EB0005C6469736B696F2E6300000066696C65A2
:108EC0003D25732C66756E633D25732C6C696E654C
:108ED0003D25642C20736420657272203D2025643A
:108EE0000D0A00002D2D2D2D3E736420696E6974CE
:108EF00020737563636573730D0A000066696C65A2
:108F00003D25732C66756E633D25732C6C696E650B
:108F10003D25642C20656D6D6320657272203D20B7
:108F200025640D0A000000002D2D2D2D3E656D6D70
:108F30006320696E697420737563636573730D0ACA
:108F40000000000070B5042516460C46012802D02A
:108F500010B3042070BD2048FAF738F90A2C25D048
:108F600006DC1D48042C21D2DFE804F0140920118E
:108F70000D2C1BDD0E2C19D01A2C17D10AE0D0E9CC
:108F80001110B1FBF0F00021C6E9000102E0B0F8D9
:108F900048003080002070BD3CB11049012C11D038
:108FA000022C05D0032C01D108E00025284670BD15
:108FB0004FF40071002031605060F6E7B1F86002B4
:108FC0001080F2E7D1E996014FF400720023F7F721
:108FD00032F9C6E90001E8E7D434002028AE0020C9
:108FE000F8B51446069A1E460F461AB180B10128FC
:108FF00009D101E00420F8BD012A204605D0FAF786
:109000004DFC0028F7D00120F8BDFAF789FCF8E7FD
:10901000D5B222460846009505E0F8F7FDFF224646
:10902000334638460095F9F791FD0028F5D1F8BD93
:1090300010B528B1012805D0022803D0012010BDA9
:10904000F8F7CEFF002010BDF8B51446069A1E466C
:109050000F461AB180B1012809D101E00420F8BD02
:10906000012A204605D0FAF7F1FC0028F7D00120AC
:10907000F8BDFAF773FDF8E7D5B222460846009529
:1090800005E0F8F7C9FF2246334638460095F9F760
:1090900095FD0028F5D1F8BDF0B50023002914D0C6
:1090A000002A12D0094EFF240DE0F5690544B5FBF6
:1090B000F4F704FB1755CF5C6D1C6F40CF54F56976
:1090C0006D1C5B1CF5619342EFD3F0BD7C04002066
:1090D00010B507A0FDF798FB4FF480410648F9F75B
:1090E00054FE02F0CFFE42F21070401EFDD110BDC2
:1090F000307846460D0A00000010024070B5174D4A
:1091000000244FF416763146002003F08FFC45F81A
:10911000240018B1641CE4B2022CF4D34FF410768E
:109120003146002003F082FC0C4D31460C3D286096
:10913000002003F07BFC68604FF40071002003F016
:1091400075FCA860022C06D1296821B1696811B1AB
:1091500008B1002070BD012070BD00009400002007
:1091600010B5044601F002FA002806D1204605F0A9
:1091700033FB002801D10021216010BD10B5044649
:1091800005F02AFB002801D10021216010BD2DE946
:10919000F74F144682B0002202A9204601F03CFDA0
:1091A00026685FEA000B7ED1D6E908321F46D6E971
:1091B00006019B1E42F1FF341B1A8C4103D3039A14
:1091C000C2E900016FE030780024254600900128B4
:1091D00004D0D6E90EA19146884626E04FF0020859
:1091E000002742463B46304601F0F8FFC2430A439F
:1091F00006D080F001020A4304D0084305D007E0FE
:10920000012000E00220834644E0641C45F1000593
:1092100018F10100D6E9082347F1000180460F4606
:10922000801A9941DDD335E079B9524643461AF1A7
:10923000010A48F10008304603F022FB5FEA000B08
:1092400028D106F158004FF40071009A022A0DD07F
:109250000378C27890F801C043EA0263827812046E
:1092600042EA0C2213431A0108D00AE0028812B91C
:10927000641C45F10005801C891E04E0641C45F156
:109280000005001D091F7A1E49F1FF331746994654
:109290001A43C9D1C6E90645707940F001007071E2
:1092A0000398C0E9004505B05846BDE8F08F2DE9A8
:1092B000F04F87B017469846044605F08DFA0290A5
:1092C00000287ED1E07900287BD1E06B04F14001D9
:1092D0000391002876D0FA4352EA080244D0D4E938
:1092E0000410CB1B70EB080201D20F468046C4E984
:1092F000027857EA080067D07F1E48F1FF331D4609
:109300003A462046FEF7A6FAC4E9080102460B4693
:109310002068FEF71BFB50EA01027DD07B0A27681C
:1093200043EAC5536D0ABA78521E13401E1805EA67
:10933000E27520894D41C005DDD0D4E90A2386EAD3
:10934000020085EA03010843D5D0A07940066ED516
:109350004FF00108CDF8008078780399FFF774FE8C
:1093600088B384F807804AE1F0E80213CDE90013DE
:109370008146D4E9060102274FF0000850EA0102B5
:109380003BD00025BF1C2E4648F10008CDE9040162
:1093900082468B466D1C46F1000652465B462068AD
:1093A00001F01CFF0022D0F101038A4134D2C243F4
:1093B0000A4332D01AF101024BF1000342404B4004
:1093C00003E00AE142E02EE02AE11A43E0D0DDE9C1
:1093D0000032DB1B72EB080208D3C9E90056DDE955
:1093E000043509F10802E2E8023591462268D2E923
:1093F0000832C31A71EB0202C3D3E06BC0E90078F4
:10940000DDE90002C01B72EB080209D30022C9F893
:109410000020C9F8042003E1DDE00120E071EEE066
:1094200011200290FCE0A07920F04000A0710127FB
:109430000097206832462B4640780399FFF7D0FD0D
:1094400008B1E771DBE0C4E90A65E9E0D4E904109A
:10945000CB1B70EB080204D2A279920701D40F460D
:109460008046D4E90201CDE9000100210491C4E95C
:1094700002118B4657EA080049D020680590807891
:109480004FEAD05A4FEA4029DDE90001084327D0CE
:10949000781E48F1FF314A465346F6F79BFE0546D3
:1094A0000E46DDE90001401E41F1FF314A465346B8
:1094B000CDE90001F6F78EFE281A8E4110D3B9F1DE
:1094C0000102DDE900104AF1FF35D3431940A843FA
:1094D000C4E902107F1A68EB0008D4E9080113E020
:1094E000D4E9060150EA01020CD113460598FEF7B3
:1094F0004AFA80F001020A436DD0C2430A438CD07D
:10950000C4E90601C4E9080150EA01022ED14BE08A
:10951000A2792568920702460B46284607D5FEF732
:1095200032FA50EA010204D14F46D04623E001F05E
:1095300055FEC2430A43E2D00022D0F101038A4122
:1095400049D22268D2E90832C31A71EB020242D230
:10955000C4E90801D4E9026216EB090342EB0A02EE
:10956000C4E90232B7EB090768EB0A08B9EB070553
:109570007AEB0802CCD3D4E90252ED1942EB08028F
:10958000C4E90252FA050FD0256802460B46284668
:10959000FEF7DCF950EA01021DD07B0A43EAC8530A
:1095A000181841EB582B04902089C0052CD0D4E921
:1095B0000A2304988BEA03015040084324D0A07981
:1095C000400611D501250095206803994078FFF7E2
:1095D0003BFD98B904E00220E07107B0BDE8F08FD0
:1095E000A07920F04000A071012500952068DDE9F8
:1095F000031240785B46FFF7F3FC10B1E5710120E0
:10960000EBE70499C4E90A1B04F108000FC8121A19
:109610008B4105D2C4E90401A07940F02000A0717B
:109620000298DAE72DE9F14F94B001F051FE82463D
:109630008B46012214A9684601F0EEFA04007DD1A0
:109640004FF4007001F070F90C9058B10A9011A815
:1096500009906846149901F0DBFC040006D0042C44
:1096600006D0B2E0112015B0BDE8F08F0824ACE0C0
:10967000002213460098FEF786F90E46074600249E
:10968000304300D1072487F00100304300D1022489
:10969000F843304301D014B17BE0012479E0009815
:1096A00004F047FF040074D13A4633460098FEF7B1
:1096B0004DF9009D8046894658354FF400720021CF
:1096C000284602F0FFFF0B222021284602F0FAFF75
:1096D0002E242C701020E8720AF0FF001090A8755C
:1096E000CAF307200F90E8754FEA1A4040EA0B4092
:1096F000C0B20E9028764FEA1A6040EA0B20C0B242
:109700000D9068763A463346284604F022FE05F16D
:10971000200020222946824602F0CCFF85F8214015
:1097200000980178DDE90223032909D1D0E910105E
:1097300051405840014303D1002200E048E0134665
:10974000504604F006FE00984FF0010B90F802A07E
:1097500017E00098C0E9148918F1010880F804B0F6
:1097600049F10009009804F0E4FE040011D14FF41F
:1097700000720021284602F0A5FFAAF1010000F0C6
:10978000FF0ABAF1000FE4D16846FFF71BFA0400A4
:1097900005D03A463346009803F086FF15E0089856
:1097A00010213A46C172109981750F99C1750E99B1
:1097B00001760D994176334604F0CBFD009981F88E
:1097C00004B0009804F04CFE04460C9801F0B0F888
:1097D000204648E72DE9F74F90B0144610A801F055
:1097E000B5FE002803DA0B2013B0BDE8F08F119905
:1097F000012902D8611E0C4201D01320F4E7FE4972
:1098000051F82010019151B1019A0027C0B2177090
:109810000790FFF71BFBC10703D00320E4E70C20F0
:10982000E2E7400701D50A20DEE704AA01210798F4
:10983000FFF788FB00287DD1DDE904158020081A98
:1098400075F1000076D3119808B1002000E03F20A8
:109850004FEAE07A8146081A65EB0A05CDE904056E
:109860000690ACB94FF4FA6200232946F6F7B2FC31
:109870000A460021E14E3B4600E0491C36F8114003
:10988000041B72EB0304F8D3DC48163030F81140A7
:10989000600A129019D0802801D9802012900246C7
:1098A000002329460698F6F795FC40F6F672012744
:1098B000821A71F1000200D302274FF6F672821A63
:1098C00071F1000203D3032742E00120E6E7032FF2
:1098D0003ED0012F50D000184941001D41F1000138
:1098E00040F2FF12821841F10000510A41EAC058CB
:1098F0004FEA502B01200021CDE908012020002152
:10990000CDE90E01DDE9082319EB02014AEB030062
:10991000CDE90A10DDE90E2311EB080140EB0B0045
:109920008C18584112990090631840F10000B3EB75
:10993000090300E06AE1069960EB0A00C91A854153
:1099400073D302AA03210798FFF7FCFA78BB23E040
:10995000890041EA9071800040F20722821841F1AB
:109960000000510A41EAC0584FEA502B2020002144
:10997000CDE908010846C2E70322A0FB023601FB3D
:109980000261002400FB04105B1C40F10000410850
:109990004FEA3300C01CA1E7DDE9020150EA0102F1
:1099A00005D04FF400430022181A8A4103D2012047
:1099B0000021CDE90201DDE90201009A23184A41A4
:1099C0005B1E42F1FF32401E41F1FF35C1430B40A7
:1099D000AA43CDE902320099181B62EB0102CDE9DE
:1099E0000202032F22D018EB00084BEB020BDDE93B
:1099F0000451DDE908020C46281A61EB0201DDE999
:109A00000E23B0EB080061EB0B01801A61EB030140
:109A10000023129AF6F7DEFB022FCDE90C0112D0DB
:109A2000032F19D0012F21D028E01BE0DDE90831F8
:109A30001B185141CDE90831DDE90A3118185141AF
:109A4000CDE90A01D3E7014640F6F6720D98891A6E
:109A500070F1000006D311E04FF6F672801A71F132
:109A6000000001D20E20BFE60C2610E04FF480303B
:109A7000281A74F1000001D2012608E04FF480306A
:109A8000281A74F1000001D2042600E0062611987D
:109A900008B1F02054E001984FF4007258300021D2
:109AA000069002F00FFE019C0120002584F81702A9
:109AB00084F8180284F8195284F81A62FE2084F897
:109AC0001B02DDE9042319EB02004AEB030104F257
:109AD00016243F222B46F6F77DFBFF220023F6F7E4
:109AE00079FBCDE90201800840EA817040F03F0037
:109AF000A0710298E0713F2020726572A572E57234
:109B0000DDE904012073020A6273020C42EA014299
:109B1000A273000E40EA0120E07301995520002253
:109B200081F856020199AA20134681F857020120B4
:109B30000090DDE90610FFF787FA002866D1F820CB
:109B40000690019C4FF4007258340021204602F028
:109B5000B9FD0B222AA1204602F0ACFD0022E272E0
:109B600002202073129860730898A0730898000A66
:109B7000E07301202074032F0FD040026074000AAC
:109B8000A074DDE904014FF48033C31A71F10003BE
:109B900005D2E074000A207510E00020EEE784F89A
:109BA0002000030A84F82130030C43EA0143000E2D
:109BB00084F8223040EA012084F82300069860757A
:109BC0003F20207600206076FF21A176E07684F8A1
:109BD0001C904FEA192060774FEA194040EA0A408A
:109BE000A0774FEA196040EA0A20E07701F070FBA5
:109BF00080232925032F0AE0800000205A970508BA
:109C0000EBFE904D53444F53352E3000A2E0CDE98A
:109C100002012ED084F82700020A84F82820020CC2
:109C200042EA0142000E84F8292040EA012084F82B
:109C30002A0084F816804FEA1820E07584F8243052
:109C400084F826501322B5A104F12B0002F032FD56
:109C5000552084F8FE01AA2084F8FF01012000901D
:109C60004A46534621460798FFF7EEF9002871D17E
:109C70003DE084F84300020A84F84420020C42EAE2
:109C80000142000E40EA012084F8452084F8460095
:109C900084F824804FEA182084F825004FEA184001
:109CA00040EA0B4084F826004FEA186040EA0B2097
:109CB00084F82700022084F82C00002084F82D006E
:109CC00084F82E0084F82F00012184F8301006213A
:109CD00084F8310084F8321084F8330084F840307E
:109CE00084F84250132292A104F14700AEE7032FFB
:109CF00009D10120009019F106024AF10003214622
:109D00000798FFF7A1F9DDE90A56002001904FF40A
:109D100000720021204602F0D5FC00220698CDE911
:109D20000202032F19D0012F15D06FF0FF0101435C
:109D3000029121700298000A6070DDE90201000CB6
:109D400040EA0140A070DDE90201000E40EA012076
:109D5000E0701FE07EE07B49E9E760F0FF000290E1
:109D600020700298000A6070DDE90201000C40EAF0
:109D70000140A070DDE90201000E40EA0120E07020
:109D8000FF2020716071A071E07120726072A0727A
:109D90000F20E07201202A46334600906D1C46F1E8
:109DA000000621460798FFF74FF9002852D14FF4DB
:109DB00000720021204602F085FC0120002110E005
:109DC00001202A46334600906D1C46F100062146CC
:109DD0000798FFF739F9E8BBDDE90201401C41F1C2
:109DE00000010346CDE90201B3EB080271EB0B0061
:109DF000E6D30198401C019089D0032F10D00E9813
:109E00004FF0010B80462A4633466D1CCDF800B05A
:109E100046F1000621460798FFF716F9D0B901E090
:109E20001298EDE7A8F101005FEA0008EBD1CDE957
:109E30000856032F1ED0DDE90C12091A62EBE072FE
:109E400012984FF0000CA1FB003802FB008001FBD0
:109E50000C0000E060E06D1E46F1FF315A194841E8
:109E6000CDE90A2008AA04210798FFF76BF8032F11
:109E700002D049E00120DEE75220207060706122AC
:109E8000A2704120E070722184F8E41184F8E51199
:109E900084F8E60184F8E721DDE90C01401E41F178
:109EA000FF3184F8E801020A84F8E921020C42EA51
:109EB0000142000E84F8EA2140EA012084F8EB0117
:109EC000022084F8EC01002084F8ED0184F8EE0112
:109ED00084F8EF01552084F8FE01AA2084F8FF01E0
:109EE00019F101025D46CDF800B04AF100032146A8
:109EF0000798FFF7A9F819F1070200954AF1000346
:109F000021460798FFF7A0F8002211460798FFF7AF
:109F100019F800283FF472AC012065E44E4F204E42
:109F2000414D452020202046415420202020200063
:109F30004E4F204E414D4520202020464154333283
:109F40002020200000FFFF0017B581B014460298C2
:109F50000090684601F0FAFA002802DA0B2004B0FB
:109F600010BD0B4B002253F8201001B10A7001996B
:109F7000002900D00A7043F8201001D0012C01D034
:109F80000020ECE7002202A901A800F045FEE6E768
:109F9000800000202DE9F74F92B006000ED04FF060
:109FA000000B02F01F0727F0010213A96846C6F84C
:109FB00000B000F031FE050004D0B3E0092015B078
:109FC000BDE8F08F4FF4007000F0AEFC5FEA000ACD
:109FD0000AD00EA8CDE9090A6846139901F018F8CD
:109FE000089C050002D003E01120E8E704B906252B
:109FF00017F01C0F59D055B1042D03D16846FEF758
:10A00000E1FD0546089C47F0080755B161E0E07A9C
:10A0100010F0110F01D007255BE0780701D5082566
:10A0200057E038074FD501F053F9A073020AE273E5
:10A03000020C42EA0142000E40EA012022746074E0
:10A0400084F80BB084F81CB084F81DB084F81EB0FE
:10A0500084F81FB02146009801F008FF80460022D6
:10A0600089461346204604F074F9009901200871CE
:10A0700058EA090025D000984B46D0E91412CDE9E2
:10A080000C12424603F010FB050022D10098B8F1F3
:10A09000010149F1FF32C0E90412DDE90C23009807
:10A0A00002F0EEFB051E0AD013E095B9E07AC10676
:10A0B00001D504250DE0B90701D5C007ABD138079C
:10A0C00001D547F020070098D0E91410B463C6E921
:10A0D0000C10504600F02CFC25BBB77186F807B079
:10A0E0005F462146009801F0C1FEC6E90601E07F07
:10A0F000A37F010A0206607F42EA0342000241EAAE
:10A100001341024341EAE071207F0243C6E9042182
:10A110000020C6E90200F763C6E90A000098306033
:10A12000C088B08028464AE773B584B0040007D0E1
:10A13000002205A9684600F06FFD050003D02EE05F
:10A14000092006B070BD009820604FF4007000F048
:10A15000EBFB06000CD001A8C4E9090620460599CE
:10A1600000F056FF0546304600F0E2FB15B113E063
:10A170001120E6E7216A39B1C87AC00613D50098E4
:10A1800001F074FEC4E9020100980021C088A0809B
:10A190002046FEF7FDFD0546042D04D00DB100203C
:10A1A00020602846CDE70525F9E72DE9FC5F00256D
:10A1B0009B46164604468A461D6004F00DFB0028A7
:10A1C00016D1E079002813D1A079C0070FD0D4E9C7
:10A1D0000401D4E90223801A61EB030104F1400376
:10A1E0000193831B71F1000100D20646A8E007200D
:10A1F000BDE8FC9F2089C0057CD1D4E902232068FA
:10A20000510A41EAC35185786D1E2940C9B25FEAFF
:10A21000010918D152EA030105D0E16B31B12046A2
:10A22000FDF718FB06E0D4E9060103E0D4E90823B2
:10A2300000F0D4FF821E71F1000223D3C2430A430F
:10A240005DD0C4E90801D4E908232068FDF77EFB4E
:10A2500050EA010216D010EB090841F10007750A17
:10A2600029D0206809EB050281788A4201D9A1EB47
:10A2700009050095407842463B465146FEF7B0FE40
:10A28000C8BB02E00220E071B2E7A079400610D519
:10A29000D4E90A21B2EB080061EB0701431B71F11D
:10A2A000000106D20AEB40204FF40072019902F03F
:10A2B00001FA6D0236E0D4E90A2382EA080083EA53
:10A2C000070108431ED0A07940060BD5012000905D
:10A2D000206801994078FEF7B7FE60B9A07920F0B8
:10A2E0004000A07101200090206842463B46407823
:10A2F000019901E008E002E0FEF772FE10B10120D2
:10A30000E07175E7C4E90A872089C0F30800C0F549
:10A310000075B54200D9354601192A4650464031EC
:10A3200002F0C8F9D4E90220521940F10000C4E952
:10A330000220DBF80000AA444119761BCBF800107C
:10A34000002E7FF457AF002052E72DE9FC41002595
:10A35000174604464E1E0FE001AB012269463846FF
:10A36000FFF723FF0198012808D19DF800006D1C1C
:10A3700004F8010B0A2801D0B542EDDB0020207063
:10A380002846BDE8FC81FEB50F46054604F024FAD8
:10A3900004002FD18FB14FF4007000F0C5FA060011
:10A3A00011D06846C5E9090600212846FEF78AFB58
:10A3B0000446042809D05CB119E000212846FEF7C4
:10A3C000E7FC044616E01120FEBD0020C5E90600AA
:10A3D0003946284600F0A2FF00212846FEF7D6FAAB
:10A3E0000446042803D10020C5E90600044630468F
:10A3F00000F09EFA2046FEBD2DE9F1418FB001220A
:10A400000FA9684600F008FC002844D18DF8300000
:10A4100005460F9800E06D1C415D0029FBD100E06E
:10A420006D1E9DB3411911F8011C2029F8D000249C
:10A4300026460DF130080F99885D761CA0F1810247
:10A440007D2A10D80A2C0DD2AE420BD2895DA1F123
:10A4500040023E2A02D9403A7E2A03D841EA00202F
:10A46000761C00E00020012100F038FA00F064FAC8
:10A47000002100F033FA07000CD0014637A0FDF7A9
:10A48000E1F938B9FF2F02D90A2001E018E00B20CA
:10A49000A04203D8062010B0BDE8F081FF2F03D9F9
:10A4A000390A08F80410641C404608F80470641C5B
:10A4B000AE42C0D320210B2C02D20155641CFAE716
:10A4C0000020CDE9020001466846FEF761FC002845
:10A4D000E1D101216846FEF7F5FA012458B30428BA
:10A4E000D9D19DF8301000200029D4D00121684630
:10A4F000FEF794F90028CED120220021089802F01E
:10A50000E1F80B220CA9089802F0D4F80899082069
:10A51000C87200F0DDFE089A9075089B020ADA7591
:10A52000020C089B42EA0142000E1A7640EA012022
:10A53000089948760BE09DF8300028B10B220CA951
:10A54000089802F0B7F8E4E70899E5200870009849
:10A550000471009803F084FF9DE70000222A2B2C51
:10A560002E3A3B3C3D3E3F5B5D7C7F00F8B50446A8
:10A5700004F032F9002811D1A1798A060ED54806D7
:10A580004FF001060FD50096206804F14001407895
:10A59000D4E90A23FEF758FD08B10120F8BDA079DF
:10A5A00020F04000A071D4E90C23206802F068F983
:10A5B0000028F3D1A56BE87A40F02000E872207CF7
:10A5C0002877208A000A68772069217D000C40EAFC
:10A5D0000140A8772069217D000E40EA0120E8773C
:10A5E000D4E90623284603F0B4FE00F071FEA875F6
:10A5F000020AEA75020C42EA0142000E2A7640EA9B
:10A60000012068760020A874E874A07920F020006A
:10A61000A071206806712068BDE8F84003F020BFF3
:10A620002DE9F1419BB001221BA9684600F0F4FA24
:10A6300004005CD14FF4007000F076F95FEA000886
:10A6400009D018A8CDE9090868461B9900F0E0FC7C
:10A65000040004D048E011201CB0BDE8F081089F40
:10A660005FB1F87AC00700D007243946009801F09E
:10A67000FDFB05460E4614B136E00624F5E7F87AF0
:10A68000C0061ED5A81E76F1000001D202242BE0E0
:10A69000302269460CA802F00DF8CDE90E560221D1
:10A6A0000CA8FEF775FB04001ED100210CA8FEF7D4
:10A6B00009FA040003D0042C03D014B114E00724D9
:10A6C00012E06846FEF732FB04000DD155EA0600A1
:10A6D00006D02A463346009802F0E6FF040003D174
:10A6E000009803F0BDFE0446404600F021F92046E4
:10A6F000B2E72DE9FC5F00269B46154604468A46D4
:10A700001E6004F069F8002806D1E079002803D122
:10A71000A079800702D40720BDE8FC9FD4E902019C
:10A72000421941F1000304F14006101A01968B41D1
:10A730007DD3C2E02089C0057AD1D4E902232668FE
:10A74000500A40EAC350B178491E0840C0B25FEADF
:10A75000000927D152EA030005D0E06B58B120462A
:10A76000FDF778F80CE0D4E9060150EA010207D1C0
:10A770001346304602E0D4E908233046FDF703F9DA
:10A7800050EA010253D080F001020A433AD0C2439A
:10A790000A436DD0C4E90801D4E906231A4301D164
:10A7A000C4E90601A07940060DD50120009020687B
:10A7B0004078D4E90A230199FEF746FCC8BBA0798A
:10A7C00020F04000A071D4E908232068FDF7BEF80E
:10A7D00050EA010216D010EB090841F100076E0A99
:10A7E0002ED0206809EB060281788A4201D9A1EBBC
:10A7F00009060096407842463B465146FEF724FC47
:10A80000B8B902E00220E07186E7D4E90A21B2EB90
:10A81000080061EB0701831B71F100010ED20AEB06
:10A8200040214FF40072019801F044FF02E047E03C
:10A8300023E01DE0A07920F04000A07176022EE018
:10A84000D4E90A0180EA08007940084313D004F1F2
:10A850000C00A2680BC8511A98410CD2012000903C
:10A86000206842463B4640780199FEF7B9FB10B19B
:10A870000120E07150E7C4E90A872089C0F308008D
:10A88000C0F50076AE4200D92E46204432465146ED
:10A89000403001F00FFFA07940F04000A071D4E9F2
:10A8A0000220921940F10000C4E90220DBF8000008
:10A8B000B2448119AD1BCBF80010002D7FF43AAFE4
:10A8C00004F108000FC8121A8B4101D2C4E9040137
:10A8D000A07940F02000A07100201DE770B580280D
:10A8E0001BD345F2205409B10D4D00E00D4D00235E
:10A8F0001022E11A01EBD17103EB610135F82160FF
:10A90000864206D001D20B4600E00C46521EF0D122
:10A9100004E01AB105EB8100408870BD002070BDD5
:10A92000F83E040874EA02080146002002F07EB8EE
:10A930000146002002F06EB80021064B00E0491CE1
:10A9400033F81120002A04D08242F8D1024830F8AE
:10A95000110070477C9305085C95050810B51B48ED
:10A960000024807900282CD019A0FEF75BFE024657
:10A97000082804D01AB116A117A0FBF745FF1FA0A5
:10A98000FEF750FE0246082804D01AB11BA112A0FF
:10A99000FBF73AFF1CA0FEF745FE0246082804D04C
:10A9A0001AB119A10CA0FBF72FFF1BA0FEF73AFE6E
:10A9B0000246082807D032B1002417A106A0FBF7F1
:10A9C00023FF204610BD0124FBE70000A002002069
:10A9D000303A2F6D6E7400006D6B64697220202513
:10A9E000732066616C696564202C726573203D205C
:10A9F0002564202C212121200D0A0000303A2F6DE2
:10AA00006E742F6170700000303A2F6D6E742F617C
:10AA10007070667300000000303A2F446174614624
:10AA2000696C650070B50C46054600F0D3FB064620
:10AA300029462046F5F779FC05F11E0104F11E00B8
:10AA4000F5F773FC95F83A0084F83A0095F83B0066
:10AA500084F83B0095F83C0084F83C00A86D206524
:10AA6000E86D6065286DA065686DE065286E2066FC
:10AA7000686E606695F8680084F86800B5F86A004A
:10AA8000A4F86900102205F16C0104F16B00F5F7E0
:10AA900003FC95F87C0084F87B00142205F17E010C
:10AAA00004F17D00F5F7F8FB012084F8910095F89A
:10AAB000930084F89200022584F8A350002084F8C3
:10AAC000A4000C4904F1A600F5F72FFC3168C4F886
:10AAD000B5107168C4F8B910B068C4F8BD0084F846
:10AAE000C95004F1CA00BDE8704002491839F5F7B1
:10AAF0001CBC0000ECDF02082DE9F0412A4E804624
:10AB0000A6B040F2FF10306201F09EFDF061002817
:10AB10001FD026A11AA8FFF707FB040021D0024688
:10AB200022A125A0FBF770FE642101A8F5F7CDFB5B
:10AB30001EA328A2632101A80094FBF775FE01A8BB
:10AB400003F0F8FEF06900F0A3FA204626B0BDE855
:10AB5000F08127A0FBF758FE25A003F0EBFE1320A1
:10AB6000F4E706F10D0510491AA8FFF70CFC0400E4
:10AB700015D1707B98B12E28F5D0F769387800B9D7
:10AB80002F4623A13846F5F7ABFB0028EBD038461B
:10AB9000F5F7C4FB024639464046F5F77DFB1AA897
:10ABA000FEF7ECFACEE7000090FA0020303A2F6D65
:10ABB0006E742F61707000006F70656E20202573B9
:10ABC000206661696C6564202C726573203D2025C8
:10ABD000640D0A006F70656E202573206661696CD4
:10ABE0006564202C726573203D2025640D0A0000E9
:10ABF0006D616C6C6F63206966284E554C4C203D2E
:10AC00003D20666E6F2E6C666E616D65290D0A00C3
:10AC10002E6C6E63000000002DE9F04F89B04FF0FC
:10AC200000080746C0F800801646084600F08EFC73
:10AC3000050003D50B2009B0BDE8F08FF14850F8AE
:10AC400025408CB13C60207820B16078FEF7F0F9A7
:10AC5000C1070BD084F80080E8B26070FEF7F6F808
:10AC6000C10708D00320E6E70C20E4E70EB1400757
:10AC700004D40020DFE71EB1400701D50A20DAE73F
:10AC800000263546324633462046FCF75FFB012856
:10AC900036D100226B4604EB021191F81A0201F240
:10ACA000162180B1C87A8F7A060A00064D7A40EAEA
:10ACB00007402D02097A46EA1746284346EAE57618
:10ACC0000843314601E00020014603EBC205521C57
:10ACD000C5E90001042ADED30027994609EBC70025
:10ACE000D0E9006556EA050005D032462B462046DD
:10ACF000FCF72CFB00E0022048B17F1C042FEDD3B1
:10AD0000032802D000287DD101E0012093E7B4F8A8
:10AD10006300B0F5007F75D1B4F86E204146474618
:10AD200052EA010012D194F87F0094F87E30010AB3
:10AD3000020694F87D0042EA0342000241EA134110
:10AD4000024341EAE07194F87C000243C4E90A211D
:10AD5000CDE9022194F86800E070012801D00228B2
:10AD600050D1A0FB023C07FB02C200FB0120CDE951
:10AD7000003094F86520A270002A43D0501E024291
:10AD800040D1B4F869002081049000073AD1B4F8AA
:10AD90006B30394653EA010012D194F87B00010A66
:10ADA000030694F87A0043EA004341EA104194F81C
:10ADB00079000002034341EAE07194F8780003430C
:10ADC000B4F866905FEA090077D0BE46DDE9007806
:10ADD00019EB0707DDF810C04EEB08004FEA1C180E
:10ADE00017EB080740EB0E00BA468346DF1BF4461C
:10ADF00071EB000061D3B3EB0A0061EB0B01E0469D
:10AE0000002300E059E0F5F7E5F950EA010254D0DB
:10AE100040F6F6720127821A71F1000200D3022770
:10AE20004FF6F672821A71F1000200D30327801CDC
:10AE300041F100014B46C14616EB030845EB090CF6
:10AE4000266316EB0A0245EB0B03C4E90801C4E9CB
:10AE5000122304F13402032F82E82011049A2ED029
:10AE60005AB3DDE9002318EB02024CEB030CC4E9F2
:10AE7000102C022F42D00322A0FB02C801FB02814A
:10AE8000002300FB0310410894F820004FEA3C0324
:10AE900000F00100181841EB090140F2FF1C10EB13
:10AEA0000C0C41F100004FEA5C21DDE9023241EA7D
:10AEB000C051400A591A824123D20D20BBE6002A14
:10AEC000FBD194F8872094F886C0130A120642EA50
:10AED0000C4243EA1C4394F885C089004FEA0C2CCD
:10AEE00042EA0C0243EAEC7394F884C041EA9071A0
:10AEF00042EA0C02C4E910238000CEE70018494161
:10AF0000CBE74FF0FF300021C4E90601C4E904019A
:10AF100080206071032F6CD1B4F88800012868D1BB
:10AF2000721C45F10003204601F0AAFCF0BB84F836
:10AF30000590B4F85602A0F52A41553959D194F834
:10AF40005B00020A010694F85A0041EA004142EA15
:10AF5000104294F859000002014342EAE07294F86A
:10AF60005800014328484140114342D194F83F0220
:10AF7000020A010694F83E0241EA004142EA104208
:10AF800094F83D020002014342EAE07294F83C0268
:10AF900001431E48414011432BD194F84302020A59
:10AFA000010694F8420241EA004100E021E042EA51
:10AFB000104294F841020002014342EAE07294F820
:10AFC00040020143C4E9061294F84702010A02064E
:10AFD00094F8460242EA004241EA104194F84502E0
:10AFE0000002024341EAE07194F844020243C4E9DA
:10AFF000042104492770091F0888401C0880E0804C
:10B0000037E60000800000205252614172724161B7
:10B0100013B50446019908782F2801D05C2801D186
:10B02000491C01910020C4E9020001980078202801
:10B0300006D200212046FDF7ABFE002121621CBD97
:10B0400001A92046FCF75CFD0028F8D12046FDF759
:10B0500007FC616AC97A28B10428F0D14907EED407
:10B0600005201CBD4907FCD4216AC87AC006F7D563
:10B07000206800F0FBFEC4E90201E1E703490A8809
:10B080005206FCD5C2B28A80704700000010014011
:10B0900010B5002821D0114B0022001F196803E0D1
:10B0A000814203D80A4649680029F9D152B1136890
:10B0B000841A9C4204D1006818441060104602E0D3
:10B0C000506000E0186039B102680B1A934203D156
:10B0D0000B681A4402604968416010BDD404002026
:10B0E0007CB516461C4605460B2201F0E3FA052CFA
:10B0F00012D91D4B0DE00022B61C01F001002419ED
:10B1000024184FEA5101E00300D55C40521C102A7C
:10B11000F3D331880029EED107226B4604F00F00EB
:10B120003030392800D9C01D9854521E2409F5D159
:10B130007E2000219854541E06E081387D2802D8D4
:10B14000A14206D0491C491C914202D2685C2028C9
:10B15000F3D1082A02D2985C521C00E020206854E7
:10B16000491C0829F5D37CBD211001000148807CD1
:10B1700070470000C8020020064B93ED160B80EDCF
:10B18000000B93ED180B81ED000B93ED1A0B82ED84
:10B19000000B7047C80200200B49002091F83910BD
:10B1A000072906D2DFE801F0040506080A0C0E00A4
:10B1B0000120704706207047032070470420704725
:10B1C0000220704705207047C802002000487047E1
:10B1D000E004002000487047EB0200202DE9F04118
:10B1E0000446901E154673F1000005D3D4E908010A
:10B1F000281A73EB010001D301204FE020780021D1
:10B20000012810D002283BD00328F5D1D4E90E2024
:10B21000E90941EA4361521840EBD313204601F09B
:10B220002FFBC8BB43E0D4E90E7305EB5506720A49
:10B230008846BA1843EB0803204601F021FB58BBAF
:10B24000C6F308002044761C90F85870D4E90E2309
:10B25000710A521843EB0803204601F011FBD8B9DC
:10B26000C6F308002044E90790F8580047EA002098
:10B2700001D0000901E0C0F30B004146BDE8F081B8
:10B28000D4E90E20290A41EA0361521840EB132346
:10B29000204601F0F5FA18B14FF0FF300021EDE73C
:10B2A0006819C0F308002044B0F85800F6E76806B3
:10B2B00004EBD05010F8582FC17842EA016281782F
:10B2C0004078090441EA0020024322F07040E5E79B
:10B2D00010B51148FBF772FF0F48FBF77BFF0E48D4
:10B2E00040F2BC7182888A4200D2818001798279E1
:10B2F0004906A1F1F04141EA4251C27941EA0241D5
:10B30000027841EAC2214278807841EA421141EA5A
:10B310005000002110BD0000585C01202DE9F041D3
:10B320000D4601F10D04D0E906124FF0000C114357
:10B3300038D00023026A2E27D15C5B1C202918D04C
:10B34000052900D1E521092B01D104F8017BA1F1E8
:10B350004106192E0BD892F80C80092B01D3102628
:10B3600000E0082618EA060F01D02031C9B204F81F
:10B37000011B0B2BE0D3D17A2973D17F0B0A0E0668
:10B38000917F46EA014643EA1143517F09020E4389
:10B3900043EAE173117F0E43C5E90063118B2981F4
:10B3A000D18A698184F800C0EE69E046002E24D07D
:10B3B000D0E90612002411431DD0296AD9B1818D2C
:10B3C000A1F57F42FF3A16D0876A10E00021FFF70F
:10B3D00085FA40B1FF2802D9010A3155641C296A57
:10B3E000491EA14201D8002405E03055641C37F8FD
:10B3F000020B0028EAD106F80480BDE8F0810000C5
:10B4000010B542F61401002001F010FB0449002899
:10B41000086004D1BDE8104002A0FBF7F5B910BDEB
:10B42000480000202D2D2D2D2D2D2D3E675F676EA0
:10B4300073735F646174615F62756666206D616CD1
:10B440006C6F63206661696C0D0A0000044B10B5D7
:10B450001C780470587808709878107010BD00003F
:10B46000D001012010B58AB004004BD004AA05A970
:10B4700006A800F05FF89DF810102B2901D21131B9
:10B4800005E09DF81400401C8DF814002B398DF850
:10B49000101007AA08A909A8FFF7D8FF9DF8100007
:10B4A00000213C2806D19DF814008DF81010401C96
:10B4B0008DF814009DF814003C2806D19DF8180062
:10B4C0008DF81410401C8DF818009DF818001828ED
:10B4D00006D19DF81C008DF81810401C8DF81C003A
:10B4E0009DF81C009DF810309DF814209DF8181050
:10B4F0008DE80F009DF820309DF8242002A1204601
:10B50000FBF7ACF90AB010BD32302530326425307B
:10B510003264253032642C20253032642530326488
:10B52000253032640D0A000010B5F9F7FFFC80B237
:10B5300010BD0000044B10B5DC7804701879087059
:10B540005879107010BD0000D001012010B50346DD
:10B550004FF0FF301C68002C13D0214600E0491C3E
:10B560000A78202A0ED33A2AF9D114F8012B303A5E
:10B570000A2A06D28C4204D1022A02D2491C104661
:10B58000196010BD002010BD014880787047000090
:10B59000A00200209FED030B002901D0FBF778B932
:10B5A0007047000000000000000000004E285FD03F
:10B5B0000CDC44284FD004DC412829D043285DD13D
:10B5C0003FE047280FD04D2858D136E0532846D0C9
:10B5D00004DC502818D0522850D12AE056284BD0ED
:10B5E0005A284BD131E0092948D2DFE801F047055C
:10B5F000470B09474707090002207047082070479A
:10B600000920704704207047022937D1072070476E
:10B61000092906D00F2906D0112906D0052906D000
:10B620002CE00A2070471020704713207047062036
:10B630007047072922D10B2070470B291ED10C20FF
:10B6400070470C291AD10D207047072901D0032912
:10B6500014D10E2070470E2910D10F2070470429F5
:10B6600002D0082902D009E0052070471120704758
:10B67000022903D103207047112901D0002070470F
:10B680001220704702460020002902D01046F4F72D
:10B690009ABE704730B505462A4885B00078002824
:10B6A0004DD0294CA07938B105B02846BDE83040CE
:10B6B00040222649F4F7F0BD234A0E32511E481E9F
:10B6C000FFF738FFA17B2B2901D2113103E0607B0A
:10B6D000401C60732B391C4AA1731132511E481E45
:10B6E000FFF7B4FEA17B00203C2903D1A073617B4E
:10B6F000491C6173617B3C2903D16073217B491C28
:10B700002173217B182903D12073607C401C607455
:10B71000607C0DF1040CA37B627B217B8CE80F0025
:10B72000207C0090E37B0AA20CA10848FBF796F866
:10B73000402206492846F4F7AFFD0120A07105B06C
:10B7400030BD0000A60200207C040020342D012022
:10B75000303A2F4461746146696C650025732F6D22
:10B760006D633230253032642530326425303264E6
:10B770002530326425303264253032642E67707390
:10B780000000000030B50546394887B00078002831
:10B790006BD0384CE07938B107B02846BDE830406E
:10B7A00040223549F4F778BD324A0E32511E481E08
:10B7B000FFF7C0FEA17B2B2901D2113103E0607B92
:10B7C000401C60732B392B4AA1731132511E481E45
:10B7D000FFF73CFEA17B00203C2903D1A073617BD5
:10B7E000491C6173617B3C2903D16073217B491C37
:10B7F0002173217B182903D12073607C401C607465
:10B800001E48F4F78BFD38B9607C0090237CE27B06
:10B810001BA11A48FBF722F8184864216430F4F79A
:10B8200054FD164B1AA21BA103F16400FBF716F896
:10B8300012486430FCF732F9607C0DF1080CA37BF0
:10B84000627B217B8CE80F00217CE07BCDE900014D
:10B850000A4B0FA211A10848FBF700F84022064945
:10B860002846F4F719FD0120E07107B030BD000053
:10B87000A70200207C040020742D01205804012020
:10B880003230253032642530326425303264000095
:10B89000313A000025732F257300000025732F25F2
:10B8A000732F736432302530326425303264253092
:10B8B00032642530326425303264253032642E679C
:10B8C0007073000001F0ACBB4FF400510148F7F772
:10B8D0005CBA0000001002404FF400510148F7F735
:10B8E00056BA0000001002402DE9F041804688B0B1
:10B8F00001210220F8F79CFB01218804F8F7B0FB36
:10B90000244F07220A213846F7F728FA07220B218D
:10B910003846F7F723FA4FF44060049002208DF880
:10B92000140003258DF8155000248DF816400126CB
:10B930008DF8176004A93846F7F7D4F9ADF804403C
:10B94000ADF80640ADF80840ADF80C400C20124CA4
:10B95000ADF80A00CDF8008069462046F9F786FC6C
:10B9600001212046F9F73AFC012240F225512046F8
:10B97000F9F764FC27208DF818008DF819508DF820
:10B980001A508DF81B6006A8F8F71EFA08B0BDE83B
:10B99000F08100000004024000480040F0B5064677
:10B9A00087B001210420F8F743FB01212020F8F79C
:10B9B00063FB234D082206212846F7F7CFF908221A
:10B9C00007212846F7F7CAF902218DF814108DF8DF
:10B9D0001510C020002404908DF8164001278DF822
:10B9E000177004A92846F7F77DF9ADF80440ADF8C3
:10B9F0000640ADF80840ADF80C400C20114CADF8F5
:10BA00000A00009669462046F9F730FC01212046DD
:10BA1000F9F7E4FB012240F225512046F9F70EFC2C
:10BA200047208DF8180003208DF819008DF81A00B2
:10BA30008DF81B7006A8F8F7C7F907B0F0BD000035
:10BA4000000802400014014000221321014802F0C6
:10BA5000ADB90000D101002070B5FFF787FB0446A7
:10BA6000FFF79AFB054602286DD0012213213748C3
:10BA700002F09CF928B12046FFF7E6FF08B1012447
:10BA800000E00024072D5ED2DFE805F022115D3FC3
:10BA90004E04310024B100F05DF808B1012000E04F
:10BAA000002088B3294800221B21AB300BE024B1D1
:10BAB00000F050F808B1012000E0002020B3234836
:10BAC00000221B21623002F071F9E8B1012034E05C
:10BAD0001F4802F077F91E483A220121173802F078
:10BAE00098F98CB11A4800223C211738EBE724B1B1
:10BAF00000F030F808B1012000E0002020B1134828
:10BB0000002214214E30DEE70CE024B100F022F8D0
:10BB100008B1012000E0002020B10C4800221721CC
:10BB20007D30D0E7002008E00CB100F013F80748A2
:10BB300000221721943002F039F920B100F024F8E6
:10BB400008B1012070BD002070BD00006C98050890
:10BB50002202002010B5084802F034F906484022BD
:10BB60000421193802F055F9034800224221BDE8AA
:10BB70001040193802F01AB9600200200149002073
:10BB800008707047D001002010B5244C207898BB75
:10BB900001221321224802F009F9207040B1204807
:10BBA00001221721133002F001F908B1012000E051
:10BBB0000020207040B11A48012213211C3802F0E5
:10BBC000F5F808B1012000E00020207040B11448D1
:10BBD000012213215D3802F0E9F808B1012000E0EC
:10BBE0000020207048B10E48012217214A3802F087
:10BBF000DDF810B1012001E00DE00020207040B11F
:10BC0000074800221721333802F0D0F808B101208C
:10BC100000E000202070C0B210BD0000D001002064
:10BC200042980508014880684068004738040020B1
:10BC300010B5FFF79BFA044601221321194802F0C0
:10BC4000B5F840B1174801221321C63002F0AEF812
:10BC500008B1012000E0002028B12046FFF7F4FEE3
:10BC600008B1012000E0002040B10E480022102160
:10BC7000D93002F09BF808B1012000E0002040B16B
:10BC8000084800221721E93002F090F808B101209D
:10BC900000E0002020B1FFF777FF08B1012010BDC0
:10BCA000002010BD6C98050810B50122132105482D
:10BCB00002F07CF820B1FFF767FF08B1012010BD4A
:10BCC000002010BD6C98050810B540F245130A4AD3
:10BCD0000AA10FA0FAF798FD02F0A6F8040003D01D
:10BCE00012A0FAF791FD05E01AA0FAF78DFD19A050
:10BCF00002F020FE204610BD6C9905082E2E5C41F6
:10BD000050505C436D6454726D622E6300000000FD
:10BD100066696C653D25732C66756E633D25732CD5
:10BD20006C696E653D25640D0A0000000D0A2073E4
:10BD3000657420676E737320636D642066726F6D27
:10BD400020636F6E66696720737563656564210D96
:10BD50000A0000000D0A73657420676E7373206318
:10BD60006D642066726F6D20636F6E666967206612
:10BD700061696C6564210D0A73657420676E737365
:10BD80002064656661756C7420636D6420212121D7
:10BD9000200D0A0010B5084C064B00EB400203EBE7
:10BDA0008200246843F82240490841600121417221
:10BDB00010BD00002CAD0020440000200448417854
:10BDC00021B10069052801D3012070470020704788
:10BDD000380400204FF480710148F6F7CFBF00000F
:10BDE0000000024070B586B016460C460546142287
:10BDF00019A16846F4F750FA00230A2E05D1002D48
:10BE000003DA2D206D42207001236846B5FBF6F160
:10BE100006FB1151B5FBF6F5415CE1545B1C002DAE
:10BE2000F4D10020E05420782D2805D00022581E9F
:10BE300000EBD075134409E00122F8E7981A20447A
:10BE4000A15C10F8016DA6540170521CB2EB650F95
:10BE5000F4DD06B0204670BD30313233343536372C
:10BE600038394142434445460000000003460A4633
:10BE7000488B1B780021032B03D1928A110C40EAD6
:10BE80000240704710B5064C6078012804D0FFF7D7
:10BE90001BFD0120607010BDFFF71EFD0020F9E7BB
:10BEA000500000201148827901798A421CD08171AA
:10BEB0004FF47A70092917D2DFE801F01105140751
:10BEC0000A0D0F11130000F029B84FF4FA6009E0D1
:10BED0004FF47A6006E040F6B83000F009B800F0A0
:10BEE00012B8C82000F025B87047000050000020AC
:10BEF00010B50446F6F788FFFFF7E6FC2046BDE8DC
:10BF00001040F8F719B910B5F6F77EFFF8F722F9E7
:10BF100001F0C2FBBDE81040FFF7DEBC10B5F6F73C
:10BF200073FFF8F717F901F0B7FBBDE81040FFF712
:10BF3000CBBC10B50446F8F70DF901F0ADFB204677
:10BF4000BDE81040F6F752BF2DE9F04FADF5237D67
:10BF50000F4606464FF4007B4FF0000A594602A8F0
:10BF6000F4F7B3F920219BA8F4F7AFF907250024D3
:10BF70002A4642A19BA8F4F78FF93046FBF7CCFE86
:10BF80004FF00109CDE900599BAB402231463846BC
:10BF9000FCF796FB3846FBF709FF3846F4F7BEF985
:10BFA0000026384D142804D237A0FAF72DFC36A00D
:10BFB0003BE00D213F48F4F788F9DFF8F880396855
:10BFC000A8F14108404640F8411F79684160B968CE
:10BFD0008160092108F13800F4F777F9F968C8F8A9
:10BFE00038103969C8F83C1008F13802314932A0DC
:10BFF000FAF70AFC642182A8F4F767F908F138001F
:10C0000000902C4B2CA2632182A8FAF70DFC82A889
:10C0100002F090FC274800F10D01025D0B5D9A4291
:10C020000BD02DA0FAF7F0FB2BA002F083FC3046DA
:10C03000AE700DF5237DBDE8F08F641C0C2CECD3A5
:10C040001C480938F4F7B2F901462FA0FAF7DCFBD7
:10C05000594602A8F4F739F916480938F4F7A6F951
:10C06000034629A240F2FF1102A8FAF7DDFB02A85D
:10C0700002F060FC85F802905046DAE767656F735E
:10C08000756E0000A0020020536F7272792C206C34
:10C090006963656E736520697320496E76616C69AA
:10C0A000642E20506C6561736520436865636B2165
:10C0B0000D0A0000C1FA0020546865206C696365B0
:10C0C0006E73652069732070617273653A25732CF5
:10C0D0002025730D0A000000536F7272792C206CBA
:10C0E0006963656E736520697320496E76616C695A
:10C0F000642E20446576696365494420697320771E
:10C10000726F6E67210D0A00546865204C69636583
:10C110006E736520446174653A25640D0A00000061
:10C1200010B5002458B151B101F0FEFC60B107A078
:10C13000FAF76AFB05A002F0FDFB204610BD0F4890
:10C14000FAF762FB0D48F6E7012010BD6C697374C5
:10C150005F6469725F6E616D655F6669727374209A
:10C160002C207363616E5F66696C65732829206695
:10C1700061696C6564210D0A00000000989F050844
:10C180002DE9F04FA1B0894607469046642101A8E9
:10C19000F4F79BF80620002500904FF0080A3021A4
:10C1A000284600F043FC83462821002000F03EFC96
:10C1B0000446BBF1000F1DD0002C1BD040F2FF1134
:10C1C0000020216200F032FCE061002819D03946DD
:10C1D0005846FDF7A9FF060071D00246394651A026
:10C1E000FAF712FB642101A8F4F76FF83B464DA261
:10C1F00000967CE058A0FAF707FB57A002F09AFBE4
:10C2000089E064A0FAF700FB62A002F093FB6526C8
:10C2100078E021465846FEF7B6F8060011D00146F0
:10C2200069A0FAF7F1FA642101A8F4F74EF8334651
:10C2300065A2632101A8FAF7F7FA01A802F07AFBD8
:10C2400041E0607B28B12E2839D0E769387830B9D1
:10C2500003E069A0FAF7D8FA35E004F10D07207B76
:10C26000C0062CD43846F4F759F8152827D10020F9
:10C270001A901B901C901D901E901F905246F91C06
:10C280001AA8F4F73FF807EB0A011DA8C91C009A89
:10C29000F4F738F81AA8F4F789F805EB450749F8D8
:10C2A00027001DA8F4F782F8014609EB87004160DA
:10C2B0002168A288890A41EA82516D1C8160D8F800
:10C2C0000000A842A5D8D8F80000A84216D02A46F7
:10C2D000294659A0C8F80050FAF796FA642101A837
:10C2E000F3F7F3FFD8F800002B4653A20090632128
:10C2F00001A8FAF799FA01A802F01CFB0020E169F5
:10C3000000F088FB5946002000F084FB2146002005
:10C3100000F080FB1EB1002021B0BDE8F08F0120AD
:10C32000FAE700006C6973745F6469725F6E616D37
:10C33000655F7365636F6E642D6F70656E6469729F
:10C34000202573206661696C65642C2072657320FA
:10C350003D2025640D0A00006C6973745F64697286
:10C360005F6E616D655F7365636F6E6420696628DB
:10C370004E554C4C203D3D207372636469727C7C49
:10C380004E554C4C203D3D2066696E666F290D0A66
:10C39000000000006C6973745F6469725F6E616DA8
:10C3A000655F7365636F6E64206966284E554C4CFB
:10C3B000203D3D2066696E666F2D3E6C666E616D38
:10C3C00065290D0A000000006C6973745F6469726E
:10C3D0005F6E616D655F7365636F6E6420202D2DE8
:10C3E00020665F726561646469722C206572723DBB
:10C3F00025640D0A000000006C6973745F64697243
:10C400005F6E616D655F7365636F6E6420202D2DB7
:10C4100020665F726561646469722C2020726561B8
:10C42000642066696C6520656E64202C20627265EC
:10C43000616B210D0A0000005B776172696E675DB8
:10C440002028696E6465783D25642920213D2028D7
:10C4500066696C655F73756D5F6E756D3D256429EA
:10C460000D0A00004D494C48FF2408604FF4A060BD
:10C47000F7F7DCFCA820FBF745FF4FF4E135284631
:10C4800002F090F8A800FFF72FFA2846FFF786FA87
:10C49000002000F03FFA012000F03CFAF6F7E6FB3E
:10C4A000F8F762FA00F01AFDFEF790FE3C4DA86026
:10C4B000FEF7A6FFE8603BA0FAF7A6F9F8F7F4FB51
:10C4C00000F096FB3B48F5F744FB3B4802F032FA9C
:10C4D000394802F02FFA384802F02CFA37A002F05F
:10C4E00029FAFEF73BFA4FF47A70FBF721FFFAF7CF
:10C4F0007BFEFAF78FFF42F210763046FBF718FF0B
:10C50000364F012001F030FF012815D034A0FAF792
:10C510007BF933A002F00EFA641E14F0FF04F0D190
:10C520003F48FAF771F93E4802F004FA3846F5F749
:10C5300010FB01F08BF8E4E74FF4C0725F217F201D
:10C54000FAF70AF937A0FAF75FF94FF42057394C98
:10C5500003E03946A868FFF7B5F920780028F8D03D
:10C56000354905200022086040F225513348F8F78C
:10C5700065FE33490020334C40F6B835086020682A
:10C5800020B92560FAF790FFFFF78CFC01F00AF95B
:10C590003046F5F7DEFAF2E70000020808ED00E0A9
:10C5A0000000002062756620496E69742E2E2E2EC2
:10C5B0000D0A000020A10700749E05084445564955
:10C5C00043452056455253494F4E3A32303232316C
:10C5D0003132385F32310D0A0000000040420F0056
:10C5E0005B776172696E675D474E53532073746168
:10C5F000727475705F776F726B5F6D6F64652066C4
:10C6000061696C656421202C616E6420436F6E74D7
:10C61000696E756520746F20747279210D0A0000AF
:10C62000C49D050857444720496E69742E2E2E2E4E
:10C630000D0A0000390400204804002000140140C5
:10C64000340000204C000020F0B50B30154D20F0D8
:10C6500007010024144A0FE003688B420BD38B427E
:10C6600005D95E1A43184768C3E9006700E04368CC
:10C67000136002C004E0021D10680028ECD12046BF
:10C68000002802D1286808B10020F0BD064A0748FA
:10C690001060074A121A22F00702C0E900240120A4
:10C6A0002860D7E7D8040020D404002084B10120FA
:10C6B00080B7012003E011F8013B00F8013B521E56
:10C6C000F9D27047C9B201E000F8011B521EFBD23B
:10C6D000704700002DE9F0412DED028BA0B0074618
:10C6E0000025642104A8F3F7F0FD002F1DD01DAA3A
:10C6F0001EA93FA0FCF74BFD04001DD001463DA044
:10C70000FAF782F8642104A8F3F7DFFD234639A283
:10C71000632104A8FAF788F804A802F00BF9284668
:10C7200020B0BDEC028BBDE8F0813FA002F002F921
:10C730003DA0FAF769F8F2E71D9800234FF00108D1
:10C74000D0E90812891E807842F1FF34A1FB002550
:10C7500004FB005401FB0346DDE91E15A0FB014C60
:10C7600003FB01C100FB051571084FEA3200F3F726
:10C7700018FF00EE100A9FED388A69084FEA34006E
:10C7800060EE088A0646F3F70CFF00EE100A20EE72
:10C79000088A18EE100AF3F712FF04460D4618EE49
:10C7A000900AF3F70CFF41EC100B2CA053EC102B6C
:10C7B000CDE90045FAF728F8642104A8F3F785FDD0
:10C7C00018EE100AF3F7FBFE04460D4618EE900A29
:10C7D000F3F7F5FE8DE8330020A2632104A8FAF7F1
:10C7E00023F804A802F0A6F840463E6098E700004F
:10C7F000303A0000636865636B5F63617061636911
:10C8000074795F617661696C61766C6520736463CD
:10C810006172642066616C69656420726573203D95
:10C820002025640D0A0000006D6D635F6361706117
:10C83000636974795F6465746563742020667265EA
:10C84000655F6361706163697479206973204E5517
:10C850004C4C20210D0A0000000080356D6D6320D6
:10C86000746F74616C203D20252E3266672C206623
:10C87000726565203D20252E3266670D0A00000096
:10C88000F8B504461546D4E91401504059401E46F7
:10C89000084311D0204601F04CFE48B90120009019
:10C8A00060782A46334604F15801FCF799FB08B139
:10C8B0000120F8BDC4E914560020F8BD70B5134A34
:10C8C000131893F8203093B1114B53F820308B425A
:10C8D0001AD90F4B02EB80020C3B53F82030506901
:10C8E000B1FBF3F130F811400020034608E0116875
:10C8F0008847012070BD55690E18401C25F8163078
:10C90000A042F8DB002070BD022070BDB004002002
:10C91000309D050870B504460B480C4E002150F8B8
:10C92000240006EB84054200686900F08FF8064891
:10C930000021183050F82420A86800F087F8012062
:10C94000311981F8200070BD189D0508B004002041
:10C950002DE9F0411F4E0546002470190F4690F84E
:10C96000200010B93168284688474FF0FF327FB366
:10C97000194B53F82510B7FBF1F0B7FBF1FC01FBA5
:10C980001C7101B1401C14490C3951F82510491E85
:10C990001ED406EB8506776937F811C0BCF1000F8D
:10C9A00005D00024844211D1002284B207E0641C27
:10C9B000F8E7776901EB020C521C27F81C40824211
:10C9C000F7D353F825004843BDE8F081491EE3D56D
:10C9D0001046F9E7B0040020249D050810B50B4B64
:10C9E0000B4C002253F82030114604EB800005E088
:10C9F000446934F8114004B1521C491C8B42F7D8E9
:10CA000064204243B2FBF3F0C0B210BD189D05088C
:10CA1000B0040020002906D0034A02EB800292688D
:10CA2000891AFFF74BBF7047B004002010B50446C9
:10CA3000FFF78EFF411C05D0034901EB8401896893
:10CA4000084410BD002010BDB004002001E000F833
:10CA5000011B521EFBD27047F0B51E4F0546012444
:10CA6000B87999B00E4600282ED013222846FDF73B
:10CA700091FA04000AD00246314617A0F9F7C4FE25
:10CA8000012C21D17879401C78711DE0D5E904236F
:10CA90002846FCF70CFC040005D00246314615A0E0
:10CAA000F9F7B2FE10E031461AA0F9F7ADFE6421A5
:10CAB0006846F3F70AFC334616A263216846F9F785
:10CAC000B3FE684601F036FF14B1002019B0F0BD86
:10CAD0000120FBE7A00200206F70656E5F66696C45
:10CAE000652025732C20726573203D2025640D0A76
:10CAF0000000000020665F6C7365656B2066696CE2
:10CB0000652025732C20726573203D2025640D0A55
:10CB10000000000066696C655F6E616D653A2573A3
:10CB20000D0A0000F0B51E4F05460124F87999B0B2
:10CB30000E4600282ED013222846FDF72BFA0400BB
:10CB40000AD00246314617A0F9F75EFE012C21D12A
:10CB50003879401C38711DE0D5E904232846FCF7DC
:10CB6000A6FB040005D00246314615A0F9F74CFE9D
:10CB700010E031461AA0F9F747FE64216846F3F742
:10CB8000A4FB334616A263216846F9F74DFE6846BA
:10CB900001F0D0FE14B1002019B0F0BD0120FBE778
:10CBA000A00200206F70656E5F66696C655F7364DC
:10CBB0002025732C20726573203D2025640D0A000A
:10CBC00020665F6C7365656B2066696C65202573F4
:10CBD0002C20726573203D2025640D0A00000000A2
:10CBE00066696C655F6E616D653A25730D0A0000BC
:10CBF00070B5114D0024A87900281AD013220FA176
:10CC00001348FDF7C7F9010003D012A0F9F7FCFDA6
:10CC10000FE001206870044617A0F9F7F5FD0C48F5
:10CC2000D0E90423FCF743FB18B100241CA0F9F75A
:10CC3000EBFD204670BD0000A0020020303A2F6DB1
:10CC40006E742F6170702F6C6F672E747874000093
:10CC5000E0FA00204150502D6F70656E206C6F67B8
:10CC60002E74787420206661696C65642072657327
:10CC7000203D2025640D0A000D0A0D0A4150502068
:10CC80002D6F70656E206C6F672E74787420207322
:10CC9000756363656564202121210D0A0000000091
:10CCA000415050202D206F70656E206C6F672E7480
:10CCB00078742020665F6C7365656B2020666169FF
:10CCC0006C65642121210D0A0000000070B5264D1D
:10CCD0000C4624280BD0A9780026102924D009DC82
:10CCE000062903D00A291BD00D2907D170BD0120C8
:10CCF000A87070BD1229FCD01329FAD0FEF756FC9B
:10CD00000221A870102829D015DC062817D00A287F
:10CD10001AD00D28EDD16E702E7084F8401070BDC1
:10CD2000214600F025F802E0214600F07BF80028BB
:10CD3000F5D0AE7070BD12280BD01328FAD16E70EA
:10CD40002E7084F8581070BD6E702E7084F822100A
:10CD500070BD6E702E7084F85D1070BD6E702E7098
:10CD600084F8481070BD000078040020012070474E
:10CD700070B500250C462C2803D000F01BFA28467D
:10CD800070BD264E31467078401CC0B27070097874
:10CD9000801E0D283FD2DFE800F0070D3E133E193C
:10CDA0001F3E243E2D3E36000A461D492046FBF715
:10CDB00089FA30E01A48FEF7EDFB84ED020B2AE019
:10CDC0001748FEF7E7FB84ED040B24E01448FEF758
:10CDD00059FC84F820001EE01148FEF753FCE07077
:10CDE00019E00F48FEF7D6FB51EC100BF3F7FAFBF6
:10CDF000A06110E00A48FEF7CDFB51EC100BF3F7F1
:10CE0000F1FBE06107E00648FEF73CFC04F8210F67
:10CE100001206070054600203070B0E778040020E3
:10CE20004002012070B500250C462C2803D000F0EC
:10CE3000C1F9284670BD1A4E7078401CC1B2304608
:10CE400071700278022906D003290AD004290FD074
:10CE5000052922D113E0134904F14200FBF732FA0D
:10CE60001BE011460F48FEF70DFC84F8470014E064
:10CE700011460C48FEF706FC84F846000DE011460A
:10CE80000848FEF7FFFB6421B0FBF1F201FB120042
:10CE900004F8450F0120E070054600203070C8E717
:10CEA00078040020400201209FED081B10B553ECD0
:10CEB000112B51EC100BF3F793FA9FED061B53EC7B
:10CEC000112BF3F7FFFA41EC100B10BD182D445451
:10CED000FB210940000000000080664000B5A1B0C1
:10CEE00080216846F3F7F1F90DA315A27F2168466A
:10CEF000F9F79AFC19A0F9F787FC694624A0F9F71D
:10CF000083FC24A0F9F780FC2DA0F9F77DFC38A064
:10CF1000F9F77AFC11A0F9F777FC21B000BD000009
:10CF20004445564943452056455253494F4E3A329F
:10CF3000303232313132385F32310D0A00000000B8
:10CF40002D2D2D2D2D2D2D2D2D2D25732D2D2D2DD3
:10CF50002D2D2D2D2D2D2D2D0D0A00002A2A2A2AAA
:10CF60002A2A2A2A2A2A2A2A2A2A2A2A2A2A2A2A21
:10CF70002A2A2A2A2A2A2A2A2A2A2A2A2A2A2A2A11
:10CF80002A2A2A2A2A2A2A2A2A2A2A2A0D0A000092
:10CF90002573000055736520636F70793273642EBA
:10CFA00074787420746F20636F707920454D4D4301
:10CFB000206461746120746F2073642E0D0A000078
:10CFC0005573652064656C6574652E74787420747F
:10CFD0006F20636C65617220616C6C2074686520E1
:10CFE000454D4D4320646174612E0D0A0000000020
:10CFF00055736520636F6E6669677572652E696E1D
:10D000006920746F206D6F6469667920746865208B
:10D01000676E737320636F6D6D6F6E642E0D0A0003
:10D0200010B50446FEF780FA010007D02046FAF753
:10D03000A1FFBDE8104002A0F9F7E6BB10BD00005B
:10D040002D2D2D2D2D2D2D2D2D2D2D3E6465636F18
:10D0500064655F676E73735F6E6D65612066696E90
:10D060006973680D0A000000F0B5304D0C460646A5
:10D070002878E9789BB008432DD1FEF79FFE002861
:10D0800029D02B4800F066FF00F004FD297829A084
:10D09000F9F7BAFB2978E878084304D02BA0F9F710
:10D0A000B3FB0120687029782EA0F9F7ADFBEA7870
:10D0B000297832A0F9F7A8FB642101A8F3F705F954
:10D0C000E87800902B782DA2632101A8F9F7ACFB3A
:10D0D00001A801F02FFC6878354F18B3FEF76EFEFB
:10D0E00000B3B4F5806F1BD342F61400844200D91C
:10D0F0000446A505AD0D0CD0641B2146304600F05A
:10D1000089FB31192A463046F3F7C6F83D601BB05B
:10D11000F0BD1BB021463046BDE8F04000F07ABBC0
:10D120003C60F4E700203860F1E700007C04002058
:10D13000C8550120675F7374617469635F6F7065C0
:10D140006E656431203D2025640D0A00675F7374AD
:10D15000617469635F6F70656E656432203D202580
:10D16000640D0A00675F7374617469635F6F706553
:10D170006E656433203D2025640D0A0070726F6374
:10D180005F7573625F7374617469635F6D6F64650B
:10D190002D2D6D6D63206F70656E203D2025642CF4
:10D1A0007364206F70656E203D2025640D0A0000B9
:10D1B00004000020074A10B511780023182901D374
:10D1C000937010BD044C6054491CC8B210702354B5
:10D1D00010BD000078040020400201202DE9F05F1E
:10D1E0000446DDE90A68901E154673F1000005D378
:10D1F000D4E90801281A73EB010002D30220BDE82C
:10D20000F09F2078002106F0FF094FF0010B012864
:10D2100007D0022844D003285AD0022084F804B052
:10D22000EDE7D4E90EC305EB55077A0A8A461CEBF5
:10D23000020243EB0A032046FFF722FB0028EDD150
:10D24000C7F3080020445830E90703D0017869F398
:10D250001F1100E03146017084F804B0D4E90E23B8
:10D260007F1C790A521843EB0A032046FFF708FB9C
:10D270000028D3D1C7F3080121445831EA0704D06C
:10D28000320942EA0872D2B208E00A78330A43EA65
:10D29000086302F0F00203F00F031A430A70BDE7BF
:10D2A000D4E90E20290A41EA0361521840EB132306
:10D2B0002046FFF7E5FA0028B0D16919C1F308014B
:10D2C00021444FEA162281F8589081F85920A5E7A9
:10D2D000D4E90E20E90941EA4361521840EBD31327
:10D2E0002046FFF7CDFA002898D1690604EBD1510A
:10D2F00091F85B2091F85A30120642EA034202F09C
:10D300007042324301F8582F150A4D70150C45EA4A
:10D310000845120E8D7042EA0822CA707EE70000AE
:10D3200070B5ADF5327D054600241421ACA8F2F7A6
:10D33000CCFF34219FA8F2F7C8FF342192A8F2F75E
:10D34000C4FF25488079002844D092A8FDF7D4FB7B
:10D35000040001D021A032E02748929927A340F889
:10D360004E1F939941609499816092A8009026A2E3
:10D3700031219FA8F9F758FA01229FA902A8FCF7CA
:10D3800009FE010006D022A0F9F73EFA29A0F9F71C
:10D390003BFA1FE02FA0F9F737FA01241421ACA8BB
:10D3A000F2F793FF02AA1421ACA8FCF7CEFF0646C1
:10D3B00002A8FBF7D5FE0EB1102E06D22D48F9F7C4
:10D3C00023FA00200DF5327D70BD1022ACA928464D
:10D3D000F2F762FF2046F5E7A0020020656D6D635D
:10D3E0002066696E64206C6E63206661696C202122
:10D3F00021210D0A0000000080FA0020303A2F6D34
:10D400006E742F617070000025732F25730000006B
:10D410006F70656E5F66696C655F73642D2D207239
:10D42000736C74203D202564202C212121200D0ABD
:10D43000000000006F70656E206C6963656E736537
:10D440002E74787420206661696C65642021212126
:10D450000D0A00006F70656E206C6963656E736500
:10D460002E747874202073756363656564202121B0
:10D47000210D0A00509F05082DE9F04FADF53F7DC5
:10D4800089468246934600263421B2A8F2F71DFF52
:10D4900039488079002869D038A000903BA33EA28B
:10D4A0003121B2A8F9F7C0F90122B2A902A8FCF70C
:10D4B00071FD040013D0024630A139A0F9F7A4F998
:10D4C000642192A8F2F701FF2CA335A2632192A850
:10D4D0000094F9F7A9F992A801F02CFA46E027A1E7
:10D4E00037A0F9F791F90126802192A8F2F7EDFE15
:10D4F00000242746802192A8F2F7E7FE02AA8021A5
:10D5000092A8FCF722FF054603281CD97F1C92AA8B
:10D51000394631A0F9F778F9802D1DD20AEBC410F5
:10D5200080468021F2F7D1FE4046802292A9F2F790
:10D53000B3FE09F80450641CE4B21D2CDAD30026B3
:10D540002BA0F9F761F902A8FBF70AFE76B134B116
:10D55000641C8BF8004009E0002631A0F1E73A484E
:10D56000F9F752F9384801F0E5F900260DF53F7D4D
:10D570003046BDE8F08F0000A0020020636F6E66A9
:10D5800069677572652E696E69000000303A2F6D0B
:10D590006E742F617070000025732F2573000000DA
:10D5A0006F70656E20257320206661696C65642C40
:10D5B00020726573203D202564210D0A00000000C3
:10D5C0006F70656E202573202073756363656564D5
:10D5D000202121210D0A00007265616420636D64C1
:10D5E0005B25645D203D205B25735D0D0A00000016
:10D5F0007265616420636D64202D2D686173202045
:10D60000746F6F206D616E792D2D4F7574206F666C
:10D610002072616E6765202121210D0A0000000043
:10D620007265616420636D64202D746F6F206C6F70
:10D630006E672D2D4F7574206F662072616E676561
:10D64000202121210D0A0000C49E050808A0F9F739
:10D65000DBF8012080F31388BFF34F8F0C4801687B
:10D660000C4A01F4E06111430160BFF34F8FFEE704
:10D670002D2D2D2D2D2D2D2D2D2D2D2D2D2D2D2DDA
:10D680002D2D2D2D2D3E7265626F6F740D0A0000D9
:10D690000CED00E00400FA054FF480410148F5F775
:10D6A00076BB0000001002402DE9F04F89B006461D
:10D6B00090461F46901EC146BA4673F10000CDE960
:10D6C000062306D3D6E90812B8EB010077EB020077
:10D6D00001D302201FE04FF0000B54E042463B46CE
:10D6E0003046FDF77BFD05460C46084352D085F0D9
:10D6F00001002043EDD0E84320430BD00020CDE9CA
:10D70000000042463B463046FFF768FD5FEA000BEB
:10D7100040D102E0012083463CE0D6E90601C24345
:10D720000A4308D0401C41F10001C6E906017079A6
:10D7300040F00100707119F101004AF100016840E8
:10D74000614008432AD0DDE906233046FAF7FEF8A7
:10D75000CDE902014A4653463046FAF7F7F8B27867
:10D76000801841F10001401E41F1FF31CDE9040173
:10D77000707802AA0421FBF7E5FBCDE90654A9461F
:10D78000A2462746A846D6E90812B8EB010077EB77
:10D790000200A3D309B05846BDE8F08FA946A246BF
:10D7A000EFE700002DE9F04114480078002822D06E
:10D7B000134D4FF420572868B8421CD3114E3078CF
:10D7C000002818D1114C012030703A460E49E0680B
:10D7D000F2F762FD67602A680D49A2F520520A48F7
:10D7E0002A60F2F759FD002030703946E068BDE844
:10D7F000F041FFF739BCBDE8F0810000390400209A
:10D80000340000202C0000202C3D002000000020CF
:10D810002C65002033B5A1B0054680216846F2F79B
:10D8200054FD00F037F9394C607A052829D2FDF70C
:10D83000ABFE002835D0E06A012801D81F20E06245
:10D84000421EE262142A2CD822A92846F3F76CFB68
:10D8500010F0FF0060724FF0C801E16221D080211A
:10D860006846F2F732FD2AA27F216846229BF8F72C
:10D87000DBFF684601F05EF82EA02299F8F7C4FF9E
:10D880000FE0E26A4FF49670521CB2FBF0F100FB1D
:10D890001120E26228B931A0F8F7B6FF2FA001F0FD
:10D8A00049F82078E17808430FD042F61401344853
:10D8B000F2F70BFD29463248229AF2F7EDFC304987
:10D8C00040F25440229AFBF7E7FB2078012540B153
:10D8D0002C480269229881B2294800F065F850B1BD
:10D8E00065616079002804D1D4E90501084300D0BE
:10D8F000657123B030BD24A0F8F786FF22A001F0A7
:10D9000019F8002060612070EBE700007C04002023
:10D910003D3D3D3D3D20777269746520636F6465D0
:10D92000206461746120737563636573733A256461
:10D930000D0A00003D3D3D3D3D3D3D3D3D3D3D3DF4
:10D94000777269746520636F646520746F206669FF
:10D950006C65203A2025640D0A0000003D3D3D3DE8
:10D960003D3D3D3D3D3D3D3D777269746520636FB2
:10D97000646520746F2066696C650D0A0000000004
:10D98000B42D0120D85701205761726E696E672C43
:10D99000577269746520456D6D63206661696C75A9
:10D9A00072652E2E2E0D0A002DE9F0411E4D804687
:10D9B00090B0287816460F46002450B96846FDF707
:10D9C00069FE69461948FFF747F810F0FF00287014
:10D9D00026D03146154800F0BDF910F0FF0F4FF08A
:10D9E00000060AD112A0F8F70FFF11A000F0A2FF65
:10D9F0000E48F9F753FF00B12E703A4641460B48E6
:10DA000000F02CFF10F0FF040AD115A0F8F7FCFE7F
:10DA100013A000F08FFF0548F9F740FF00B12E700A
:10DA200010B02046BDE8F0817C040020D8570120CA
:10DA30007365656B5F66696C6520206661696C65FE
:10DA400064212C616E6420636C6F73652073617652
:10DA50006520646174652066696C6521210D0A008A
:10DA600077726974655F66696C6520206661696CB0
:10DA70006564212C616E6420636C6F736520736133
:10DA8000766520646174652066696C6521210D0AE4
:10DA90000000000030B51F4CA1B004F13A02511C47
:10DAA00020A8FDF7D3FC9DF8800004F1600200F58A
:10DAB000FA60A08704F1500104F15800FDF75CFB07
:10DAC000154DA87820B104F1740000F095FA05E036
:10DAD00004F16C0000F090FA0120A8700F490D4885
:10DAE000FCF7A0FF287838B910A8FDF7D3FD10A9DE
:10DAF0000B48FEF7B1FF2870E878002807D1684688
:10DB0000FDF740FE69460748FFF70CF8E87021B0C2
:10DB100030BD0000C85501207C04002058020120BF
:10DB2000D8570120185A0120F0B52DED028BA9B06D
:10DB30000C000746DFED538A2BD0534E002040F2F5
:10DB4000FF1120603162FEF771FFF061002825D0DF
:10DB500039461CA8FCF7E8FA050026D002463946EB
:10DB60004AA0F8F751FE642102A8F2F7AEFB3B464B
:10DB700046A2632102A80095F8F756FE02A800F01D
:10DB8000D9FE0020F169FEF745FF2068002852D039
:10DB900057E0132029B0BDEC028BF0BD46A0F8F78A
:10DBA00033FE45A000F0C6FEF3E737491CA8FCF79A
:10DBB000EAFB05003BD1707BC0B32E28F5D0F56998
:10DBC000287808B9304D0D35307BC006EDD4D6E944
:10DBD0000001F2F7E6FC00EE100ADFED400A20EE4D
:10DBE000208A18EE100AF2F7EAFC41EC100B2946E5
:10DBF00053EC102B3AA0F8F707FE642102A8F2F7C5
:10DC000064FB18EE100AF2F7DAFCCDE900012B46AE
:10DC100033A2632102A8F8F707FE02A800F08AFEEB
:10DC2000206878EE888A401C2060BEE7FFE71CA8C9
:10DC3000FBF7A4FAA5E731A0F8F7E6FD2FA000F066
:10DC400079FE18EE900AF2F7BAFC41EC100B36A000
:10DC500053EC102B2168F8F7D7FD642102A8F2F7E6
:10DC600034FB18EE900AF2F7AAFCCDE900012EA2CF
:10DC7000632102A82368F8F7D7FD02A800F05AFE36
:10DC8000284687E70000000018FA00207363616EE1
:10DC90005F66696C65732D6F70656E6469722025AF
:10DCA00073206661696C6564202C726573203D2069
:10DCB00025640D0A000000007363616E5F66696C85
:10DCC0006573206966284E554C4C203D3D20666E9C
:10DCD0006F2E6C666E616D65290D0A00000080353F
:10DCE00025732D2D2D2D2D2D2D2D2D2D2D53697A77
:10DCF000653A252E32664D0D0A0000007363616E91
:10DD00005F66696C6573202D2D697320656D707475
:10DD10007920616E642066696C655F6E756D203D6B
:10DD200020300D0A000000000D0A5468657265205D
:10DD30006172652025642066696C65732C20612002
:10DD4000746F74616C206F6620252E32664D0D0A4B
:10DD50000D0A000010B50A460146094801248079E1
:10DD600048B100230846FBF7A2FA040003D001469D
:10DD700004A0F8F749FD0CB1002010BD012010BD32
:10DD8000A00200207365656B5F66696C65202D2DB0
:10DD90002D665F6C7365656B206661696C65642CCC
:10DDA00020726573203D2025640D0A00AFF30080CA
:10DDB000034A10B5D26892689047012010BD000058
:10DDC00038040020F0B587B004466F4602AE04ADBB
:10DDD0002A4631463846FDF7CFF99DED000BFFF797
:10DDE00063F88DED000B9DED020BFFF75DF88DEDF7
:10DDF000020B0020C0F107017A5C22542218735CE8
:10DE00001372401C695CC0B211740828F2D307B0C9
:10DE1000F0BD10B5002303E0445C491C234489B2E3
:10DE20009142F9D3835410BD10B58AB020216846C1
:10DE3000F2F74BFA00208DF8200008AA69460D4839
:10DE4000FFF71AFB040010D09DF82020694609480E
:10DE500000F042F8040005D107A0F8F7D5FC06A0B1
:10DE600000F068FD0AB0204610BD12A0F8F7CCFC07
:10DE700010A0F5E720E30020416674657220676515
:10DE80007420676E737320636D642066726F6D20FB
:10DE9000636F6E6669672066696C652C20736574B4
:10DEA0002074686520636D64206661696C210D0AC9
:10DEB000000000007265616420676E737320636DFB
:10DEC000642066726F6D20636F6E6669672066619D
:10DED000696C6520210D0A002DE9F04100259AB0FA
:10DEE0000F4680462C46561EB4420EDA395D08EBCA
:10DEF000C4100022FFF75AFF05000AD06420FAF789
:10DF000017FA641CE4B21E2CEED31AB02846BDE802
:10DF1000F081611C08A0F8F777FC64216846F2F7ED
:10DF2000D4F9631C04A263216846F8F77DFC6846B7
:10DF300000F000FDE9E7000073657420676E7373FD
:10DF400020636D642564206661696C65640D0A0D4B
:10DF50000A00000070B504461EA1F2F7E6F900259C
:10DF6000A57784F87E5021A104F1A700F2F7DDF92E
:10DF70001EA104F1B600F2F7D8F916A104F1CB0006
:10DF8000F2F7D3F984F8355084F8365084F83750D6
:10DF900084F8385084F83950012084F8680084F8F7
:10DFA0007D50A4F86A5084F87C00022184F8921015
:10DFB00084F8935084F8CA501720C4F89400C4F829
:10DFC0009800C4F89C00C4F8A00084F8A41084F859
:10DFD000A65070BD434146552D47505320434F4CEA
:10DFE0004C454354454420444154410046696C65C6
:10DFF0006470726F000000001FB5044603AA01A9F7
:10E0000002A8FDF797FA9DF80C1000919DF80430D6
:10E010009DF8082002A12046F8F720FC1FBD000053
:10E02000253032643A253032643A253032640000BB
:10E0300010B518A0F8F7E8FB234C94F8660230B14D
:10E04000012806D0022820D0032805D11FE01FA0F8
:10E0500000E024A0F8F7D8FB94F83C1227A004F5C0
:10E060000F74F8F7D1FB218D2AA0F8F7CDFBD4E986
:10E070000710090D41EA00312AA0F8F7C5FB616AD3
:10E08000BDE810402DA0F8F7BFBB31A0E2E736A0F5
:10E09000E0E700002A2A2A2A2A2A2A2A2A2A2A6586
:10E0A0004D4D4320494E464F2A2A2A2A2A2A2A2AF7
:10E0B0002A2A2A2A2A2A2A2A2A2A2A2A2A2A2A2AC0
:10E0C0002A2A0D0A0000000028AE00204361726475
:10E0D00020547970653A534453432056312E310D04
:10E0E0000A0000004361726420547970653A534419
:10E0F00053432056322E300D0A0000004D4D432070
:10E100004D616E75666163747572657249443A2536
:10E11000640D0A004D4D43205243413A25640D0AD7
:10E12000000000004D4D43204361706163697479C4
:10E130003A2564204D420D0A000000004D4D432059
:10E14000426C6F636B53697A653A25640D0A00006F
:10E150004361726420547970653A534448432056B1
:10E16000322E300D0A000000436172642054797031
:10E17000653A4D4D4320436172640D0A0000000072
:10E1800010B517A0F8F740FB2248F5F71FF8214C0F
:10E1900094F84E0030B1012806D002281BD0042884
:10E1A00005D11AE01CA000E022A0F8F72DFB14F81E
:10E1B0002C1F26A0F8F728FB218C2BA0F8F724FBB6
:10E1C000A069810A2CA0F8F71FFBE169BDE81040A7
:10E1D0002FA0F8F719BB34A0E7E739A0E5E7000066
:10E1E0002A2A2A2A2A2A2A2A2A2A2A5446436172B1
:10E1F0006420494E464F2A2A2A2A2A2A2A2A2A2ACB
:10E200002A2A2A2A2A2A2A2A2A2A2A2A2A2A2A2A6E
:10E210000D0A0000D43400204361726420547970E8
:10E22000653A43415244545950455F4D4D430D0AA0
:10E23000000000004361726420547970653A5344D1
:10E2400053432056312E310D0A00000054464361DD
:10E250007264204D616E7566616374757265724992
:10E26000443A25640D0A000054464361726420520A
:10E2700043413A25640D0A005446436172642043C9
:10E28000617061636974793A2564204D420D0A001A
:10E2900054464361726420426C6F636B53697A65C4
:10E2A0003A25640D0A0000004361726420547970BD
:10E2B000653A534453432056322E300D0A00000075
:10E2C0004361726420547970653A53444843205640
:10E2D000322E300D0A0000002DE9F04F4FF0000BF8
:10E2E0008A465B4630E0AAEB03010022A1F1010956
:10E2F00027E002EB420150F8214000EB8101CF689A
:10E30000BC420CD9D1E90156D1E904C801F10C0E87
:10E31000C1F808808EE87000C1E9007C10E00FD1E0
:10E320000E694D68B5420BD9D1F814C0D1F80880F8
:10E3300001F10C0EC1F808C08EE83001C1E9007689
:10E34000521C9145D5D85B1C5345CCD35846BDE8EB
:10E35000F08F8276110AC176110C41EA03410175F2
:10E36000090A41757047000070B5054610A0F8F71E
:10E370004BFA2E460024134D012E0ED112A0F8F7B1
:10E3800043FAFDF74FFC31460400A97005D024B1D3
:10E390004FF47A710920FDF7FDFC2CB913A0F8F7B2
:10E3A00033FA12A000F0C6FA0020E870204670BDD3
:10E3B000737461727420776F726B206D6F64650D7A
:10E3C0000A000000AC0400206E65775F776F726B07
:10E3D0005F6D6F646520697320574F524B5F4D4FDF
:10E3E00044455F5354415449430D0A0073746172AC
:10E3F0007420776F726B206D6F6465206661696C45
:10E4000065642D2D2D73657420474E535320636D25
:10E4100064206661696C6564210D0A0070B50B4665
:10E420007AB10446521E01E0401C5B1C05781E7840
:10E43000B542F9D016F0FF0F01D0601CEFE720467F
:10E4400070BD002070BD014600200B22430803EB85
:10E45000C01011F8013B521E1844C0B2F6D17047EB
:10E46000F8B5044600F065F8050060D1207803286F
:10E4700056D16079012853D1420204F1580000219D
:10E480000646FEF71FF9552084F85602AA2084F8A4
:10E490005702522084F8580084F85900612284F809
:10E4A0005A20412084F85B00722184F83C1284F8E1
:10E4B0003D1284F83E0284F83F22208B84F840020B
:10E4C000000A84F84102A069217F020C42EA01425D
:10E4D000000E84F8422240EA012084F84302208A98
:10E4E00084F84402000A84F845022069217D020C68
:10E4F00042EA0142000E40EA012084F8462284F8F4
:10E500004702D4E90C20521C40F100030120C4E969
:10E510001423009060783146FAF796FD0020607170
:10E52000002260781146FAF70DFD00B1012528465A
:10E53000F8BD2DE9F8430446007970B3D4E91465B9
:10E540004FF00108CDF8008004F1580160783246A0
:10E550002B468946FAF778FD10B10120BDE8F88313
:10E5600000202071D4E90E12711A65EB0200D4E983
:10E570000A23891A984110D2E7780CE0D4E90A10EE
:10E580008E194541CDF80080607832462B464946C9
:10E59000FAF75AFD7F1E022FF0D20020DEE7401E60
:10E5A000FDD17047F0B50646012187B00846F5F762
:10E5B0003FFD01211020F5F75FFD234D07220921C2
:10E5C0002846F4F7CBFB07220A212846F4F7C6FBBE
:10E5D00002218DF814108DF815104FF4C06000243E
:10E5E00004908DF8164001278DF8177004A928466D
:10E5F000F4F778FBADF80440ADF80640ADF80840FC
:10E60000ADF80C400C20114CADF80A00009669469C
:10E610002046F6F72BFE01212046F6F7DFFD01220A
:10E6200040F225512046F6F709FE25208DF8180006
:10E6300003208DF819008DF81A008DF81B7006A8BC
:10E64000F5F7C2FB07B0F0BD00000240001001402A
:10E6500070B5074C054640212046F6F7C9FD002855
:10E66000F9D029462046BDE87040F6F759BE0000B3
:10E670000014014008B52C48002500902C462B4B77
:10E680002B4A01212B48F6F7C8FF40F261132A4AB2
:10E690002AA12CA0F8F7B8F8314E324FAA46012033
:10E6A000F9F746FE397889451DD03878C00702D081
:10E6B0002DA0F8F7A9F83878800702D52DA0F8F733
:10E6C000A3F83878400701D52DA000E030A0F8F776
:10E6D0009BF83878000701D530A000E02CA0F8F7AF
:10E6E00093F897F800903178884507D03078012862
:10E6F0000FD02FA0F8F788F896F800806D1CEDB2C7
:10E70000C82DCCD138780025C00604D500240120BE
:10E7100006E02CA0EEE7641CE4B20A2C01D95046B6
:10E72000307087F800A0BAE7B4010020E4000020B0
:10E7300058010020E02C00205CEA02086D61696E3F
:10E740002E63000066696C653D25732C66756E63EB
:10E750003D25732C6C696E653D25640D0A00000033
:10E76000B00100208A01002077726974652E2E2E78
:10E770002E0D0A00726561642E2E2E2E0D0A0000E9
:10E7800072656164206572722E2E2E2E0D0A0000B5
:10E79000636C65616E2E2E2E0D0A000055534220CB
:10E7A000526561642020457272200D0A000000004D
:10E7B00055534220446973436F6E6E65637465649C
:10E7C0002000000055534220436F6E6E65637465F0
:10E7D000642020202000000010B538B1016829B164
:10E7E0000A781AB1CA888088824201D0092010BDF7
:10E7F0004878FAF71DFCC007F9D0032010BD0000CF
:10E8000010B54FF40773074A07A10CA0F7F7FCFFF8
:10E81000002209211048FFF7C9FA012800D0022080
:10E8200010BD0000819905082E2E5C4150505C43BC
:10E830006D6454726D622E630000000066696C6541
:10E840003D25732C66756E633D25732C6C696E6572
:10E850003D25640D0A00000039980508F8B5174FEA
:10E8600006460124B8791546002821D06B4630466B
:10E87000FBF73FFF040008D0014611A0F7F7C4FFE3
:10E88000012C02D17879401C78710099A94205D0F9
:10E890002A4616A0F7F7B8FF022409E044B930462B
:10E8A000FBF764FE040003D0014618A0F7F7ACFFA5
:10E8B0000CB10020F8BD0120F8BD0000A00200202E
:10E8C00077726974655F66696C65202D2D2D665FB2
:10E8D0007772697465206661696C65642C20726565
:10E8E00073203D2025640D0A0000000077726974D2
:10E8F000655F66696C652D2D6272203D2025642C54
:10E900006C656E203D2025642C0D0A0077726974B9
:10E91000655F66696C65202D2D2D665F73796E636A
:10E92000206661696C65642C20726573203D20252A
:10E93000640D0A00F8B51D4E05460124B079002883
:10E940002ED0707800282BD02846F1F7E7FC02463D
:10E950006B4629461648FBF7CCFE040009D0024658
:10E96000294614A0F7F750FF012C02D1F078401C83
:10E97000F0702846F1F7D2FC009A904205D0294663
:10E980001AA0F7F741FF02240AE04CB90848FBF748
:10E99000EDFD040004D00246294621A0F7F734FF1C
:10E9A0000CB10020F8BD0120F8BD0000A00200203D
:10E9B000E0FA00204150502077726974655F6C6FF7
:10E9C000675F62756666206661696C21202C206233
:10E9D000756666203D2025732C20726573203D20CE
:10E9E000256420212121200D0A000000777269741E
:10E9F000655F6C6F675F627566662D6661696C2125
:10EA00002D2C62756666203D2025732C20627220B5
:10EA10003D202564202C212121200D0A000000002A
:10EA200077726974655F6C6F675F62756666202DCB
:10EA30002D2D665F73796E63206661696C65642C49
:10EA40002062756666203D2025732C207265732038
:10EA50003D20256420212121200D0A007573625F6D
:10EA6000696E69740055415254365265637644614B
:10EA700074610000A400E8A1A700ECA1A800A7A170
:10EA8000B000E3A1B100C0A1B700A4A1D700C1A10B
:10EA9000E000A4A8E100A2A8E800A8A8E900A6A8B0
:10EAA000EA00BAA8EC00ACA8ED00AAA8F200B0A851
:10EAB000F300AEA8F700C2A1F900B4A8FA00B2A80A
:10EAC000FC00B9A80101A1A81301A5A81B01A7A8D2
:10EAD0002B01A9A84401BDA84801BEA84D01ADA8BD
:10EAE0006B01B1A8CE01A3A8D001ABA8D201AFA8F9
:10EAF000D401B3A8D601B5A8D801B6A8DA01B7A841
:10EB0000DC01B8A85102BBA86102C0A8C702A6A137
:10EB1000C902A5A1CA0240A8CB0241A8D90242A8B5
:10EB20009103A1A69203A2A69303A3A69403A4A66D
:10EB30009503A5A69603A6A69703A7A69803A8A63D
:10EB40009903A9A69A03AAA69B03ABA69C03ACA60D
:10EB50009D03ADA69E03AEA69F03AFA6A003B0A6DD
:10EB6000A103B1A6A303B2A6A403B3A6A503B4A6AA
:10EB7000A603B5A6A703B6A6A803B7A6A903B8A679
:10EB8000B103C1A6B203C2A6B303C3A6B403C4A60D
:10EB9000B503C5A6B603C6A6B703C7A6B803C8A6DD
:10EBA000B903C9A6BA03CAA6BB03CBA6BC03CCA6AD
:10EBB000BD03CDA6BE03CEA6BF03CFA6C003D0A67D
:10EBC000C103D1A6C303D2A6C403D3A6C503D4A64A
:10EBD000C603D5A6C703D6A6C803D7A6C903D8A619
:10EBE0000104A7A71004A1A71104A2A71204A3A7B8
:10EBF0001304A4A71404A5A71504A6A71604A8A780
:10EC00001704A9A71804AAA71904ABA71A04ACA74C
:10EC10001B04ADA71C04AEA71D04AFA71E04B0A71C
:10EC20001F04B1A72004B2A72104B3A72204B4A7EC
:10EC30002304B5A72404B6A72504B7A72604B8A7BC
:10EC40002704B9A72804BAA72904BBA72A04BCA78C
:10EC50002B04BDA72C04BEA72D04BFA72E04C0A75C
:10EC60002F04C1A73004D1A73104D2A73204D3A7FF
:10EC70003304D4A73404D5A73504D6A73604D8A7BF
:10EC80003704D9A73804DAA73904DBA73A04DCA78C
:10EC90003B04DDA73C04DEA73D04DFA73E04E0A75C
:10ECA0003F04E1A74004E2A74104E3A74204E4A72C
:10ECB0004304E5A74404E6A74504E7A74604E8A7FC
:10ECC0004704E9A74804EAA74904EBA74A04ECA7CC
:10ECD0004B04EDA74C04EEA74D04EFA74E04F0A79C
:10ECE0004F04F1A75104D7A710205CA9132043A813
:10ECF0001420AAA1152044A81620ACA11820AEA16A
:10ED00001920AFA11C20B0A11D20B1A1252045A82C
:10ED10002620ADA13020EBA13220E4A13320E5A1D3
:10ED2000352046A83B20F9A1AC2080000321E6A1B4
:10ED3000052147A8092148A81621EDA1212159A99B
:10ED40006021F1A26121F2A26221F3A26321F4A267
:10ED50006421F5A26521F6A26621F7A26721F8A237
:10ED60006821F9A26921FAA26A21FBA26B21FCA207
:10ED70007021A1A27121A2A27221A3A27321A4A237
:10ED80007421A5A27521A6A27621A7A27721A8A207
:10ED90007821A9A27921AAA29021FBA19121FCA10D
:10EDA0009221FAA19321FDA1962149A897214AA871
:10EDB00098214BA899214CA80822CAA10F22C7A1CB
:10EDC0001122C6A115224DA81A22CCA11D22D8A11C
:10EDD0001E22DEA11F224EA82022CFA123224FA84F
:10EDE0002522CEA12722C4A12822C5A12922C9A15A
:10EDF0002A22C8A12B22D2A12E22D3A13422E0A103
:10EE00003522DFA13622C3A13722CBA13D22D7A1D3
:10EE10004822D6A14C22D5A1522250A86022D9A1C5
:10EE20006122D4A16422DCA16522DDA1662251A861
:10EE3000672252A86E22DAA16F22DBA1952292A846
:10EE40009922D1A1A522CDA1BF2253A81223D0A1DE
:10EE50006024D9A26124DAA26224DBA26324DCA2AA
:10EE60006424DDA26524DEA26624DFA26724E0A27A
:10EE70006824E1A26924E2A27424C5A27524C6A272
:10EE80007624C7A27724C8A27824C9A27924CAA26A
:10EE90007A24CBA27B24CCA27C24CDA27D24CEA23A
:10EEA0007E24CFA27F24D0A28024D1A28124D2A20A
:10EEB0008224D3A28324D4A28424D5A28524D6A2DA
:10EEC0008624D7A28724D8A28824B1A28924B2A2FA
:10EED0008A24B3A28B24B4A28C24B5A28D24B6A21A
:10EEE0008E24B7A28F24B8A29024B9A29124BAA2EA
:10EEF0009224BBA29324BCA29424BDA29524BEA2BA
:10EF00009624BFA29724C0A29824C1A29924C2A289
:10EF10009A24C3A29B24C4A20025A4A90125A5A9C3
:10EF20000225A6A90325A7A90425A8A90525A9A9FD
:10EF30000625AAA90725ABA90825ACA90925ADA9CD
:10EF40000A25AEA90B25AFA90C25B0A90D25B1A99D
:10EF50000E25B2A90F25B3A91025B4A91125B5A96D
:10EF60001225B6A91325B7A91425B8A91525B9A93D
:10EF70001625BAA91725BBA91825BCA91925BDA90D
:10EF80001A25BEA91B25BFA91C25C0A91D25C1A9DD
:10EF90001E25C2A91F25C3A92025C4A92125C5A9AD
:10EFA0002225C6A92325C7A92425C8A92525C9A97D
:10EFB0002625CAA92725CBA92825CCA92925CDA94D
:10EFC0002A25CEA92B25CFA92C25D0A92D25D1A91D
:10EFD0002E25D2A92F25D3A93025D4A93125D5A9ED
:10EFE0003225D6A93325D7A93425D8A93525D9A9BD
:10EFF0003625DAA93725DBA93825DCA93925DDA98D
:10F000003A25DEA93B25DFA93C25E0A93D25E1A95C
:10F010003E25E2A93F25E3A94025E4A94125E5A92C
:10F020004225E6A94325E7A94425E8A94525E9A9FC
:10F030004625EAA94725EBA94825ECA94925EDA9CC
:10F040004A25EEA94B25EFA9502554A8512555A8CE
:10F05000522556A8532557A8542558A8552559A8D0
:10F0600056255AA857255BA858255CA859255DA8A0
:10F070005A255EA85B255FA85C2560A85D2561A870
:10F080005E2562A85F2563A8602564A8612565A840
:10F09000622566A8632567A8642568A8652569A810
:10F0A00066256AA867256BA868256CA869256DA8E0
:10F0B0006A256EA86B256FA86C2570A86D2571A8B0
:10F0C0006E2572A86F2573A8702574A8712575A880
:10F0D000722576A8732577A8812578A8822579A836
:10F0E00083257AA884257BA885257CA886257DA8EC
:10F0F00087257EA8882580A8892581A88A2582A8B9
:10F100008B2583A88C2584A88D2585A88E2586A887
:10F110008F2587A8932588A8942589A895258AA84E
:10F12000A025F6A1A125F5A1B225F8A1B325F7A147
:10F13000BC258BA8BD258CA8C625F4A1C725F3A1A5
:10F14000CB25F0A1CE25F2A1CF25F1A1E2258DA8F6
:10F15000E3258EA8E4258FA8E52590A80526EFA134
:10F160000626EEA1092691A84026E2A14226E1A1A9
:10F170000030A1A10130A2A10230A3A10330A8A1B7
:10F180000530A9A1063065A9073096A90830B4A1B9
:10F190000930B5A10A30B6A10B30B7A10C30B8A127
:10F1A0000D30B9A10E30BAA10F30BBA11030BEA1F5
:10F1B0001130BFA1123093A81330FEA11430B2A1B8
:10F1C0001530B3A11630BCA11730BDA11D3094A8D5
:10F1D0001E3095A8213040A9223041A9233042A9F0
:10F1E000243043A9253044A9263045A9273046A913
:10F1F000283047A9293048A94130A1A44230A2A40F
:10F200004330A3A44430A4A44530A5A44630A6A40A
:10F210004730A7A44830A8A44930A9A44A30AAA4DA
:10F220004B30ABA44C30ACA44D30ADA44E30AEA4AA
:10F230004F30AFA45030B0A45130B1A45230B2A47A
:10F240005330B3A45430B4A45530B5A45630B6A44A
:10F250005730B7A45830B8A45930B9A45A30BAA41A
:10F260005B30BBA45C30BCA45D30BDA45E30BEA4EA
:10F270005F30BFA46030C0A46130C1A46230C2A4BA
:10F280006330C3A46430C4A46530C5A46630C6A48A
:10F290006730C7A46830C8A46930C9A46A30CAA45A
:10F2A0006B30CBA46C30CCA46D30CDA46E30CEA42A
:10F2B0006F30CFA47030D0A47130D1A47230D2A4FA
:10F2C0007330D3A47430D4A47530D5A47630D6A4CA
:10F2D0007730D7A47830D8A47930D9A47A30DAA49A
:10F2E0007B30DBA47C30DCA47D30DDA47E30DEA46A
:10F2F0007F30DFA48030E0A48130E1A48230E2A43A
:10F300008330E3A48430E4A48530E5A48630E6A409
:10F310008730E7A48830E8A48930E9A48A30EAA4D9
:10F320008B30EBA48C30ECA48D30EDA48E30EEA4A9
:10F330008F30EFA49030F0A49130F1A49230F2A479
:10F340009330F3A49B3061A99C3062A99D3066A9DB
:10F350009E3067A9A130A1A5A230A2A5A330A3A584
:10F36000A430A4A5A530A5A5A630A6A5A730A7A51D
:10F37000A830A8A5A930A9A5AA30AAA5AB30ABA5ED
:10F38000AC30ACA5AD30ADA5AE30AEA5AF30AFA5BD
:10F39000B030B0A5B130B1A5B230B2A5B330B3A58D
:10F3A000B430B4A5B530B5A5B630B6A5B730B7A55D
:10F3B000B830B8A5B930B9A5BA30BAA5BB30BBA52D
:10F3C000BC30BCA5BD30BDA5BE30BEA5BF30BFA5FD
:10F3D000C030C0A5C130C1A5C230C2A5C330C3A5CD
:10F3E000C430C4A5C530C5A5C630C6A5C730C7A59D
:10F3F000C830C8A5C930C9A5CA30CAA5CB30CBA56D
:10F40000CC30CCA5CD30CDA5CE30CEA5CF30CFA53C
:10F41000D030D0A5D130D1A5D230D2A5D330D3A50C
:10F42000D430D4A5D530D5A5D630D6A5D730D7A5DC
:10F43000D830D8A5D930D9A5DA30DAA5DB30DBA5AC
:10F44000DC30DCA5DD30DDA5DE30DEA5DF30DFA57C
:10F45000E030E0A5E130E1A5E230E2A5E330E3A54C
:10F46000E430E4A5E530E5A5E630E6A5E730E7A51C
:10F47000E830E8A5E930E9A5EA30EAA5EB30EBA5EC
:10F48000EC30ECA5ED30EDA5EE30EEA5EF30EFA5BC
:10F49000F030F0A5F130F1A5F230F2A5F330F3A58C
:10F4A000F430F4A5F530F5A5F630F6A5FC3060A9EA
:10F4B000FD3063A9FE3064A90531C5A80631C6A890
:10F4C0000731C7A80831C8A80931C9A80A31CAA894
:10F4D0000B31CBA80C31CCA80D31CDA80E31CEA864
:10F4E0000F31CFA81031D0A81131D1A81231D2A834
:10F4F0001331D3A81431D4A81531D5A81631D6A804
:10F500001731D7A81831D8A81931D9A81A31DAA8D3
:10F510001B31DBA81C31DCA81D31DDA81E31DEA8A3
:10F520001F31DFA82031E0A82131E1A82231E2A873
:10F530002331E3A82431E4A82531E5A82631E6A843
:10F540002731E7A82831E8A82931E9A82032E5A227
:10F550002132E6A22232E7A22332E8A22432E9A233
:10F560002532EAA22632EBA22732ECA22832EDA203
:10F570002932EEA231325AA9A33249A98E334AA9BF
:10F580008F334BA99C334CA99D334DA99E334EA973
:10F59000A1334FA9C43350A9CE3351A9D13352A9B5
:10F5A000D23353A9D53354A9004EBBD2014EA1B6D4
:10F5B000024E4081034EDFC6044E4181054E42811A
:10F5C000064E4381074EF2CD084EC9D5094EFDC8FF
:10F5D0000A4ECFC90B4EC2CF0C4EA2D80D4EBBB2B5
:10F5E0000E4EEBD30F4E4481104EA4D8114EF3B300
:10F5F000124E4581134EA8D7144ED2C7154EA7D828
:10F60000164EC0CA174E4681184EF0C7194EFBB1B0
:10F610001A4EB5D21B4ED4B41C4EABB61D4EBFCB4A
:10F620001E4EA9D81F4E4781204E4881214E498148
:10F63000224EAAB6234E4A81244EBDC1254ECFD1BB
:10F64000264E4B81274EA5C9284EADD8294E4C8158
:10F650002A4EF6B82B4EBED12C4EDCE32D4ED0D622
:10F660002E4E4D812F4E4E81304EE1B7314E4F819F
:10F67000324EAEB4334E5081344ED9C1354E5181E5
:10F68000364EBCD8374E5281384EE8CD394EA4B5EF
:10F690003A4EAACE3B4EF7D63C4E53813D4EF6C075
:10F6A0003E4ED9BE3F4EAFD8404E5481414E55815B
:10F6B000424E5681434ECBC4444E5781454EC3BE45
:10F6C000464E5881474EB1D8484EB4C3494EE5D254
:10F6D0004A4E59814B4EAED64C4EDACE4D4EA7D542
:10F6E0004E4EF5BA4F4EA6B7504ED6C0514E5A8127
:10F6F000524EB9C6534ED2C5544EC7C7554E5B8104
:10F70000564ED4B9574E5C81584ECBB3594ED2D2D7
:10F710005A4E5D815B4E5E815C4EBFD85D4EC5BE6C
:10F720005E4EF2C65F4EB2D2604EB0CF614EE7CFB2
:10F73000624E5F81634E6081644E6181654E62817D
:10F74000664EE9CA674E6381684E6481694EC0D8CF
:10F750006A4E65816B4E66816C4E67816D4E688125
:10F760006E4E69816F4E6A81704EF2C2714ED2C286
:10F77000724E6B81734EE9C8744E6C81754E6D810B
:10F78000764E6E81774E6F81784E7081794E7181A1
:10F790007A4E72817B4E73817C4E74817D4E758171
:10F7A0007E4EACC77F4E7681804E7781814E7881C8
:10F7B000824E7981834E7A81844E7B81854E7C8115
:10F7C000864ECBC1874E7D81884EE8D3894EF9D5D0
:10F7D0008A4E7E818B4EC2CA8C4EFEB68D4EA1D80B
:10F7E0008E4EDAD38F4EF7BF904E8081914EC6D4A5
:10F7F000924EA5BB934EC1D8944EE5CE954EAEBE6B
:10F80000964E8181974E8281984EA8D8994E8381D9
:10F810009A4EC7D19B4EA9D09C4E84819D4E858126
:10F820009E4E86819F4EBDD8A04EEFD9A14EF6CDFB
:10F83000A24EBABFA34E8781A44EBBBDA54EA5BAAA
:10F84000A64EE0D2A74EFAB2A84EE0BAA94EB6C470
:10F85000AA4E8881AB4EEDCFAC4EA9BEAD4EA4CD25
:10F86000AE4EC1C1AF4E8981B04E8A81B14E8B81FF
:10F87000B24ED7C7B34EF1D9B44E8C81B54EF4D940
:10F88000B64E8D81B74E8E81B84E8F81B94E908124
:10F89000BA4ECBC8BB4EE9D8BC4E9181BD4E9281C9
:10F8A000BE4E9381BF4EDAD2C04EB2CAC14ECAC854
:10F8B000C24EECD8C34EEAD8C44EC6D8C54EF6BD2B
:10F8C000C64ECDC6C74EF0B3C84E9481C94EEBD8D4
:10F8D000CA4EF1BDCB4EE9BDCC4E9581CD4ED4C8BC
:10F8E000CE4ED3B4CF4E9681D04E9781D14ED8C252
:10F8F000D24E9881D34ED6B2D44ED0D7D54ECBCAA5
:10F90000D64EFBCBD74ECCD5D84EB6B8D94EC9CFF4
:10F91000DA4E9981DB4E9A81DC4E9B81DD4EDAD93D
:10F92000DE4EF0D8DF4EAAC7E04E9C81E14EEED805
:10F93000E24E9D81E34EFAB4E44EEEC1E54ED4D2E0
:10F94000E64E9E81E74E9F81E84EEDD8E94EA081BC
:10F95000EA4EC7D2EB4EEFD8EC4EC7C3ED4EA181B5
:10F96000EE4EA281EF4EA381F04EF6D1F14EA4816E
:10F97000F24ED9D6F34EF2D8F44EA581F54EF5D815
:10F98000F64EFEBCF74EDBBCF84EA681F94EA781C1
:10F99000FA4EA881FB4ECEC8FC4EA981FD4EDDB7C4
:10F9A000FE4EAA81FF4EC2B7004FAB81014FF3C696
:10F9B000024FAC81034FAD81044FAE81054FAF8143
:10F9C000064FB081074FB181084FB281094FF8D877
:10F9D0000A4FC1D20B4FB3810C4FB4810D4FE9CE0A
:10F9E0000E4FBFBC0F4FFCB7104FA5B7114FDDD066
:10F9F000124FB581134FB681144FB781154FB8819F
:10FA0000164FB981174FDAD6184FC5D3194FEFBB30
:10FA10001A4FE1BB1B4FF1D81C4FBA811D4FBB8160
:10FA20001E4FA1C91F4FB0CE204FABB4214FBC8198
:10FA3000224FF3D8234FBD81244FCBC9254FF6D891
:10FA4000264FD7C2274FF7D8284FBE81294FBF81F5
:10FA50002A4FB1CE2B4FF9D82C4FC0812D4FC181E9
:10FA60002E4FC2812F4FAEB2304FC0B9314FC3813C
:10FA7000324FA3D9334FC481344FE9B0354FC581DC
:10FA8000364FE6C1374FC681384FECC9394FC78171
:10FA90003A4FC5CB3B4FC8813C4FC6CB3D4FA4D955
:10FAA0003E4FC9813F4FCA81404FCB81414FCC81EE
:10FAB000424FCD81434FE8B5444FCE81454FCF8172
:10FAC000464FABB5474FD081484FD181494FD28186
:10FAD0004A4FD3814B4FD4814C4FD5814D4FBBCE34
:10FAE0004E4FCDB54F4FA1D7504FF4D7514FD3D331
:10FAF000524FD681534FE5CC544FD781554FCEBA94
:10FB0000564FD881574FA2D9584FDCD9594FE0D31F
:10FB10005A4FFDD85B4FF0B75C4FF7D75D4FFED81B
:10FB20005E4FFAD85F4FA1D9604FE3C4614FD981CE
:10FB3000624FDA81634FB6D3644FF4D8654FDDD995
:10FB4000664FDB81674FFBD8684FDC81694FE5C5A5
:10FB50006A4FDD816B4FDE816C4FD0C06D4FDF810E
:10FB60006E4FE0816F4FF0D1704FDBB0714FE1818C
:10FB7000724FE281734FD1BC744FA6D9754FE381A8
:10FB8000764FA5D9774FE481784FE581794FE681AB
:10FB90007A4FE7817B4FACD97C4FAED97D4FE8815E
:10FBA0007E4FABD97F4FB9CA804FE981814FEA813F
:10FBB000824FEB81834FA9D9844FB6D6854FEC8114
:10FBC000864FED81874FEE81884FDEB3894FA8D9EC
:10FBD0008A4FEF818B4FFDC08C4FF0818D4FCCCA87
:10FBE0008E4FF1818F4FAAD9904FF281914FA7D9B3
:10FBF000924FF381934FF481944FB0D9954FF58193
:10FC0000964FF681974FB1B6984FF781994FF8818B
:10FC10009A4FF9819B4FA9B99C4FFA819D4FC0D251
:10FC20009E4FFB819F4FFC81A04FC0CFA14FFD8114
:10FC3000A24FFE81A34FC2C2A44F4082A54FC4BDB4
:10FC4000A64FECD5A74FE0B2A84FC8C7A94FEBBF4E
:10FC5000AA4FADD9AB4F4182AC4FAFD9AD4F428225
:10FC6000AE4FEACEAF4FEEBAB04F4382B14F4482AF
:10FC7000B24F4582B34F4682B44F4782B54FD6C785
:10FC8000B64F4882B74F4982B84F4A82B94F4B822C
:10FC9000BA4F4C82BB4F4D82BC4F4E82BD4F4F82FC
:10FCA000BE4F5082BF4FE3B1C04F5182C14F52820D
:10FCB000C24F5382C34FD9B4C44FEDB6C54FB4D968
:10FCC000C64F5482C74F5582C84F5682C94F57827C
:10FCD000CA4FA1BFCB4F5882CC4F5982CD4F5A82C9
:10FCE000CE4FDED9CF4FCEC7D04FFEC0D14FB8D9FF
:10FCF000D24F5B82D34F5C82D44F5D82D54F5E8200
:10FD0000D64F5F82D74FD7CBD84FFDB7D94F608240
:10FD1000DA4FB5D9DB4F6182DC4FB7D9DD4FA3B1E4
:10FD2000DE4FE1D3DF4FB9D9E04F6282E14FC5D05A
:10FD3000E24F6382E34FB6D9E44F6482E54F6582B8
:10FD4000E64FB1D9E74F6682E84FB2D9E94FA9C172
:10FD5000EA4FB3D9EB4F6782EC4F6882ED4FF3BCAB
:10FD6000EE4FDED0EF4FA9B8F04F6982F14FE3BEFE
:10FD7000F24F6A82F34FBDD9F44F6B82F54F6C821C
:10FD8000F64F6D82F74F6E82F84FBAD9F94F6F82F6
:10FD9000FA4FB3B0FB4F7082FC4F7182FD4F7282FD
:10FDA000FE4FC2D9FF4F738200507482015075829A
:10FDB000025076820350778204507882055079820F
:10FDC00006507A8207507B8208507C8209507D82DF
:10FDD0000A507E820B5080820C50C4D90D50B6B1AF
:10FDE0000E5081820F50BFD91050828211508382F1
:10FDF0001250B9B5135084821450F3BE1550858249
:10FE000016508682175087821850C8CC1950F2BA03
:10FE10001A50D0D21B5088821C50C3D91D508982E1
:10FE20001E508A821F50E8BD20508B822150ABB3F8
:10FE300022508C8223508D8224508E822550C5D929
:10FE40002650EBBE27508F822850C6D92950BBD9E7
:10FE50002A50DFC42B5090822C50BED92D50C1D9CE
:10FE60002E50C0D92F5091823050928231509382BF
:10FE70003250948233509582345096823550978216
:10FE8000365098823750998238509A8239509B82E6
:10FE90003A50AED53B509C823C50B5D63D509D82E9
:10FEA0003E50E3C73F509E8240509F824150A08207
:10FEB0004250A1824350C8D94450A2824550A382E7
:10FEC0004650A4824750D9BC4850CAD94950A5824F
:10FED0004A50A6824B50A7824C50BCD94D50A882A4
:10FEE0004E50CBD94F50ABC65050A9825150AA8228
:10FEF0005250AB825350AC825450AD825550C9D948
:10FF00005650AE825750AF825850B0825950B1828D
:10FF10005A50F6D75B50B2825C50A3CD5D50B3828D
:10FF20005E50B4825F50B5826050B6826150B78235
:10FF30006250B8826350B9826450BA826550A1BDE4
:10FF40006650BB826750BC826850BD826950BE82D9
:10FF50006A50BF826B50C0826C50CCD96D50C18248
:10FF60006E50C2826F50C3827050C4827150C5827D
:10FF70007250C6827350C7827450C8827550C9824D
:10FF80007650BCC57750B5CD7850CA827950CB82B7
:10FF90007A50CC827B50CDD97C50CD827D50CE82A0
:10FFA0007E50C7D97F50A5B38050FEBF8150CF820D
:10FFB0008250D0828350D1828450D2828550B5B88D
:10FFC0008650D3828750D4828850FCC08950D58215
:10FFD0008A50D6828B50D7828C50D8828D50F8B000
:10FFE0008E50D9828F50DA829050DB829150DC8221
:10FFF0009250DD829350DE829450DF829550E082F1
:020000040803EF
:100000009650E1829750E2829850E3829950E482C0
:100010009A50E5829B50E6829C50E7829D50E88290
:100020009E50E9829F50EA82A050EB82A150EC8260
:10003000A250ED82A350F6B4A450EE82A550CED9C2
:10004000A650EF82A750CFD9A850A2B4A950D0D9BA
:10005000AA50F082AB50F182AC50DFB4AD50F282C6
:10006000AE50F382AF50F482B050F582B150F682B8
:10007000B250C1B0B350F782B450F882B550F98293
:10008000B650FA82B750FB82B850FC82B950FD825C
:10009000BA50D1D9BB50B5C9BC50FE82BD504083C7
:1000A000BE504183BF504283C0504383C1504483FC
:1000B000C2504583C3504683C4504783C5504883CC
:1000C000C6504983C7504A83C8504B83C9504C839C
:1000D000CA504D83CB504E83CC504F83CD5050836C
:1000E000CE505183CF50F1CFD0505283D150538353
:1000F000D2505483D3505583D4505683D550578310
:10010000D650D2D9D7505883D8505983D9505A8312
:10011000DA50C5C1DB505B83DC505C83DD505D830E
:10012000DE505E83DF505F83E0506083E150618387
:10013000E2506283E3506383E4506483E550658357
:10014000E650D6D9E750AEC9E8506683E9506783D8
:10015000EA506883EB506983EC50D5D9ED50D4D97F
:10016000EE50D7D9EF506A83F0506B83F1506C8317
:10017000F2506D83F350DBCBF4506E83F550A9BD84
:10018000F6506F83F7507083F8507183F950728383
:10019000FA507383FB50A7C6FC507483FD507583DF
:1001A000FE507683FF507783005178830151798325
:1001B00002517A8303517B8304517C8305517D83F3
:1001C0000651D3D90751D8D908517E83095180836C
:1001D0000A5181830B51D9D90C5182830D518383EC
:1001E0000E5184830F51858310518683115187836B
:1001F0001251E5C8135188831451898315518A839C
:1002000016518B8317518C8318518D8319518E830E
:100210001A518F831B5190831C5191831D519283DE
:100220001E5193831F519483205195832151DCC02B
:100230002251968323519783245198832551998382
:1002400026519A8327519B8328519C8329519D8352
:100250002A519E832B519F832C51A0832D51A18322
:100260002E51A2832F51A3833051A4833151A583F2
:100270003251A6833351A7833451A8833551A983C2
:100280003651AA833751AB833851AC833951AD8392
:100290003A51AE833B51AF833C51B0833D51B18362
:1002A0003E51B2833F51F9B64051A3D84151CAD40F
:1002B0004251B3834351AAD44451D6D04551E4B3FB
:1002C0004651D7D54751B4834851C8CF4951E2B9B7
:1002D0004A51B5834B51CBBF4C51B6834D51E2C30C
:1002E0004E51B7834F51B8835051B9835151D2B653
:1002F0005251BA835351BB835451C3CD5551EED99A
:100300005651F0D95751BC835851BD835951BE83C2
:100310005A51B3B55B51BF835C51B5B65D51C083D3
:100320005E51C1835F51C2836051C3836151C483F5
:100330006251A4BE6351C5836451C6836551EBC845
:100340006651C7836751C8836851ABC86951C98377
:100350006A51CA836B51CBB06C51ABB96D51F9C1C5
:100360006E51E2D96F51CB837051BCC07151B2B99B
:100370007251CC837351D8B97451CBD07551F8B147
:100380007651E4C67751DFBE7851E4B57951C8D7CC
:100390007A51CD837B51F8D17C51E6BC7D51DECAC8
:1003A0007E51CE837F51CF838051BDBC8151E6D930
:1003B0008251E7D88351D0838451D1838551DAC4E7
:1003C0008651D2838751D3838851D4B88951BDC80F
:1003D0008A51D4838B51D5838C51E1B28D51D9D4BC
:1003E0008E51D6838F51D7839051D8839151D98321
:1003F0009251B0C39351DA839451DB839551E1C399
:100400009651A2DA9751DFC89851DC839951B4D044
:100410009A51DD839B51FCBE9C51A9C59D51DE8341
:100420009E51DF839F51E083A051DAB9A151E1834E
:10043000A251A3DAA351E283A451A9D4A551A4DA0D
:10044000A651E383A751E483A851E583A951E6832C
:10045000AA51E783AB51FBD9AC51ACB6AD51E8839F
:10046000AE51E983AF51EBB7B051F9B1B151FCD9FD
:10047000B251E5B3B351F6BEB451EA83B551F6BFFC
:10048000B651B1D2B751E4C0B851EB83B951EC8346
:10049000BA51ED83BB51B3B6BC51FED9BD51FDD9A4
:1004A000BE51EE83BF51EF83C051BBBEC151F0833B
:1004B000C251F183C351F283C451E0C6C551F383E5
:1004C000C651BCD7C751A1DAC851F483C951B9C1CB
:1004D000CA51F583CB51F2B5CC51E8C1CD51F68369
:1004E000CE51F783CF51F5BCD051F883D151D5B45B
:1004F000D251F983D351FA83D451FB83D551FC8374
:10050000D651FD83D751FE83D8514084D9514184BF
:10051000DA514284DB51DDC1DC514384DD51FDC43D
:10052000DE514484DF514584E051B8BCE151B2B79B
:10053000E2514684E3514784E451EFB7E5514884E2
:10054000E6514984E7514A84E8514B84E9514C848F
:10055000EA514D84EB51ECD9EC514E84ED51BEC6BD
:10056000EE514F84EF51ADBFF051CBBBF1515084F0
:10057000F2515184F351CAB5F4515284F551C9DB9B
:10058000F651D7D0F7515384F851B9CDF951BCB0D9
:10059000FA51F6B3FB51F7BBFC51CADBFD51AFBAC0
:1005A000FE515484FF51E4D40052B6B50152F3B564
:1005B0000252D6D80352D0C80452558405525684EC
:1005C0000652D6B70752D0C70852D7D80952578417
:1005D0000A52AFBF0B5258840C5259840D52BBDBE8
:1005E0000E52D8D80F525A8410525B841152CCD07C
:1005F0001252AEBB13525C8414525D8415525E8459
:100600001652BEEB1752D0C11852F5C11952F2D48E
:100610001A52D5B81B52B4B41C525F841D52F5B3A4
:100620001E5260841F5261842052BEC921526284CE
:1006300022526384235264842452D0C52552658497
:1006400026526684275267842852D9C52952FBC096
:100650002A5268842B52F0B12C5269842D52D9D879
:100660002E52CEB92F526A843052BDB531526B84AE
:1006700032526C843352DAD834526D8435526E84DF
:100680003652C6D63752A2CB3852AFC83952B2C949
:100690003A52CCB43B52CCBF3C526F843D52F4B979
:1006A0003E5270843F52DBD84052DCD84152E7B60C
:1006B0004252C1BC4352EACC4452718445527284C6
:1006C00046527384475274844852758449527684E2
:1006D0004A52F7CF4B5277844C52DDD84D52B0C7B7
:1006E0004E5278844F5279845052D0B95152A3BDA2
:1006F00052527A8453527B845452DECC55527C84BD
:100700005652CAC657527D8458527E8459528084AC
:100710005A5281845B5282845C52E0D85D52838459
:100720005E52DED85F528484605285846152DFD885
:100730006252868463528784645288846552FEB014
:10074000665289846752E7BE68528A846952A3CA96
:100750006A52F4BC6B528B846C528C846D528D84C3
:100760006E528E846F52B1B870528F8471529084E1
:100770007252EEB87352918474529284755293847B
:1007800076529484775295847852968479529784DD
:100790007A5298847B5299847C529A847D52E2D812
:1007A0007E529B847F52CBBD80529C848152E4D880
:1007B0008252E3D883529D8484529E8485529F84C2
:1007C0008652A0848752A1848852FCC58952A28493
:1007D0008A52A3848B52A4848C52A5848D52A68401
:1007E0008E52A7848F52A8849052E5D89152A98442
:1007F0009252AA849352E6D89452AB849552AC8418
:100800009652AD849752AE849852AF849952B08478
:100810009A52B1849B52A6C19C52B2849D52B0C8D8
:100820009E52ECB09F52A6B9A052D3BCA152F1CEB9
:10083000A252BDDBA352D3C1A452B384A552B48447
:10084000A652B584A752B684A852AFB6A952FAD61A
:10085000AA52ACC5AB52D9BDAC52BEDBAD52BFDB68
:10086000AE52B784AF52B884B052B984B152F8C016
:10087000B252A2BEB352CDC0B452BA84B552BB84F8
:10088000B652BC84B752BD84B852BE84B952BF843C
:10089000BA52C084BB52C184BC52C284BD52C3840C
:1008A000BE52C0DBBF52C6CAC052C484C152C58446
:1008B000C252C684C352AAB2C452C784C552C884A5
:1008C000C652C984C752C2D3C852CA84C952E3C3EC
:1008D000CA52CB84CB52ABD1CC52CC84CD52CD8436
:1008E000CE52CE84CF52CF84D052C2DBD152D084EC
:1008F000D252D5C0D352D184D452D284D552D384CB
:10090000D652C3DBD752D484D852B1BFD952D58482
:10091000DA52D684DB52D784DC52D884DD52D984B3
:10092000DE52DA84DF52BCC4E052DB84E152DC8464
:10093000E252DD84E352DE84E452DAC7E552DF841A
:10094000E652E084E752E184E852E284E952E3842B
:10095000EA52E484EB52E584EC52E684ED52E784FB
:10096000EE52E884EF52E984F052C4DBF152EA849B
:10097000F252EB84F352EC84F452ED84F552EE849F
:10098000F652EF84F752F084F852F184F952E8D924
:10099000FA52D7C9FB52F284FC52F384FD52F4841C
:1009A000FE52B4B9FF52F0CE0053C8D40153F584BF
:1009B0000253F6840353F7840453F8840553FCB0C0
:1009C0000653D2B40753F9840853D9D00953FA8493
:1009D0000A53FB840B53FC840C53FD840D53E9D95B
:1009E0000E53FE840F53CBDE1053EBD911534085C9
:1009F0001253418513534285145343851553B0D880
:100A00001653AFBB1753B1B1185344851953D7B31D
:100A10001A53CED81B5345851C5346851D53D1D43C
:100A20001E5347851F5348852053B3BD2153EFBF45
:100A3000225349852353BBCF24534A8525534B85E5
:100A40002653D0D827534C8528534D8529534E859E
:100A50002A53CBB72B534F852C5350852D5351859B
:100A60002E53D1D82F53528530535385315354854B
:100A700032535585335356853453578535535885EE
:100A80003653598537535A8538535B853953A5C634
:100A90003A53F8C73B53BDD23C535C853D535D850B
:100AA0003E53D2D83F53E4C440535E854153AECA4F
:100AB00042535F854353A7C7445360854553A6D827
:100AC000465361854753FDC94853E7CE4953DCBBC4
:100AD0004A53EBB04B5362854C5363854D53648549
:100AE0004E53AABB4F53ADD0505365855153B0B14F
:100AF0005253E4D75353BFD7545366855553A5B5C6
:100B00005653F4C25753CFC4585367855953688519
:100B10005A53A9B25B5369855C53B7B25D536A857A
:100B20005E53E5B15F53B2DF6053BCD56153A8BFDC
:100B30006253ACC26353D5D86453B1C265536B855D
:100B40006653D4D86753D4CE68536C856953E0DAC2
:100B50006A536D856B53C0CE6C536E856D536F8534
:100B60006E53B4D86F53AEC37053A1D37153A3CE99
:100B7000725370857353B4BC7453B4C87553D1C2E7
:100B8000765371857753EDBE7853B6D0795372851D
:100B90007A53E1DA7B5373857C5374857D53758575
:100BA0007E5376857F53E4C780537785815378855C
:100BB0008253A7B3835379858453F2B68553FCCC13
:100BC0008653FAC087537A8588537B858953F7C04B
:100BD0008A537C858B53B9D18C53E1D18D53C7D8BF
:100BE0008E537D858F537E8590538085915381856B
:100BF0009253828593538385945384859553DEB2B3
:100C000096538585975386859853E5C09953878574
:100C10009A53F1BA9B5388859C5389859D53C8D8B4
:100C20009E538A859F53ADD4A0538B85A1538C8549
:100C3000A253E1CFA353C9D8A4538D85A553CAD8D5
:100C4000A653C3CFA7538E85A853F8B3A953C7BEE5
:100C5000AA538F85AB539085AC539185AD53928544
:100C6000AE53CBD8AF539385B0539485B15395858C
:100C7000B2539685B3539785B4539885B5539985E8
:100C8000B653CCDBB7539A85B8539B85B9539C8533
:100C9000BA539D85BB53A5C8BC539E85BD539F8544
:100CA000BE53A085BF53D8CFC053A185C153FEC842
:100CB000C253CEB2C353A285C453A385C553A485E2
:100CC000C653A585C753A685C853D6D3C953E6B224
:100CD000CA53B0BCCB53D1D3CC53ABCBCD53B4B7A9
:100CE000CE53A785CF53A885D053A985D153A2B79A
:100CF000D253AA85D353AB85D453E5CAD553AC851B
:100D0000D653A1C8D753DCCAD853E4B1D953F0D0D5
:100D1000DA53AD85DB53D1C5DC53AE85DD53AF85EA
:100D2000DE53B085DF53C5DBE053FEB5E153B1853B
:100D3000E253B285E353DABFE453C5B9E553E4BEE9
:100D4000E653EDC1E753B385E853B6DFE953B5DFAA
:100D5000EA53BBD6EB53D0BDEC53D9D5ED53C8B055
:100D6000EE53A3B6EF53C9BFF053A8CCF153B3DF92
:100D7000F253B7CAF353D2D3F453B485F553CFD853
:100D8000F653B6D2F753C5BAF853BECBF953BECC1F
:100D9000FA53B585FB53B7DFFC53F0B5FD53B4DF11
:100DA000FE53B685FF53B7850054B8850154F5D37B
:100DB0000254B9850354D4B30454F7B80554BA8522
:100DC0000654BADF0754BB850854CFBA0954AABCED
:100DD0000A54F5B50B54BC850C54ACCD0D54FBC373
:100DE0000E54F3BA0F54F4C01054C2CD1154F2CFC4
:100DF0001254B8DF1354C5CF1454BD851554C0C266
:100E00001654B9DF1754F0C21854BE851954BF8563
:100E10001A54C0851B54FDBE1C54C1851D54DFC12E
:100E20001E54CCCD1F54F7D22054CDB72154C1DF6E
:100E30002254C2852354C4DF2454C3852554C48559
:100E40002654F1B72754C9B02854D6B62954D4B77C
:100E50002A54C5852B54ACBA2C54FDCC2D54D4BF88
:100E60002E54B1CB2F54F4C63054C6853154A8D675
:100E70003254C5DF3354C7853454E2CE3554B3B34E
:100E80003654C8853754C9853854FCCE3954B5B466
:100E90003A54CA853B54C7CE3C54F0BA3D54CB8536
:100EA0003E54E1CE3F54CC854054BDD14154CD8514
:100EB0004254CE854354C0DF4454CF854554D08539
:100EC0004654F4B44754D1854854CAB34954D285E2
:100ED0004A54E6B84B54BBDF4C54D3854D54D485AB
:100EE0004E54D5854F54D6855054C5C45154D785DA
:100EF0005254BCDF5354BDDF5454BEDF5554BBC500
:100F00005654BFDF5754C2DF5854B1D45954C3DFCD
:100F10005A54D8855B54BAC75C54D8CE5D54D98531
:100F20005E54DA855F54DB856054DC856154DD8571
:100F30006254D8C46354DE856454CADF6554DF85C7
:100F40006654CFDF6754E0856854DCD66954E18588
:100F50006A54E2856B54E3856C54E4856D54E585F1
:100F60006E54E6856F54E7857054E8857154C9DF87
:100F70007254DADF7354B6CE7454E9857554C7BA27
:100F80007654CEDF7754C8DF7854DEC57954EA85CD
:100F90007A54EB857B54EBC97C54F4BA7D54FCC382
:100FA0007E54EC857F54ED858054D7BE8154EE8508
:100FB0008254C6DF8354EF858454CDDF8554F08599
:100FC0008654D8C58754F1858854F2858954F385B1
:100FD0008A54F4858B54A6D58C54CDBA8D54F5859E
:100FE0008E54CCBE8F54BDD39054C0B89154F68566
:100FF0009254E4D69354F7859454C7DF9554BEB900
:101000009654A7BF9754F8859854F9859954FCC114
:101010009A54CBDF9B54CCDF9C54FA859D54D0DF8F
:101020009E54FB859F54FC85A054FD85A154FE85EC
:10103000A2544086A354DBDFA454E5DFA5544186C7
:10104000A654D7DFA754D6DFA854C9D7A954E3DFE5
:10105000AA54E4DFAB54EBE5AC54A7D2AD54D2DFD5
:10106000AE544286AF54A9BFB0544386B154DBD4CA
:10107000B2544486B354C8BFB454D4DFB554458683
:10108000B6544686B7544786B854CCCFB954488630
:10109000BA544986BB54DDDFBC544A86BD54CAD11C
:1010A000BE544B86BF54DEDFC054A7B0C154B7C690
:1010B000C254D3DFC3544C86C454E5BAC5544D86DC
:1010C000C654DFB6C754DBCDC854FEB9C954D5D415
:1010D000CA544E86CB544F86CC54DFDFCD54ECCF70
:1010E000CE54A5B0CF54E7DFD054D1DFD154C6D110
:1010F000D254D5DFD354D8DFD454D9DFD554DCDF74
:10110000D6545086D754A9BBD8545186D954E0DF61
:10111000DA54E1DFDB545286DC54E2DFDD54E6DFF3
:10112000DE54E8DFDF54B4D3E0545386E1545486F0
:10113000E2545586E3545686E4545786E554E7B89E
:10114000E654B6C5E754EADFE854DAC9E954A8C161
:10115000EA54C4C4EB545886EC545986ED54DEBFAF
:10116000EE54F8CFEF545A86F0545B86F1545C8607
:10117000F254DCD5F354EEDFF4545D86F5545E860C
:10118000F6545F86F7546086F8546186F954628697
:10119000FA54B8B2FB546386FC54DFBAFD54ECDF5A
:1011A000FE546486FF54C1DB005565860155E4D1C9
:1011B0000255668603556786045568860555698617
:1011C0000655F4CB0755BDB408556A860955A6B037
:1011D0000A556B860B556C860C556D860D556E86C3
:1011E0000E556F860F55F1DF1055C6CC1155F2DF45
:1011F00012557086135571861455EDDF155572869C
:101200001655738617557486185575861955768642
:101210001A5577861B55E9DF1C5578861D5579864A
:101220001E557A861F557B862055EBDF21557C861F
:101230002255EFDF2355F0DF2455BDBB25557D86B4
:1012400026557E862755F3DF2855808629558186C9
:101250002A55F4DF2B5582862C55A3BB2D5583864A
:101260002E55DBCA2F55A8CE3055A7E03155AAB36D
:10127000325584863355A6E03455858635558686A5
:10128000365587863755A1E0385588863955898681
:101290003A558A863B558B863C55FEDF3D558C86FC
:1012A0003E55D9CD3F55FCDF40558D864155FADF7F
:1012B00042558E864355D0BF4455C4D745558F8679
:1012C0004655CCC947559086485591864955F8DF13
:1012D0004A55A1B04B5592864C5593864D559486F0
:1012E0004E5595864F5596865055FDDF515597863C
:1012F000525598865355998654559A865555FBDF15
:101300005655A2E057559B8658559C8659559D8643
:101310005A559E865B559F865C55A8E05D55A08614
:101320005E55A1865F55A2866055A3866155C8B7F4
:101330006255A4866355A5866455A1C66555B6C990
:101340006655B2C06755F5DF6855A6866955A7860C
:101350006A55BEC56B55A8866C55C4D86D55F9DF66
:101360006E55F6C46F55A9867055AA867155AB8621
:101370007255AC867355AD867455AE867555A3E02F
:101380007655A4E07755A5E07855A5D07955AF8678
:101390007A55B0867B55B4E07C55E4CC7D55B1865A
:1013A0007E55B1E07F55B2868055A6BF8155AFE02E
:1013B0008255B9CE8355ABE08455C6C98555B386F1
:1013C0008655B4868755AEC08855AEE08955EDBACE
:1013D0008A55B0BA8B55A9E08C55B5868D55B68621
:1013E0008E55B7868F55F6DF9055B8869155B3E088
:1013F0009255B9869355BA869455B8E09555BB86F3
:101400009655BC869755BD869855ADB49955B9E0AB
:101410009A55BE869B55BF869C55B2CF9D55C8BA7E
:101420009E55C0869F55B0E0A055C186A155C28685
:10143000A255C386A355C486A455C586A555C686A0
:10144000A655C786A755FAD0A855C886A955C986F6
:10145000AA55CA86AB55CB86AC55CC86AD55CD8644
:10146000AE55CE86AF55CF86B055D086B155ACE0DF
:10147000B255D186B355FBD4B455D286B555F7DFF6
:10148000B655D386B755E7C5B855D486B955ADE03E
:10149000BA55D586BB55F7D3BC55D686BD55B6E0F3
:1014A000BE55B7E0BF55D786C055D886C155D98639
:1014B000C255DA86C355DB86C455C4E0C555E1D0B4
:1014C000C655DC86C755DD86C855DE86C955BCE0E5
:1014D000CA55DF86CB55E086CC55C9E0CD55CAE06C
:1014E000CE55E186CF55E286D055E386D155BEE094
:1014F000D255AAE0D355A4C9D455C1E0D555E48648
:10150000D655B2E0D755E586D855E686D955E78653
:10151000DA55E886DB55E986DC55C8CADD55C3E0F7
:10152000DE55EA86DF55B5E0E055EB86E155CBCEDA
:10153000E255EC86E355C3CBE455CDE0E555C6E076
:10154000E655C2E0E755ED86E855CBE0E955EE8675
:10155000EA55BAE0EB55BFE0EC55C0E0ED55EF863B
:10156000EE55F086EF55C5E0F055F186F155F2865F
:10157000F255C7E0F355C8E0F455F386F555CCE0D5
:10158000F655F486F755BBE0F855F586F955F6861D
:10159000FA55F786FB55F886FC55F986FD55D4CBF0
:1015A000FE55D5E0FF55FA860056D6E00156D2E04A
:1015B0000256FB860356FC860456FD860556FE86BB
:1015C00006564087075641870856D0E00956CEBCDC
:1015D0000A5642870B5643870C56D1E00D56448776
:1015E0000E56C2B80F56C5D81056458711564687B5
:1015F00012564787135648871456498715564A8707
:1016000016564B8717564C871856EAD019564D87F1
:101610001A564E871B56EFC21C564F871D565087D1
:101620001E56CFE01F56BDE02056518721565287E7
:10163000225653872356D4E02456D3E025565487A8
:10164000265655872756D7E0285656872956578756
:101650002A5658872B5659872C56DCE02D56D8E051
:101660002E565A872F565B8730565C873156F6D6F2
:101670003256B0B333565D873456ECD735565E8755
:101680003656BBCB37565F87385660873956DAE017
:101690003A5661873B56FBCE3C5662873D56638780
:1016A0003E5664873F56D9BA40566587415666878D
:1016B00042566787435668874456698745566A8706
:1016C00046566B8747566C8748566D8749566E87D6
:1016D0004A566F874B5670874C56E1E04D56DDE019
:1016E0004E56ADD24F5671875056728751567387FA
:1016F00052567487535675875456E2E0555676878E
:10170000565677875756DBE05856D9E05956DFE0F2
:101710005A5678875B5679875C56E0E05D567A8743
:101720005E567B875F567C8760567D8761567E87D5
:101730006256DEE0635680876456E4E06556818732
:1017400066568287675683876856F7C66956ACD84F
:101750006A56EBD46B56E6E06C56C9CA6D56848760
:101760006E5685876F568687705687877156E5E077
:10177000725688877356898774568A8775568B8701
:101780007656C1B877568C8778568D8779568E876E
:101790007A568F877B56E7E07C56E8E07D56908747
:1017A0007E5691877F56928780569387815694877D
:1017B0008256958783569687845697878556E9E0A3
:1017C0008656E3E0875698878856998789569A8780
:1017D0008A569B878B569C878C569D878D569E87F5
:1017E0008E56BFBA8F56E7CC90569F879156A087EA
:1017F0009256A1879356EAE09456A2879556A387FE
:101800009656A4879756A5879856A6879956A78770
:101810009A56A8879B56A9879C56AA879D56AB8740
:101820009E56AC879F56AD87A056AE87A156AF8710
:10183000A256B087A356F9CFA456B187A556B28752
:10184000A656B387A756B487A856B587A956B687B4
:10185000AA56B787AB56B887AC56B987AD56BA8784
:10186000AE56BB87AF56EBE0B056BC87B156BD87CE
:10187000B256BE87B356BF87B456C087B556C18728
:10188000B656C287B756C2C8B856C387B956C487BA
:10189000BA56C587BB56C687BC56C0BDBD56C7879E
:1018A000BE56C887BF56C987C056CA87C156CB87A0
:1018B000C256CC87C356CD87C456CE87C556CF8770
:1018C000C656D087C756D187C856D287C956D38740
:1018D000CA56D2C4CB56D487CC56D587CD56D687D8
:1018E000CE56D787CF56D887D056D987D156DA87E4
:1018F000D256DB87D356DC87D456ECE0D556DD874D
:10190000D656DE87D756EDE0D856DF87D956E08722
:10191000DA56F4C7DB56C4CBDC56E187DD56EEE081
:10192000DE56D8BBDF56B6D8E056F2D2E156EFE02D
:10193000E256C5CDE356E287E456DAB6E556E387CC
:10194000E656E487E756E587E856E687E956E787EF
:10195000EA56E887EB56F1E0EC56E987ED56B0D44D
:10196000EE56EA87EF56EB87F056A7C0F156D1B492
:10197000F256EC87F356ED87F456A7CEF556F0E015
:10198000F656EE87F756EF87F856F087F956F2E0ED
:10199000FA56CCB9FB56F187FC56F287FD56FAB9D8
:1019A000FE56BCCDFF56F3E00057F3870157F4878E
:1019B0000257F5870357D4C60457F4E00557F68756
:1019C0000657B2D40757F7870857A6C80957F6E055
:1019D0000A57F5E00B57F8870C57F9870D57FA8728
:1019E0000E57FB870F57FC871057FD871157FE874F
:1019F0001257408813574188145742881557438817
:101A000016574488175745881857468819574788E6
:101A10001A5748881B5749881C57F7E01D574A88B2
:101A20001E574B881F57C1CD20574C8821574D88D2
:101A300022574E882357A5CA24574F8825575088C8
:101A400026575188275752882857DAD42957D7DB89
:101A50002A57D9DB2B5753882C57D8DB2D57E7B99A
:101A60002E57DCDB2F57DDDB3057D8B53157548884
:101A7000325755883357DADB3457568835575788ED
:101A8000365758883757598838575A883957DBDBC3
:101A90003A57A1B33B57DFDB3C575B883D575C8827
:101AA0003E57F8BB3F575D884057B7D641575E88D1
:101AB0004257E0DB43575F88445760884557618849
:101AC000465762884757F9BE485763884957648824
:101AD0004A57BBB74B5765884C57D0DB4D57AECCF8
:101AE0004E57B2BF4F57B5BB5057F8D75157D3BF1A
:101AF000525766885357678854576888555769887E
:101B000056576A885757E9BF58576B8859576C889A
:101B10005A57E1BC5B57B3CC5C57DEDB5D57D3B0A3
:101B20005E57EBCE5F57D8B76057B9D76157C2C67B
:101B300062576D8863576E886457A4C065576F8875
:101B40006657B9CC675770886857E7DB6957E1DBA0
:101B50006A57BAC66B57E3DB6C5771886D57E8DB81
:101B60006E5772886F57F7C57057738871577488AE
:101B7000725775887357EADB74577688755777887C
:101B80007657E9DB7757C0BF7857788879577988D7
:101B90007A577A887B57E6DB7C57E5DB7D577B8875
:101BA0007E577C887F577D8880577E8881578088C4
:101BB0008257B9B48357ACC08457A2C28557E2DBC1
:101BC0008657E4DB875781888857828889578388BE
:101BD0008A5784888B57CDD08C57EDDB8D578588FD
:101BE0008E5786888F57878890578888915789881D
:101BF0009257DDC09357F2DB94578A8895578B88AC
